{
	"ReviveFactory.sol": {
		"MultiSigFactory": {
			"abi": [
				{
					"anonymous": false,
					"inputs": [
						{
							"indexed": true,
							"internalType": "address",
							"name": "creator",
							"type": "address"
						},
						{
							"indexed": true,
							"internalType": "address",
							"name": "multisig",
							"type": "address"
						},
						{
							"indexed": false,
							"internalType": "address[]",
							"name": "owners",
							"type": "address[]"
						},
						{
							"indexed": false,
							"internalType": "uint256",
							"name": "required",
							"type": "uint256"
						}
					],
					"name": "MultiSigCreated",
					"type": "event"
				},
				{
					"anonymous": false,
					"inputs": [
						{
							"indexed": true,
							"internalType": "address",
							"name": "registrant",
							"type": "address"
						},
						{
							"indexed": true,
							"internalType": "address",
							"name": "multisig",
							"type": "address"
						}
					],
					"name": "MultiSigRegistered",
					"type": "event"
				},
				{
					"inputs": [
						{
							"internalType": "uint256",
							"name": "",
							"type": "uint256"
						}
					],
					"name": "allMultiSigs",
					"outputs": [
						{
							"internalType": "address",
							"name": "",
							"type": "address"
						}
					],
					"stateMutability": "view",
					"type": "function"
				},
				{
					"inputs": [
						{
							"internalType": "address[]",
							"name": "owners",
							"type": "address[]"
						},
						{
							"internalType": "uint256",
							"name": "required",
							"type": "uint256"
						}
					],
					"name": "createMultiSig",
					"outputs": [
						{
							"internalType": "address",
							"name": "multisig",
							"type": "address"
						}
					],
					"stateMutability": "nonpayable",
					"type": "function"
				},
				{
					"inputs": [],
					"name": "getAllMultiSigs",
					"outputs": [
						{
							"internalType": "address[]",
							"name": "",
							"type": "address[]"
						}
					],
					"stateMutability": "view",
					"type": "function"
				},
				{
					"inputs": [
						{
							"internalType": "address",
							"name": "owner",
							"type": "address"
						}
					],
					"name": "getMyMultiSigs",
					"outputs": [
						{
							"internalType": "address[]",
							"name": "myMultisigs",
							"type": "address[]"
						}
					],
					"stateMutability": "view",
					"type": "function"
				},
				{
					"inputs": [
						{
							"internalType": "address",
							"name": "multisig",
							"type": "address"
						}
					],
					"name": "registerExistingMultisig",
					"outputs": [],
					"stateMutability": "nonpayable",
					"type": "function"
				}
			],
			"devdoc": {
				"details": "Anyone can call createMultiSig; all addresses are stored in `allMultiSigs`.",
				"events": {
					"MultiSigCreated(address,address,address[],uint256)": {
						"params": {
							"creator": "The address that called createMultiSig.",
							"multisig": "The newly deployed MultiSigWallet address.",
							"owners": "The list of owners for this new multisig.",
							"required": "The number of confirmations required."
						}
					},
					"MultiSigRegistered(address,address)": {
						"params": {
							"multisig": "The multisig address being registered.",
							"registrant": "The address that called registerExistingMultisig."
						}
					}
				},
				"kind": "dev",
				"methods": {
					"createMultiSig(address[],uint256)": {
						"params": {
							"owners": "An array of owner addresses for the multisig.",
							"required": "The number of confirmations required (must be >0 and <= owners.length)."
						},
						"returns": {
							"multisig": "The address of the newly deployed MultiSigWallet."
						}
					},
					"getAllMultiSigs()": {
						"returns": {
							"_0": "An array of addresses for all multisigs."
						}
					},
					"getMyMultiSigs(address)": {
						"params": {
							"owner": "The address to filter for."
						},
						"returns": {
							"myMultisigs": "An array of multisig addresses for which `isOwner(owner) == true`."
						}
					},
					"registerExistingMultisig(address)": {
						"params": {
							"multisig": "The address of the multisig to register."
						}
					}
				},
				"stateVariables": {
					"allMultiSigs": {
						"details": "All multisig addresses deployed by this factory."
					}
				},
				"title": "MultiSigFactory",
				"version": 1
			},
			"userdoc": {
				"events": {
					"MultiSigCreated(address,address,address[],uint256)": {
						"notice": "Emitted when a new MultiSigWallet is created."
					},
					"MultiSigRegistered(address,address)": {
						"notice": "Emitted when an existing MultiSigWallet is registered."
					}
				},
				"kind": "user",
				"methods": {
					"createMultiSig(address[],uint256)": {
						"notice": "Deploy a new MultiSigWallet and register its address."
					},
					"getAllMultiSigs()": {
						"notice": "Returns the total list of multisig addresses ever created by this factory."
					},
					"getMyMultiSigs(address)": {
						"notice": "Returns only those multisigs where `owner` is in the owners[] array."
					},
					"registerExistingMultisig(address)": {
						"notice": "Register a previously deployed multisig address."
					}
				},
				"notice": "A minimal factory that deploys new MultiSigWallets and keeps an on‐chain registry.",
				"version": 1
			},
			"storageLayout": {
				"storage": [
					{
						"astId": 19,
						"contract": "ReviveFactory.sol:MultiSigFactory",
						"label": "allMultiSigs",
						"offset": 0,
						"slot": "0",
						"type": "t_array(t_address)dyn_storage"
					}
				],
				"types": {
					"t_address": {
						"encoding": "inplace",
						"label": "address",
						"numberOfBytes": "20"
					},
					"t_array(t_address)dyn_storage": {
						"base": "t_address",
						"encoding": "dynamic_array",
						"label": "address[]",
						"numberOfBytes": "32"
					}
				}
			},
			"evm": {
				"assembly": "// RO data = 0/0 bytes\n// RW data = 64/65616 bytes\n// Stack size = 16384 bytes\n\n// Instructions = 11319\n// Code size = 35898 bytes\n\n      : @0 (gas: 2)\n     0: i32 a2 = a0 >> 0x10\n     3: jump @6 if a2 != 0\n      : @1 (gas: 2)\n     6: a2 = 0x10001\n    11: jump @6 if a1 >=u a2\n      : @2 (gas: 4)\n    14: a1 = a1 + a0\n    17: i32 a1 = a1 + 0x1f\n    20: a1 = a1 & 0xffffffffffffffe0\n    23: jump @7 if a1 >=u 65537\n      : @3 (gas: 2)\n    29: a3 = i32 [0x20040]\n    34: jump @5 if a3 >=u a1\n      : @4 (gas: 4)\n    37: u32 [0x20040] = a1\n    42: a1 = 0x20050\n    47: a0 = a0 + a1\n    50: ret\n      : @5 (gas: 3)\n    52: a1 = 0x20050\n    57: a0 = a0 + a1\n    60: ret\n      : @6 (gas: 1)\n    62: trap\n      : @7 (gas: 1)\n    63: trap\n      : @8 (gas: 13)\n    64: sp = sp + 0xffffffffffffffd8\n    67: u64 [sp + 0x20] = ra\n    70: u64 [sp + 0x18] = s0\n    73: u64 [sp + 0x10] = s1\n    76: a2 = u64 [a1]\n    78: u64 [sp + 0x8] = a2\n    81: a2 = u64 [a1 + 0x8]\n    84: u64 [sp] = a2\n    86: s0 = u64 [a1 + 0x10]\n    89: s1 = u64 [a1 + 0x18]\n    92: i32 a0 = a0 + 0\n    94: a1 = 0x20\n    97: ra = 2, jump @0\n      : @9 [@dyn 1] (gas: 71)\n   101: a1 = reverse s1\n   103: a2 = reverse s0\n   105: a3 = u64 [sp]\n   107: a3 = reverse a3\n   109: a4 = u64 [sp + 0x8]\n   112: a4 = reverse a4\n   114: u8 [a0 + 0x18] = a4\n   117: u8 [a0 + 0x10] = a3\n   120: u8 [a0 + 0x8] = a2\n   123: u8 [a0] = a1\n   125: a5 = a4 >> 0x38\n   128: u8 [a0 + 0x1f] = a5\n   131: a5 = a4 >> 0x30\n   134: u8 [a0 + 0x1e] = a5\n   137: a5 = a4 >> 0x28\n   140: u8 [a0 + 0x1d] = a5\n   143: a5 = a4 >> 0x20\n   146: u8 [a0 + 0x1c] = a5\n   149: a5 = a4 >> 0x18\n   152: u8 [a0 + 0x1b] = a5\n   155: a5 = a4 >> 0x10\n   158: u8 [a0 + 0x1a] = a5\n   161: a4 = a4 >> 0x8\n   164: u8 [a0 + 0x19] = a4\n   167: a4 = a3 >> 0x38\n   170: u8 [a0 + 0x17] = a4\n   173: a4 = a3 >> 0x30\n   176: u8 [a0 + 0x16] = a4\n   179: a4 = a3 >> 0x28\n   182: u8 [a0 + 0x15] = a4\n   185: a4 = a3 >> 0x20\n   188: u8 [a0 + 0x14] = a4\n   191: a4 = a3 >> 0x18\n   194: u8 [a0 + 0x13] = a4\n   197: a4 = a3 >> 0x10\n   200: u8 [a0 + 0x12] = a4\n   203: a3 = a3 >> 0x8\n   206: u8 [a0 + 0x11] = a3\n   209: a3 = a2 >> 0x38\n   212: u8 [a0 + 0xf] = a3\n   215: a3 = a2 >> 0x30\n   218: u8 [a0 + 0xe] = a3\n   221: a3 = a2 >> 0x28\n   224: u8 [a0 + 0xd] = a3\n   227: a3 = a2 >> 0x20\n   230: u8 [a0 + 0xc] = a3\n   233: a3 = a2 >> 0x18\n   236: u8 [a0 + 0xb] = a3\n   239: a3 = a2 >> 0x10\n   242: u8 [a0 + 0xa] = a3\n   245: a2 = a2 >> 0x8\n   248: u8 [a0 + 0x9] = a2\n   251: a2 = a1 >> 0x38\n   254: u8 [a0 + 0x7] = a2\n   257: a2 = a1 >> 0x30\n   260: u8 [a0 + 0x6] = a2\n   263: a2 = a1 >> 0x28\n   266: u8 [a0 + 0x5] = a2\n   269: a2 = a1 >> 0x20\n   272: u8 [a0 + 0x4] = a2\n   275: a2 = a1 >> 0x18\n   278: u8 [a0 + 0x3] = a2\n   281: a2 = a1 >> 0x10\n   284: u8 [a0 + 0x2] = a2\n   287: a1 = a1 >> 0x8\n   290: u8 [a0 + 0x1] = a1\n   293: ra = u64 [sp + 0x20]\n   296: s0 = u64 [sp + 0x18]\n   299: s1 = u64 [sp + 0x10]\n   302: sp = sp + 0x28\n   305: ret\n      : @10 (gas: 6)\n   307: sp = sp + 0xfffffffffffffff0\n   310: u64 [sp + 0x8] = ra\n   313: u64 [sp] = s0\n   315: s0 = a0 & 0x1\n   318: ecalli 4 // 'call_data_size'\n   320: fallthrough\n      : @11 (gas: 2)\n   321: u32 [0x20044] = a0\n   326: jump @13 if s0 == 0\n      : @12 (gas: 1)\n   329: ra = 4, jump @14\n      : @13 [@dyn 2] (gas: 1)\n   333: ra = 6, jump @28\n      : @14 [@dyn 3] (gas: 9)\n   338: sp = sp + 0xffffffffffffffc0\n   341: u64 [sp + 0x38] = ra\n   344: u64 [sp + 0x30] = s0\n   347: u64 [sp + 0x28] = s1\n   350: s0 = sp + 0x40\n   353: sp = sp & 0xffffffffffffffe0\n   356: a0 = 0x40\n   359: a1 = 0x20\n   362: ra = 8, jump @0\n      : @15 [@dyn 4] (gas: 39)\n   367: u8 [a0 + 31] = 0x80\n   372: u8 [a0 + 30] = 0\n   375: u8 [a0 + 29] = 0\n   378: u8 [a0 + 28] = 0\n   381: u8 [a0 + 27] = 0\n   384: u8 [a0 + 26] = 0\n   387: u8 [a0 + 25] = 0\n   390: u8 [a0 + 24] = 0\n   393: u8 [a0 + 23] = 0\n   396: u8 [a0 + 22] = 0\n   399: u8 [a0 + 21] = 0\n   402: u8 [a0 + 20] = 0\n   405: u8 [a0 + 19] = 0\n   408: u8 [a0 + 18] = 0\n   411: u8 [a0 + 17] = 0\n   414: u8 [a0 + 16] = 0\n   417: u8 [a0 + 15] = 0\n   420: u8 [a0 + 14] = 0\n   423: u8 [a0 + 13] = 0\n   426: u8 [a0 + 12] = 0\n   429: u8 [a0 + 11] = 0\n   432: u8 [a0 + 10] = 0\n   435: u8 [a0 + 9] = 0\n   438: u8 [a0 + 8] = 0\n   441: u8 [a0 + 7] = 0\n   444: u8 [a0 + 6] = 0\n   447: u8 [a0 + 5] = 0\n   450: u8 [a0 + 4] = 0\n   453: u8 [a0 + 3] = 0\n   456: u8 [a0 + 2] = 0\n   459: u8 [a0 + 1] = 0\n   462: u8 [a0 + 0] = 0\n   464: u64 [sp + 24] = 0\n   467: u64 [sp + 0] = 0\n   469: u64 [sp + 8] = 0\n   472: u64 [sp + 16] = 0\n   475: i32 a0 = sp + 0\n   477: ecalli 16 // 'value_transferred'\n   479: fallthrough\n      : @16 (gas: 8)\n   480: a0 = u64 [sp + 0x10]\n   483: a1 = u64 [sp + 0x18]\n   486: a2 = u64 [sp + 0x8]\n   489: a3 = u64 [sp]\n   491: a1 = a1 | a2\n   494: a0 = a0 | a3\n   497: a0 = a0 | a1\n   500: jump @20 if a0 != 0\n      : @17 (gas: 3)\n   504: a0 = 0x40\n   507: a1 = 0x20\n   510: ra = 10, jump @0\n      : @18 [@dyn 5] (gas: 100)\n   515: a1 = u8 [a0 + 0x11]\n   518: a2 = u8 [a0 + 0x10]\n   521: a3 = u8 [a0 + 0x12]\n   524: a4 = u8 [a0 + 0x13]\n   527: a1 = a1 << 0x8\n   530: a1 = a1 | a2\n   533: a3 = a3 << 0x10\n   536: a4 = a4 << 0x18\n   539: a3 = a3 | a4\n   542: a1 = a1 | a3\n   545: a2 = u8 [a0 + 0x15]\n   548: a3 = u8 [a0 + 0x14]\n   551: a4 = u8 [a0 + 0x16]\n   554: a5 = u8 [a0 + 0x17]\n   557: a2 = a2 << 0x8\n   560: a2 = a2 | a3\n   563: a4 = a4 << 0x10\n   566: a5 = a5 << 0x18\n   569: a4 = a4 | a5\n   572: a2 = a2 | a4\n   575: a2 = a2 << 0x20\n   578: t0 = a2 | a1\n   581: a2 = u8 [a0 + 0x1]\n   584: a3 = u8 [a0]\n   586: a4 = u8 [a0 + 0x2]\n   589: a5 = u8 [a0 + 0x3]\n   592: a2 = a2 << 0x8\n   595: a2 = a2 | a3\n   598: a4 = a4 << 0x10\n   601: a5 = a5 << 0x18\n   604: a4 = a4 | a5\n   607: a2 = a2 | a4\n   610: a3 = u8 [a0 + 0x5]\n   613: a4 = u8 [a0 + 0x4]\n   616: a5 = u8 [a0 + 0x6]\n   619: s1 = u8 [a0 + 0x7]\n   622: a3 = a3 << 0x8\n   625: a3 = a3 | a4\n   628: a5 = a5 << 0x10\n   631: s1 = s1 << 0x18\n   634: a5 = a5 | s1\n   637: a3 = a3 | a5\n   640: a3 = a3 << 0x20\n   643: a2 = a2 | a3\n   646: a3 = u8 [a0 + 0x19]\n   649: a4 = u8 [a0 + 0x18]\n   652: a5 = u8 [a0 + 0x1a]\n   655: s1 = u8 [a0 + 0x1b]\n   658: a3 = a3 << 0x8\n   661: a3 = a3 | a4\n   664: a5 = a5 << 0x10\n   667: s1 = s1 << 0x18\n   670: a5 = a5 | s1\n   673: a3 = a3 | a5\n   676: a4 = u8 [a0 + 0x1d]\n   679: a5 = u8 [a0 + 0x1c]\n   682: s1 = u8 [a0 + 0x1e]\n   685: a1 = u8 [a0 + 0x1f]\n   688: a4 = a4 << 0x8\n   691: a4 = a4 | a5\n   694: s1 = s1 << 0x10\n   697: a1 = a1 << 0x18\n   700: a1 = a1 | s1\n   703: a1 = a1 | a4\n   706: a1 = a1 << 0x20\n   709: a3 = a3 | a1\n   712: a1 = u8 [a0 + 0x9]\n   715: a4 = u8 [a0 + 0x8]\n   718: a5 = u8 [a0 + 0xa]\n   721: s1 = u8 [a0 + 0xb]\n   724: a1 = a1 << 0x8\n   727: a1 = a1 | a4\n   730: a5 = a5 << 0x10\n   733: s1 = s1 << 0x18\n   736: a5 = a5 | s1\n   739: a1 = a1 | a5\n   742: a4 = u8 [a0 + 0xd]\n   745: a5 = u8 [a0 + 0xc]\n   748: s1 = u8 [a0 + 0xe]\n   751: a0 = u8 [a0 + 0xf]\n   754: a4 = a4 << 0x8\n   757: a4 = a4 | a5\n   760: s1 = s1 << 0x10\n   763: a0 = a0 << 0x18\n   766: a0 = a0 | s1\n   769: a0 = a0 | a4\n   772: a0 = a0 << 0x20\n   775: a0 = a0 | a1\n   778: a0 = reverse a0\n   780: s1 = reverse a3\n   782: a1 = reverse a2\n   784: a2 = reverse t0\n   786: a1 = a1 | a2\n   789: a2 = s1 | a0\n   792: a2 = a2 | a1\n   795: a2 = a2 >> 0x20\n   798: a0 = a0 | a1\n   801: a0 = a0 << 0x20\n   804: a0 = a0 | a2\n   807: jump @22 if a0 == 0\n      : @19 (gas: 1)\n   810: trap\n      : @20 (gas: 3)\n   811: a0 = 0\n   813: a1 = 0\n   815: ra = 12, jump @0\n      : @21 [@dyn 6] (gas: 5)\n   820: i32 a1 = a0 + 0\n   822: a0 = 0x1\n   825: a2 = 0\n   827: ecalli 13 // 'seal_return'\n   829: fallthrough\n      : @22 (gas: 4)\n   830: i32 s1 = s1 + 0\n   832: a0 = s1\n   834: a1 = 0\n   836: ra = 14, jump @0\n      : @23 [@dyn 7] (gas: 5)\n   841: i32 a0 = a0 + 0\n   843: a1 = 0\n   845: a2 = 0\n   847: ecalli 2 // 'call_data_copy'\n   849: fallthrough\n      : @24 (gas: 2)\n   850: a1 = i32 [0x20048]\n   855: jump @26 if a1 == 0\n      : @25 (gas: 4)\n   858: a0 = 0x30050\n   863: i32 a0 = a0 + 0\n   865: ecalli 14 // 'set_immutable_data'\n   867: fallthrough\n      : @26 (gas: 3)\n   868: a0 = s1\n   870: a1 = 0\n   872: ra = 16, jump @0\n      : @27 [@dyn 8] (gas: 6)\n   877: i32 a1 = a0 + 0\n   879: a0 = 0\n   881: a2 = 0\n   883: ra = 0x12\n   886: ecalli 13 // 'seal_return'\n   888: fallthrough\n      : @28 [@dyn 9] (gas: 8)\n   889: sp = sp + 0xffffffffffffffc0\n   892: u64 [sp + 0x38] = ra\n   895: u64 [sp + 0x30] = s0\n   898: s0 = sp + 0x40\n   901: sp = sp & 0xffffffffffffffe0\n   904: a0 = 0x40\n   907: a1 = 0x20\n   910: ra = 20, jump @0\n      : @29 [@dyn 10] (gas: 34)\n   915: u8 [a0 + 31] = 0x80\n   920: u8 [a0 + 30] = 0\n   923: u8 [a0 + 29] = 0\n   926: u8 [a0 + 28] = 0\n   929: u8 [a0 + 27] = 0\n   932: u8 [a0 + 26] = 0\n   935: u8 [a0 + 25] = 0\n   938: u8 [a0 + 24] = 0\n   941: u8 [a0 + 23] = 0\n   944: u8 [a0 + 22] = 0\n   947: u8 [a0 + 21] = 0\n   950: u8 [a0 + 20] = 0\n   953: u8 [a0 + 19] = 0\n   956: u8 [a0 + 18] = 0\n   959: u8 [a0 + 17] = 0\n   962: u8 [a0 + 16] = 0\n   965: u8 [a0 + 15] = 0\n   968: u8 [a0 + 14] = 0\n   971: u8 [a0 + 13] = 0\n   974: u8 [a0 + 12] = 0\n   977: u8 [a0 + 11] = 0\n   980: u8 [a0 + 10] = 0\n   983: u8 [a0 + 9] = 0\n   986: u8 [a0 + 8] = 0\n   989: u8 [a0 + 7] = 0\n   992: u8 [a0 + 3] = 0\n   995: u8 [a0 + 2] = 0\n   998: u8 [a0 + 1] = 0\n  1001: u8 [a0 + 0] = 0\n  1003: a1 = i32 [0x20044]\n  1008: u8 [a0 + 6] = 0\n  1011: u8 [a0 + 5] = 0\n  1014: u8 [a0 + 4] = 0\n  1017: jump @39 if a1 <u 4\n      : @30 (gas: 4)\n  1021: i32 a0 = sp + 0\n  1023: a1 = 0\n  1025: ecalli 3 // 'call_data_load'\n  1027: fallthrough\n      : @31 (gas: 2)\n  1028: a0 = i32 [sp + 0x1c]\n  1031: jump @36 if a0 <=s 229566734\n      : @32 (gas: 1)\n  1038: jump @40 if a0 == 229566735\n      : @33 (gas: 1)\n  1045: jump @41 if a0 == 942338382\n      : @34 (gas: 1)\n  1052: jump @39 if a0 != 1150325448\n      : @35 (gas: 14)\n  1059: ra = 0x16\n  1062: sp = sp + 0xffffffffffffff40\n  1066: u64 [sp + 0xb8] = ra\n  1070: u64 [sp + 0xb0] = s0\n  1074: u64 [sp + 0xa8] = s1\n  1078: s0 = sp + 0xc0\n  1082: sp = sp & 0xffffffffffffffe0\n  1085: u64 [sp + 120] = 0\n  1088: u64 [sp + 112] = 0\n  1091: u64 [sp + 104] = 0\n  1094: u64 [sp + 96] = 0\n  1097: i32 a0 = sp + 0x60\n  1100: ecalli 16 // 'value_transferred'\n  1102: jump @109\n      : @36 [@dyn 11] (gas: 1)\n  1105: jump @42 if a0 == 2188689256\n      : @37 (gas: 1)\n  1112: jump @39 if a0 != 3563719153\n      : @38 (gas: 1)\n  1119: ra = 24, jump @191\n      : @39 [@dyn 12] (gas: 1)\n  1124: ra = 26, jump @138\n      : @40 [@dyn 13] (gas: 13)\n  1129: ra = 0x1c\n  1132: sp = sp + 0xffffffffffffff80\n  1135: u64 [sp + 0x78] = ra\n  1138: u64 [sp + 0x70] = s0\n  1141: s0 = sp + 0x80\n  1145: sp = sp & 0xffffffffffffffe0\n  1148: u64 [sp + 56] = 0\n  1151: u64 [sp + 48] = 0\n  1154: u64 [sp + 40] = 0\n  1157: u64 [sp + 32] = 0\n  1160: i32 a0 = sp + 0x20\n  1163: ecalli 16 // 'value_transferred'\n  1165: jump @45\n      : @41 [@dyn 14] (gas: 14)\n  1168: ra = 0x1e\n  1171: sp = sp + 0xfffffffffffffea0\n  1175: u64 [sp + 0x158] = ra\n  1179: u64 [sp + 0x150] = s0\n  1183: u64 [sp + 0x148] = s1\n  1187: s0 = sp + 0x160\n  1191: sp = sp & 0xffffffffffffffe0\n  1194: u64 [sp + 280] = 0\n  1198: u64 [sp + 272] = 0\n  1202: u64 [sp + 264] = 0\n  1206: u64 [sp + 256] = 0\n  1210: i32 a0 = sp + 0x100\n  1214: ecalli 16 // 'value_transferred'\n  1216: jump @74\n      : @42 [@dyn 15] (gas: 1)\n  1219: ra = 32, jump @124\n      : @43 [@dyn 16] (gas: 7)\n  1224: sp = sp + 0xfffffffffffffff0\n  1227: u64 [sp + 0x8] = ra\n  1230: u64 [sp] = s0\n  1232: s0 = a0\n  1234: a0 = 0x40\n  1237: a1 = 0x20\n  1240: ra = 34, jump @0\n      : @44 [@dyn 17] (gas: 100)\n  1245: a1 = u8 [a0 + 0x1]\n  1248: a2 = u8 [a0]\n  1250: a3 = u8 [a0 + 0x2]\n  1253: a4 = u8 [a0 + 0x3]\n  1256: a1 = a1 << 0x8\n  1259: a1 = a1 | a2\n  1262: a3 = a3 << 0x10\n  1265: a4 = a4 << 0x18\n  1268: a3 = a3 | a4\n  1271: a1 = a1 | a3\n  1274: a2 = u8 [a0 + 0x5]\n  1277: a3 = u8 [a0 + 0x4]\n  1280: a4 = u8 [a0 + 0x6]\n  1283: a5 = u8 [a0 + 0x7]\n  1286: a2 = a2 << 0x8\n  1289: a2 = a2 | a3\n  1292: a4 = a4 << 0x10\n  1295: a5 = a5 << 0x18\n  1298: a4 = a4 | a5\n  1301: a2 = a2 | a4\n  1304: a2 = a2 << 0x20\n  1307: t0 = a2 | a1\n  1310: a2 = u8 [a0 + 0x9]\n  1313: a3 = u8 [a0 + 0x8]\n  1316: a4 = u8 [a0 + 0xa]\n  1319: a5 = u8 [a0 + 0xb]\n  1322: a2 = a2 << 0x8\n  1325: a2 = a2 | a3\n  1328: a4 = a4 << 0x10\n  1331: a5 = a5 << 0x18\n  1334: a4 = a4 | a5\n  1337: a2 = a2 | a4\n  1340: a3 = u8 [a0 + 0xd]\n  1343: a4 = u8 [a0 + 0xc]\n  1346: a5 = u8 [a0 + 0xe]\n  1349: a1 = u8 [a0 + 0xf]\n  1352: a3 = a3 << 0x8\n  1355: a3 = a3 | a4\n  1358: a5 = a5 << 0x10\n  1361: a1 = a1 << 0x18\n  1364: a1 = a1 | a5\n  1367: a1 = a1 | a3\n  1370: a1 = a1 << 0x20\n  1373: t1 = a1 | a2\n  1376: a1 = u8 [a0 + 0x11]\n  1379: a3 = u8 [a0 + 0x10]\n  1382: a4 = u8 [a0 + 0x12]\n  1385: a5 = u8 [a0 + 0x13]\n  1388: a1 = a1 << 0x8\n  1391: a1 = a1 | a3\n  1394: a4 = a4 << 0x10\n  1397: a5 = a5 << 0x18\n  1400: a4 = a4 | a5\n  1403: a1 = a1 | a4\n  1406: a3 = u8 [a0 + 0x15]\n  1409: a4 = u8 [a0 + 0x14]\n  1412: a5 = u8 [a0 + 0x16]\n  1415: a2 = u8 [a0 + 0x17]\n  1418: a3 = a3 << 0x8\n  1421: a3 = a3 | a4\n  1424: a5 = a5 << 0x10\n  1427: a2 = a2 << 0x18\n  1430: a2 = a2 | a5\n  1433: a2 = a2 | a3\n  1436: a2 = a2 << 0x20\n  1439: a3 = a2 | a1\n  1442: a1 = u8 [a0 + 0x19]\n  1445: a2 = u8 [a0 + 0x18]\n  1448: a4 = u8 [a0 + 0x1a]\n  1451: a5 = u8 [a0 + 0x1b]\n  1454: a1 = a1 << 0x8\n  1457: a1 = a1 | a2\n  1460: a4 = a4 << 0x10\n  1463: a5 = a5 << 0x18\n  1466: a4 = a4 | a5\n  1469: a1 = a1 | a4\n  1472: a2 = u8 [a0 + 0x1d]\n  1475: a4 = u8 [a0 + 0x1c]\n  1478: a5 = u8 [a0 + 0x1e]\n  1481: a0 = u8 [a0 + 0x1f]\n  1484: a2 = a2 << 0x8\n  1487: a2 = a2 | a4\n  1490: a5 = a5 << 0x10\n  1493: a0 = a0 << 0x18\n  1496: a0 = a0 | a5\n  1499: a0 = a0 | a2\n  1502: a0 = a0 << 0x20\n  1505: a0 = a0 | a1\n  1508: a0 = reverse a0\n  1510: a1 = reverse a3\n  1512: a2 = reverse t1\n  1514: a3 = reverse t0\n  1516: u64 [s0 + 0x18] = a3\n  1519: u64 [s0 + 0x10] = a2\n  1522: u64 [s0 + 0x8] = a1\n  1525: u64 [s0] = a0\n  1527: ra = u64 [sp + 0x8]\n  1530: s0 = u64 [sp]\n  1532: sp = sp + 0x10\n  1535: ret\n      : @45 (gas: 8)\n  1537: a0 = u64 [sp + 0x30]\n  1540: a1 = u64 [sp + 0x38]\n  1543: a2 = u64 [sp + 0x28]\n  1546: a3 = u64 [sp + 0x20]\n  1549: a1 = a1 | a2\n  1552: a0 = a0 | a3\n  1555: a0 = a0 | a1\n  1558: jump @53 if a0 != 0\n      : @46 (gas: 2)\n  1562: a0 = i32 [0x20044]\n  1567: jump @53 if a0 <=u 35\n      : @47 (gas: 4)\n  1572: i32 a0 = sp + 0x40\n  1575: a1 = 0x4\n  1578: ecalli 3 // 'call_data_load'\n  1580: fallthrough\n      : @48 (gas: 10)\n  1581: a0 = u64 [sp + 0x50]\n  1584: a1 = u64 [sp + 0x58]\n  1587: a2 = 0x100000000\n  1597: a2 = a2 ^ a0\n  1600: a2 = a2 | a1\n  1603: a3 = a0 >> 0x20\n  1606: a3 = a3 <u 0x1\n  1609: a3 = 0 if a1 != 0\n  1611: a3 = 0 if a2 == 0\n  1613: jump @53 if a3 == 0\n      : @49 (gas: 8)\n  1617: a2 = u64 [sp + 0x48]\n  1620: a3 = u64 [sp + 0x40]\n  1623: u64 [sp + 0x8] = a2\n  1626: u64 [sp] = a3\n  1628: u64 [sp + 0x10] = a0\n  1631: a0 = sp\n  1633: u64 [sp + 0x18] = a1\n  1636: ra = 36, jump @244\n      : @50 [@dyn 18] (gas: 3)\n  1641: a0 = 0x40\n  1644: a1 = 0x20\n  1647: ra = 38, jump @0\n      : @51 [@dyn 19] (gas: 100)\n  1652: a1 = u8 [a0 + 0x11]\n  1655: a2 = u8 [a0 + 0x10]\n  1658: a3 = u8 [a0 + 0x12]\n  1661: a4 = u8 [a0 + 0x13]\n  1664: a1 = a1 << 0x8\n  1667: a1 = a1 | a2\n  1670: a3 = a3 << 0x10\n  1673: a4 = a4 << 0x18\n  1676: a3 = a3 | a4\n  1679: a1 = a1 | a3\n  1682: a2 = u8 [a0 + 0x15]\n  1685: a3 = u8 [a0 + 0x14]\n  1688: a4 = u8 [a0 + 0x16]\n  1691: a5 = u8 [a0 + 0x17]\n  1694: a2 = a2 << 0x8\n  1697: a2 = a2 | a3\n  1700: a4 = a4 << 0x10\n  1703: a5 = a5 << 0x18\n  1706: a4 = a4 | a5\n  1709: a2 = a2 | a4\n  1712: a2 = a2 << 0x20\n  1715: t0 = a2 | a1\n  1718: a2 = u8 [a0 + 0x1]\n  1721: a3 = u8 [a0]\n  1723: a4 = u8 [a0 + 0x2]\n  1726: a5 = u8 [a0 + 0x3]\n  1729: a2 = a2 << 0x8\n  1732: a2 = a2 | a3\n  1735: a4 = a4 << 0x10\n  1738: a5 = a5 << 0x18\n  1741: a4 = a4 | a5\n  1744: a2 = a2 | a4\n  1747: a3 = u8 [a0 + 0x5]\n  1750: a4 = u8 [a0 + 0x4]\n  1753: a5 = u8 [a0 + 0x6]\n  1756: a1 = u8 [a0 + 0x7]\n  1759: a3 = a3 << 0x8\n  1762: a3 = a3 | a4\n  1765: a5 = a5 << 0x10\n  1768: a1 = a1 << 0x18\n  1771: a1 = a1 | a5\n  1774: a1 = a1 | a3\n  1777: a1 = a1 << 0x20\n  1780: t1 = a1 | a2\n  1783: a1 = u8 [a0 + 0x19]\n  1786: a3 = u8 [a0 + 0x18]\n  1789: a4 = u8 [a0 + 0x1a]\n  1792: a5 = u8 [a0 + 0x1b]\n  1795: a1 = a1 << 0x8\n  1798: a1 = a1 | a3\n  1801: a4 = a4 << 0x10\n  1804: a5 = a5 << 0x18\n  1807: a4 = a4 | a5\n  1810: a1 = a1 | a4\n  1813: a3 = u8 [a0 + 0x1d]\n  1816: a4 = u8 [a0 + 0x1c]\n  1819: a5 = u8 [a0 + 0x1e]\n  1822: a2 = u8 [a0 + 0x1f]\n  1825: a3 = a3 << 0x8\n  1828: a3 = a3 | a4\n  1831: a5 = a5 << 0x10\n  1834: a2 = a2 << 0x18\n  1837: a2 = a2 | a5\n  1840: a2 = a2 | a3\n  1843: a2 = a2 << 0x20\n  1846: a3 = a2 | a1\n  1849: a1 = u8 [a0 + 0x9]\n  1852: a2 = u8 [a0 + 0x8]\n  1855: a4 = u8 [a0 + 0xa]\n  1858: a5 = u8 [a0 + 0xb]\n  1861: a1 = a1 << 0x8\n  1864: a1 = a1 | a2\n  1867: a4 = a4 << 0x10\n  1870: a5 = a5 << 0x18\n  1873: a4 = a4 | a5\n  1876: a1 = a1 | a4\n  1879: a2 = u8 [a0 + 0xd]\n  1882: a4 = u8 [a0 + 0xc]\n  1885: a5 = u8 [a0 + 0xe]\n  1888: a0 = u8 [a0 + 0xf]\n  1891: a2 = a2 << 0x8\n  1894: a2 = a2 | a4\n  1897: a5 = a5 << 0x10\n  1900: a0 = a0 << 0x18\n  1903: a0 = a0 | a5\n  1906: a0 = a0 | a2\n  1909: a0 = a0 << 0x20\n  1912: a0 = a0 | a1\n  1915: a1 = reverse a0\n  1917: a0 = reverse a3\n  1919: a2 = reverse t1\n  1921: a3 = reverse t0\n  1923: a2 = a2 | a3\n  1926: a3 = a0 | a1\n  1929: a3 = a3 | a2\n  1932: a3 = a3 >> 0x20\n  1935: a1 = a1 | a2\n  1938: a1 = a1 << 0x20\n  1941: a1 = a1 | a3\n  1944: jump @55 if a1 == 0\n      : @52 (gas: 1)\n  1947: trap\n      : @53 (gas: 3)\n  1948: a0 = 0\n  1950: a1 = 0\n  1952: ra = 40, jump @0\n      : @54 [@dyn 20] (gas: 7)\n  1957: i32 a1 = a0 + 0\n  1959: a0 = 0x1\n  1962: a2 = 0\n  1964: ecalli 13 // 'seal_return'\n  1966: i32 a0 = a0 + 0\n  1968: ra = 0x2a\n  1971: jump @0\n      : @55 (gas: 2)\n  1974: i32 a0 = a0 + 0\n  1976: ra = 42, jump @0\n      : @56 [@dyn 21] (gas: 6)\n  1981: i32 a1 = a0 + 0\n  1983: a0 = 0\n  1985: a2 = 0\n  1987: ra = 0x2c\n  1990: ecalli 13 // 'seal_return'\n  1992: fallthrough\n      : @57 [@dyn 22] (gas: 12)\n  1993: a2 = u64 [a1 + 0x10]\n  1996: a3 = u64 [a1 + 0x18]\n  1999: a4 = u64 [a1 + 0x8]\n  2002: a1 = u64 [a1]\n  2004: a3 = a3 | a4\n  2007: a4 = a1 | a2\n  2010: a4 = a4 | a3\n  2013: a4 = a4 >> 0x20\n  2016: a2 = a2 | a3\n  2019: a2 = a2 << 0x20\n  2022: a2 = a2 | a4\n  2025: jump @60 if a2 != 0\n      : @58 (gas: 7)\n  2029: sp = sp + 0xfffffffffffffff0\n  2032: u64 [sp + 0x8] = ra\n  2035: u64 [sp] = s0\n  2037: s0 = a0\n  2039: i32 a0 = a1 + 0\n  2041: a1 = 0x20\n  2044: ra = 46, jump @0\n      : @59 [@dyn 23] (gas: 100)\n  2049: a1 = u8 [a0 + 0x1]\n  2052: a2 = u8 [a0]\n  2054: a3 = u8 [a0 + 0x2]\n  2057: a4 = u8 [a0 + 0x3]\n  2060: a1 = a1 << 0x8\n  2063: a1 = a1 | a2\n  2066: a3 = a3 << 0x10\n  2069: a4 = a4 << 0x18\n  2072: a3 = a3 | a4\n  2075: a1 = a1 | a3\n  2078: a2 = u8 [a0 + 0x5]\n  2081: a3 = u8 [a0 + 0x4]\n  2084: a4 = u8 [a0 + 0x6]\n  2087: a5 = u8 [a0 + 0x7]\n  2090: a2 = a2 << 0x8\n  2093: a2 = a2 | a3\n  2096: a4 = a4 << 0x10\n  2099: a5 = a5 << 0x18\n  2102: a4 = a4 | a5\n  2105: a2 = a2 | a4\n  2108: a2 = a2 << 0x20\n  2111: t0 = a2 | a1\n  2114: a2 = u8 [a0 + 0x9]\n  2117: a3 = u8 [a0 + 0x8]\n  2120: a4 = u8 [a0 + 0xa]\n  2123: a5 = u8 [a0 + 0xb]\n  2126: a2 = a2 << 0x8\n  2129: a2 = a2 | a3\n  2132: a4 = a4 << 0x10\n  2135: a5 = a5 << 0x18\n  2138: a4 = a4 | a5\n  2141: a2 = a2 | a4\n  2144: a3 = u8 [a0 + 0xd]\n  2147: a4 = u8 [a0 + 0xc]\n  2150: a5 = u8 [a0 + 0xe]\n  2153: a1 = u8 [a0 + 0xf]\n  2156: a3 = a3 << 0x8\n  2159: a3 = a3 | a4\n  2162: a5 = a5 << 0x10\n  2165: a1 = a1 << 0x18\n  2168: a1 = a1 | a5\n  2171: a1 = a1 | a3\n  2174: a1 = a1 << 0x20\n  2177: t1 = a1 | a2\n  2180: a1 = u8 [a0 + 0x11]\n  2183: a3 = u8 [a0 + 0x10]\n  2186: a4 = u8 [a0 + 0x12]\n  2189: a5 = u8 [a0 + 0x13]\n  2192: a1 = a1 << 0x8\n  2195: a1 = a1 | a3\n  2198: a4 = a4 << 0x10\n  2201: a5 = a5 << 0x18\n  2204: a4 = a4 | a5\n  2207: a1 = a1 | a4\n  2210: a3 = u8 [a0 + 0x15]\n  2213: a4 = u8 [a0 + 0x14]\n  2216: a5 = u8 [a0 + 0x16]\n  2219: a2 = u8 [a0 + 0x17]\n  2222: a3 = a3 << 0x8\n  2225: a3 = a3 | a4\n  2228: a5 = a5 << 0x10\n  2231: a2 = a2 << 0x18\n  2234: a2 = a2 | a5\n  2237: a2 = a2 | a3\n  2240: a2 = a2 << 0x20\n  2243: a3 = a2 | a1\n  2246: a1 = u8 [a0 + 0x19]\n  2249: a2 = u8 [a0 + 0x18]\n  2252: a4 = u8 [a0 + 0x1a]\n  2255: a5 = u8 [a0 + 0x1b]\n  2258: a1 = a1 << 0x8\n  2261: a1 = a1 | a2\n  2264: a4 = a4 << 0x10\n  2267: a5 = a5 << 0x18\n  2270: a4 = a4 | a5\n  2273: a1 = a1 | a4\n  2276: a2 = u8 [a0 + 0x1d]\n  2279: a4 = u8 [a0 + 0x1c]\n  2282: a5 = u8 [a0 + 0x1e]\n  2285: a0 = u8 [a0 + 0x1f]\n  2288: a2 = a2 << 0x8\n  2291: a2 = a2 | a4\n  2294: a5 = a5 << 0x10\n  2297: a0 = a0 << 0x18\n  2300: a0 = a0 | a5\n  2303: a0 = a0 | a2\n  2306: a0 = a0 << 0x20\n  2309: a0 = a0 | a1\n  2312: a0 = reverse a0\n  2314: a1 = reverse a3\n  2316: a2 = reverse t1\n  2318: a3 = reverse t0\n  2320: u64 [s0 + 0x18] = a3\n  2323: u64 [s0 + 0x10] = a2\n  2326: u64 [s0 + 0x8] = a1\n  2329: u64 [s0] = a0\n  2331: ra = u64 [sp + 0x8]\n  2334: s0 = u64 [sp]\n  2336: sp = sp + 0x10\n  2339: ret\n      : @60 (gas: 1)\n  2341: trap\n      : @61 (gas: 18)\n  2342: sp = sp + 0xfffffffffffffeb0\n  2346: u64 [sp + 0x148] = ra\n  2350: u64 [sp + 0x140] = s0\n  2354: u64 [sp + 0x138] = s1\n  2358: a4 = u64 [a1 + 0x10]\n  2361: a3 = u64 [a1 + 0x18]\n  2364: a5 = u64 [a1 + 0x8]\n  2367: s0 = u64 [a1]\n  2369: u64 [sp + 0xf0] = a5\n  2373: u64 [sp + 0x130] = a3\n  2377: a1 = a5 | a3\n  2380: a3 = s0 | a4\n  2383: a3 = a3 | a1\n  2386: a3 = a3 >> 0x20\n  2389: a1 = a1 | a4\n  2392: a1 = a1 << 0x20\n  2395: a1 = a1 | a3\n  2398: jump @73 if a1 != 0\n      : @62 (gas: 13)\n  2402: u64 [sp + 0xe8] = a4\n  2406: u64 [sp] = a0\n  2408: a0 = u64 [a2 + 0x18]\n  2411: u64 [sp + 0x110] = a0\n  2415: s1 = u64 [a2 + 0x10]\n  2418: a1 = u64 [a2 + 0x8]\n  2421: a0 = u64 [a2]\n  2423: u64 [sp + 0x118] = a0\n  2427: u64 [sp + 0xd8] = s0\n  2431: i32 a0 = s0 + 0\n  2433: s0 = a1\n  2435: a1 = 0x20\n  2438: ra = 48, jump @0\n      : @63 [@dyn 24] (gas: 12)\n  2443: t0 = u64 [sp + 0x118]\n  2447: a1 = t0 | s1\n  2450: u64 [sp + 0x108] = s0\n  2454: a2 = u64 [sp + 0x110]\n  2458: a2 = a2 | s0\n  2461: a1 = a1 | a2\n  2464: a1 = a1 >> 0x20\n  2467: u64 [sp + 0x100] = s1\n  2471: a2 = a2 | s1\n  2474: a2 = a2 << 0x20\n  2477: a1 = a1 | a2\n  2480: jump @73 if a1 != 0\n      : @64 (gas: 93)\n  2484: a1 = u8 [a0 + 0x19]\n  2487: a2 = u8 [a0 + 0x18]\n  2490: a3 = u8 [a0 + 0x1a]\n  2493: a4 = u8 [a0 + 0x1b]\n  2496: a1 = a1 << 0x8\n  2499: a1 = a1 | a2\n  2502: a3 = a3 << 0x10\n  2505: a4 = a4 << 0x18\n  2508: a3 = a3 | a4\n  2511: a1 = a1 | a3\n  2514: a2 = u8 [a0 + 0x1d]\n  2517: a3 = u8 [a0 + 0x1c]\n  2520: a4 = u8 [a0 + 0x1e]\n  2523: a5 = u8 [a0 + 0x1f]\n  2526: a2 = a2 << 0x8\n  2529: a2 = a2 | a3\n  2532: a4 = a4 << 0x10\n  2535: a5 = a5 << 0x18\n  2538: a4 = a4 | a5\n  2541: a2 = a2 | a4\n  2544: a2 = a2 << 0x20\n  2547: a1 = a1 | a2\n  2550: u64 [sp + 0x120] = a1\n  2554: a1 = u8 [a0 + 0x11]\n  2557: a2 = u8 [a0 + 0x10]\n  2560: a3 = u8 [a0 + 0x12]\n  2563: a4 = u8 [a0 + 0x13]\n  2566: a1 = a1 << 0x8\n  2569: a1 = a1 | a2\n  2572: a3 = a3 << 0x10\n  2575: a4 = a4 << 0x18\n  2578: a3 = a3 | a4\n  2581: a1 = a1 | a3\n  2584: a2 = u8 [a0 + 0x15]\n  2587: a3 = u8 [a0 + 0x14]\n  2590: a4 = u8 [a0 + 0x16]\n  2593: a5 = u8 [a0 + 0x17]\n  2596: a2 = a2 << 0x8\n  2599: a2 = a2 | a3\n  2602: a4 = a4 << 0x10\n  2605: a5 = a5 << 0x18\n  2608: a4 = a4 | a5\n  2611: a2 = a2 | a4\n  2614: a2 = a2 << 0x20\n  2617: a1 = a1 | a2\n  2620: u64 [sp + 0x128] = a1\n  2624: a1 = u8 [a0 + 0x9]\n  2627: a2 = u8 [a0 + 0x8]\n  2630: a3 = u8 [a0 + 0xa]\n  2633: a4 = u8 [a0 + 0xb]\n  2636: a1 = a1 << 0x8\n  2639: a1 = a1 | a2\n  2642: a3 = a3 << 0x10\n  2645: a4 = a4 << 0x18\n  2648: a3 = a3 | a4\n  2651: a1 = a1 | a3\n  2654: a2 = u8 [a0 + 0xd]\n  2657: a3 = u8 [a0 + 0xc]\n  2660: a4 = u8 [a0 + 0xe]\n  2663: a5 = u8 [a0 + 0xf]\n  2666: a2 = a2 << 0x8\n  2669: a2 = a2 | a3\n  2672: a4 = a4 << 0x10\n  2675: a5 = a5 << 0x18\n  2678: a4 = a4 | a5\n  2681: a2 = a2 | a4\n  2684: a2 = a2 << 0x20\n  2687: s0 = a2 | a1\n  2690: a1 = u8 [a0 + 0x1]\n  2693: a2 = u8 [a0]\n  2695: a3 = u8 [a0 + 0x2]\n  2698: a4 = u8 [a0 + 0x3]\n  2701: a1 = a1 << 0x8\n  2704: a1 = a1 | a2\n  2707: a3 = a3 << 0x10\n  2710: a4 = a4 << 0x18\n  2713: a3 = a3 | a4\n  2716: a1 = a1 | a3\n  2719: a2 = u8 [a0 + 0x5]\n  2722: a3 = u8 [a0 + 0x4]\n  2725: a4 = u8 [a0 + 0x6]\n  2728: a0 = u8 [a0 + 0x7]\n  2731: a2 = a2 << 0x8\n  2734: a2 = a2 | a3\n  2737: a4 = a4 << 0x10\n  2740: a0 = a0 << 0x18\n  2743: a0 = a0 | a4\n  2746: a0 = a0 | a2\n  2749: a0 = a0 << 0x20\n  2752: s1 = a0 | a1\n  2755: i32 a0 = t0 + 0\n  2757: a1 = 0x20\n  2760: ra = 50, jump @0\n      : @65 [@dyn 25] (gas: 82)\n  2765: a2 = u64 [sp + 0x128]\n  2769: u8 [a0 + 0x10] = a2\n  2772: a1 = s0 >> 0x38\n  2775: u8 [a0 + 0xf] = a1\n  2778: a1 = s0 >> 0x30\n  2781: u8 [a0 + 0xe] = a1\n  2784: a1 = s0 >> 0x28\n  2787: u8 [a0 + 0xd] = a1\n  2790: a1 = s0 >> 0x20\n  2793: u8 [a0 + 0xc] = a1\n  2796: a1 = s0 >> 0x18\n  2799: u8 [a0 + 0xb] = a1\n  2802: a1 = s0 >> 0x10\n  2805: u8 [a0 + 0xa] = a1\n  2808: a1 = s0 >> 0x8\n  2811: u8 [a0 + 0x9] = a1\n  2814: u8 [a0 + 0x8] = s0\n  2817: a1 = s1 >> 0x38\n  2820: u8 [a0 + 0x7] = a1\n  2823: a1 = s1 >> 0x30\n  2826: u8 [a0 + 0x6] = a1\n  2829: a1 = s1 >> 0x28\n  2832: u8 [a0 + 0x5] = a1\n  2835: a1 = s1 >> 0x20\n  2838: u8 [a0 + 0x4] = a1\n  2841: a1 = s1 >> 0x18\n  2844: u8 [a0 + 0x3] = a1\n  2847: a1 = s1 >> 0x10\n  2850: u8 [a0 + 0x2] = a1\n  2853: a1 = s1 >> 0x8\n  2856: u8 [a0 + 0x1] = a1\n  2859: u8 [a0] = s1\n  2861: a3 = u64 [sp + 0x120]\n  2865: u8 [a0 + 0x18] = a3\n  2868: a1 = a2 >> 0x38\n  2871: u8 [a0 + 0x17] = a1\n  2874: a1 = a2 >> 0x30\n  2877: u8 [a0 + 0x16] = a1\n  2880: a1 = a2 >> 0x28\n  2883: u8 [a0 + 0x15] = a1\n  2886: a1 = a2 >> 0x20\n  2889: u8 [a0 + 0x14] = a1\n  2892: a1 = a2 >> 0x18\n  2895: u8 [a0 + 0x13] = a1\n  2898: a1 = a2 >> 0x10\n  2901: u8 [a0 + 0x12] = a1\n  2904: a1 = a2 >> 0x8\n  2907: a4 = a2\n  2909: u8 [a0 + 0x11] = a1\n  2912: a1 = a3 >> 0x38\n  2915: u8 [a0 + 0x1f] = a1\n  2918: a1 = a3 >> 0x30\n  2921: u8 [a0 + 0x1e] = a1\n  2924: a1 = a3 >> 0x28\n  2927: u8 [a0 + 0x1d] = a1\n  2930: a1 = a3 >> 0x20\n  2933: u8 [a0 + 0x1c] = a1\n  2936: a1 = a3 >> 0x18\n  2939: u8 [a0 + 0x1b] = a1\n  2942: a1 = a3 >> 0x10\n  2945: u8 [a0 + 0x1a] = a1\n  2948: a1 = a3 >> 0x8\n  2951: u8 [a0 + 0x19] = a1\n  2954: a0 = u64 [sp + 0x118]\n  2958: t1 = a0 + 0x20\n  2961: a2 = t1 <u a0\n  2964: a0 = a3\n  2966: a3 = u64 [sp + 0x108]\n  2970: t2 = a3 + a2\n  2973: a3 = t2 <u a3\n  2976: a3 = a2 if a2 == 0\n  2979: a5 = u64 [sp + 0x100]\n  2983: ra = a5 + a3\n  2986: a3 = s1 | a4\n  2989: u64 [sp + 0xd0] = s0\n  2993: a4 = s0 | a0\n  2996: a4 = a4 | a3\n  2999: a3 = ra <u a5\n  3002: t0 = u64 [sp + 0x110]\n  3006: a5 = t0 + a3\n  3009: u64 [sp + 0xf8] = a5\n  3013: jump @72 if a4 == 0\n      : @66 (gas: 21)\n  3017: a0 = 0\n  3019: a1 = 0\n  3021: u64 [sp + 224] = 0\n  3025: a2 = 0\n  3027: a3 = reverse s1\n  3029: u64 [sp + 0x20] = a3\n  3032: a3 = u64 [sp + 0xd0]\n  3036: a3 = reverse a3\n  3038: u64 [sp + 0x18] = a3\n  3041: a3 = u64 [sp + 0x128]\n  3045: a3 = reverse a3\n  3047: u64 [sp + 0x10] = a3\n  3050: a3 = u64 [sp + 0x120]\n  3054: a3 = reverse a3\n  3056: u64 [sp + 0x8] = a3\n  3059: a4 = 0xffffffe0\n  3069: u64 [sp + 0x28] = a4\n  3072: t0 = u64 [sp + 0xe8]\n  3076: a3 = u64 [sp + 0xf0]\n  3080: s0 = u64 [sp + 0xd8]\n  3084: fallthrough\n      : @67 (gas: 16)\n  3085: u64 [sp + 0xc8] = a2\n  3089: u64 [sp + 0xd0] = a1\n  3093: u64 [sp + 0xd8] = a0\n  3097: a4 = u64 [sp + 0x130]\n  3101: a4 = t0 | a4\n  3104: s1 = u64 [sp + 0x28]\n  3107: a5 = s0 <u s1\n  3110: u64 [sp + 0xf0] = a3\n  3114: a5 = 0 if a3 != 0\n  3116: a5 = 0 if a4 != 0\n  3118: a0 = u64 [sp + 0xf8]\n  3122: u64 [sp + 0xc0] = a0\n  3126: u64 [sp + 0xb8] = ra\n  3130: u64 [sp + 0xb0] = t2\n  3134: u64 [sp + 0x128] = t1\n  3138: jump @73 if a5 == 0\n      : @68 (gas: 6)\n  3142: u64 [sp + 0xe8] = t0\n  3146: a0 = s0 + 0x20\n  3149: u64 [sp + 0x120] = a0\n  3153: i32 a0 = a0 + 0\n  3155: a1 = 0x20\n  3158: ra = 52, jump @0\n      : @69 [@dyn 26] (gas: 9)\n  3163: a1 = u64 [sp + 0x100]\n  3167: a2 = u64 [sp + 0x110]\n  3171: a1 = a1 | a2\n  3174: a2 = u64 [sp + 0x118]\n  3178: a2 = a2 <u s1\n  3181: a3 = u64 [sp + 0x108]\n  3185: a2 = 0 if a3 != 0\n  3187: a2 = 0 if a1 != 0\n  3189: jump @73 if a2 == 0\n      : @70 (gas: 58)\n  3193: a1 = u64 [sp + 0x120]\n  3197: a2 = a1 <u s0\n  3200: s0 = u64 [sp + 0xf0]\n  3204: a1 = s0 + a2\n  3207: u64 [sp + 0x118] = a1\n  3211: a1 = a1 <u s0\n  3214: a1 = a2 if a2 == 0\n  3217: a2 = u8 [a0 + 0xc]\n  3220: u64 [sp + 0x108] = a2\n  3224: a2 = u8 [a0 + 0xd]\n  3227: u64 [sp + 0x100] = a2\n  3231: a2 = u8 [a0 + 0xe]\n  3234: u64 [sp + 0xf8] = a2\n  3238: a2 = u8 [a0 + 0xf]\n  3241: u64 [sp + 0xf0] = a2\n  3245: a2 = u8 [a0 + 0x10]\n  3248: u64 [sp + 0xa8] = a2\n  3252: a2 = u8 [a0 + 0x11]\n  3255: u64 [sp + 0xa0] = a2\n  3259: a2 = u8 [a0 + 0x12]\n  3262: u64 [sp + 0x98] = a2\n  3266: a2 = u8 [a0 + 0x13]\n  3269: u64 [sp + 0x90] = a2\n  3273: a2 = u8 [a0 + 0x14]\n  3276: u64 [sp + 0x88] = a2\n  3280: a2 = u8 [a0 + 0x15]\n  3283: u64 [sp + 0x80] = a2\n  3287: a2 = u8 [a0 + 0x16]\n  3290: u64 [sp + 0x78] = a2\n  3293: a2 = u8 [a0 + 0x17]\n  3296: u64 [sp + 0x70] = a2\n  3299: a2 = u8 [a0 + 0x18]\n  3302: u64 [sp + 0x68] = a2\n  3305: a2 = u8 [a0 + 0x19]\n  3308: u64 [sp + 0x60] = a2\n  3311: a2 = u8 [a0 + 0x1a]\n  3314: u64 [sp + 0x58] = a2\n  3317: a2 = u8 [a0 + 0x1b]\n  3320: u64 [sp + 0x50] = a2\n  3323: a2 = u8 [a0 + 0x1c]\n  3326: u64 [sp + 0x48] = a2\n  3329: a2 = u8 [a0 + 0x1d]\n  3332: u64 [sp + 0x40] = a2\n  3335: a2 = u8 [a0 + 0x1e]\n  3338: u64 [sp + 0x38] = a2\n  3341: a0 = u8 [a0 + 0x1f]\n  3344: u64 [sp + 0x30] = a0\n  3347: s1 = u64 [sp + 0xe8]\n  3351: a1 = a1 + s1\n  3354: u64 [sp + 0x110] = a1\n  3358: a0 = a1 <u s1\n  3361: a1 = u64 [sp + 0x130]\n  3365: a1 = a1 + a0\n  3368: u64 [sp + 0x130] = a1\n  3372: s0 = u64 [sp + 0x128]\n  3376: i32 a0 = s0 + 0\n  3378: a1 = 0x20\n  3381: ra = 54, jump @0\n      : @71 [@dyn 27] (gas: 110)\n  3386: a1 = u64 [sp + 0x30]\n  3389: u8 [a0 + 0x1f] = a1\n  3392: a1 = u64 [sp + 0x38]\n  3395: u8 [a0 + 0x1e] = a1\n  3398: a1 = u64 [sp + 0x40]\n  3401: u8 [a0 + 0x1d] = a1\n  3404: a1 = u64 [sp + 0x48]\n  3407: u8 [a0 + 0x1c] = a1\n  3410: a1 = u64 [sp + 0x50]\n  3413: u8 [a0 + 0x1b] = a1\n  3416: a1 = u64 [sp + 0x58]\n  3419: u8 [a0 + 0x1a] = a1\n  3422: a1 = u64 [sp + 0x60]\n  3425: u8 [a0 + 0x19] = a1\n  3428: a1 = u64 [sp + 0x68]\n  3431: u8 [a0 + 0x18] = a1\n  3434: a1 = u64 [sp + 0x70]\n  3437: u8 [a0 + 0x17] = a1\n  3440: a1 = u64 [sp + 0x78]\n  3443: u8 [a0 + 0x16] = a1\n  3446: a1 = u64 [sp + 0x80]\n  3450: u8 [a0 + 0x15] = a1\n  3453: a1 = u64 [sp + 0x88]\n  3457: u8 [a0 + 0x14] = a1\n  3460: a1 = u64 [sp + 0x90]\n  3464: u8 [a0 + 0x13] = a1\n  3467: a1 = u64 [sp + 0x98]\n  3471: u8 [a0 + 0x12] = a1\n  3474: a1 = u64 [sp + 0xa0]\n  3478: u8 [a0 + 0x11] = a1\n  3481: a1 = u64 [sp + 0xa8]\n  3485: u8 [a0 + 0x10] = a1\n  3488: a1 = u64 [sp + 0xf0]\n  3492: u8 [a0 + 0xf] = a1\n  3495: a1 = u64 [sp + 0xf8]\n  3499: u8 [a0 + 0xe] = a1\n  3502: a1 = u64 [sp + 0x100]\n  3506: u8 [a0 + 0xd] = a1\n  3509: a1 = u64 [sp + 0x108]\n  3513: u8 [a0 + 0xc] = a1\n  3516: u8 [a0 + 11] = 0\n  3519: u8 [a0 + 10] = 0\n  3522: u8 [a0 + 9] = 0\n  3525: u8 [a0 + 8] = 0\n  3528: u8 [a0 + 7] = 0\n  3531: u8 [a0 + 6] = 0\n  3534: u8 [a0 + 5] = 0\n  3537: u8 [a0 + 4] = 0\n  3540: u8 [a0 + 3] = 0\n  3543: u8 [a0 + 2] = 0\n  3546: u8 [a0 + 1] = 0\n  3549: u8 [a0 + 0] = 0\n  3551: t1 = u64 [sp + 0xd8]\n  3555: t1 = t1 + 0x1\n  3558: a0 = t1 <u 0x1\n  3561: t2 = u64 [sp + 0xd0]\n  3565: t2 = t2 + a0\n  3568: a0 = t1 | t2\n  3571: a4 = a0 <u 0x1\n  3574: a0 = u64 [sp + 0xe0]\n  3578: a4 = a4 + a0\n  3581: a0 = a4 <u a0\n  3584: ra = u64 [sp + 0xc8]\n  3588: ra = ra + a0\n  3591: a0 = u64 [sp + 0x8]\n  3594: a0 = t1 <u a0\n  3597: a2 = u64 [sp + 0x10]\n  3600: a1 = t2 ^ a2\n  3603: a2 = t2 <u a2\n  3606: a2 = a0 if a1 == 0\n  3609: a0 = u64 [sp + 0x18]\n  3612: s1 = a4 <u a0\n  3615: a3 = u64 [sp + 0x20]\n  3618: a1 = ra ^ a3\n  3621: a5 = ra <u a3\n  3624: a5 = s1 if a1 == 0\n  3627: a0 = a0 ^ a4\n  3630: a1 = a1 | a0\n  3633: a0 = s0 + 0x20\n  3636: u64 [sp + 0xf0] = a0\n  3640: a5 = a2 if a1 == 0\n  3643: a2 = a0 <u s0\n  3646: s1 = u64 [sp + 0xb0]\n  3650: a0 = s1 + a2\n  3653: u64 [sp + 0xe8] = a0\n  3657: a3 = a0 <u s1\n  3660: a3 = a2 if a2 == 0\n  3663: a1 = u64 [sp + 0xb8]\n  3667: a3 = a3 + a1\n  3670: u64 [sp + 0xd8] = a3\n  3674: a3 = a3 <u a1\n  3677: a0 = u64 [sp + 0xc0]\n  3681: a3 = a3 + a0\n  3684: u64 [sp + 0xf8] = a3\n  3688: u64 [sp + 0xe0] = a4\n  3692: s0 = u64 [sp + 0x120]\n  3696: a3 = u64 [sp + 0x118]\n  3700: t0 = u64 [sp + 0x110]\n  3704: a2 = u64 [sp + 0x128]\n  3708: u64 [sp + 0x118] = a2\n  3712: u64 [sp + 0x108] = s1\n  3716: u64 [sp + 0x100] = a1\n  3720: u64 [sp + 0x110] = a0\n  3724: a0 = t1\n  3726: t1 = u64 [sp + 0xf0]\n  3730: a1 = t2\n  3732: t2 = u64 [sp + 0xe8]\n  3736: a2 = ra\n  3738: ra = u64 [sp + 0xd8]\n  3742: jump @67 if a5 != 0\n      : @72 (gas: 11)\n  3746: a4 = u64 [sp]\n  3748: u64 [a4] = t1\n  3750: u64 [a4 + 0x8] = t2\n  3753: u64 [a4 + 0x10] = ra\n  3756: a0 = u64 [sp + 0xf8]\n  3760: u64 [a4 + 0x18] = a0\n  3763: ra = u64 [sp + 0x148]\n  3767: s0 = u64 [sp + 0x140]\n  3771: s1 = u64 [sp + 0x138]\n  3775: sp = sp + 0x150\n  3779: ret\n      : @73 (gas: 1)\n  3781: trap\n      : @74 (gas: 8)\n  3782: a0 = u64 [sp + 0x110]\n  3786: a1 = u64 [sp + 0x118]\n  3790: a2 = u64 [sp + 0x108]\n  3794: a3 = u64 [sp + 0x100]\n  3798: a1 = a1 | a2\n  3801: a0 = a0 | a3\n  3804: a0 = a0 | a1\n  3807: jump @85 if a0 != 0\n      : @75 (gas: 2)\n  3811: a0 = i32 [0x20044]\n  3816: jump @85 if a0 <=u 35\n      : @76 (gas: 4)\n  3821: i32 a0 = sp + 0x120\n  3825: a1 = 0x4\n  3828: ecalli 3 // 'call_data_load'\n  3830: fallthrough\n      : @77 (gas: 10)\n  3831: a0 = u64 [sp + 0x130]\n  3835: a2 = u64 [sp + 0x138]\n  3839: a1 = 0x100000000\n  3849: a1 = a1 ^ a0\n  3852: a1 = a1 | a2\n  3855: a3 = a0 >> 0x20\n  3858: a3 = a3 <u 0x1\n  3861: a3 = 0 if a2 != 0\n  3863: a3 = 0 if a1 == 0\n  3865: jump @85 if a3 == 0\n      : @78 (gas: 37)\n  3869: a1 = u64 [sp + 0x128]\n  3873: a3 = u64 [sp + 0x120]\n  3877: u64 [sp + 0xc8] = a1\n  3881: u64 [sp + 0xc0] = a3\n  3885: u64 [sp + 0xd0] = a0\n  3889: a0 = sp + 0xe0\n  3893: a1 = sp + 0xc0\n  3897: u64 [sp + 0xd8] = a2\n  3901: ra = 0x38\n  3904: sp = sp + 0xfffffffffffff8c0\n  3908: u64 [sp + 0x738] = ra\n  3912: u64 [sp + 0x730] = s0\n  3916: u64 [sp + 0x728] = s1\n  3920: s0 = sp + 0x740\n  3924: sp = sp & 0xffffffffffffffe0\n  3927: u64 [sp + 0x20] = a0\n  3930: s1 = u64 [a1 + 0x10]\n  3933: a0 = u64 [a1 + 0x8]\n  3936: u64 [sp + 0x68] = a0\n  3939: a0 = u64 [a1]\n  3941: u64 [sp + 0x78] = a0\n  3944: u64 [sp + 1784] = 0\n  3948: u64 [sp + 1776] = 0\n  3952: u64 [sp + 1768] = 0\n  3956: u64 [sp + 1760] = 0\n  3960: u64 [sp + 1816] = 0\n  3964: u64 [sp + 1808] = 0\n  3968: u64 [sp + 1800] = 0\n  3972: u64 [sp + 1792] = 0\n  3976: u32 [sp + 1824] = 0x20\n  3981: i32 a1 = sp + 0x6e0\n  3985: i32 a3 = sp + 0x700\n  3989: i32 a4 = sp + 0x720\n  3993: a2 = 0xffffffffffffffff\n  3996: a0 = 0\n  3998: ecalli 7 // 'get_storage'\n  4000: jump @328\n      : @79 [@dyn 28] (gas: 11)\n  4003: a0 = u64 [sp + 0xf8]\n  4007: u64 [sp + 0x40] = a0\n  4010: a0 = u64 [sp + 0xf0]\n  4014: u64 [sp + 0x48] = a0\n  4017: a0 = u64 [sp + 0xe8]\n  4021: u64 [sp + 0x50] = a0\n  4024: a0 = u64 [sp + 0xe0]\n  4028: u64 [sp + 0x58] = a0\n  4031: a0 = 0x40\n  4034: a1 = 0x20\n  4037: ra = 58, jump @0\n      : @80 [@dyn 29] (gas: 100)\n  4042: a1 = u8 [a0 + 0x11]\n  4045: a2 = u8 [a0 + 0x10]\n  4048: a3 = u8 [a0 + 0x12]\n  4051: a4 = u8 [a0 + 0x13]\n  4054: a1 = a1 << 0x8\n  4057: a1 = a1 | a2\n  4060: a3 = a3 << 0x10\n  4063: a4 = a4 << 0x18\n  4066: a3 = a3 | a4\n  4069: a1 = a1 | a3\n  4072: a2 = u8 [a0 + 0x15]\n  4075: a3 = u8 [a0 + 0x14]\n  4078: a4 = u8 [a0 + 0x16]\n  4081: a5 = u8 [a0 + 0x17]\n  4084: a2 = a2 << 0x8\n  4087: a2 = a2 | a3\n  4090: a4 = a4 << 0x10\n  4093: a5 = a5 << 0x18\n  4096: a4 = a4 | a5\n  4099: a2 = a2 | a4\n  4102: a2 = a2 << 0x20\n  4105: t0 = a2 | a1\n  4108: a2 = u8 [a0 + 0x1]\n  4111: a3 = u8 [a0]\n  4113: a4 = u8 [a0 + 0x2]\n  4116: a5 = u8 [a0 + 0x3]\n  4119: a2 = a2 << 0x8\n  4122: a2 = a2 | a3\n  4125: a4 = a4 << 0x10\n  4128: a5 = a5 << 0x18\n  4131: a4 = a4 | a5\n  4134: a2 = a2 | a4\n  4137: a3 = u8 [a0 + 0x5]\n  4140: a4 = u8 [a0 + 0x4]\n  4143: a5 = u8 [a0 + 0x6]\n  4146: s1 = u8 [a0 + 0x7]\n  4149: a3 = a3 << 0x8\n  4152: a3 = a3 | a4\n  4155: a5 = a5 << 0x10\n  4158: s1 = s1 << 0x18\n  4161: a5 = a5 | s1\n  4164: a3 = a3 | a5\n  4167: a3 = a3 << 0x20\n  4170: a2 = a2 | a3\n  4173: a3 = u8 [a0 + 0x19]\n  4176: a4 = u8 [a0 + 0x18]\n  4179: a5 = u8 [a0 + 0x1a]\n  4182: s1 = u8 [a0 + 0x1b]\n  4185: a3 = a3 << 0x8\n  4188: a3 = a3 | a4\n  4191: a5 = a5 << 0x10\n  4194: s1 = s1 << 0x18\n  4197: a5 = a5 | s1\n  4200: a3 = a3 | a5\n  4203: a4 = u8 [a0 + 0x1d]\n  4206: a5 = u8 [a0 + 0x1c]\n  4209: s1 = u8 [a0 + 0x1e]\n  4212: a1 = u8 [a0 + 0x1f]\n  4215: a4 = a4 << 0x8\n  4218: a4 = a4 | a5\n  4221: s1 = s1 << 0x10\n  4224: a1 = a1 << 0x18\n  4227: a1 = a1 | s1\n  4230: a1 = a1 | a4\n  4233: a1 = a1 << 0x20\n  4236: a3 = a3 | a1\n  4239: a1 = u8 [a0 + 0x9]\n  4242: a4 = u8 [a0 + 0x8]\n  4245: a5 = u8 [a0 + 0xa]\n  4248: s1 = u8 [a0 + 0xb]\n  4251: a1 = a1 << 0x8\n  4254: a1 = a1 | a4\n  4257: a5 = a5 << 0x10\n  4260: s1 = s1 << 0x18\n  4263: a5 = a5 | s1\n  4266: a1 = a1 | a5\n  4269: a4 = u8 [a0 + 0xd]\n  4272: a5 = u8 [a0 + 0xc]\n  4275: s1 = u8 [a0 + 0xe]\n  4278: a0 = u8 [a0 + 0xf]\n  4281: a4 = a4 << 0x8\n  4284: a4 = a4 | a5\n  4287: s1 = s1 << 0x10\n  4290: a0 = a0 << 0x18\n  4293: a0 = a0 | s1\n  4296: a0 = a0 | a4\n  4299: a0 = a0 << 0x20\n  4302: a0 = a0 | a1\n  4305: s1 = reverse a0\n  4307: a3 = reverse a3\n  4309: a4 = reverse a2\n  4311: a2 = reverse t0\n  4313: a0 = a2 | a4\n  4316: a1 = a3 | s1\n  4319: a1 = a1 | a0\n  4322: a1 = a1 >> 0x20\n  4325: a0 = a0 | s1\n  4328: a0 = a0 << 0x20\n  4331: a0 = a0 | a1\n  4334: jump @84 if a0 != 0\n      : @81 (gas: 19)\n  4338: a0 = a3 + 0x20\n  4341: u64 [sp + 0x18] = a0\n  4344: a0 = a0 <u a3\n  4347: a1 = a2 + a0\n  4350: u64 [sp + 0x8] = a1\n  4353: a1 = a1 <u a2\n  4356: a1 = a0 if a0 == 0\n  4359: a1 = a1 + s1\n  4362: u64 [sp + 0x10] = a1\n  4365: a0 = a1 <u s1\n  4368: a0 = a0 + a4\n  4371: u64 [sp + 0x20] = a0\n  4374: i32 a0 = a3 + 0\n  4376: a1 = 0x20\n  4379: u64 [sp] = a0\n  4381: u64 [sp + 0x30] = a3\n  4384: u64 [sp + 0x28] = a2\n  4387: u64 [sp + 0x38] = a4\n  4390: ra = 60, jump @0\n      : @82 [@dyn 30] (gas: 52)\n  4395: u8 [a0 + 31] = 0x20\n  4399: u8 [a0 + 30] = 0\n  4402: u8 [a0 + 29] = 0\n  4405: u8 [a0 + 28] = 0\n  4408: u8 [a0 + 27] = 0\n  4411: u8 [a0 + 26] = 0\n  4414: u8 [a0 + 25] = 0\n  4417: u8 [a0 + 24] = 0\n  4420: u8 [a0 + 23] = 0\n  4423: u8 [a0 + 22] = 0\n  4426: u8 [a0 + 21] = 0\n  4429: u8 [a0 + 20] = 0\n  4432: u8 [a0 + 19] = 0\n  4435: u8 [a0 + 18] = 0\n  4438: u8 [a0 + 17] = 0\n  4441: u8 [a0 + 16] = 0\n  4444: u8 [a0 + 15] = 0\n  4447: u8 [a0 + 14] = 0\n  4450: u8 [a0 + 13] = 0\n  4453: u8 [a0 + 12] = 0\n  4456: u8 [a0 + 11] = 0\n  4459: u8 [a0 + 10] = 0\n  4462: u8 [a0 + 9] = 0\n  4465: u8 [a0 + 8] = 0\n  4468: u8 [a0 + 7] = 0\n  4471: u8 [a0 + 6] = 0\n  4474: u8 [a0 + 5] = 0\n  4477: u8 [a0 + 4] = 0\n  4480: u8 [a0 + 3] = 0\n  4483: u8 [a0 + 2] = 0\n  4486: u8 [a0 + 1] = 0\n  4489: u8 [a0 + 0] = 0\n  4491: a0 = u64 [sp + 0x8]\n  4494: u64 [sp + 0x68] = a0\n  4497: a0 = u64 [sp + 0x18]\n  4500: u64 [sp + 0x60] = a0\n  4503: a0 = u64 [sp + 0x40]\n  4506: u64 [sp + 0x98] = a0\n  4510: a0 = u64 [sp + 0x48]\n  4513: u64 [sp + 0x90] = a0\n  4517: a0 = u64 [sp + 0x50]\n  4520: u64 [sp + 0x88] = a0\n  4524: a0 = u64 [sp + 0x58]\n  4527: u64 [sp + 0x80] = a0\n  4531: a0 = u64 [sp + 0x10]\n  4534: u64 [sp + 0x70] = a0\n  4537: a0 = sp + 0xa0\n  4541: a1 = sp + 0x80\n  4545: a2 = sp + 0x60\n  4548: a3 = u64 [sp + 0x20]\n  4551: u64 [sp + 0x78] = a3\n  4554: ra = 62, jump @61\n      : @83 [@dyn 31] (gas: 30)\n  4559: a0 = u64 [sp + 0xa8]\n  4563: t0 = u64 [sp + 0xb8]\n  4567: t1 = u64 [sp + 0xa0]\n  4571: a3 = u64 [sp + 0xb0]\n  4575: a1 = u64 [sp + 0x28]\n  4578: a4 = a0 ^ a1\n  4581: a5 = a0 <u a1\n  4584: t2 = a1\n  4586: a2 = u64 [sp + 0x30]\n  4589: a1 = t1 <u a2\n  4592: a5 = a1 if a4 == 0\n  4595: a4 = a3 - s1\n  4598: a3 = a3 <u s1\n  4601: s1 = u64 [sp + 0x38]\n  4604: s1 = t0 - s1\n  4607: s1 = s1 - a3\n  4610: a3 = a4 <u a5\n  4613: s1 = s1 - a3\n  4616: a4 = a4 - a5\n  4619: a0 = a0 - t2\n  4622: a1 = a0 - a1\n  4625: a0 = t1 - a2\n  4628: a1 = a1 | s1\n  4631: a2 = a0 | a4\n  4634: a2 = a2 | a1\n  4637: a1 = a1 | a4\n  4640: a2 = a2 >> 0x20\n  4643: a1 = a1 << 0x20\n  4646: a1 = a1 | a2\n  4649: jump @87 if a1 == 0\n      : @84 (gas: 1)\n  4652: trap\n      : @85 (gas: 3)\n  4653: a0 = 0\n  4655: a1 = 0\n  4657: ra = 64, jump @0\n      : @86 [@dyn 32] (gas: 5)\n  4662: i32 a1 = a0 + 0\n  4664: a0 = 0x1\n  4667: a2 = 0\n  4669: ecalli 13 // 'seal_return'\n  4671: fallthrough\n      : @87 (gas: 4)\n  4672: i32 s1 = a0 + 0\n  4674: a0 = u64 [sp]\n  4676: a1 = s1\n  4678: ra = 66, jump @0\n      : @88 [@dyn 33] (gas: 6)\n  4683: i32 a1 = a0 + 0\n  4685: a0 = 0\n  4687: a2 = s1\n  4689: ra = 0x44\n  4692: ecalli 13 // 'seal_return'\n  4694: fallthrough\n      : @89 [@dyn 34] (gas: 9)\n  4695: a2 = u64 [a1 + 0x18]\n  4698: a3 = u64 [a1 + 0x10]\n  4701: a4 = u64 [a1 + 0x8]\n  4704: a1 = u64 [a1]\n  4706: u64 [a0 + 0x18] = a2\n  4709: u64 [a0 + 0x10] = a3\n  4712: u64 [a0 + 0x8] = a4\n  4715: u64 [a0] = a1\n  4717: ret\n      : @90 (gas: 38)\n  4719: sp = sp + 0xfffffffffffffee0\n  4723: u64 [sp + 0x118] = ra\n  4727: u64 [sp + 0x110] = s0\n  4731: u64 [sp + 0x108] = s1\n  4735: s0 = sp + 0x120\n  4739: sp = sp & 0xffffffffffffffe0\n  4742: u64 [sp + 0x40] = a0\n  4745: a0 = u64 [a2]\n  4747: u64 [sp + 0x48] = a0\n  4750: a0 = u64 [a2 + 0x8]\n  4753: u64 [sp + 0x50] = a0\n  4756: a0 = u64 [a2 + 0x10]\n  4759: u64 [sp + 0x58] = a0\n  4762: s1 = u64 [a2 + 0x18]\n  4765: a4 = u64 [a1 + 0x18]\n  4768: a3 = u64 [a1 + 0x10]\n  4771: a2 = u64 [a1 + 0x8]\n  4774: a0 = u64 [a1]\n  4776: u64 [sp + 0x18] = a4\n  4779: u64 [sp + 0xb8] = a4\n  4783: u64 [sp + 0x20] = a3\n  4786: u64 [sp + 0xb0] = a3\n  4790: u64 [sp + 0x28] = a2\n  4793: u64 [sp + 0xa8] = a2\n  4797: u64 [sp + 0x30] = a0\n  4800: u64 [sp + 0xa0] = a0\n  4804: u64 [sp + 248] = 0\n  4808: u64 [sp + 240] = 0\n  4812: u64 [sp + 232] = 0\n  4816: u64 [sp + 224] = 0\n  4820: u32 [sp + 192] = 0x20\n  4825: i32 a1 = sp + 0xa0\n  4829: i32 a3 = sp + 0xe0\n  4833: i32 a4 = sp + 0xc0\n  4837: a2 = 0xffffffffffffffff\n  4840: a0 = 0\n  4842: ecalli 7 // 'get_storage'\n  4844: fallthrough\n      : @91 (gas: 20)\n  4845: a0 = u64 [sp + 0xf8]\n  4849: t0 = u64 [sp + 0xe0]\n  4853: a2 = u64 [sp + 0xf0]\n  4857: a3 = u64 [sp + 0xe8]\n  4861: a4 = a0 ^ s1\n  4864: u64 [sp + 0x38] = s1\n  4867: a1 = s1 <u a0\n  4870: a0 = u64 [sp + 0x58]\n  4873: a5 = a0 <u a2\n  4876: a5 = a1 if a4 != 0\n  4879: a1 = u64 [sp + 0x50]\n  4882: t1 = a3 ^ a1\n  4885: a3 = a1 <u a3\n  4888: a1 = u64 [sp + 0x48]\n  4891: a1 = a1 <u t0\n  4894: a1 = a3 if t1 != 0\n  4897: a0 = a0 ^ a2\n  4900: a0 = a0 | a4\n  4903: a1 = a5 if a0 != 0\n  4906: jump @95 if a1 == 0\n      : @92 (gas: 3)\n  4910: a1 = 0x20\n  4913: a0 = 0\n  4915: ra = 70, jump @0\n      : @93 [@dyn 35] (gas: 71)\n  4920: a1 = u64 [sp + 0x18]\n  4923: a1 = reverse a1\n  4925: a2 = u64 [sp + 0x20]\n  4928: a2 = reverse a2\n  4930: a3 = u64 [sp + 0x28]\n  4933: a3 = reverse a3\n  4935: a4 = u64 [sp + 0x30]\n  4938: a4 = reverse a4\n  4940: a5 = a4 >> 0x38\n  4943: u8 [a0 + 0x1f] = a5\n  4946: a5 = a4 >> 0x30\n  4949: u8 [a0 + 0x1e] = a5\n  4952: a5 = a4 >> 0x28\n  4955: u8 [a0 + 0x1d] = a5\n  4958: a5 = a4 >> 0x20\n  4961: u8 [a0 + 0x1c] = a5\n  4964: a5 = a4 >> 0x18\n  4967: u8 [a0 + 0x1b] = a5\n  4970: a5 = a4 >> 0x10\n  4973: u8 [a0 + 0x1a] = a5\n  4976: a5 = a4 >> 0x8\n  4979: u8 [a0 + 0x19] = a5\n  4982: u8 [a0 + 0x18] = a4\n  4985: u8 [a0 + 0x10] = a3\n  4988: a4 = a3 >> 0x38\n  4991: u8 [a0 + 0x17] = a4\n  4994: a4 = a3 >> 0x30\n  4997: u8 [a0 + 0x16] = a4\n  5000: a4 = a3 >> 0x28\n  5003: u8 [a0 + 0x15] = a4\n  5006: a4 = a3 >> 0x20\n  5009: u8 [a0 + 0x14] = a4\n  5012: a4 = a3 >> 0x18\n  5015: u8 [a0 + 0x13] = a4\n  5018: a4 = a3 >> 0x10\n  5021: u8 [a0 + 0x12] = a4\n  5024: a3 = a3 >> 0x8\n  5027: u8 [a0 + 0x11] = a3\n  5030: u8 [a0 + 0x8] = a2\n  5033: a3 = a2 >> 0x38\n  5036: u8 [a0 + 0xf] = a3\n  5039: a3 = a2 >> 0x30\n  5042: u8 [a0 + 0xe] = a3\n  5045: a3 = a2 >> 0x28\n  5048: u8 [a0 + 0xd] = a3\n  5051: a3 = a2 >> 0x20\n  5054: u8 [a0 + 0xc] = a3\n  5057: a3 = a2 >> 0x18\n  5060: u8 [a0 + 0xb] = a3\n  5063: a3 = a2 >> 0x10\n  5066: u8 [a0 + 0xa] = a3\n  5069: a2 = a2 >> 0x8\n  5072: u8 [a0 + 0x9] = a2\n  5075: u8 [a0] = a1\n  5077: a2 = a1 >> 0x38\n  5080: u8 [a0 + 0x7] = a2\n  5083: a2 = a1 >> 0x30\n  5086: u8 [a0 + 0x6] = a2\n  5089: a2 = a1 >> 0x28\n  5092: u8 [a0 + 0x5] = a2\n  5095: a2 = a1 >> 0x20\n  5098: u8 [a0 + 0x4] = a2\n  5101: a2 = a1 >> 0x18\n  5104: u8 [a0 + 0x3] = a2\n  5107: a2 = a1 >> 0x10\n  5110: u8 [a0 + 0x2] = a2\n  5113: a1 = a1 >> 0x8\n  5116: u8 [a0 + 0x1] = a1\n  5119: a1 = 0x20\n  5122: a0 = 0\n  5124: ra = 72, jump @0\n      : @94 [@dyn 36] (gas: 45)\n  5129: i32 a0 = a0 + 0\n  5131: i32 a2 = sp + 0xe0\n  5135: a1 = 0x20\n  5138: ecalli 8 // 'hash_keccak_256'\n  5140: a0 = u64 [sp + 0xe0]\n  5144: a1 = u64 [sp + 0xe8]\n  5148: a2 = u64 [sp + 0xf8]\n  5152: a3 = u64 [sp + 0xf0]\n  5156: t0 = reverse a0\n  5158: a1 = reverse a1\n  5160: a2 = reverse a2\n  5162: a3 = reverse a3\n  5164: a4 = u64 [sp + 0x50]\n  5167: a4 = a4 + a3\n  5170: a5 = u64 [sp + 0x48]\n  5173: a5 = a5 + a2\n  5176: a2 = a5 <u a2\n  5179: a4 = a4 + a2\n  5182: s1 = a4 ^ a3\n  5185: a3 = a4 <u a3\n  5188: a3 = a2 if s1 == 0\n  5191: a2 = u64 [sp + 0x58]\n  5194: a2 = a2 + a1\n  5197: a3 = a3 + a2\n  5200: s1 = a3 <u a2\n  5203: a0 = u64 [sp + 0x38]\n  5206: a0 = a0 + t0\n  5209: a1 = a2 <u a1\n  5212: a0 = a0 + a1\n  5215: a0 = a0 + s1\n  5218: a1 = u64 [sp + 0x40]\n  5221: u64 [a1 + 56] = 0\n  5224: u64 [a1 + 48] = 0\n  5227: u64 [a1 + 40] = 0\n  5230: u64 [a1 + 32] = 0\n  5233: u64 [a1] = a5\n  5235: u64 [a1 + 0x8] = a4\n  5238: u64 [a1 + 0x10] = a3\n  5241: u64 [a1 + 0x18] = a0\n  5244: sp = s0 + 0xfffffffffffffee0\n  5248: ra = u64 [sp + 0x118]\n  5252: s0 = u64 [sp + 0x110]\n  5256: s1 = u64 [sp + 0x108]\n  5260: sp = sp + 0x120\n  5264: ret\n      : @95 (gas: 8)\n  5266: u64 [sp + 144] = 0\n  5270: u64 [sp + 136] = 0\n  5274: u64 [sp + 128] = 0\n  5278: a0 = 0x4e487b7100000000\n  5288: a1 = sp + 0x80\n  5292: u64 [sp + 0x98] = a0\n  5296: a0 = 0\n  5298: ra = 74, jump @8\n      : @96 [@dyn 37] (gas: 7)\n  5303: u64 [sp + 120] = 0\n  5306: u64 [sp + 112] = 0\n  5309: u64 [sp + 96] = 0x32\n  5313: a0 = 0x4\n  5316: a1 = sp + 0x60\n  5319: u64 [sp + 104] = 0\n  5322: ra = 76, jump @8\n      : @97 [@dyn 38] (gas: 3)\n  5327: a1 = 0x24\n  5330: a0 = 0\n  5332: ra = 78, jump @0\n      : @98 [@dyn 39] (gas: 6)\n  5337: i32 a1 = a0 + 0\n  5339: a0 = 0x1\n  5342: a2 = 0x24\n  5345: ra = 0x50\n  5348: ecalli 13 // 'seal_return'\n  5350: fallthrough\n      : @99 [@dyn 40] (gas: 236)\n  5351: sp = sp + 0xffffffffffffffa0\n  5354: u64 [sp + 0x58] = ra\n  5357: u64 [sp + 0x50] = s0\n  5360: u64 [sp + 0x48] = s1\n  5363: u64 [sp] = a0\n  5365: t0 = u64 [a1]\n  5367: t1 = u64 [a2]\n  5369: a0 = u64 [a2 + 0x8]\n  5372: a3 = u64 [a2 + 0x10]\n  5375: a4 = u64 [a1 + 0x18]\n  5378: s0 = u64 [a1 + 0x10]\n  5381: a2 = u64 [a2 + 0x18]\n  5384: a1 = u64 [a1 + 0x8]\n  5387: t2 = a4 >u 0\n  5389: s1 = s0 >u 0\n  5391: s1 = t2 if a4 != 0\n  5394: ra = a1 >u 0\n  5396: a5 = t0 <u 0x100\n  5400: t2 = a5 ^ 0x1\n  5403: t2 = ra if a1 != 0\n  5406: a4 = a4 | s0\n  5409: t2 = s1 if a4 != 0\n  5412: u8 [sp + 71] = 0\n  5415: u8 [sp + 70] = 0\n  5418: u8 [sp + 69] = 0\n  5421: u8 [sp + 68] = 0\n  5424: u8 [sp + 67] = 0\n  5427: u8 [sp + 66] = 0\n  5430: u8 [sp + 65] = 0\n  5433: u8 [sp + 64] = 0\n  5436: u8 [sp + 63] = 0\n  5439: u8 [sp + 62] = 0\n  5442: u8 [sp + 61] = 0\n  5445: u8 [sp + 60] = 0\n  5448: u8 [sp + 59] = 0\n  5451: u8 [sp + 58] = 0\n  5454: u8 [sp + 57] = 0\n  5457: u8 [sp + 56] = 0\n  5460: u8 [sp + 55] = 0\n  5463: u8 [sp + 54] = 0\n  5466: u8 [sp + 53] = 0\n  5469: u8 [sp + 52] = 0\n  5472: u8 [sp + 51] = 0\n  5475: u8 [sp + 50] = 0\n  5478: u8 [sp + 49] = 0\n  5481: u8 [sp + 48] = 0\n  5484: u8 [sp + 47] = 0\n  5487: u8 [sp + 46] = 0\n  5490: u8 [sp + 45] = 0\n  5493: u8 [sp + 44] = 0\n  5496: u8 [sp + 43] = 0\n  5499: u8 [sp + 42] = 0\n  5502: u8 [sp + 41] = 0\n  5505: u8 [sp + 40] = 0\n  5508: u8 [sp + 0x20] = a2\n  5511: u8 [sp + 0x18] = a3\n  5514: u8 [sp + 0x10] = a0\n  5517: u8 [sp + 0x8] = t1\n  5520: a1 = a2 >> 0x38\n  5523: u8 [sp + 0x27] = a1\n  5526: a1 = a2 >> 0x30\n  5529: u8 [sp + 0x26] = a1\n  5532: a1 = a2 >> 0x28\n  5535: u8 [sp + 0x25] = a1\n  5538: a1 = a2 >> 0x20\n  5541: u8 [sp + 0x24] = a1\n  5544: a1 = a2 >> 0x18\n  5547: u8 [sp + 0x23] = a1\n  5550: a1 = a2 >> 0x10\n  5553: u8 [sp + 0x22] = a1\n  5556: a2 = a2 >> 0x8\n  5559: u8 [sp + 0x21] = a2\n  5562: a1 = a3 >> 0x38\n  5565: u8 [sp + 0x1f] = a1\n  5568: a1 = a3 >> 0x30\n  5571: u8 [sp + 0x1e] = a1\n  5574: a1 = a3 >> 0x28\n  5577: u8 [sp + 0x1d] = a1\n  5580: a1 = a3 >> 0x20\n  5583: u8 [sp + 0x1c] = a1\n  5586: a1 = a3 >> 0x18\n  5589: u8 [sp + 0x1b] = a1\n  5592: a1 = a3 >> 0x10\n  5595: u8 [sp + 0x1a] = a1\n  5598: a3 = a3 >> 0x8\n  5601: u8 [sp + 0x19] = a3\n  5604: a1 = a0 >> 0x38\n  5607: u8 [sp + 0x17] = a1\n  5610: a1 = a0 >> 0x30\n  5613: u8 [sp + 0x16] = a1\n  5616: a1 = a0 >> 0x28\n  5619: u8 [sp + 0x15] = a1\n  5622: a1 = a0 >> 0x20\n  5625: u8 [sp + 0x14] = a1\n  5628: a1 = a0 >> 0x18\n  5631: u8 [sp + 0x13] = a1\n  5634: a1 = a0 >> 0x10\n  5637: u8 [sp + 0x12] = a1\n  5640: a0 = a0 >> 0x8\n  5643: u8 [sp + 0x11] = a0\n  5646: a0 = t1 >> 0x38\n  5649: u8 [sp + 0xf] = a0\n  5652: a0 = t1 >> 0x30\n  5655: u8 [sp + 0xe] = a0\n  5658: a0 = t1 >> 0x28\n  5661: u8 [sp + 0xd] = a0\n  5664: a0 = t1 >> 0x20\n  5667: u8 [sp + 0xc] = a0\n  5670: a0 = t1 >> 0x18\n  5673: u8 [sp + 0xb] = a0\n  5676: a0 = t1 >> 0x10\n  5679: u8 [sp + 0xa] = a0\n  5682: a0 = t1 >> 0x8\n  5685: u8 [sp + 0x9] = a0\n  5688: a0 = t0 << 0x38\n  5691: a0 = a0 >> 0x3b\n  5694: a2 = sp + 0x8\n  5697: a2 = a2 + a0\n  5700: a0 = u8 [a2 + 0x11]\n  5703: a1 = u8 [a2 + 0x10]\n  5706: a3 = u8 [a2 + 0x12]\n  5709: a4 = u8 [a2 + 0x13]\n  5712: a0 = a0 << 0x8\n  5715: a0 = a0 | a1\n  5718: a3 = a3 << 0x10\n  5721: a4 = a4 << 0x18\n  5724: a3 = a3 | a4\n  5727: a0 = a0 | a3\n  5730: a1 = u8 [a2 + 0x15]\n  5733: a3 = u8 [a2 + 0x14]\n  5736: a4 = u8 [a2 + 0x16]\n  5739: a5 = u8 [a2 + 0x17]\n  5742: a1 = a1 << 0x8\n  5745: a1 = a1 | a3\n  5748: a4 = a4 << 0x10\n  5751: a5 = a5 << 0x18\n  5754: a4 = a4 | a5\n  5757: a1 = a1 | a4\n  5760: a1 = a1 << 0x20\n  5763: ra = a1 | a0\n  5766: a3 = t0 & 0x7\n  5769: a1 = ra >> a3\n  5772: a0 = u8 [a2 + 0x19]\n  5775: a4 = u8 [a2 + 0x18]\n  5778: s1 = u8 [a2 + 0x1a]\n  5781: s0 = u8 [a2 + 0x1b]\n  5784: a0 = a0 << 0x8\n  5787: a0 = a0 | a4\n  5790: s1 = s1 << 0x10\n  5793: s0 = s0 << 0x18\n  5796: s0 = s0 | s1\n  5799: a0 = a0 | s0\n  5802: a4 = u8 [a2 + 0x1d]\n  5805: s1 = u8 [a2 + 0x1c]\n  5808: s0 = u8 [a2 + 0x1e]\n  5811: a5 = u8 [a2 + 0x1f]\n  5814: a4 = a4 << 0x8\n  5817: a4 = a4 | s1\n  5820: s0 = s0 << 0x10\n  5823: a5 = a5 << 0x18\n  5826: a5 = a5 | s0\n  5829: a4 = a4 | a5\n  5832: a4 = a4 << 0x20\n  5835: t0 = a4 | a0\n  5838: a0 = t0 << 0x1\n  5841: t1 = a3 ^ 0x3f\n  5844: a4 = a0 << t1\n  5847: a4 = a4 | a1\n  5850: a0 = u8 [a2 + 0x9]\n  5853: a1 = u8 [a2 + 0x8]\n  5856: a5 = u8 [a2 + 0xa]\n  5859: s0 = u8 [a2 + 0xb]\n  5862: a0 = a0 << 0x8\n  5865: a0 = a0 | a1\n  5868: a5 = a5 << 0x10\n  5871: s0 = s0 << 0x18\n  5874: a5 = a5 | s0\n  5877: a0 = a0 | a5\n  5880: a1 = u8 [a2 + 0xd]\n  5883: a5 = u8 [a2 + 0xc]\n  5886: s0 = u8 [a2 + 0xe]\n  5889: s1 = u8 [a2 + 0xf]\n  5892: a1 = a1 << 0x8\n  5895: a1 = a1 | a5\n  5898: s0 = s0 << 0x10\n  5901: s1 = s1 << 0x18\n  5904: s0 = s0 | s1\n  5907: a1 = a1 | s0\n  5910: a1 = a1 << 0x20\n  5913: a1 = a1 | a0\n  5916: a0 = a1 >> a3\n  5919: ra = ra << 0x1\n  5922: a5 = a3 ^ 0xffffffffffffffff\n  5925: a5 = ra << a5\n  5928: ra = a0 | a5\n  5931: a0 = u8 [a2 + 0x1]\n  5934: s0 = u8 [a2]\n  5936: s1 = u8 [a2 + 0x2]\n  5939: a5 = u8 [a2 + 0x3]\n  5942: a0 = a0 << 0x8\n  5945: a0 = a0 | s0\n  5948: s1 = s1 << 0x10\n  5951: a5 = a5 << 0x18\n  5954: a5 = a5 | s1\n  5957: a0 = a0 | a5\n  5960: a5 = u8 [a2 + 0x5]\n  5963: s0 = u8 [a2 + 0x4]\n  5966: s1 = u8 [a2 + 0x6]\n  5969: a2 = u8 [a2 + 0x7]\n  5972: a5 = a5 << 0x8\n  5975: a5 = a5 | s0\n  5978: s1 = s1 << 0x10\n  5981: a2 = a2 << 0x18\n  5984: a2 = a2 | s1\n  5987: a2 = a2 | a5\n  5990: a2 = a2 << 0x20\n  5993: a0 = a0 | a2\n  5996: a0 = a0 >> a3\n  5999: a1 = a1 << 0x1\n  6002: a1 = a1 << t1\n  6005: a0 = a0 | a1\n  6008: a1 = t0 >> a3\n  6011: a0 = 0 if t2 != 0\n  6013: ra = 0 if t2 != 0\n  6015: a4 = 0 if t2 != 0\n  6017: a1 = 0 if t2 != 0\n  6019: a2 = u64 [sp]\n  6021: u64 [a2 + 0x18] = a1\n  6024: u64 [a2 + 0x10] = a4\n  6027: u64 [a2 + 0x8] = ra\n  6030: u64 [a2] = a0\n  6032: ra = u64 [sp + 0x58]\n  6035: s0 = u64 [sp + 0x50]\n  6038: s1 = u64 [sp + 0x48]\n  6041: sp = sp + 0x60\n  6044: ret\n      : @100 (gas: 19)\n  6046: t1 = u64 [sp + 0x8]\n  6049: t0 = u64 [sp]\n  6051: a0 = u64 [sp + 0x118]\n  6055: a1 = u64 [sp + 0x100]\n  6059: t2 = u64 [sp + 0x110]\n  6063: a3 = u64 [sp + 0x108]\n  6067: a4 = a0 ^ s1\n  6070: a0 = s1 <u a0\n  6073: a2 = u64 [sp + 0x10]\n  6076: a5 = a2 <u t2\n  6079: a5 = a0 if a4 != 0\n  6082: a0 = a3 ^ t0\n  6085: a3 = t0 <u a3\n  6088: a1 = t1 <u a1\n  6091: a1 = a3 if a0 != 0\n  6094: a0 = t2 ^ a2\n  6097: a0 = a0 | a4\n  6100: a1 = a5 if a0 != 0\n  6103: jump @103 if a1 == 0\n      : @101 (gas: 12)\n  6107: u64 [sp + 0x60] = t1\n  6110: u64 [sp + 152] = 0\n  6114: u64 [sp + 144] = 0\n  6118: u64 [sp + 136] = 0\n  6122: u64 [sp + 128] = 0\n  6126: u64 [sp + 0x68] = t0\n  6129: u64 [sp + 0x70] = a2\n  6132: a0 = sp + 0xa0\n  6136: a1 = sp + 0x80\n  6140: a2 = sp + 0x60\n  6143: u64 [sp + 0x78] = s1\n  6146: ra = 82, jump @90\n      : @102 [@dyn 41] (gas: 215)\n  6151: a0 = u64 [sp + 0xd8]\n  6155: u64 [sp + 0x10] = a0\n  6158: a0 = u64 [sp + 0xd0]\n  6162: u64 [sp + 0x8] = a0\n  6165: s1 = u64 [sp + 0xc8]\n  6169: a0 = u64 [sp + 0xc0]\n  6173: u64 [sp] = a0\n  6175: a0 = u64 [sp + 0xb8]\n  6179: a1 = u64 [sp + 0xb0]\n  6183: a2 = u64 [sp + 0xa8]\n  6187: a3 = u64 [sp + 0xa0]\n  6191: u64 [sp + 0xf8] = a0\n  6195: u64 [sp + 0xf0] = a1\n  6199: u64 [sp + 0xe8] = a2\n  6203: u64 [sp + 0xe0] = a3\n  6207: u64 [sp + 280] = 0\n  6211: u64 [sp + 272] = 0\n  6215: u64 [sp + 264] = 0\n  6219: u64 [sp + 256] = 0\n  6223: u32 [sp + 288] = 0x20\n  6228: i32 a1 = sp + 0xe0\n  6232: i32 a3 = sp + 0x100\n  6236: i32 a4 = sp + 0x120\n  6240: a2 = 0xffffffffffffffff\n  6243: a0 = 0\n  6245: ecalli 7 // 'get_storage'\n  6247: a1 = u64 [sp + 0x100]\n  6251: a2 = u64 [sp + 0x108]\n  6255: t1 = u64 [sp]\n  6257: a0 = t1 >> 0x3d\n  6260: a3 = s1 << 0x3\n  6263: a3 = a3 | a0\n  6266: s1 = s1 >> 0x3d\n  6269: a4 = u64 [sp + 0x8]\n  6272: a0 = a4 << 0x3\n  6275: s1 = s1 | a0\n  6278: a0 = a4 >> 0x3d\n  6281: a4 = u64 [sp + 0x10]\n  6284: a4 = a4 << 0x3\n  6287: a4 = a4 | a0\n  6290: a0 = t1 << 0x3\n  6293: a5 = a3 >u 0\n  6295: a0 = a0 <u 0x100\n  6299: t0 = a0 ^ 0x1\n  6302: t0 = a5 if a3 != 0\n  6305: a3 = a4 >u 0\n  6307: a5 = s1 >u 0\n  6309: a5 = a3 if a4 != 0\n  6312: a3 = u64 [sp + 0x110]\n  6316: s1 = s1 | a4\n  6319: a4 = u64 [sp + 0x118]\n  6323: t0 = a5 if s1 != 0\n  6326: u8 [sp + 95] = 0\n  6329: u8 [sp + 94] = 0\n  6332: u8 [sp + 93] = 0\n  6335: u8 [sp + 92] = 0\n  6338: u8 [sp + 91] = 0\n  6341: u8 [sp + 90] = 0\n  6344: u8 [sp + 89] = 0\n  6347: u8 [sp + 88] = 0\n  6350: u8 [sp + 87] = 0\n  6353: u8 [sp + 86] = 0\n  6356: u8 [sp + 85] = 0\n  6359: u8 [sp + 84] = 0\n  6362: u8 [sp + 83] = 0\n  6365: u8 [sp + 82] = 0\n  6368: u8 [sp + 81] = 0\n  6371: u8 [sp + 80] = 0\n  6374: u8 [sp + 79] = 0\n  6377: u8 [sp + 78] = 0\n  6380: u8 [sp + 77] = 0\n  6383: u8 [sp + 76] = 0\n  6386: u8 [sp + 75] = 0\n  6389: u8 [sp + 74] = 0\n  6392: u8 [sp + 73] = 0\n  6395: u8 [sp + 72] = 0\n  6398: u8 [sp + 71] = 0\n  6401: u8 [sp + 70] = 0\n  6404: u8 [sp + 69] = 0\n  6407: u8 [sp + 68] = 0\n  6410: u8 [sp + 67] = 0\n  6413: u8 [sp + 66] = 0\n  6416: u8 [sp + 65] = 0\n  6419: u8 [sp + 64] = 0\n  6422: u8 [sp + 0x38] = a4\n  6425: u8 [sp + 0x30] = a3\n  6428: u8 [sp + 0x28] = a2\n  6431: u8 [sp + 0x20] = a1\n  6434: a5 = a4 >> 0x38\n  6437: u8 [sp + 0x3f] = a5\n  6440: a5 = a4 >> 0x30\n  6443: u8 [sp + 0x3e] = a5\n  6446: a5 = a4 >> 0x28\n  6449: u8 [sp + 0x3d] = a5\n  6452: a5 = a4 >> 0x20\n  6455: u8 [sp + 0x3c] = a5\n  6458: a5 = a4 >> 0x18\n  6461: u8 [sp + 0x3b] = a5\n  6464: a5 = a4 >> 0x10\n  6467: u8 [sp + 0x3a] = a5\n  6470: a4 = a4 >> 0x8\n  6473: u8 [sp + 0x39] = a4\n  6476: a4 = a3 >> 0x38\n  6479: u8 [sp + 0x37] = a4\n  6482: a4 = a3 >> 0x30\n  6485: u8 [sp + 0x36] = a4\n  6488: a4 = a3 >> 0x28\n  6491: u8 [sp + 0x35] = a4\n  6494: a4 = a3 >> 0x20\n  6497: u8 [sp + 0x34] = a4\n  6500: a4 = a3 >> 0x18\n  6503: u8 [sp + 0x33] = a4\n  6506: a4 = a3 >> 0x10\n  6509: u8 [sp + 0x32] = a4\n  6512: a3 = a3 >> 0x8\n  6515: u8 [sp + 0x31] = a3\n  6518: a3 = a2 >> 0x38\n  6521: u8 [sp + 0x2f] = a3\n  6524: a3 = a2 >> 0x30\n  6527: u8 [sp + 0x2e] = a3\n  6530: a3 = a2 >> 0x28\n  6533: u8 [sp + 0x2d] = a3\n  6536: a3 = a2 >> 0x20\n  6539: u8 [sp + 0x2c] = a3\n  6542: a3 = a2 >> 0x18\n  6545: u8 [sp + 0x2b] = a3\n  6548: a3 = a2 >> 0x10\n  6551: u8 [sp + 0x2a] = a3\n  6554: a2 = a2 >> 0x8\n  6557: u8 [sp + 0x29] = a2\n  6560: a2 = a1 >> 0x38\n  6563: u8 [sp + 0x27] = a2\n  6566: a2 = a1 >> 0x30\n  6569: u8 [sp + 0x26] = a2\n  6572: a2 = a1 >> 0x28\n  6575: u8 [sp + 0x25] = a2\n  6578: a2 = a1 >> 0x20\n  6581: u8 [sp + 0x24] = a2\n  6584: a2 = a1 >> 0x18\n  6587: u8 [sp + 0x23] = a2\n  6590: a2 = a1 >> 0x10\n  6593: u8 [sp + 0x22] = a2\n  6596: a1 = a1 >> 0x8\n  6599: u8 [sp + 0x21] = a1\n  6602: a1 = t1 & 0x1f\n  6605: a2 = sp + 0x20\n  6608: a1 = a1 + a2\n  6611: a2 = u8 [a1 + 0x9]\n  6614: a3 = u8 [a1 + 0x8]\n  6617: a4 = u8 [a1 + 0xa]\n  6620: a5 = u8 [a1 + 0xb]\n  6623: a2 = a2 << 0x8\n  6626: a2 = a2 | a3\n  6629: a4 = a4 << 0x10\n  6632: a5 = a5 << 0x18\n  6635: a4 = a4 | a5\n  6638: a2 = a2 | a4\n  6641: a3 = u8 [a1 + 0xd]\n  6644: a4 = u8 [a1 + 0xc]\n  6647: a5 = u8 [a1 + 0xe]\n  6650: s1 = u8 [a1 + 0xf]\n  6653: a3 = a3 << 0x8\n  6656: a3 = a3 | a4\n  6659: a5 = a5 << 0x10\n  6662: s1 = s1 << 0x18\n  6665: a5 = a5 | s1\n  6668: a3 = a3 | a5\n  6671: a3 = a3 << 0x20\n  6674: a2 = a2 | a3\n  6677: a3 = u8 [a1 + 0x1]\n  6680: a4 = u8 [a1]\n  6682: a5 = u8 [a1 + 0x2]\n  6685: s1 = u8 [a1 + 0x3]\n  6688: a3 = a3 << 0x8\n  6691: a3 = a3 | a4\n  6694: a5 = a5 << 0x10\n  6697: s1 = s1 << 0x18\n  6700: a5 = a5 | s1\n  6703: a3 = a3 | a5\n  6706: a4 = u8 [a1 + 0x5]\n  6709: a5 = u8 [a1 + 0x4]\n  6712: s1 = u8 [a1 + 0x6]\n  6715: a0 = u8 [a1 + 0x7]\n  6718: a4 = a4 << 0x8\n  6721: a4 = a4 | a5\n  6724: s1 = s1 << 0x10\n  6727: a0 = a0 << 0x18\n  6730: a0 = a0 | s1\n  6733: a0 = a0 | a4\n  6736: a0 = a0 << 0x20\n  6739: a3 = a3 | a0\n  6742: a0 = u8 [a1 + 0x11]\n  6745: a4 = u8 [a1 + 0x10]\n  6748: a5 = u8 [a1 + 0x12]\n  6751: a1 = u8 [a1 + 0x13]\n  6754: a0 = a0 << 0x8\n  6757: a0 = a0 | a4\n  6760: a5 = a5 << 0x10\n  6763: a1 = a1 << 0x18\n  6766: a1 = a1 | a5\n  6769: a0 = a0 | a1\n  6772: a3 = 0 if t0 != 0\n  6774: a2 = 0 if t0 != 0\n  6776: a0 = 0 if t0 != 0\n  6778: a1 = u64 [sp + 0x18]\n  6781: u64 [a1 + 0x10] = a0\n  6784: u64 [a1 + 0x8] = a2\n  6787: u64 [a1] = a3\n  6789: u64 [a1 + 24] = 0\n  6792: sp = s0 + 0xfffffffffffffec0\n  6796: ra = u64 [sp + 0x138]\n  6800: s0 = u64 [sp + 0x130]\n  6804: s1 = u64 [sp + 0x128]\n  6808: sp = sp + 0x140\n  6812: ret\n      : @103 (gas: 2)\n  6814: a0 = 0\n  6816: ra = 84, jump @0\n      : @104 [@dyn 42] (gas: 6)\n  6821: i32 a1 = a0 + 0\n  6823: a0 = 0x1\n  6826: a2 = 0\n  6828: ra = 0x56\n  6831: ecalli 13 // 'seal_return'\n  6833: fallthrough\n      : @105 [@dyn 43] (gas: 12)\n  6834: a2 = u64 [a1 + 0x10]\n  6837: a3 = u64 [a1 + 0x18]\n  6840: a4 = u64 [a1 + 0x8]\n  6843: a1 = u64 [a1]\n  6845: a3 = a3 | a4\n  6848: a4 = a1 | a2\n  6851: a4 = a4 | a3\n  6854: a4 = a4 >> 0x20\n  6857: a2 = a2 | a3\n  6860: a2 = a2 << 0x20\n  6863: a2 = a2 | a4\n  6866: jump @108 if a2 != 0\n      : @106 (gas: 13)\n  6870: sp = sp + 0xffffffffffffffe0\n  6873: u64 [sp + 0x18] = ra\n  6876: u64 [sp + 0x10] = s0\n  6879: u64 [sp + 0x8] = s1\n  6882: a2 = u64 [a0 + 0x10]\n  6885: a3 = u64 [a0 + 0x8]\n  6888: u64 [sp] = a3\n  6890: s1 = u64 [a0]\n  6892: a2 = a2 << 0x20\n  6895: s0 = a2 >> 0x20\n  6898: i32 a0 = a1 + 0\n  6900: a1 = 0x20\n  6903: ra = 88, jump @0\n      : @107 [@dyn 44] (gas: 59)\n  6908: a1 = reverse s0\n  6910: a2 = u64 [sp]\n  6912: a2 = reverse a2\n  6914: a3 = reverse s1\n  6916: a4 = a3 >> 0x38\n  6919: u8 [a0 + 0x1f] = a4\n  6922: a4 = a3 >> 0x30\n  6925: u8 [a0 + 0x1e] = a4\n  6928: a4 = a3 >> 0x28\n  6931: u8 [a0 + 0x1d] = a4\n  6934: a4 = a3 >> 0x20\n  6937: u8 [a0 + 0x1c] = a4\n  6940: a4 = a3 >> 0x18\n  6943: u8 [a0 + 0x1b] = a4\n  6946: a4 = a3 >> 0x10\n  6949: u8 [a0 + 0x1a] = a4\n  6952: a4 = a3 >> 0x8\n  6955: u8 [a0 + 0x19] = a4\n  6958: u8 [a0 + 0x18] = a3\n  6961: u8 [a0 + 0x10] = a2\n  6964: u8 [a0 + 11] = 0\n  6967: u8 [a0 + 10] = 0\n  6970: u8 [a0 + 9] = 0\n  6973: u8 [a0 + 7] = 0\n  6976: u8 [a0 + 6] = 0\n  6979: u8 [a0 + 5] = 0\n  6982: u8 [a0 + 4] = 0\n  6985: u8 [a0 + 3] = 0\n  6988: u8 [a0 + 2] = 0\n  6991: u8 [a0 + 1] = 0\n  6994: u8 [a0 + 0] = 0\n  6996: a3 = a2 >> 0x38\n  6999: u8 [a0 + 0x17] = a3\n  7002: a3 = a2 >> 0x30\n  7005: u8 [a0 + 0x16] = a3\n  7008: a3 = a2 >> 0x28\n  7011: u8 [a0 + 0x15] = a3\n  7014: a3 = a2 >> 0x20\n  7017: u8 [a0 + 0x14] = a3\n  7020: a3 = a2 >> 0x18\n  7023: u8 [a0 + 0x13] = a3\n  7026: a3 = a2 >> 0x10\n  7029: u8 [a0 + 0x12] = a3\n  7032: a2 = a2 >> 0x8\n  7035: u8 [a0 + 0x11] = a2\n  7038: u8 [a0 + 0x8] = a1\n  7041: a2 = a1 >> 0x38\n  7044: u8 [a0 + 0xf] = a2\n  7047: a2 = a1 >> 0x30\n  7050: u8 [a0 + 0xe] = a2\n  7053: a2 = a1 >> 0x28\n  7056: u8 [a0 + 0xd] = a2\n  7059: a1 = a1 >> 0x20\n  7062: u8 [a0 + 0xc] = a1\n  7065: ra = u64 [sp + 0x18]\n  7068: s0 = u64 [sp + 0x10]\n  7071: s1 = u64 [sp + 0x8]\n  7074: sp = sp + 0x20\n  7077: ret\n      : @108 (gas: 1)\n  7079: trap\n      : @109 (gas: 8)\n  7080: a0 = u64 [sp + 0x70]\n  7083: a1 = u64 [sp + 0x78]\n  7086: a2 = u64 [sp + 0x68]\n  7089: a3 = u64 [sp + 0x60]\n  7092: a1 = a1 | a2\n  7095: a0 = a0 | a3\n  7098: a0 = a0 | a1\n  7101: jump @115 if a0 != 0\n      : @110 (gas: 2)\n  7105: a0 = i32 [0x20044]\n  7110: jump @115 if a0 <=u 35\n      : @111 (gas: 44)\n  7115: i32 a0 = sp + 0x80\n  7119: a1 = 0x4\n  7122: ecalli 3 // 'call_data_load'\n  7124: a2 = u64 [sp + 0x80]\n  7128: a0 = u64 [sp + 0x88]\n  7132: a1 = u64 [sp + 0x90]\n  7136: a3 = u64 [sp + 0x98]\n  7140: u64 [sp + 0x38] = a3\n  7143: u64 [sp + 0x30] = a1\n  7146: u64 [sp + 0x28] = a0\n  7149: a0 = sp + 0x40\n  7152: a1 = sp + 0x20\n  7155: u64 [sp + 0x20] = a2\n  7158: ra = 0x5a\n  7161: sp = sp + 0xfffffffffffffec0\n  7165: u64 [sp + 0x138] = ra\n  7169: u64 [sp + 0x130] = s0\n  7173: u64 [sp + 0x128] = s1\n  7177: s0 = sp + 0x140\n  7181: sp = sp & 0xffffffffffffffe0\n  7184: u64 [sp + 0x18] = a0\n  7187: a0 = u64 [a1]\n  7189: u64 [sp + 0x8] = a0\n  7192: a0 = u64 [a1 + 0x8]\n  7195: u64 [sp] = a0\n  7197: a0 = u64 [a1 + 0x10]\n  7200: u64 [sp + 0x10] = a0\n  7203: s1 = u64 [a1 + 0x18]\n  7206: u64 [sp + 248] = 0\n  7210: u64 [sp + 240] = 0\n  7214: u64 [sp + 232] = 0\n  7218: u64 [sp + 224] = 0\n  7222: u64 [sp + 280] = 0\n  7226: u64 [sp + 272] = 0\n  7230: u64 [sp + 264] = 0\n  7234: u64 [sp + 256] = 0\n  7238: u32 [sp + 288] = 0x20\n  7243: i32 a1 = sp + 0xe0\n  7247: i32 a3 = sp + 0x100\n  7251: i32 a4 = sp + 0x120\n  7255: a2 = 0xffffffffffffffff\n  7258: a0 = 0\n  7260: ecalli 7 // 'get_storage'\n  7262: jump @100\n      : @112 [@dyn 45] (gas: 11)\n  7265: a0 = u64 [sp + 0x58]\n  7268: u64 [sp] = a0\n  7270: a0 = u64 [sp + 0x50]\n  7273: u64 [sp + 0x8] = a0\n  7276: a0 = u64 [sp + 0x48]\n  7279: u64 [sp + 0x10] = a0\n  7282: a0 = u64 [sp + 0x40]\n  7285: u64 [sp + 0x18] = a0\n  7288: a0 = 0x40\n  7291: a1 = 0x20\n  7294: ra = 92, jump @0\n      : @113 [@dyn 46] (gas: 100)\n  7299: a1 = u8 [a0 + 0x11]\n  7302: a2 = u8 [a0 + 0x10]\n  7305: a3 = u8 [a0 + 0x12]\n  7308: a4 = u8 [a0 + 0x13]\n  7311: a1 = a1 << 0x8\n  7314: a1 = a1 | a2\n  7317: a3 = a3 << 0x10\n  7320: a4 = a4 << 0x18\n  7323: a3 = a3 | a4\n  7326: a1 = a1 | a3\n  7329: a2 = u8 [a0 + 0x15]\n  7332: a3 = u8 [a0 + 0x14]\n  7335: a4 = u8 [a0 + 0x16]\n  7338: a5 = u8 [a0 + 0x17]\n  7341: a2 = a2 << 0x8\n  7344: a2 = a2 | a3\n  7347: a4 = a4 << 0x10\n  7350: a5 = a5 << 0x18\n  7353: a4 = a4 | a5\n  7356: a2 = a2 | a4\n  7359: a2 = a2 << 0x20\n  7362: t0 = a2 | a1\n  7365: a2 = u8 [a0 + 0x1]\n  7368: a3 = u8 [a0]\n  7370: a4 = u8 [a0 + 0x2]\n  7373: a5 = u8 [a0 + 0x3]\n  7376: a2 = a2 << 0x8\n  7379: a2 = a2 | a3\n  7382: a4 = a4 << 0x10\n  7385: a5 = a5 << 0x18\n  7388: a4 = a4 | a5\n  7391: a2 = a2 | a4\n  7394: a3 = u8 [a0 + 0x5]\n  7397: a4 = u8 [a0 + 0x4]\n  7400: a5 = u8 [a0 + 0x6]\n  7403: s1 = u8 [a0 + 0x7]\n  7406: a3 = a3 << 0x8\n  7409: a3 = a3 | a4\n  7412: a5 = a5 << 0x10\n  7415: s1 = s1 << 0x18\n  7418: a5 = a5 | s1\n  7421: a3 = a3 | a5\n  7424: a3 = a3 << 0x20\n  7427: a2 = a2 | a3\n  7430: a3 = u8 [a0 + 0x19]\n  7433: a4 = u8 [a0 + 0x18]\n  7436: a5 = u8 [a0 + 0x1a]\n  7439: s1 = u8 [a0 + 0x1b]\n  7442: a3 = a3 << 0x8\n  7445: a3 = a3 | a4\n  7448: a5 = a5 << 0x10\n  7451: s1 = s1 << 0x18\n  7454: a5 = a5 | s1\n  7457: a3 = a3 | a5\n  7460: a4 = u8 [a0 + 0x1d]\n  7463: a5 = u8 [a0 + 0x1c]\n  7466: s1 = u8 [a0 + 0x1e]\n  7469: a1 = u8 [a0 + 0x1f]\n  7472: a4 = a4 << 0x8\n  7475: a4 = a4 | a5\n  7478: s1 = s1 << 0x10\n  7481: a1 = a1 << 0x18\n  7484: a1 = a1 | s1\n  7487: a1 = a1 | a4\n  7490: a1 = a1 << 0x20\n  7493: a3 = a3 | a1\n  7496: a1 = u8 [a0 + 0x9]\n  7499: a4 = u8 [a0 + 0x8]\n  7502: a5 = u8 [a0 + 0xa]\n  7505: s1 = u8 [a0 + 0xb]\n  7508: a1 = a1 << 0x8\n  7511: a1 = a1 | a4\n  7514: a5 = a5 << 0x10\n  7517: s1 = s1 << 0x18\n  7520: a5 = a5 | s1\n  7523: a1 = a1 | a5\n  7526: a4 = u8 [a0 + 0xd]\n  7529: a5 = u8 [a0 + 0xc]\n  7532: s1 = u8 [a0 + 0xe]\n  7535: a0 = u8 [a0 + 0xf]\n  7538: a4 = a4 << 0x8\n  7541: a4 = a4 | a5\n  7544: s1 = s1 << 0x10\n  7547: a0 = a0 << 0x18\n  7550: a0 = a0 | s1\n  7553: a0 = a0 | a4\n  7556: a0 = a0 << 0x20\n  7559: a0 = a0 | a1\n  7562: a1 = reverse a0\n  7564: a0 = reverse a3\n  7566: a2 = reverse a2\n  7568: a3 = reverse t0\n  7570: a2 = a2 | a3\n  7573: a3 = a0 | a1\n  7576: a3 = a3 | a2\n  7579: a3 = a3 >> 0x20\n  7582: a1 = a1 | a2\n  7585: a1 = a1 << 0x20\n  7588: a1 = a1 | a3\n  7591: jump @117 if a1 == 0\n      : @114 (gas: 1)\n  7594: trap\n      : @115 (gas: 3)\n  7595: a0 = 0\n  7597: a1 = 0\n  7599: ra = 94, jump @0\n      : @116 [@dyn 47] (gas: 5)\n  7604: i32 a1 = a0 + 0\n  7606: a0 = 0x1\n  7609: a2 = 0\n  7611: ecalli 13 // 'seal_return'\n  7613: fallthrough\n      : @117 (gas: 4)\n  7614: i32 s1 = a0 + 0\n  7616: a1 = 0x20\n  7619: a0 = s1\n  7621: ra = 96, jump @0\n      : @118 [@dyn 48] (gas: 71)\n  7626: a1 = u64 [sp]\n  7628: a1 = reverse a1\n  7630: a2 = u64 [sp + 0x8]\n  7633: a2 = reverse a2\n  7635: a3 = u64 [sp + 0x10]\n  7638: a3 = reverse a3\n  7640: a4 = u64 [sp + 0x18]\n  7643: a4 = reverse a4\n  7645: a5 = a4 >> 0x38\n  7648: u8 [a0 + 0x1f] = a5\n  7651: a5 = a4 >> 0x30\n  7654: u8 [a0 + 0x1e] = a5\n  7657: a5 = a4 >> 0x28\n  7660: u8 [a0 + 0x1d] = a5\n  7663: a5 = a4 >> 0x20\n  7666: u8 [a0 + 0x1c] = a5\n  7669: a5 = a4 >> 0x18\n  7672: u8 [a0 + 0x1b] = a5\n  7675: a5 = a4 >> 0x10\n  7678: u8 [a0 + 0x1a] = a5\n  7681: a5 = a4 >> 0x8\n  7684: u8 [a0 + 0x19] = a5\n  7687: u8 [a0 + 0x18] = a4\n  7690: u8 [a0 + 0x10] = a3\n  7693: a4 = a3 >> 0x38\n  7696: u8 [a0 + 0x17] = a4\n  7699: a4 = a3 >> 0x30\n  7702: u8 [a0 + 0x16] = a4\n  7705: a4 = a3 >> 0x28\n  7708: u8 [a0 + 0x15] = a4\n  7711: a4 = a3 >> 0x20\n  7714: u8 [a0 + 0x14] = a4\n  7717: a4 = a3 >> 0x18\n  7720: u8 [a0 + 0x13] = a4\n  7723: a4 = a3 >> 0x10\n  7726: u8 [a0 + 0x12] = a4\n  7729: a3 = a3 >> 0x8\n  7732: u8 [a0 + 0x11] = a3\n  7735: u8 [a0 + 0x8] = a2\n  7738: a3 = a2 >> 0x38\n  7741: u8 [a0 + 0xf] = a3\n  7744: a3 = a2 >> 0x30\n  7747: u8 [a0 + 0xe] = a3\n  7750: a3 = a2 >> 0x28\n  7753: u8 [a0 + 0xd] = a3\n  7756: a3 = a2 >> 0x20\n  7759: u8 [a0 + 0xc] = a3\n  7762: a3 = a2 >> 0x18\n  7765: u8 [a0 + 0xb] = a3\n  7768: a3 = a2 >> 0x10\n  7771: u8 [a0 + 0xa] = a3\n  7774: a2 = a2 >> 0x8\n  7777: u8 [a0 + 0x9] = a2\n  7780: u8 [a0] = a1\n  7782: a2 = a1 >> 0x38\n  7785: u8 [a0 + 0x7] = a2\n  7788: a2 = a1 >> 0x30\n  7791: u8 [a0 + 0x6] = a2\n  7794: a2 = a1 >> 0x28\n  7797: u8 [a0 + 0x5] = a2\n  7800: a2 = a1 >> 0x20\n  7803: u8 [a0 + 0x4] = a2\n  7806: a2 = a1 >> 0x18\n  7809: u8 [a0 + 0x3] = a2\n  7812: a2 = a1 >> 0x10\n  7815: u8 [a0 + 0x2] = a2\n  7818: a1 = a1 >> 0x8\n  7821: u8 [a0 + 0x1] = a1\n  7824: a1 = 0x20\n  7827: a0 = s1\n  7829: ra = 98, jump @0\n      : @119 [@dyn 49] (gas: 6)\n  7834: i32 a1 = a0 + 0\n  7836: a2 = 0x20\n  7839: a0 = 0\n  7841: ra = 0x64\n  7844: ecalli 13 // 'seal_return'\n  7846: fallthrough\n      : @120 [@dyn 50] (gas: 19)\n  7847: t0 = u64 [a0 + 0x18]\n  7850: t1 = u64 [a1 + 0x18]\n  7853: a4 = u64 [a0 + 0x10]\n  7856: a5 = u64 [a0 + 0x8]\n  7859: a2 = u64 [a1 + 0x8]\n  7862: t2 = u64 [a0]\n  7864: a3 = u64 [a1]\n  7866: a1 = u64 [a1 + 0x10]\n  7869: a0 = a2 ^ a5\n  7872: a2 = a2 <u a5\n  7875: a3 = a3 <u t2\n  7878: a3 = a2 if a0 != 0\n  7881: a0 = a1 - a4\n  7884: a0 = a0 <u a3\n  7887: a1 = a1 <u a4\n  7890: a2 = t1 - t0\n  7893: a2 = a2 - a1\n  7896: a2 = a2 - a0\n  7899: jump @122 if a2 <s 0\n      : @121 (gas: 1)\n  7902: ret\n      : @122 (gas: 5)\n  7904: sp = sp + 0xfffffffffffffff8\n  7907: u64 [sp] = ra\n  7909: a0 = 0\n  7911: a1 = 0\n  7913: ra = 102, jump @0\n      : @123 [@dyn 51] (gas: 6)\n  7918: i32 a1 = a0 + 0\n  7920: a0 = 0x1\n  7923: a2 = 0\n  7925: ra = 0x68\n  7928: ecalli 13 // 'seal_return'\n  7930: fallthrough\n      : @124 [@dyn 52] (gas: 13)\n  7931: sp = sp + 0xfffffffffffffec0\n  7935: u64 [sp + 0x138] = ra\n  7939: u64 [sp + 0x130] = s0\n  7943: u64 [sp + 0x128] = s1\n  7947: s0 = sp + 0x140\n  7951: sp = sp & 0xffffffffffffffe0\n  7954: u64 [sp + 280] = 0\n  7958: u64 [sp + 272] = 0\n  7962: u64 [sp + 264] = 0\n  7966: u64 [sp + 256] = 0\n  7970: i32 a0 = sp + 0x100\n  7974: ecalli 16 // 'value_transferred'\n  7976: fallthrough\n      : @125 (gas: 8)\n  7977: a0 = u64 [sp + 0x110]\n  7981: a1 = u64 [sp + 0x118]\n  7985: a2 = u64 [sp + 0x108]\n  7989: a3 = u64 [sp + 0x100]\n  7993: a1 = a1 | a2\n  7996: a0 = a0 | a3\n  7999: a0 = a0 | a1\n  8002: jump @134 if a0 != 0\n      : @126 (gas: 2)\n  8006: a0 = i32 [0x20044]\n  8011: jump @134 if a0 <=u 3\n      : @127 (gas: 7)\n  8016: u64 [sp + 216] = 0\n  8020: u64 [sp + 208] = 0\n  8024: u64 [sp + 200] = 0\n  8028: a0 = sp + 0xe0\n  8032: a1 = sp + 0xc0\n  8036: u64 [sp + 192] = 0\n  8040: ra = 106, jump @430\n      : @128 [@dyn 53] (gas: 11)\n  8045: a0 = u64 [sp + 0xf8]\n  8049: u64 [sp + 0x40] = a0\n  8052: a0 = u64 [sp + 0xf0]\n  8056: u64 [sp + 0x48] = a0\n  8059: a0 = u64 [sp + 0xe8]\n  8063: u64 [sp + 0x50] = a0\n  8066: a0 = u64 [sp + 0xe0]\n  8070: u64 [sp + 0x58] = a0\n  8073: a0 = 0x40\n  8076: a1 = 0x20\n  8079: ra = 108, jump @0\n      : @129 [@dyn 54] (gas: 100)\n  8084: a1 = u8 [a0 + 0x11]\n  8087: a2 = u8 [a0 + 0x10]\n  8090: a3 = u8 [a0 + 0x12]\n  8093: a4 = u8 [a0 + 0x13]\n  8096: a1 = a1 << 0x8\n  8099: a1 = a1 | a2\n  8102: a3 = a3 << 0x10\n  8105: a4 = a4 << 0x18\n  8108: a3 = a3 | a4\n  8111: a1 = a1 | a3\n  8114: a2 = u8 [a0 + 0x15]\n  8117: a3 = u8 [a0 + 0x14]\n  8120: a4 = u8 [a0 + 0x16]\n  8123: a5 = u8 [a0 + 0x17]\n  8126: a2 = a2 << 0x8\n  8129: a2 = a2 | a3\n  8132: a4 = a4 << 0x10\n  8135: a5 = a5 << 0x18\n  8138: a4 = a4 | a5\n  8141: a2 = a2 | a4\n  8144: a2 = a2 << 0x20\n  8147: t0 = a2 | a1\n  8150: a2 = u8 [a0 + 0x1]\n  8153: a3 = u8 [a0]\n  8155: a4 = u8 [a0 + 0x2]\n  8158: a5 = u8 [a0 + 0x3]\n  8161: a2 = a2 << 0x8\n  8164: a2 = a2 | a3\n  8167: a4 = a4 << 0x10\n  8170: a5 = a5 << 0x18\n  8173: a4 = a4 | a5\n  8176: a2 = a2 | a4\n  8179: a3 = u8 [a0 + 0x5]\n  8182: a4 = u8 [a0 + 0x4]\n  8185: a5 = u8 [a0 + 0x6]\n  8188: s1 = u8 [a0 + 0x7]\n  8191: a3 = a3 << 0x8\n  8194: a3 = a3 | a4\n  8197: a5 = a5 << 0x10\n  8200: s1 = s1 << 0x18\n  8203: a5 = a5 | s1\n  8206: a3 = a3 | a5\n  8209: a3 = a3 << 0x20\n  8212: a2 = a2 | a3\n  8215: a3 = u8 [a0 + 0x19]\n  8218: a4 = u8 [a0 + 0x18]\n  8221: a5 = u8 [a0 + 0x1a]\n  8224: s1 = u8 [a0 + 0x1b]\n  8227: a3 = a3 << 0x8\n  8230: a3 = a3 | a4\n  8233: a5 = a5 << 0x10\n  8236: s1 = s1 << 0x18\n  8239: a5 = a5 | s1\n  8242: a3 = a3 | a5\n  8245: a4 = u8 [a0 + 0x1d]\n  8248: a5 = u8 [a0 + 0x1c]\n  8251: s1 = u8 [a0 + 0x1e]\n  8254: a1 = u8 [a0 + 0x1f]\n  8257: a4 = a4 << 0x8\n  8260: a4 = a4 | a5\n  8263: s1 = s1 << 0x10\n  8266: a1 = a1 << 0x18\n  8269: a1 = a1 | s1\n  8272: a1 = a1 | a4\n  8275: a1 = a1 << 0x20\n  8278: a3 = a3 | a1\n  8281: a1 = u8 [a0 + 0x9]\n  8284: a4 = u8 [a0 + 0x8]\n  8287: a5 = u8 [a0 + 0xa]\n  8290: s1 = u8 [a0 + 0xb]\n  8293: a1 = a1 << 0x8\n  8296: a1 = a1 | a4\n  8299: a5 = a5 << 0x10\n  8302: s1 = s1 << 0x18\n  8305: a5 = a5 | s1\n  8308: a1 = a1 | a5\n  8311: a4 = u8 [a0 + 0xd]\n  8314: a5 = u8 [a0 + 0xc]\n  8317: s1 = u8 [a0 + 0xe]\n  8320: a0 = u8 [a0 + 0xf]\n  8323: a4 = a4 << 0x8\n  8326: a4 = a4 | a5\n  8329: s1 = s1 << 0x10\n  8332: a0 = a0 << 0x18\n  8335: a0 = a0 | s1\n  8338: a0 = a0 | a4\n  8341: a0 = a0 << 0x20\n  8344: a0 = a0 | a1\n  8347: s1 = reverse a0\n  8349: a3 = reverse a3\n  8351: a4 = reverse a2\n  8353: a2 = reverse t0\n  8355: a0 = a2 | a4\n  8358: a1 = a3 | s1\n  8361: a1 = a1 | a0\n  8364: a1 = a1 >> 0x20\n  8367: a0 = a0 | s1\n  8370: a0 = a0 << 0x20\n  8373: a0 = a0 | a1\n  8376: jump @133 if a0 != 0\n      : @130 (gas: 19)\n  8380: a0 = a3 + 0x20\n  8383: u64 [sp + 0x18] = a0\n  8386: a0 = a0 <u a3\n  8389: a1 = a2 + a0\n  8392: u64 [sp + 0x8] = a1\n  8395: a1 = a1 <u a2\n  8398: a1 = a0 if a0 == 0\n  8401: a1 = a1 + s1\n  8404: u64 [sp + 0x10] = a1\n  8407: a0 = a1 <u s1\n  8410: a0 = a0 + a4\n  8413: u64 [sp + 0x20] = a0\n  8416: i32 a0 = a3 + 0\n  8418: a1 = 0x20\n  8421: u64 [sp] = a0\n  8423: u64 [sp + 0x30] = a3\n  8426: u64 [sp + 0x28] = a2\n  8429: u64 [sp + 0x38] = a4\n  8432: ra = 110, jump @0\n      : @131 [@dyn 55] (gas: 52)\n  8437: u8 [a0 + 31] = 0x20\n  8441: u8 [a0 + 30] = 0\n  8444: u8 [a0 + 29] = 0\n  8447: u8 [a0 + 28] = 0\n  8450: u8 [a0 + 27] = 0\n  8453: u8 [a0 + 26] = 0\n  8456: u8 [a0 + 25] = 0\n  8459: u8 [a0 + 24] = 0\n  8462: u8 [a0 + 23] = 0\n  8465: u8 [a0 + 22] = 0\n  8468: u8 [a0 + 21] = 0\n  8471: u8 [a0 + 20] = 0\n  8474: u8 [a0 + 19] = 0\n  8477: u8 [a0 + 18] = 0\n  8480: u8 [a0 + 17] = 0\n  8483: u8 [a0 + 16] = 0\n  8486: u8 [a0 + 15] = 0\n  8489: u8 [a0 + 14] = 0\n  8492: u8 [a0 + 13] = 0\n  8495: u8 [a0 + 12] = 0\n  8498: u8 [a0 + 11] = 0\n  8501: u8 [a0 + 10] = 0\n  8504: u8 [a0 + 9] = 0\n  8507: u8 [a0 + 8] = 0\n  8510: u8 [a0 + 7] = 0\n  8513: u8 [a0 + 6] = 0\n  8516: u8 [a0 + 5] = 0\n  8519: u8 [a0 + 4] = 0\n  8522: u8 [a0 + 3] = 0\n  8525: u8 [a0 + 2] = 0\n  8528: u8 [a0 + 1] = 0\n  8531: u8 [a0 + 0] = 0\n  8533: a0 = u64 [sp + 0x8]\n  8536: u64 [sp + 0x68] = a0\n  8539: a0 = u64 [sp + 0x18]\n  8542: u64 [sp + 0x60] = a0\n  8545: a0 = u64 [sp + 0x40]\n  8548: u64 [sp + 0x98] = a0\n  8552: a0 = u64 [sp + 0x48]\n  8555: u64 [sp + 0x90] = a0\n  8559: a0 = u64 [sp + 0x50]\n  8562: u64 [sp + 0x88] = a0\n  8566: a0 = u64 [sp + 0x58]\n  8569: u64 [sp + 0x80] = a0\n  8573: a0 = u64 [sp + 0x10]\n  8576: u64 [sp + 0x70] = a0\n  8579: a0 = sp + 0xa0\n  8583: a1 = sp + 0x80\n  8587: a2 = sp + 0x60\n  8590: a3 = u64 [sp + 0x20]\n  8593: u64 [sp + 0x78] = a3\n  8596: ra = 112, jump @61\n      : @132 [@dyn 56] (gas: 30)\n  8601: a0 = u64 [sp + 0xa8]\n  8605: t0 = u64 [sp + 0xb8]\n  8609: t1 = u64 [sp + 0xa0]\n  8613: a3 = u64 [sp + 0xb0]\n  8617: a1 = u64 [sp + 0x28]\n  8620: a4 = a0 ^ a1\n  8623: a5 = a0 <u a1\n  8626: t2 = a1\n  8628: a2 = u64 [sp + 0x30]\n  8631: a1 = t1 <u a2\n  8634: a5 = a1 if a4 == 0\n  8637: a4 = a3 - s1\n  8640: a3 = a3 <u s1\n  8643: s1 = u64 [sp + 0x38]\n  8646: s1 = t0 - s1\n  8649: s1 = s1 - a3\n  8652: a3 = a4 <u a5\n  8655: s1 = s1 - a3\n  8658: a4 = a4 - a5\n  8661: a0 = a0 - t2\n  8664: a1 = a0 - a1\n  8667: a0 = t1 - a2\n  8670: a1 = a1 | s1\n  8673: a2 = a0 | a4\n  8676: a2 = a2 | a1\n  8679: a1 = a1 | a4\n  8682: a2 = a2 >> 0x20\n  8685: a1 = a1 << 0x20\n  8688: a1 = a1 | a2\n  8691: jump @136 if a1 == 0\n      : @133 (gas: 1)\n  8694: trap\n      : @134 (gas: 3)\n  8695: a0 = 0\n  8697: a1 = 0\n  8699: ra = 114, jump @0\n      : @135 [@dyn 57] (gas: 5)\n  8704: i32 a1 = a0 + 0\n  8706: a0 = 0x1\n  8709: a2 = 0\n  8711: ecalli 13 // 'seal_return'\n  8713: fallthrough\n      : @136 (gas: 4)\n  8714: i32 s1 = a0 + 0\n  8716: a0 = u64 [sp]\n  8718: a1 = s1\n  8720: ra = 116, jump @0\n      : @137 [@dyn 58] (gas: 6)\n  8725: i32 a1 = a0 + 0\n  8727: a0 = 0\n  8729: a2 = s1\n  8731: ra = 0x76\n  8734: ecalli 13 // 'seal_return'\n  8736: fallthrough\n      : @138 [@dyn 59] (gas: 5)\n  8737: sp = sp + 0xfffffffffffffff8\n  8740: u64 [sp] = ra\n  8742: a0 = 0\n  8744: a1 = 0\n  8746: ra = 120, jump @0\n      : @139 [@dyn 60] (gas: 6)\n  8751: i32 a1 = a0 + 0\n  8753: a0 = 0x1\n  8756: a2 = 0\n  8758: ra = 0x7a\n  8761: ecalli 13 // 'seal_return'\n  8763: fallthrough\n      : @140 [@dyn 61] (gas: 18)\n  8764: a2 = u64 [a1]\n  8766: t0 = u64 [a1 + 0x18]\n  8769: a4 = u64 [a1 + 0x8]\n  8772: a1 = u64 [a1 + 0x10]\n  8775: a5 = a2 + 0x1f\n  8778: a2 = a5 <u a2\n  8781: a3 = a4 + a2\n  8784: a4 = a3 <u a4\n  8787: a4 = a2 if a2 == 0\n  8790: a4 = a4 + a1\n  8793: a1 = a4 <u a1\n  8796: a1 = a1 + t0\n  8799: a5 = a5 & 0xffffffffffffffe0\n  8802: u64 [a0] = a5\n  8804: u64 [a0 + 0x8] = a3\n  8807: u64 [a0 + 0x10] = a4\n  8810: u64 [a0 + 0x18] = a1\n  8813: ret\n      : @141 (gas: 18)\n  8815: sp = sp + 0xffffffffffffff60\n  8819: u64 [sp + 0x98] = ra\n  8823: u64 [sp + 0x90] = s0\n  8827: u64 [sp + 0x88] = s1\n  8831: s0 = sp + 0xa0\n  8835: sp = sp & 0xfffffffffffffff0\n  8838: a2 = u64 [a1 + 0x18]\n  8841: u64 [sp + 0x30] = a2\n  8844: a2 = u64 [a1 + 0x10]\n  8847: u64 [sp + 0x28] = a2\n  8850: a2 = u64 [a1 + 0x8]\n  8853: u64 [sp + 0x20] = a2\n  8856: a1 = u64 [a1]\n  8858: u64 [sp + 0x18] = a1\n  8861: u64 [sp + 0x38] = a0\n  8864: a0 = 0x40\n  8867: a1 = 0x20\n  8870: ra = 124, jump @0\n      : @142 [@dyn 62] (gas: 130)\n  8875: a1 = u8 [a0 + 0x19]\n  8878: a2 = u8 [a0 + 0x18]\n  8881: a3 = u8 [a0 + 0x1a]\n  8884: a4 = u8 [a0 + 0x1b]\n  8887: a1 = a1 << 0x8\n  8890: a1 = a1 | a2\n  8893: a3 = a3 << 0x10\n  8896: a4 = a4 << 0x18\n  8899: a3 = a3 | a4\n  8902: a1 = a1 | a3\n  8905: a2 = u8 [a0 + 0x1d]\n  8908: a3 = u8 [a0 + 0x1c]\n  8911: a4 = u8 [a0 + 0x1e]\n  8914: a5 = u8 [a0 + 0x1f]\n  8917: a2 = a2 << 0x8\n  8920: a2 = a2 | a3\n  8923: a4 = a4 << 0x10\n  8926: a5 = a5 << 0x18\n  8929: a4 = a4 | a5\n  8932: a2 = a2 | a4\n  8935: a2 = a2 << 0x20\n  8938: t0 = a2 | a1\n  8941: a2 = u8 [a0 + 0x11]\n  8944: a3 = u8 [a0 + 0x10]\n  8947: a4 = u8 [a0 + 0x12]\n  8950: a5 = u8 [a0 + 0x13]\n  8953: a2 = a2 << 0x8\n  8956: a2 = a2 | a3\n  8959: a4 = a4 << 0x10\n  8962: a5 = a5 << 0x18\n  8965: a4 = a4 | a5\n  8968: a2 = a2 | a4\n  8971: a3 = u8 [a0 + 0x15]\n  8974: a4 = u8 [a0 + 0x14]\n  8977: a5 = u8 [a0 + 0x16]\n  8980: s1 = u8 [a0 + 0x17]\n  8983: a3 = a3 << 0x8\n  8986: a3 = a3 | a4\n  8989: a5 = a5 << 0x10\n  8992: s1 = s1 << 0x18\n  8995: a5 = a5 | s1\n  8998: a3 = a3 | a5\n  9001: a3 = a3 << 0x20\n  9004: a2 = a2 | a3\n  9007: a3 = u8 [a0 + 0x9]\n  9010: a4 = u8 [a0 + 0x8]\n  9013: a5 = u8 [a0 + 0xa]\n  9016: s1 = u8 [a0 + 0xb]\n  9019: a3 = a3 << 0x8\n  9022: a3 = a3 | a4\n  9025: a5 = a5 << 0x10\n  9028: s1 = s1 << 0x18\n  9031: a5 = a5 | s1\n  9034: a3 = a3 | a5\n  9037: a4 = u8 [a0 + 0xd]\n  9040: a5 = u8 [a0 + 0xc]\n  9043: s1 = u8 [a0 + 0xe]\n  9046: a1 = u8 [a0 + 0xf]\n  9049: a4 = a4 << 0x8\n  9052: a4 = a4 | a5\n  9055: s1 = s1 << 0x10\n  9058: a1 = a1 << 0x18\n  9061: a1 = a1 | s1\n  9064: a1 = a1 | a4\n  9067: a1 = a1 << 0x20\n  9070: a3 = a3 | a1\n  9073: a1 = u8 [a0 + 0x1]\n  9076: a4 = u8 [a0]\n  9078: a5 = u8 [a0 + 0x2]\n  9081: s1 = u8 [a0 + 0x3]\n  9084: a1 = a1 << 0x8\n  9087: a1 = a1 | a4\n  9090: a5 = a5 << 0x10\n  9093: s1 = s1 << 0x18\n  9096: a5 = a5 | s1\n  9099: a1 = a1 | a5\n  9102: a4 = u8 [a0 + 0x5]\n  9105: a5 = u8 [a0 + 0x4]\n  9108: s1 = u8 [a0 + 0x6]\n  9111: a0 = u8 [a0 + 0x7]\n  9114: a4 = a4 << 0x8\n  9117: a4 = a4 | a5\n  9120: s1 = s1 << 0x10\n  9123: a0 = a0 << 0x18\n  9126: a0 = a0 | s1\n  9129: a0 = a0 | a4\n  9132: a0 = a0 << 0x20\n  9135: a0 = a0 | a1\n  9138: t1 = reverse a0\n  9140: t2 = reverse a3\n  9142: s1 = reverse a2\n  9144: a5 = reverse t0\n  9146: a1 = u64 [sp + 0x18]\n  9149: a0 = a1 + 0x1f\n  9152: a1 = a0 <u a1\n  9155: a3 = u64 [sp + 0x20]\n  9158: a2 = a3 + a1\n  9161: a3 = a2 <u a3\n  9164: a3 = a1 if a1 == 0\n  9167: a1 = u64 [sp + 0x28]\n  9170: a3 = a3 + a1\n  9173: a1 = a3 <u a1\n  9176: a4 = u64 [sp + 0x30]\n  9179: a1 = a1 + a4\n  9182: a0 = a0 & 0xffffffffffffffe0\n  9185: a0 = a0 + a5\n  9188: u64 [sp + 0x28] = a5\n  9191: u64 [sp + 0x10] = a0\n  9194: a4 = a0 <u a5\n  9197: a2 = a2 + s1\n  9200: a5 = a2 + a4\n  9203: a2 = a5 ^ s1\n  9206: u64 [sp + 0x30] = s1\n  9209: a0 = a5 <u s1\n  9212: a0 = a4 if a2 == 0\n  9215: a3 = a3 + t2\n  9218: a4 = a3 + a0\n  9221: s1 = a4 <u a3\n  9224: a2 = a3 <u t2\n  9227: a1 = a1 + t1\n  9230: a1 = a1 + a2\n  9233: s1 = s1 + a1\n  9236: a1 = a4 >u 0\n  9238: a2 = s1 >u 0\n  9240: a2 = a1 if s1 == 0\n  9243: a1 = a4 | s1\n  9246: u64 [sp + 0x8] = a5\n  9249: a3 = a5 >u 0\n  9251: a3 = a2 if a1 != 0\n  9254: jump @146 if a3 != 0\n      : @143 (gas: 8)\n  9258: a1 = a4 <u t2\n  9261: a2 = s1 ^ t1\n  9264: a3 = s1 <u t1\n  9267: a3 = a1 if a2 == 0\n  9270: a1 = a4 ^ t2\n  9273: a1 = a1 | a2\n  9276: a0 = a3 if a1 != 0\n  9279: jump @146 if a0 != 0\n      : @144 (gas: 6)\n  9283: a0 = 0x40\n  9286: a1 = 0x20\n  9289: u64 [sp + 0x20] = t2\n  9292: u64 [sp + 0x18] = t1\n  9295: u64 [sp] = a4\n  9297: ra = 126, jump @0\n      : @145 [@dyn 63] (gas: 82)\n  9302: a1 = reverse s1\n  9304: a2 = u64 [sp]\n  9306: a2 = reverse a2\n  9308: a3 = u64 [sp + 0x8]\n  9311: a3 = reverse a3\n  9313: a4 = u64 [sp + 0x10]\n  9316: a4 = reverse a4\n  9318: u8 [a0 + 0x18] = a4\n  9321: a5 = a4 >> 0x38\n  9324: u8 [a0 + 0x1f] = a5\n  9327: a5 = a4 >> 0x30\n  9330: u8 [a0 + 0x1e] = a5\n  9333: a5 = a4 >> 0x28\n  9336: u8 [a0 + 0x1d] = a5\n  9339: a5 = a4 >> 0x20\n  9342: u8 [a0 + 0x1c] = a5\n  9345: a5 = a4 >> 0x18\n  9348: u8 [a0 + 0x1b] = a5\n  9351: a5 = a4 >> 0x10\n  9354: u8 [a0 + 0x1a] = a5\n  9357: a4 = a4 >> 0x8\n  9360: u8 [a0 + 0x19] = a4\n  9363: u8 [a0 + 0x10] = a3\n  9366: a4 = a3 >> 0x38\n  9369: u8 [a0 + 0x17] = a4\n  9372: a4 = a3 >> 0x30\n  9375: u8 [a0 + 0x16] = a4\n  9378: a4 = a3 >> 0x28\n  9381: u8 [a0 + 0x15] = a4\n  9384: a4 = a3 >> 0x20\n  9387: u8 [a0 + 0x14] = a4\n  9390: a4 = a3 >> 0x18\n  9393: u8 [a0 + 0x13] = a4\n  9396: a4 = a3 >> 0x10\n  9399: u8 [a0 + 0x12] = a4\n  9402: a3 = a3 >> 0x8\n  9405: u8 [a0 + 0x11] = a3\n  9408: u8 [a0 + 0x8] = a2\n  9411: a3 = a2 >> 0x38\n  9414: u8 [a0 + 0xf] = a3\n  9417: a3 = a2 >> 0x30\n  9420: u8 [a0 + 0xe] = a3\n  9423: a3 = a2 >> 0x28\n  9426: u8 [a0 + 0xd] = a3\n  9429: a3 = a2 >> 0x20\n  9432: u8 [a0 + 0xc] = a3\n  9435: a3 = a2 >> 0x18\n  9438: u8 [a0 + 0xb] = a3\n  9441: a3 = a2 >> 0x10\n  9444: u8 [a0 + 0xa] = a3\n  9447: a2 = a2 >> 0x8\n  9450: u8 [a0 + 0x9] = a2\n  9453: u8 [a0] = a1\n  9455: a2 = a1 >> 0x38\n  9458: u8 [a0 + 0x7] = a2\n  9461: a2 = a1 >> 0x30\n  9464: u8 [a0 + 0x6] = a2\n  9467: a2 = a1 >> 0x28\n  9470: u8 [a0 + 0x5] = a2\n  9473: a2 = a1 >> 0x20\n  9476: u8 [a0 + 0x4] = a2\n  9479: a2 = a1 >> 0x18\n  9482: u8 [a0 + 0x3] = a2\n  9485: a2 = a1 >> 0x10\n  9488: u8 [a0 + 0x2] = a2\n  9491: a1 = a1 >> 0x8\n  9494: u8 [a0 + 0x1] = a1\n  9497: a0 = u64 [sp + 0x38]\n  9500: a1 = u64 [sp + 0x28]\n  9503: u64 [a0] = a1\n  9505: a1 = u64 [sp + 0x18]\n  9508: u64 [a0 + 0x18] = a1\n  9511: a1 = u64 [sp + 0x30]\n  9514: u64 [a0 + 0x8] = a1\n  9517: a1 = u64 [sp + 0x20]\n  9520: u64 [a0 + 0x10] = a1\n  9523: sp = s0 + 0xffffffffffffff60\n  9527: ra = u64 [sp + 0x98]\n  9531: s0 = u64 [sp + 0x90]\n  9535: s1 = u64 [sp + 0x88]\n  9539: sp = sp + 0xa0\n  9543: ret\n      : @146 (gas: 8)\n  9545: u64 [sp + 112] = 0\n  9548: u64 [sp + 104] = 0\n  9551: u64 [sp + 96] = 0\n  9554: a0 = 0x4e487b7100000000\n  9564: a1 = sp + 0x60\n  9567: u64 [sp + 0x78] = a0\n  9570: a0 = 0\n  9572: ra = 128, jump @8\n      : @147 [@dyn 64] (gas: 7)\n  9578: u64 [sp + 88] = 0\n  9581: u64 [sp + 80] = 0\n  9584: u64 [sp + 64] = 0x41\n  9588: a0 = 0x4\n  9591: a1 = sp + 0x40\n  9594: u64 [sp + 72] = 0\n  9597: ra = 130, jump @8\n      : @148 [@dyn 65] (gas: 3)\n  9603: a1 = 0x24\n  9606: a0 = 0\n  9608: ra = 132, jump @0\n      : @149 [@dyn 66] (gas: 6)\n  9614: i32 a1 = a0 + 0\n  9616: a0 = 0x1\n  9619: a2 = 0x24\n  9622: ra = 0x86\n  9626: ecalli 13 // 'seal_return'\n  9628: fallthrough\n      : @150 [@dyn 67] (gas: 7)\n  9629: a4 = u64 [a1 + 0x18]\n  9632: a3 = u64 [a1 + 0x10]\n  9635: a2 = u64 [a1 + 0x8]\n  9638: t0 = a3 | a4\n  9641: a5 = a2 <u 0x1\n  9644: a5 = 0 if t0 != 0\n  9646: jump @152 if a5 == 0\n      : @151 (gas: 24)\n  9649: a1 = u64 [a1]\n  9651: a5 = a3 >> 0x3b\n  9654: a4 = a4 << 0x5\n  9657: t0 = a4 | a5\n  9660: a5 = a2 >> 0x3b\n  9663: a3 = a3 << 0x5\n  9666: a3 = a3 | a5\n  9669: a5 = a1 >> 0x3b\n  9672: a2 = a2 << 0x5\n  9675: a2 = a2 | a5\n  9678: a1 = a1 << 0x5\n  9681: a5 = a1 + 0x20\n  9684: a1 = a5 <u a1\n  9687: a4 = a2 + a1\n  9690: a2 = a4 <u a2\n  9693: a2 = a1 if a1 == 0\n  9696: a2 = a2 + a3\n  9699: a1 = a2 <u a3\n  9702: a1 = a1 + t0\n  9705: u64 [a0] = a5\n  9707: u64 [a0 + 0x8] = a4\n  9710: u64 [a0 + 0x10] = a2\n  9713: u64 [a0 + 0x18] = a1\n  9716: ret\n      : @152 (gas: 13)\n  9718: sp = sp + 0xffffffffffffffb0\n  9721: u64 [sp + 0x48] = ra\n  9724: u64 [sp + 0x40] = s0\n  9727: s0 = sp + 0x50\n  9730: sp = sp & 0xfffffffffffffff0\n  9733: u64 [sp + 48] = 0\n  9736: u64 [sp + 40] = 0\n  9739: u64 [sp + 32] = 0\n  9742: a0 = 0x4e487b7100000000\n  9752: a1 = sp + 0x20\n  9755: u64 [sp + 0x38] = a0\n  9758: a0 = 0\n  9760: ra = 136, jump @8\n      : @153 [@dyn 68] (gas: 7)\n  9766: u64 [sp + 24] = 0\n  9769: u64 [sp + 16] = 0\n  9772: u64 [sp + 0] = 0x41\n  9775: a0 = 0x4\n  9778: a1 = sp\n  9780: u64 [sp + 8] = 0\n  9783: ra = 138, jump @8\n      : @154 [@dyn 69] (gas: 3)\n  9789: a1 = 0x24\n  9792: a0 = 0\n  9794: ra = 140, jump @0\n      : @155 [@dyn 70] (gas: 6)\n  9800: i32 a1 = a0 + 0\n  9802: a0 = 0x1\n  9805: a2 = 0x24\n  9808: ra = 0x8e\n  9812: ecalli 13 // 'seal_return'\n  9814: fallthrough\n      : @156 [@dyn 71] (gas: 14)\n  9815: sp = sp + 0xfffffffffffffe60\n  9819: u64 [sp + 0x198] = ra\n  9823: u64 [sp + 0x190] = s0\n  9827: u64 [sp + 0x188] = s1\n  9831: s0 = sp + 0x1a0\n  9835: sp = sp & 0xffffffffffffffe0\n  9838: t1 = u64 [a2 + 0x18]\n  9841: a4 = u64 [a2 + 0x10]\n  9844: s1 = u64 [a2 + 0x8]\n  9847: t0 = a4 | t1\n  9850: a5 = s1 <u 0x1\n  9853: a5 = 0 if t0 != 0\n  9855: u64 [sp + 0x18] = a0\n  9858: jump @173 if a5 == 0\n      : @157 (gas: 50)\n  9862: a5 = u64 [a2]\n  9864: a0 = a4 >> 0x3b\n  9867: u64 [sp + 0xb8] = t1\n  9871: a2 = t1 << 0x5\n  9874: t0 = a2 | a0\n  9877: a0 = s1 >> 0x3b\n  9880: u64 [sp + 0xb0] = a4\n  9884: a2 = a4 << 0x5\n  9887: a0 = a0 | a2\n  9890: a2 = a5 >> 0x3b\n  9893: u64 [sp + 0xa8] = s1\n  9897: s1 = s1 << 0x5\n  9900: a2 = a2 | s1\n  9903: u64 [sp + 0xa0] = a5\n  9907: a5 = a5 << 0x5\n  9910: t1 = a5 + 0x20\n  9913: u64 [sp + 0x58] = a5\n  9916: a4 = t1 <u a5\n  9919: s1 = a2 + a4\n  9922: u64 [sp + 0x60] = a2\n  9925: a5 = s1 <u a2\n  9928: a5 = a4 if a4 == 0\n  9931: a2 = u64 [a3 + 0x18]\n  9934: u64 [sp + 0x80] = a2\n  9938: a2 = u64 [a3 + 0x10]\n  9941: u64 [sp + 0x88] = a2\n  9945: a2 = u64 [a3 + 0x8]\n  9948: u64 [sp + 0x68] = a2\n  9951: a2 = u64 [a3]\n  9953: u64 [sp + 0x78] = a2\n  9956: a2 = u64 [a1 + 0x18]\n  9959: u64 [sp + 0xc8] = a2\n  9963: a2 = u64 [a1 + 0x10]\n  9966: u64 [sp + 0xc0] = a2\n  9970: a2 = u64 [a1 + 0x8]\n  9973: u64 [sp + 0xd8] = a2\n  9977: a1 = u64 [a1]\n  9979: u64 [sp + 0xd0] = a1\n  9983: a5 = a5 + a0\n  9986: u64 [sp + 0x90] = a0\n  9990: a1 = a5 <u a0\n  9993: u64 [sp + 0x98] = t0\n  9997: a2 = t0 + a1\n 10000: u64 [sp + 0x120] = t1\n 10004: u64 [sp + 0x128] = s1\n 10008: u64 [sp + 0x130] = a5\n 10012: a0 = sp + 0x140\n 10016: a1 = sp + 0x120\n 10020: u64 [sp + 0x138] = a2\n 10024: ra = 144, jump @141\n      : @158 [@dyn 72] (gas: 15)\n 10030: a0 = u64 [sp + 0x158]\n 10034: a2 = u64 [sp + 0x150]\n 10038: a1 = u64 [sp + 0x148]\n 10042: a3 = u64 [sp + 0x140]\n 10046: u64 [sp + 0x38] = a0\n 10049: u64 [sp + 0x28] = a1\n 10052: a0 = a0 | a1\n 10055: a1 = a3 | a2\n 10058: a1 = a1 | a0\n 10061: a1 = a1 >> 0x20\n 10064: u64 [sp + 0x30] = a2\n 10067: a0 = a0 | a2\n 10070: a0 = a0 << 0x20\n 10073: a0 = a0 | a1\n 10076: jump @170 if a0 != 0\n      : @159 (gas: 4)\n 10080: u64 [sp + 0x20] = a3\n 10083: i32 a0 = a3 + 0\n 10085: a1 = 0x20\n 10088: ra = 146, jump @0\n      : @160 [@dyn 73] (gas: 111)\n 10094: a1 = u64 [sp + 0x58]\n 10097: a5 = u64 [sp + 0xd0]\n 10101: a5 = a5 + a1\n 10104: a1 = a5 <u a1\n 10107: a4 = u64 [sp + 0x60]\n 10110: a2 = u64 [sp + 0xd8]\n 10114: a2 = a2 + a4\n 10117: ra = a2 + a1\n 10120: a3 = ra ^ a4\n 10123: a2 = ra <u a4\n 10126: a2 = a1 if a3 == 0\n 10129: a1 = u64 [sp + 0x68]\n 10132: a3 = ra ^ a1\n 10135: a4 = a1 <u ra\n 10138: u64 [sp + 0x70] = a5\n 10141: a1 = u64 [sp + 0x78]\n 10144: a1 = a1 <u a5\n 10147: a1 = a4 if a3 != 0\n 10150: t1 = u64 [sp + 0xc0]\n 10154: a4 = u64 [sp + 0x90]\n 10158: a3 = a4 + t1\n 10161: a4 = a3 <u a4\n 10164: t0 = u64 [sp + 0xc8]\n 10168: a5 = u64 [sp + 0x98]\n 10172: a5 = a5 + t0\n 10175: a4 = a4 + a5\n 10178: s1 = a3 + a2\n 10181: a2 = s1 <u a3\n 10184: t2 = a4 + a2\n 10187: a3 = u64 [sp + 0x80]\n 10191: a2 = t2 ^ a3\n 10194: a3 = a3 <u t2\n 10197: a5 = u64 [sp + 0x88]\n 10201: a4 = a5 <u s1\n 10204: a3 = a4 if a2 == 0\n 10207: a4 = s1 ^ a5\n 10210: a2 = a2 | a4\n 10213: a1 = a3 if a2 != 0\n 10216: a2 = u64 [sp + 0xa0]\n 10220: a2 = reverse a2\n 10222: a3 = a2 >> 0x38\n 10225: u8 [a0 + 0x1f] = a3\n 10228: a3 = a2 >> 0x30\n 10231: u8 [a0 + 0x1e] = a3\n 10234: a3 = a2 >> 0x28\n 10237: u8 [a0 + 0x1d] = a3\n 10240: a3 = a2 >> 0x20\n 10243: u8 [a0 + 0x1c] = a3\n 10246: a3 = a2 >> 0x18\n 10249: u8 [a0 + 0x1b] = a3\n 10252: a3 = a2 >> 0x10\n 10255: u8 [a0 + 0x1a] = a3\n 10258: a3 = a2 >> 0x8\n 10261: u8 [a0 + 0x19] = a3\n 10264: a3 = u64 [sp + 0xa8]\n 10268: a3 = reverse a3\n 10270: u8 [a0 + 0x18] = a2\n 10273: a2 = a3 >> 0x38\n 10276: u8 [a0 + 0x17] = a2\n 10279: a2 = a3 >> 0x30\n 10282: u8 [a0 + 0x16] = a2\n 10285: a2 = a3 >> 0x28\n 10288: u8 [a0 + 0x15] = a2\n 10291: a2 = a3 >> 0x20\n 10294: u8 [a0 + 0x14] = a2\n 10297: a2 = a3 >> 0x18\n 10300: u8 [a0 + 0x13] = a2\n 10303: a2 = a3 >> 0x10\n 10306: u8 [a0 + 0x12] = a2\n 10309: a2 = u64 [sp + 0xb0]\n 10313: a2 = reverse a2\n 10315: u8 [a0 + 0x10] = a3\n 10318: a3 = a3 >> 0x8\n 10321: u8 [a0 + 0x11] = a3\n 10324: a3 = a2 >> 0x38\n 10327: u8 [a0 + 0xf] = a3\n 10330: a3 = a2 >> 0x30\n 10333: u8 [a0 + 0xe] = a3\n 10336: a3 = a2 >> 0x28\n 10339: u8 [a0 + 0xd] = a3\n 10342: a3 = a2 >> 0x20\n 10345: u8 [a0 + 0xc] = a3\n 10348: a3 = a2 >> 0x18\n 10351: u8 [a0 + 0xb] = a3\n 10354: a3 = a2 >> 0x10\n 10357: u8 [a0 + 0xa] = a3\n 10360: a3 = u64 [sp + 0xb8]\n 10364: a3 = reverse a3\n 10366: u8 [a0 + 0x8] = a2\n 10369: a2 = a2 >> 0x8\n 10372: u8 [a0 + 0x9] = a2\n 10375: a2 = a3 >> 0x38\n 10378: u8 [a0 + 0x7] = a2\n 10381: a2 = a3 >> 0x30\n 10384: u8 [a0 + 0x6] = a2\n 10387: a2 = a3 >> 0x28\n 10390: u8 [a0 + 0x5] = a2\n 10393: a2 = a3 >> 0x20\n 10396: u8 [a0 + 0x4] = a2\n 10399: a2 = a3 >> 0x18\n 10402: u8 [a0 + 0x3] = a2\n 10405: a2 = a3 >> 0x10\n 10408: u8 [a0 + 0x2] = a2\n 10411: u8 [a0] = a3\n 10413: a3 = a3 >> 0x8\n 10416: u8 [a0 + 0x1] = a3\n 10419: a2 = t0\n 10421: a5 = t1\n 10423: t1 = u64 [sp + 0xd8]\n 10427: t0 = u64 [sp + 0xd0]\n 10431: jump @177 if a1 != 0\n      : @161 (gas: 15)\n 10435: a0 = u64 [sp + 0x70]\n 10438: a0 = t0 <u a0\n 10441: a1 = ra ^ t1\n 10444: a4 = t1 <u ra\n 10447: a4 = a0 if a1 == 0\n 10450: a0 = a5 <u s1\n 10453: a1 = t2 ^ a2\n 10456: u64 [sp + 0x60] = t2\n 10459: a3 = a2 <u t2\n 10462: a3 = a0 if a1 == 0\n 10465: u64 [sp + 0x68] = s1\n 10468: a0 = s1 ^ a5\n 10471: a0 = a0 | a1\n 10474: a3 = a4 if a0 == 0\n 10477: jump @169 if a3 == 0\n      : @162 (gas: 13)\n 10481: i32 a0 = sp + 0x160\n 10485: u64 [sp + 0x58] = a0\n 10488: a0 = 0x100000000\n 10498: u64 [sp + 0x50] = a0\n 10501: a0 = 0xffffffe0\n 10511: u64 [sp + 0x48] = a0\n 10514: s1 = u64 [sp + 0x20]\n 10517: a4 = u64 [sp + 0x28]\n 10520: a1 = u64 [sp + 0x30]\n 10523: a0 = u64 [sp + 0x38]\n 10526: u64 [sp + 0xb8] = a0\n 10530: u64 [sp + 0x40] = ra\n 10533: fallthrough\n      : @163 (gas: 13)\n 10534: u64 [sp + 0xa8] = a4\n 10538: u64 [sp + 0xb0] = a1\n 10542: a0 = t0 | a5\n 10545: u64 [sp + 0xc8] = a2\n 10549: u64 [sp + 0xd8] = t1\n 10553: a1 = t1 | a2\n 10556: a0 = a0 | a1\n 10559: a0 = a0 >> 0x20\n 10562: u64 [sp + 0xc0] = a5\n 10566: a1 = a1 | a5\n 10569: a1 = a1 << 0x20\n 10572: a0 = a0 | a1\n 10575: jump @170 if a0 != 0\n      : @164 (gas: 5)\n 10579: u64 [sp + 0xd0] = t0\n 10583: i32 a1 = t0 + 0\n 10585: a0 = u64 [sp + 0x58]\n 10588: ecalli 3 // 'call_data_load'\n 10590: fallthrough\n      : @165 (gas: 10)\n 10591: a3 = u64 [sp + 0x170]\n 10595: a2 = u64 [sp + 0x178]\n 10599: a0 = u64 [sp + 0x50]\n 10602: a0 = a0 ^ a3\n 10605: a0 = a0 | a2\n 10608: a1 = a3 >> 0x20\n 10611: a1 = a1 <u 0x1\n 10614: a1 = 0 if a2 != 0\n 10616: a1 = 0 if a0 == 0\n 10618: jump @171 if a1 == 0\n      : @166 (gas: 11)\n 10622: u64 [sp + 0x98] = a3\n 10626: u64 [sp + 0xa0] = a2\n 10630: a2 = u64 [sp + 0xb8]\n 10634: a4 = u64 [sp + 0xb0]\n 10638: a0 = a4 | a2\n 10641: a1 = u64 [sp + 0x48]\n 10644: a1 = s1 <u a1\n 10647: a5 = u64 [sp + 0xa8]\n 10651: a1 = 0 if a5 != 0\n 10653: a1 = 0 if a0 != 0\n 10655: jump @170 if a1 == 0\n      : @167 (gas: 20)\n 10659: a1 = s1 + 0x20\n 10662: a0 = a1 <u s1\n 10665: a3 = a1\n 10667: u64 [sp + 0x88] = a1\n 10671: a1 = a5 + a0\n 10674: u64 [sp + 0x90] = a1\n 10678: a1 = a1 <u a5\n 10681: a1 = a0 if a0 == 0\n 10684: a0 = u64 [sp + 0x168]\n 10688: u64 [sp + 0x80] = a0\n 10692: a0 = u64 [sp + 0x160]\n 10696: u64 [sp + 0x78] = a0\n 10699: a1 = a1 + a4\n 10702: u64 [sp + 0xa8] = a1\n 10706: a0 = a1 <u a4\n 10709: a2 = a2 + a0\n 10712: u64 [sp + 0xb8] = a2\n 10716: i32 a0 = a3 + 0\n 10718: a1 = 0x20\n 10721: ra = 148, jump @0\n      : @168 [@dyn 74] (gas: 100)\n 10727: a1 = u64 [sp + 0xd0]\n 10731: t0 = a1 + 0x20\n 10734: a4 = t0 <u a1\n 10737: a1 = u64 [sp + 0xd8]\n 10741: t1 = a1 + a4\n 10744: a2 = u64 [sp + 0x70]\n 10747: a5 = t0 <u a2\n 10750: a2 = u64 [sp + 0x40]\n 10753: s1 = t1 ^ a2\n 10756: a3 = t1 <u a2\n 10759: a3 = a5 if s1 == 0\n 10762: a5 = t1 <u a1\n 10765: a5 = a4 if a4 == 0\n 10768: a1 = u64 [sp + 0xc0]\n 10772: ra = a1 + a5\n 10775: a5 = ra <u a1\n 10778: a2 = u64 [sp + 0xc8]\n 10782: a2 = a2 + a5\n 10785: a5 = u64 [sp + 0x68]\n 10788: t2 = ra <u a5\n 10791: a1 = u64 [sp + 0x60]\n 10794: s1 = a2 ^ a1\n 10797: a1 = a2 <u a1\n 10800: a1 = t2 if s1 == 0\n 10803: a5 = ra ^ a5\n 10806: a5 = a5 | s1\n 10809: a3 = a1 if a5 != 0\n 10812: a1 = u64 [sp + 0x78]\n 10815: a1 = reverse a1\n 10817: a5 = a1 >> 0x38\n 10820: u8 [a0 + 0x1f] = a5\n 10823: a5 = a1 >> 0x30\n 10826: u8 [a0 + 0x1e] = a5\n 10829: a5 = a1 >> 0x28\n 10832: u8 [a0 + 0x1d] = a5\n 10835: a5 = a1 >> 0x20\n 10838: u8 [a0 + 0x1c] = a5\n 10841: a5 = a1 >> 0x18\n 10844: u8 [a0 + 0x1b] = a5\n 10847: a5 = a1 >> 0x10\n 10850: u8 [a0 + 0x1a] = a5\n 10853: a5 = a1 >> 0x8\n 10856: u8 [a0 + 0x19] = a5\n 10859: u8 [a0 + 0x18] = a1\n 10862: a1 = u64 [sp + 0x80]\n 10866: a1 = reverse a1\n 10868: a5 = a1 >> 0x38\n 10871: u8 [a0 + 0x17] = a5\n 10874: a5 = a1 >> 0x30\n 10877: u8 [a0 + 0x16] = a5\n 10880: a5 = a1 >> 0x28\n 10883: u8 [a0 + 0x15] = a5\n 10886: a5 = a1 >> 0x20\n 10889: u8 [a0 + 0x14] = a5\n 10892: a5 = a1 >> 0x18\n 10895: u8 [a0 + 0x13] = a5\n 10898: a5 = a1 >> 0x10\n 10901: u8 [a0 + 0x12] = a5\n 10904: a5 = u64 [sp + 0x98]\n 10908: a5 = reverse a5\n 10910: u8 [a0 + 0x10] = a1\n 10913: a1 = a1 >> 0x8\n 10916: u8 [a0 + 0x11] = a1\n 10919: a1 = a5 >> 0x38\n 10922: u8 [a0 + 0xf] = a1\n 10925: a1 = a5 >> 0x30\n 10928: u8 [a0 + 0xe] = a1\n 10931: a1 = a5 >> 0x28\n 10934: u8 [a0 + 0xd] = a1\n 10937: a1 = a5 >> 0x20\n 10940: u8 [a0 + 0xc] = a1\n 10943: a1 = a5 >> 0x18\n 10946: u8 [a0 + 0xb] = a1\n 10949: a1 = a5 >> 0x10\n 10952: u8 [a0 + 0xa] = a1\n 10955: a1 = u64 [sp + 0xa0]\n 10959: a1 = reverse a1\n 10961: u8 [a0 + 0x8] = a5\n 10964: a5 = a5 >> 0x8\n 10967: u8 [a0 + 0x9] = a5\n 10970: a5 = a1 >> 0x38\n 10973: u8 [a0 + 0x7] = a5\n 10976: a5 = a1 >> 0x30\n 10979: u8 [a0 + 0x6] = a5\n 10982: a5 = a1 >> 0x28\n 10985: u8 [a0 + 0x5] = a5\n 10988: a5 = a1 >> 0x20\n 10991: u8 [a0 + 0x4] = a5\n 10994: a5 = a1 >> 0x18\n 10997: u8 [a0 + 0x3] = a5\n 11000: a5 = a1 >> 0x10\n 11003: u8 [a0 + 0x2] = a5\n 11006: u8 [a0] = a1\n 11008: a1 = a1 >> 0x8\n 11011: u8 [a0 + 0x1] = a1\n 11014: s1 = u64 [sp + 0x88]\n 11018: a4 = u64 [sp + 0x90]\n 11022: a1 = u64 [sp + 0xa8]\n 11026: a5 = ra\n 11028: jump @163 if a3 != 0\n      : @169 (gas: 15)\n 11032: a0 = u64 [sp + 0x18]\n 11035: a1 = u64 [sp + 0x20]\n 11038: u64 [a0] = a1\n 11040: a1 = u64 [sp + 0x28]\n 11043: u64 [a0 + 0x8] = a1\n 11046: a1 = u64 [sp + 0x30]\n 11049: u64 [a0 + 0x10] = a1\n 11052: a1 = u64 [sp + 0x38]\n 11055: u64 [a0 + 0x18] = a1\n 11058: sp = s0 + 0xfffffffffffffe60\n 11062: ra = u64 [sp + 0x198]\n 11066: s0 = u64 [sp + 0x190]\n 11070: s1 = u64 [sp + 0x188]\n 11074: sp = sp + 0x1a0\n 11078: ret\n      : @170 (gas: 1)\n 11080: trap\n      : @171 (gas: 2)\n 11081: a0 = 0\n 11083: ra = 150, jump @0\n      : @172 [@dyn 75] (gas: 5)\n 11089: i32 a1 = a0 + 0\n 11091: a0 = 0x1\n 11094: a2 = 0\n 11096: ecalli 13 // 'seal_return'\n 11098: fallthrough\n      : @173 (gas: 8)\n 11099: u64 [sp + 272] = 0\n 11103: u64 [sp + 264] = 0\n 11107: u64 [sp + 256] = 0\n 11111: a0 = 0x4e487b7100000000\n 11121: a1 = sp + 0x100\n 11125: u64 [sp + 0x118] = a0\n 11129: a0 = 0\n 11131: ra = 152, jump @8\n      : @174 [@dyn 76] (gas: 7)\n 11137: u64 [sp + 248] = 0\n 11141: u64 [sp + 240] = 0\n 11145: u64 [sp + 224] = 0x41\n 11150: a0 = 0x4\n 11153: a1 = sp + 0xe0\n 11157: u64 [sp + 232] = 0\n 11161: ra = 154, jump @8\n      : @175 [@dyn 77] (gas: 3)\n 11167: a1 = 0x24\n 11170: a0 = 0\n 11172: ra = 156, jump @0\n      : @176 [@dyn 78] (gas: 5)\n 11178: i32 a1 = a0 + 0\n 11180: a0 = 0x1\n 11183: a2 = 0x24\n 11186: ecalli 13 // 'seal_return'\n 11188: fallthrough\n      : @177 (gas: 4)\n 11189: a0 = 0\n 11191: a1 = 0\n 11193: ra = 0x96\n 11197: jump @0\n      : @178 (gas: 42)\n 11200: sp = sp + 0xfffffffffffffea0\n 11204: u64 [sp + 0x158] = ra\n 11208: u64 [sp + 0x150] = s0\n 11212: u64 [sp + 0x148] = s1\n 11216: s0 = sp + 0x160\n 11220: sp = sp & 0xffffffffffffffe0\n 11223: s1 = u64 [a2 + 0x8]\n 11226: t0 = u64 [a1 + 0x8]\n 11229: a5 = u64 [a2]\n 11231: t1 = u64 [a1]\n 11233: ra = u64 [a2 + 0x10]\n 11236: a4 = s1 ^ t0\n 11239: a3 = s1 <u t0\n 11242: t2 = a5 <u t1\n 11245: a3 = t2 if a4 == 0\n 11248: u64 [sp + 0x70] = s1\n 11251: a4 = s1 - t0\n 11254: a4 = a4 - t2\n 11257: u64 [sp + 0x68] = a5\n 11260: a5 = a5 - t1\n 11263: a5 = a5 <u 0x40\n 11266: a5 = a5 ^ 0x1\n 11269: t2 = u64 [a1 + 0x10]\n 11272: s1 = a4 >u 0\n 11274: a5 = s1 if a4 != 0\n 11277: a4 = u64 [a2 + 0x18]\n 11280: s1 = u64 [a1 + 0x18]\n 11283: a1 = ra - t2\n 11286: a2 = a1 - a3\n 11289: a1 = a1 <u a3\n 11292: u64 [sp + 0x60] = ra\n 11295: a3 = ra <u t2\n 11298: u64 [sp + 0x50] = a4\n 11301: a4 = a4 - s1\n 11304: a4 = a4 - a3\n 11307: a4 = a4 - a1\n 11310: a1 = a4 >s 0\n 11312: a3 = a2 >u 0\n 11314: a3 = a1 if a4 != 0\n 11317: a2 = a2 | a4\n 11320: a5 = a3 if a2 != 0\n 11323: jump @188 if a5 == 0\n      : @179 (gas: 10)\n 11327: a2 = t1 | t2\n 11330: u64 [sp + 0x78] = t0\n 11333: a1 = t0 | s1\n 11336: a2 = a2 | a1\n 11339: a2 = a2 >> 0x20\n 11342: u64 [sp + 0x58] = t2\n 11345: a1 = a1 | t2\n 11348: a1 = a1 << 0x20\n 11351: a1 = a1 | a2\n 11354: jump @187 if a1 != 0\n      : @180 (gas: 8)\n 11358: u64 [sp + 0x48] = s1\n 11361: u64 [sp + 0x20] = a0\n 11364: i32 a1 = t1 + 0\n 11366: i32 a0 = sp + 0x100\n 11370: u64 [sp + 0x18] = a1\n 11373: s1 = t1\n 11375: ecalli 3 // 'call_data_load'\n 11377: fallthrough\n      : @181 (gas: 7)\n 11378: a0 = u64 [sp + 0x118]\n 11382: a1 = u64 [sp + 0x110]\n 11386: a2 = u64 [sp + 0x108]\n 11390: a3 = a1 | a0\n 11393: a4 = a2 <u 0x1\n 11396: a4 = 0 if a3 != 0\n 11398: jump @188 if a4 == 0\n      : @182 (gas: 43)\n 11402: a3 = u64 [sp + 0x100]\n 11406: t0 = a3 + s1\n 11409: a3 = t0 <u a3\n 11412: a4 = u64 [sp + 0x78]\n 11415: a4 = a4 + a2\n 11418: t1 = a4 + a3\n 11421: a4 = t1 ^ a2\n 11424: u64 [sp + 0x40] = s1\n 11427: s1 = t1 <u a2\n 11430: s1 = a3 if a4 == 0\n 11433: a2 = u64 [sp + 0x58]\n 11436: a2 = a2 + a1\n 11439: s1 = s1 + a2\n 11442: a3 = s1 <u a2\n 11445: a1 = a2 <u a1\n 11448: a2 = u64 [sp + 0x48]\n 11451: a0 = a0 + a2\n 11454: a0 = a0 + a1\n 11457: ra = a0 + a3\n 11460: a0 = t0 + 0x1f\n 11463: a1 = a0 <u t0\n 11466: a2 = t1 + a1\n 11469: a3 = a2 <u t1\n 11472: a3 = a1 if a1 == 0\n 11475: t2 = s1 + a3\n 11478: a1 = t2 <u s1\n 11481: a1 = a1 + ra\n 11484: a5 = u64 [sp + 0x70]\n 11487: a4 = a2 ^ a5\n 11490: a2 = a2 <u a5\n 11493: a5 = u64 [sp + 0x68]\n 11496: a0 = a0 <u a5\n 11499: a0 = a2 if a4 != 0\n 11502: a5 = u64 [sp + 0x60]\n 11505: a2 = t2 <u a5\n 11508: a4 = u64 [sp + 0x50]\n 11511: a3 = a1 ^ a4\n 11514: a1 = a1 <s a4\n 11517: a1 = a2 if a3 == 0\n 11520: a2 = t2 ^ a5\n 11523: a2 = a2 | a3\n 11526: a0 = a1 if a2 != 0\n 11529: jump @189 if a0 == 0\n      : @183 (gas: 11)\n 11533: a0 = t0 | s1\n 11536: u64 [sp + 0x38] = t1\n 11539: u64 [sp + 0x28] = ra\n 11542: a1 = t1 | ra\n 11545: a0 = a0 | a1\n 11548: a0 = a0 >> 0x20\n 11551: u64 [sp + 0x30] = s1\n 11554: a1 = a1 | s1\n 11557: a1 = a1 << 0x20\n 11560: a0 = a0 | a1\n 11563: jump @187 if a0 != 0\n      : @184 (gas: 40)\n 11567: i32 a1 = t0 + 0\n 11569: i32 a0 = sp + 0x120\n 11573: s1 = t0\n 11575: ecalli 3 // 'call_data_load'\n 11577: t0 = u64 [sp + 0x120]\n 11581: t1 = u64 [sp + 0x128]\n 11585: a2 = u64 [sp + 0x130]\n 11589: a3 = u64 [sp + 0x138]\n 11593: a4 = s1 + 0x20\n 11596: a5 = a4 <u s1\n 11599: a1 = u64 [sp + 0x38]\n 11602: a0 = a1 + a5\n 11605: a1 = a0 <u a1\n 11608: a1 = a5 if a5 == 0\n 11611: a5 = u64 [sp + 0x30]\n 11614: a1 = a1 + a5\n 11617: a5 = a1 <u a5\n 11620: s1 = u64 [sp + 0x28]\n 11623: a5 = a5 + s1\n 11626: s1 = u64 [sp + 0x50]\n 11629: u64 [sp + 0x98] = s1\n 11633: s1 = u64 [sp + 0x60]\n 11636: u64 [sp + 0x90] = s1\n 11640: s1 = u64 [sp + 0x70]\n 11643: u64 [sp + 0x88] = s1\n 11647: s1 = u64 [sp + 0x68]\n 11650: u64 [sp + 0x80] = s1\n 11654: u64 [sp + 0xb8] = a3\n 11658: u64 [sp + 0xb0] = a2\n 11662: u64 [sp + 0xa8] = t1\n 11666: u64 [sp + 0xa0] = t0\n 11670: u64 [sp + 0xc8] = a0\n 11674: u64 [sp + 0xc0] = a4\n 11678: u64 [sp + 0xd0] = a1\n 11682: a0 = sp + 0xe0\n 11686: a1 = sp + 0xc0\n 11690: a2 = sp + 0xa0\n 11694: a3 = sp + 0x80\n 11698: u64 [sp + 0xd8] = a5\n 11702: ra = 158, jump @156\n      : @185 [@dyn 79] (gas: 10)\n 11708: a0 = u64 [sp + 0x58]\n 11711: a1 = u64 [sp + 0x48]\n 11714: a0 = a0 | a1\n 11717: a1 = 0xffffffe0\n 11727: a2 = u64 [sp + 0x40]\n 11730: a1 = a2 <u a1\n 11733: a2 = u64 [sp + 0x78]\n 11736: a1 = 0 if a2 != 0\n 11738: a1 = 0 if a0 != 0\n 11740: jump @187 if a1 == 0\n      : @186 (gas: 33)\n 11743: s1 = u64 [sp + 0xf8]\n 11747: a0 = u64 [sp + 0xf0]\n 11751: u64 [sp + 0x68] = a0\n 11754: a0 = u64 [sp + 0xe8]\n 11758: u64 [sp + 0x70] = a0\n 11761: a0 = u64 [sp + 0xe0]\n 11765: u64 [sp + 0x78] = a0\n 11768: a0 = u64 [sp + 0x18]\n 11771: i32 a1 = a0 + 0x20\n 11774: i32 a0 = sp + 0x120\n 11778: ecalli 3 // 'call_data_load'\n 11780: a0 = u64 [sp + 0x138]\n 11784: a1 = u64 [sp + 0x130]\n 11788: a2 = u64 [sp + 0x128]\n 11792: a3 = u64 [sp + 0x120]\n 11796: a4 = u64 [sp + 0x20]\n 11799: u64 [a4 + 0x38] = a0\n 11802: u64 [a4 + 0x30] = a1\n 11805: u64 [a4 + 0x28] = a2\n 11808: u64 [a4 + 0x20] = a3\n 11811: u64 [a4 + 0x18] = s1\n 11814: a0 = u64 [sp + 0x68]\n 11817: u64 [a4 + 0x10] = a0\n 11820: a0 = u64 [sp + 0x70]\n 11823: u64 [a4 + 0x8] = a0\n 11826: a0 = u64 [sp + 0x78]\n 11829: u64 [a4] = a0\n 11831: sp = s0 + 0xfffffffffffffea0\n 11835: ra = u64 [sp + 0x158]\n 11839: s0 = u64 [sp + 0x150]\n 11843: s1 = u64 [sp + 0x148]\n 11847: sp = sp + 0x160\n 11851: ret\n      : @187 (gas: 1)\n 11853: trap\n      : @188 (gas: 4)\n 11854: a0 = 0\n 11856: a1 = 0\n 11858: ra = 0xa0\n 11862: jump @0\n      : @189 (gas: 2)\n 11865: a1 = 0\n 11867: ra = 160, jump @0\n      : @190 [@dyn 80] (gas: 6)\n 11873: i32 a1 = a0 + 0\n 11875: a0 = 0x1\n 11878: a2 = 0\n 11880: ra = 0xa2\n 11884: ecalli 13 // 'seal_return'\n 11886: fallthrough\n      : @191 [@dyn 81] (gas: 13)\n 11887: sp = sp + 0xfffffffffffffec0\n 11891: u64 [sp + 0x138] = ra\n 11895: u64 [sp + 0x130] = s0\n 11899: u64 [sp + 0x128] = s1\n 11903: s0 = sp + 0x140\n 11907: sp = sp & 0xffffffffffffffe0\n 11910: u64 [sp + 280] = 0\n 11914: u64 [sp + 272] = 0\n 11918: u64 [sp + 264] = 0\n 11922: u64 [sp + 256] = 0\n 11926: i32 a0 = sp + 0x100\n 11930: ecalli 16 // 'value_transferred'\n 11932: fallthrough\n      : @192 (gas: 8)\n 11933: a0 = u64 [sp + 0x110]\n 11937: a1 = u64 [sp + 0x118]\n 11941: a2 = u64 [sp + 0x108]\n 11945: a3 = u64 [sp + 0x100]\n 11949: a1 = a1 | a2\n 11952: a0 = a0 | a3\n 11955: a0 = a0 | a1\n 11958: jump @198 if a0 != 0\n      : @193 (gas: 13)\n 11962: a0 = u32 [0x20044]\n 11967: u64 [sp + 152] = 0\n 11971: u64 [sp + 144] = 0\n 11975: u64 [sp + 136] = 0\n 11979: u64 [sp + 0x80] = a0\n 11983: u64 [sp + 184] = 0\n 11987: u64 [sp + 176] = 0\n 11991: u64 [sp + 160] = 0x4\n 11996: a0 = sp + 0xc0\n 12000: a1 = sp + 0xa0\n 12004: a2 = sp + 0x80\n 12008: u64 [sp + 168] = 0\n 12012: ra = 164, jump @178\n      : @194 [@dyn 82] (gas: 47)\n 12018: t0 = u64 [sp + 0xc0]\n 12022: a0 = u64 [sp + 0xc8]\n 12026: a1 = u64 [sp + 0xd0]\n 12030: a2 = u64 [sp + 0xd8]\n 12034: a4 = u64 [sp + 0xe0]\n 12038: a5 = u64 [sp + 0xe8]\n 12042: s1 = u64 [sp + 0xf0]\n 12046: a3 = u64 [sp + 0xf8]\n 12050: u64 [sp + 0x38] = a3\n 12053: u64 [sp + 0x30] = s1\n 12056: u64 [sp + 0x28] = a5\n 12059: u64 [sp + 0x20] = a4\n 12062: u64 [sp + 0x58] = a2\n 12065: u64 [sp + 0x50] = a1\n 12068: u64 [sp + 0x48] = a0\n 12071: a0 = sp + 0x60\n 12074: a1 = sp + 0x40\n 12077: a2 = sp + 0x20\n 12080: u64 [sp + 0x40] = t0\n 12083: ra = 0xa6\n 12087: sp = sp + 0xfffffffffffffc20\n 12091: u64 [sp + 0x3d8] = ra\n 12095: u64 [sp + 0x3d0] = s0\n 12099: u64 [sp + 0x3c8] = s1\n 12103: s0 = sp + 0x3e0\n 12107: sp = sp & 0xffffffffffffffe0\n 12110: a3 = u64 [a2 + 0x18]\n 12113: u64 [sp + 0x128] = a3\n 12117: a3 = u64 [a2 + 0x10]\n 12120: u64 [sp + 0x130] = a3\n 12124: a3 = u64 [a2 + 0x8]\n 12127: u64 [sp + 0x138] = a3\n 12131: a2 = u64 [a2]\n 12133: u64 [sp + 0x140] = a2\n 12137: a2 = u64 [a1 + 0x18]\n 12140: u64 [sp + 0x148] = a2\n 12144: a2 = u64 [a1 + 0x10]\n 12147: u64 [sp + 0x150] = a2\n 12151: a2 = u64 [a1 + 0x8]\n 12154: u64 [sp + 0x158] = a2\n 12158: a1 = u64 [a1]\n 12160: u64 [sp + 0x160] = a1\n 12164: u64 [sp + 0xf0] = a0\n 12168: a0 = 0x40\n 12171: a1 = 0x20\n 12174: ra = 0x17a\n 12178: jump @0\n      : @195 [@dyn 83] (gas: 11)\n 12181: a0 = u64 [sp + 0x78]\n 12184: u64 [sp] = a0\n 12186: a0 = u64 [sp + 0x70]\n 12189: u64 [sp + 0x8] = a0\n 12192: a0 = u64 [sp + 0x68]\n 12195: u64 [sp + 0x10] = a0\n 12198: a0 = u64 [sp + 0x60]\n 12201: u64 [sp + 0x18] = a0\n 12204: a0 = 0x40\n 12207: a1 = 0x20\n 12210: ra = 168, jump @0\n      : @196 [@dyn 84] (gas: 100)\n 12216: a1 = u8 [a0 + 0x11]\n 12219: a2 = u8 [a0 + 0x10]\n 12222: a3 = u8 [a0 + 0x12]\n 12225: a4 = u8 [a0 + 0x13]\n 12228: a1 = a1 << 0x8\n 12231: a1 = a1 | a2\n 12234: a3 = a3 << 0x10\n 12237: a4 = a4 << 0x18\n 12240: a3 = a3 | a4\n 12243: a1 = a1 | a3\n 12246: a2 = u8 [a0 + 0x15]\n 12249: a3 = u8 [a0 + 0x14]\n 12252: a4 = u8 [a0 + 0x16]\n 12255: a5 = u8 [a0 + 0x17]\n 12258: a2 = a2 << 0x8\n 12261: a2 = a2 | a3\n 12264: a4 = a4 << 0x10\n 12267: a5 = a5 << 0x18\n 12270: a4 = a4 | a5\n 12273: a2 = a2 | a4\n 12276: a2 = a2 << 0x20\n 12279: t0 = a2 | a1\n 12282: a2 = u8 [a0 + 0x1]\n 12285: a3 = u8 [a0]\n 12287: a4 = u8 [a0 + 0x2]\n 12290: a5 = u8 [a0 + 0x3]\n 12293: a2 = a2 << 0x8\n 12296: a2 = a2 | a3\n 12299: a4 = a4 << 0x10\n 12302: a5 = a5 << 0x18\n 12305: a4 = a4 | a5\n 12308: a2 = a2 | a4\n 12311: a3 = u8 [a0 + 0x5]\n 12314: a4 = u8 [a0 + 0x4]\n 12317: a5 = u8 [a0 + 0x6]\n 12320: s1 = u8 [a0 + 0x7]\n 12323: a3 = a3 << 0x8\n 12326: a3 = a3 | a4\n 12329: a5 = a5 << 0x10\n 12332: s1 = s1 << 0x18\n 12335: a5 = a5 | s1\n 12338: a3 = a3 | a5\n 12341: a3 = a3 << 0x20\n 12344: a2 = a2 | a3\n 12347: a3 = u8 [a0 + 0x19]\n 12350: a4 = u8 [a0 + 0x18]\n 12353: a5 = u8 [a0 + 0x1a]\n 12356: s1 = u8 [a0 + 0x1b]\n 12359: a3 = a3 << 0x8\n 12362: a3 = a3 | a4\n 12365: a5 = a5 << 0x10\n 12368: s1 = s1 << 0x18\n 12371: a5 = a5 | s1\n 12374: a3 = a3 | a5\n 12377: a4 = u8 [a0 + 0x1d]\n 12380: a5 = u8 [a0 + 0x1c]\n 12383: s1 = u8 [a0 + 0x1e]\n 12386: a1 = u8 [a0 + 0x1f]\n 12389: a4 = a4 << 0x8\n 12392: a4 = a4 | a5\n 12395: s1 = s1 << 0x10\n 12398: a1 = a1 << 0x18\n 12401: a1 = a1 | s1\n 12404: a1 = a1 | a4\n 12407: a1 = a1 << 0x20\n 12410: a3 = a3 | a1\n 12413: a1 = u8 [a0 + 0x9]\n 12416: a4 = u8 [a0 + 0x8]\n 12419: a5 = u8 [a0 + 0xa]\n 12422: s1 = u8 [a0 + 0xb]\n 12425: a1 = a1 << 0x8\n 12428: a1 = a1 | a4\n 12431: a5 = a5 << 0x10\n 12434: s1 = s1 << 0x18\n 12437: a5 = a5 | s1\n 12440: a1 = a1 | a5\n 12443: a4 = u8 [a0 + 0xd]\n 12446: a5 = u8 [a0 + 0xc]\n 12449: s1 = u8 [a0 + 0xe]\n 12452: a0 = u8 [a0 + 0xf]\n 12455: a4 = a4 << 0x8\n 12458: a4 = a4 | a5\n 12461: s1 = s1 << 0x10\n 12464: a0 = a0 << 0x18\n 12467: a0 = a0 | s1\n 12470: a0 = a0 | a4\n 12473: a0 = a0 << 0x20\n 12476: a0 = a0 | a1\n 12479: a1 = reverse a0\n 12481: a0 = reverse a3\n 12483: a2 = reverse a2\n 12485: a3 = reverse t0\n 12487: a2 = a2 | a3\n 12490: a3 = a0 | a1\n 12493: a3 = a3 | a2\n 12496: a3 = a3 >> 0x20\n 12499: a1 = a1 | a2\n 12502: a1 = a1 << 0x20\n 12505: a1 = a1 | a3\n 12508: jump @200 if a1 == 0\n      : @197 (gas: 1)\n 12511: trap\n      : @198 (gas: 3)\n 12512: a0 = 0\n 12514: a1 = 0\n 12516: ra = 170, jump @0\n      : @199 [@dyn 85] (gas: 5)\n 12522: i32 a1 = a0 + 0\n 12524: a0 = 0x1\n 12527: a2 = 0\n 12529: ecalli 13 // 'seal_return'\n 12531: fallthrough\n      : @200 (gas: 4)\n 12532: i32 s1 = a0 + 0\n 12534: a1 = 0x20\n 12537: a0 = s1\n 12539: ra = 172, jump @0\n      : @201 [@dyn 86] (gas: 71)\n 12545: a1 = u64 [sp]\n 12547: a1 = reverse a1\n 12549: a2 = u64 [sp + 0x8]\n 12552: a2 = reverse a2\n 12554: a3 = u64 [sp + 0x10]\n 12557: a3 = reverse a3\n 12559: a4 = u64 [sp + 0x18]\n 12562: a4 = reverse a4\n 12564: a5 = a4 >> 0x38\n 12567: u8 [a0 + 0x1f] = a5\n 12570: a5 = a4 >> 0x30\n 12573: u8 [a0 + 0x1e] = a5\n 12576: a5 = a4 >> 0x28\n 12579: u8 [a0 + 0x1d] = a5\n 12582: a5 = a4 >> 0x20\n 12585: u8 [a0 + 0x1c] = a5\n 12588: a5 = a4 >> 0x18\n 12591: u8 [a0 + 0x1b] = a5\n 12594: a5 = a4 >> 0x10\n 12597: u8 [a0 + 0x1a] = a5\n 12600: a5 = a4 >> 0x8\n 12603: u8 [a0 + 0x19] = a5\n 12606: u8 [a0 + 0x18] = a4\n 12609: u8 [a0 + 0x10] = a3\n 12612: a4 = a3 >> 0x38\n 12615: u8 [a0 + 0x17] = a4\n 12618: a4 = a3 >> 0x30\n 12621: u8 [a0 + 0x16] = a4\n 12624: a4 = a3 >> 0x28\n 12627: u8 [a0 + 0x15] = a4\n 12630: a4 = a3 >> 0x20\n 12633: u8 [a0 + 0x14] = a4\n 12636: a4 = a3 >> 0x18\n 12639: u8 [a0 + 0x13] = a4\n 12642: a4 = a3 >> 0x10\n 12645: u8 [a0 + 0x12] = a4\n 12648: a3 = a3 >> 0x8\n 12651: u8 [a0 + 0x11] = a3\n 12654: u8 [a0 + 0x8] = a2\n 12657: a3 = a2 >> 0x38\n 12660: u8 [a0 + 0xf] = a3\n 12663: a3 = a2 >> 0x30\n 12666: u8 [a0 + 0xe] = a3\n 12669: a3 = a2 >> 0x28\n 12672: u8 [a0 + 0xd] = a3\n 12675: a3 = a2 >> 0x20\n 12678: u8 [a0 + 0xc] = a3\n 12681: a3 = a2 >> 0x18\n 12684: u8 [a0 + 0xb] = a3\n 12687: a3 = a2 >> 0x10\n 12690: u8 [a0 + 0xa] = a3\n 12693: a2 = a2 >> 0x8\n 12696: u8 [a0 + 0x9] = a2\n 12699: u8 [a0] = a1\n 12701: a2 = a1 >> 0x38\n 12704: u8 [a0 + 0x7] = a2\n 12707: a2 = a1 >> 0x30\n 12710: u8 [a0 + 0x6] = a2\n 12713: a2 = a1 >> 0x28\n 12716: u8 [a0 + 0x5] = a2\n 12719: a2 = a1 >> 0x20\n 12722: u8 [a0 + 0x4] = a2\n 12725: a2 = a1 >> 0x18\n 12728: u8 [a0 + 0x3] = a2\n 12731: a2 = a1 >> 0x10\n 12734: u8 [a0 + 0x2] = a2\n 12737: a1 = a1 >> 0x8\n 12740: u8 [a0 + 0x1] = a1\n 12743: a1 = 0x20\n 12746: a0 = s1\n 12748: ra = 174, jump @0\n      : @202 [@dyn 87] (gas: 6)\n 12754: i32 a1 = a0 + 0\n 12756: a2 = 0x20\n 12759: a0 = 0\n 12761: ra = 0xb0\n 12765: ecalli 13 // 'seal_return'\n 12767: fallthrough\n      : @203 [@dyn 88] (gas: 9)\n 12768: a2 = u64 [a1 + 0x18]\n 12771: a3 = u64 [a1 + 0x10]\n 12774: a4 = u64 [a1 + 0x8]\n 12777: a1 = u64 [a1]\n 12779: u64 [a0 + 0x18] = a2\n 12782: u64 [a0 + 0x10] = a3\n 12785: u64 [a0 + 0x8] = a4\n 12788: u64 [a0] = a1\n 12790: ret\n      : @204 (gas: 17)\n 12792: sp = sp + 0xffffffffffffffa0\n 12795: u64 [sp + 0x58] = ra\n 12798: u64 [sp + 0x50] = s0\n 12801: u64 [sp + 0x48] = s1\n 12804: a3 = u64 [a1 + 0x18]\n 12807: a4 = u64 [a1 + 0x10]\n 12810: a5 = u64 [a1 + 0x8]\n 12813: s1 = u64 [a1]\n 12815: a1 = a5 | a3\n 12818: a2 = s1 | a4\n 12821: a2 = a2 | a1\n 12824: a2 = a2 >> 0x20\n 12827: a1 = a1 | a4\n 12830: a1 = a1 << 0x20\n 12833: a1 = a1 | a2\n 12836: u64 [sp + 0x28] = a0\n 12839: jump @211 if a1 != 0\n      : @205 (gas: 19)\n 12843: a0 = s1 + 0x20\n 12846: u64 [sp + 0x30] = a0\n 12849: a0 = a0 <u s1\n 12852: a1 = a5 + a0\n 12855: u64 [sp + 0x40] = a1\n 12858: u64 [sp + 0x8] = a5\n 12861: s0 = a1 <u a5\n 12864: s0 = a0 if a0 == 0\n 12867: s0 = s0 + a4\n 12870: u64 [sp + 0x10] = a4\n 12873: a0 = s0 <u a4\n 12876: u64 [sp + 0x18] = a3\n 12879: a0 = a0 + a3\n 12882: u64 [sp + 0x38] = a0\n 12885: u64 [sp] = s1\n 12887: i32 a0 = s1 + 0\n 12889: a1 = 0x20\n 12892: s1 = 0x20\n 12895: ra = 178, jump @0\n      : @206 [@dyn 89] (gas: 45)\n 12901: u8 [a0 + 0x1f] = s1\n 12904: a1 = u64 [sp + 0x30]\n 12907: s1 = a1\n 12909: a1 = a1 | s0\n 12912: a2 = u64 [sp + 0x40]\n 12915: a4 = u64 [sp + 0x38]\n 12918: a2 = a2 | a4\n 12921: a1 = a1 | a2\n 12924: a1 = a1 >> 0x20\n 12927: u64 [sp + 0x20] = s0\n 12930: a2 = a2 | s0\n 12933: a2 = a2 << 0x20\n 12936: a1 = a1 | a2\n 12939: u8 [a0 + 30] = 0\n 12942: u8 [a0 + 29] = 0\n 12945: u8 [a0 + 28] = 0\n 12948: u8 [a0 + 27] = 0\n 12951: u8 [a0 + 26] = 0\n 12954: u8 [a0 + 25] = 0\n 12957: u8 [a0 + 24] = 0\n 12960: u8 [a0 + 23] = 0\n 12963: u8 [a0 + 22] = 0\n 12966: u8 [a0 + 21] = 0\n 12969: u8 [a0 + 20] = 0\n 12972: u8 [a0 + 19] = 0\n 12975: u8 [a0 + 18] = 0\n 12978: u8 [a0 + 17] = 0\n 12981: u8 [a0 + 16] = 0\n 12984: u8 [a0 + 15] = 0\n 12987: u8 [a0 + 14] = 0\n 12990: u8 [a0 + 13] = 0\n 12993: u8 [a0 + 12] = 0\n 12996: u8 [a0 + 11] = 0\n 12999: u8 [a0 + 10] = 0\n 13002: u8 [a0 + 9] = 0\n 13005: u8 [a0 + 8] = 0\n 13008: u8 [a0 + 7] = 0\n 13011: u8 [a0 + 6] = 0\n 13014: u8 [a0 + 5] = 0\n 13017: u8 [a0 + 4] = 0\n 13020: u8 [a0 + 3] = 0\n 13023: u8 [a0 + 2] = 0\n 13026: u8 [a0 + 1] = 0\n 13029: u8 [a0 + 0] = 0\n 13031: jump @211 if a1 != 0\n      : @207 (gas: 4)\n 13035: i32 s0 = s1 + 0\n 13037: a1 = 0x20\n 13040: a0 = s0\n 13042: ra = 180, jump @0\n      : @208 [@dyn 90] (gas: 41)\n 13048: u8 [a0 + 31] = 0x18\n 13052: u8 [a0 + 30] = 0\n 13055: u8 [a0 + 29] = 0\n 13058: u8 [a0 + 28] = 0\n 13061: u8 [a0 + 27] = 0\n 13064: u8 [a0 + 26] = 0\n 13067: u8 [a0 + 25] = 0\n 13070: u8 [a0 + 24] = 0\n 13073: u8 [a0 + 23] = 0\n 13076: u8 [a0 + 22] = 0\n 13079: u8 [a0 + 21] = 0\n 13082: u8 [a0 + 20] = 0\n 13085: u8 [a0 + 19] = 0\n 13088: u8 [a0 + 18] = 0\n 13091: u8 [a0 + 17] = 0\n 13094: u8 [a0 + 16] = 0\n 13097: u8 [a0 + 15] = 0\n 13100: u8 [a0 + 14] = 0\n 13103: u8 [a0 + 13] = 0\n 13106: u8 [a0 + 12] = 0\n 13109: u8 [a0 + 11] = 0\n 13112: u8 [a0 + 10] = 0\n 13115: u8 [a0 + 9] = 0\n 13118: u8 [a0 + 8] = 0\n 13121: u8 [a0 + 7] = 0\n 13124: u8 [a0 + 6] = 0\n 13127: u8 [a0 + 5] = 0\n 13130: u8 [a0 + 4] = 0\n 13133: u8 [a0 + 3] = 0\n 13136: u8 [a0 + 2] = 0\n 13139: u8 [a0 + 1] = 0\n 13142: a1 = u64 [sp + 0x20]\n 13145: a2 = u64 [sp + 0x38]\n 13148: a1 = a1 | a2\n 13151: a2 = 0xffffffe0\n 13161: a2 = s1 <u a2\n 13164: a3 = u64 [sp + 0x40]\n 13167: a2 = 0 if a3 != 0\n 13169: a2 = 0 if a1 != 0\n 13171: u8 [a0 + 0] = 0\n 13173: jump @211 if a2 == 0\n      : @209 (gas: 3)\n 13177: i32 a0 = s0 + 0x20\n 13180: a1 = 0x20\n 13183: ra = 182, jump @0\n      : @210 [@dyn 91] (gas: 55)\n 13189: u8 [a0 + 31] = 0\n 13192: u8 [a0 + 30] = 0\n 13195: u8 [a0 + 29] = 0\n 13198: u8 [a0 + 28] = 0\n 13201: u8 [a0 + 27] = 0\n 13204: u8 [a0 + 26] = 0\n 13207: u8 [a0 + 25] = 0\n 13210: u8 [a0 + 24] = 0\n 13213: u8 [a0 + 23] = 0x73\n 13217: u8 [a0 + 22] = 0x73\n 13221: u8 [a0 + 21] = 0x65\n 13225: u8 [a0 + 20] = 0x72\n 13229: u8 [a0 + 19] = 0x64\n 13233: u8 [a0 + 18] = 0x64\n 13237: u8 [a0 + 17] = 0x61\n 13241: u8 [a0 + 16] = 0x20\n 13245: u8 [a0 + 15] = 0x67\n 13249: u8 [a0 + 14] = 0x69\n 13253: u8 [a0 + 13] = 0x73\n 13257: u8 [a0 + 12] = 0x69\n 13261: u8 [a0 + 11] = 0x74\n 13265: u8 [a0 + 10] = 0x6c\n 13269: u8 [a0 + 9] = 0x75\n 13273: a5 = 0x6d\n 13276: u8 [a0 + 0x8] = a5\n 13279: u8 [a0 + 7] = 0x20\n 13283: u8 [a0 + 6] = 0x64\n 13287: u8 [a0 + 5] = 0x69\n 13291: u8 [a0 + 4] = 0x6c\n 13295: u8 [a0 + 3] = 0x61\n 13299: u8 [a0 + 2] = 0x76\n 13303: u8 [a0 + 1] = 0x6e\n 13307: u8 [a0 + 0] = 0x49\n 13310: a1 = u64 [sp]\n 13312: a0 = a1 + 0x60\n 13315: a1 = a0 <u a1\n 13318: a3 = u64 [sp + 0x8]\n 13321: a2 = a3 + a1\n 13324: a3 = a2 <u a3\n 13327: a3 = a1 if a1 == 0\n 13330: a1 = u64 [sp + 0x10]\n 13333: a3 = a3 + a1\n 13336: a1 = a3 <u a1\n 13339: a4 = u64 [sp + 0x18]\n 13342: a1 = a1 + a4\n 13345: a4 = u64 [sp + 0x28]\n 13348: u64 [a4] = a0\n 13350: u64 [a4 + 0x8] = a2\n 13353: u64 [a4 + 0x10] = a3\n 13356: u64 [a4 + 0x18] = a1\n 13359: ra = u64 [sp + 0x58]\n 13362: s0 = u64 [sp + 0x50]\n 13365: s1 = u64 [sp + 0x48]\n 13368: sp = sp + 0x60\n 13371: ret\n      : @211 (gas: 1)\n 13373: trap\n      : @212 (gas: 9)\n 13374: sp = sp + 0xffffffffffffffc0\n 13377: u64 [sp + 0x38] = ra\n 13380: u64 [sp + 0x30] = s0\n 13383: u64 [sp + 0x28] = s1\n 13386: s0 = sp + 0x40\n 13389: sp = sp & 0xffffffffffffffe0\n 13392: a0 = 0x40\n 13395: a1 = 0x20\n 13398: ra = 184, jump @0\n      : @213 [@dyn 92] (gas: 97)\n 13404: a1 = u8 [a0 + 0x11]\n 13407: a2 = u8 [a0 + 0x10]\n 13410: a3 = u8 [a0 + 0x12]\n 13413: a4 = u8 [a0 + 0x13]\n 13416: a1 = a1 << 0x8\n 13419: a1 = a1 | a2\n 13422: a3 = a3 << 0x10\n 13425: a4 = a4 << 0x18\n 13428: a3 = a3 | a4\n 13431: a1 = a1 | a3\n 13434: a2 = u8 [a0 + 0x15]\n 13437: a3 = u8 [a0 + 0x14]\n 13440: a4 = u8 [a0 + 0x16]\n 13443: a5 = u8 [a0 + 0x17]\n 13446: a2 = a2 << 0x8\n 13449: a2 = a2 | a3\n 13452: a4 = a4 << 0x10\n 13455: a5 = a5 << 0x18\n 13458: a4 = a4 | a5\n 13461: a2 = a2 | a4\n 13464: a2 = a2 << 0x20\n 13467: t0 = a2 | a1\n 13470: a2 = u8 [a0 + 0x1]\n 13473: a3 = u8 [a0]\n 13475: a4 = u8 [a0 + 0x2]\n 13478: a5 = u8 [a0 + 0x3]\n 13481: a2 = a2 << 0x8\n 13484: a2 = a2 | a3\n 13487: a4 = a4 << 0x10\n 13490: a5 = a5 << 0x18\n 13493: a4 = a4 | a5\n 13496: a2 = a2 | a4\n 13499: a3 = u8 [a0 + 0x5]\n 13502: a4 = u8 [a0 + 0x4]\n 13505: a5 = u8 [a0 + 0x6]\n 13508: s1 = u8 [a0 + 0x7]\n 13511: a3 = a3 << 0x8\n 13514: a3 = a3 | a4\n 13517: a5 = a5 << 0x10\n 13520: s1 = s1 << 0x18\n 13523: a5 = a5 | s1\n 13526: a3 = a3 | a5\n 13529: a3 = a3 << 0x20\n 13532: a2 = a2 | a3\n 13535: a3 = u8 [a0 + 0x19]\n 13538: a4 = u8 [a0 + 0x18]\n 13541: a5 = u8 [a0 + 0x1a]\n 13544: s1 = u8 [a0 + 0x1b]\n 13547: a3 = a3 << 0x8\n 13550: a3 = a3 | a4\n 13553: a5 = a5 << 0x10\n 13556: s1 = s1 << 0x18\n 13559: a5 = a5 | s1\n 13562: a3 = a3 | a5\n 13565: a4 = u8 [a0 + 0x1d]\n 13568: a5 = u8 [a0 + 0x1c]\n 13571: s1 = u8 [a0 + 0x1e]\n 13574: a1 = u8 [a0 + 0x1f]\n 13577: a4 = a4 << 0x8\n 13580: a4 = a4 | a5\n 13583: s1 = s1 << 0x10\n 13586: a1 = a1 << 0x18\n 13589: a1 = a1 | s1\n 13592: a1 = a1 | a4\n 13595: a1 = a1 << 0x20\n 13598: a3 = a3 | a1\n 13601: a1 = u8 [a0 + 0x9]\n 13604: a4 = u8 [a0 + 0x8]\n 13607: a5 = u8 [a0 + 0xa]\n 13610: s1 = u8 [a0 + 0xb]\n 13613: a1 = a1 << 0x8\n 13616: a1 = a1 | a4\n 13619: a5 = a5 << 0x10\n 13622: s1 = s1 << 0x18\n 13625: a5 = a5 | s1\n 13628: a1 = a1 | a5\n 13631: a4 = u8 [a0 + 0xd]\n 13634: a5 = u8 [a0 + 0xc]\n 13637: s1 = u8 [a0 + 0xe]\n 13640: a0 = u8 [a0 + 0xf]\n 13643: a4 = a4 << 0x8\n 13646: a4 = a4 | a5\n 13649: s1 = s1 << 0x10\n 13652: a0 = a0 << 0x18\n 13655: a0 = a0 | s1\n 13658: a0 = a0 | a4\n 13661: a0 = a0 << 0x20\n 13664: a0 = a0 | a1\n 13667: s1 = reverse a0\n 13669: a0 = reverse a3\n 13671: u64 [sp + 0x8] = a0\n 13674: a0 = reverse a2\n 13676: u64 [sp + 0x18] = a0\n 13679: a0 = reverse t0\n 13681: u64 [sp + 0x10] = a0\n 13684: ecalli 12 // 'return_data_size'\n 13686: fallthrough\n      : @214 (gas: 11)\n 13687: a3 = u64 [sp + 0x8]\n 13690: a1 = u64 [sp + 0x18]\n 13693: a2 = u64 [sp + 0x10]\n 13696: a1 = a1 | a2\n 13699: a2 = a3 | s1\n 13702: a2 = a2 | a1\n 13705: a2 = a2 >> 0x20\n 13708: a1 = a1 | s1\n 13711: a1 = a1 << 0x20\n 13714: a1 = a1 | a2\n 13717: jump @221 if a1 != 0\n      : @215 (gas: 3)\n 13720: s1 = a0\n 13722: a0 = a0 >> 0x20\n 13725: jump @221 if a0 != 0\n      : @216 (gas: 5)\n 13728: i32 a0 = a3 + 0\n 13730: i32 a1 = s1 + 0\n 13732: u64 [sp + 0x18] = a1\n 13735: u64 [sp + 0x10] = a0\n 13738: ra = 186, jump @0\n      : @217 [@dyn 93] (gas: 6)\n 13744: u32 [sp + 0x20] = s1\n 13747: i32 a0 = a0 + 0\n 13749: i32 a1 = sp + 0x20\n 13752: a2 = 0\n 13754: ecalli 11 // 'return_data_copy'\n 13756: fallthrough\n      : @218 (gas: 3)\n 13757: a0 = i32 [sp + 0x20]\n 13760: a1 = u64 [sp + 0x18]\n 13763: jump @221 if a0 <u a1\n      : @219 (gas: 2)\n 13766: ecalli 12 // 'return_data_size'\n 13768: fallthrough\n      : @220 (gas: 2)\n 13769: a1 = a0 >> 0x20\n 13772: jump @222 if a1 == 0\n      : @221 (gas: 1)\n 13775: trap\n      : @222 (gas: 4)\n 13776: i32 s1 = a0 + 0\n 13778: a0 = u64 [sp + 0x10]\n 13781: a1 = s1\n 13783: ra = 188, jump @0\n      : @223 [@dyn 94] (gas: 6)\n 13789: i32 a1 = a0 + 0\n 13791: a0 = 0x1\n 13794: a2 = s1\n 13796: ra = 0xbe\n 13800: ecalli 13 // 'seal_return'\n 13802: fallthrough\n      : @224 [@dyn 95] (gas: 12)\n 13803: a1 = u64 [a0 + 0x10]\n 13806: a2 = u64 [a0 + 0x18]\n 13809: a3 = u64 [a0 + 0x8]\n 13812: a0 = u64 [a0]\n 13814: a2 = a2 | a3\n 13817: a3 = a0 | a1\n 13820: a3 = a3 | a2\n 13823: a3 = a3 >> 0x20\n 13826: a1 = a1 | a2\n 13829: a1 = a1 << 0x20\n 13832: a1 = a1 | a3\n 13835: jump @227 if a1 != 0\n      : @225 (gas: 7)\n 13839: sp = sp + 0xfffffffffffffff0\n 13842: u64 [sp + 0x8] = ra\n 13845: u64 [sp] = s0\n 13847: i32 a0 = a0 + 0\n 13849: a1 = 0x20\n 13852: s0 = 0x20\n 13855: ra = 192, jump @0\n      : @226 [@dyn 96] (gas: 41)\n 13861: u8 [a0 + 31] = 0\n 13864: u8 [a0 + 30] = 0\n 13867: u8 [a0 + 29] = 0\n 13870: u8 [a0 + 28] = 0\n 13873: u8 [a0 + 27] = 0\n 13876: u8 [a0 + 26] = 0\n 13879: u8 [a0 + 25] = 0x74\n 13883: u8 [a0 + 24] = 0x65\n 13887: u8 [a0 + 23] = 0x6c\n 13891: u8 [a0 + 22] = 0x6c\n 13895: a2 = 0x61\n 13898: u8 [a0 + 0x15] = a2\n 13901: u8 [a0 + 20] = 0x57\n 13905: u8 [a0 + 19] = 0x67\n 13909: a4 = 0x69\n 13912: u8 [a0 + 0x12] = a4\n 13915: u8 [a0 + 17] = 0x53\n 13919: u8 [a0 + 0x10] = a4\n 13922: u8 [a0 + 15] = 0x74\n 13926: u8 [a0 + 14] = 0x6c\n 13930: u8 [a0 + 13] = 0x75\n 13934: u8 [a0 + 12] = 0x4d\n 13938: u8 [a0 + 0xb] = s0\n 13941: a5 = 0x64\n 13944: u8 [a0 + 0xa] = a5\n 13947: u8 [a0 + 0x9] = a4\n 13950: u8 [a0 + 8] = 0x6c\n 13954: u8 [a0 + 0x7] = a2\n 13957: a3 = 0x76\n 13960: u8 [a0 + 0x6] = a3\n 13963: u8 [a0 + 0x5] = s0\n 13966: u8 [a0 + 0x4] = a2\n 13969: u8 [a0 + 0x3] = s0\n 13972: u8 [a0 + 2] = 0x74\n 13976: u8 [a0 + 1] = 0x6f\n 13980: a1 = 0x4e\n 13983: u8 [a0] = a1\n 13985: ra = u64 [sp + 0x8]\n 13988: s0 = u64 [sp]\n 13990: sp = sp + 0x10\n 13993: ret\n      : @227 (gas: 1)\n 13995: trap\n      : @228 (gas: 17)\n 13996: sp = sp + 0xffffffffffffffa0\n 13999: u64 [sp + 0x58] = ra\n 14002: u64 [sp + 0x50] = s0\n 14005: u64 [sp + 0x48] = s1\n 14008: a3 = u64 [a1 + 0x18]\n 14011: a4 = u64 [a1 + 0x10]\n 14014: a5 = u64 [a1 + 0x8]\n 14017: s1 = u64 [a1]\n 14019: a1 = a5 | a3\n 14022: a2 = s1 | a4\n 14025: a2 = a2 | a1\n 14028: a2 = a2 >> 0x20\n 14031: a1 = a1 | a4\n 14034: a1 = a1 << 0x20\n 14037: a1 = a1 | a2\n 14040: u64 [sp + 0x28] = a0\n 14043: jump @235 if a1 != 0\n      : @229 (gas: 19)\n 14047: a0 = s1 + 0x20\n 14050: u64 [sp + 0x30] = a0\n 14053: a0 = a0 <u s1\n 14056: a1 = a5 + a0\n 14059: u64 [sp + 0x40] = a1\n 14062: u64 [sp + 0x8] = a5\n 14065: s0 = a1 <u a5\n 14068: s0 = a0 if a0 == 0\n 14071: s0 = s0 + a4\n 14074: u64 [sp + 0x10] = a4\n 14077: a0 = s0 <u a4\n 14080: u64 [sp + 0x18] = a3\n 14083: a0 = a0 + a3\n 14086: u64 [sp + 0x38] = a0\n 14089: u64 [sp] = s1\n 14091: i32 a0 = s1 + 0\n 14093: a1 = 0x20\n 14096: s1 = 0x20\n 14099: ra = 194, jump @0\n      : @230 [@dyn 97] (gas: 45)\n 14105: u8 [a0 + 0x1f] = s1\n 14108: a1 = u64 [sp + 0x30]\n 14111: s1 = a1\n 14113: a1 = a1 | s0\n 14116: a2 = u64 [sp + 0x40]\n 14119: a4 = u64 [sp + 0x38]\n 14122: a2 = a2 | a4\n 14125: a1 = a1 | a2\n 14128: a1 = a1 >> 0x20\n 14131: u64 [sp + 0x20] = s0\n 14134: a2 = a2 | s0\n 14137: a2 = a2 << 0x20\n 14140: a1 = a1 | a2\n 14143: u8 [a0 + 30] = 0\n 14146: u8 [a0 + 29] = 0\n 14149: u8 [a0 + 28] = 0\n 14152: u8 [a0 + 27] = 0\n 14155: u8 [a0 + 26] = 0\n 14158: u8 [a0 + 25] = 0\n 14161: u8 [a0 + 24] = 0\n 14164: u8 [a0 + 23] = 0\n 14167: u8 [a0 + 22] = 0\n 14170: u8 [a0 + 21] = 0\n 14173: u8 [a0 + 20] = 0\n 14176: u8 [a0 + 19] = 0\n 14179: u8 [a0 + 18] = 0\n 14182: u8 [a0 + 17] = 0\n 14185: u8 [a0 + 16] = 0\n 14188: u8 [a0 + 15] = 0\n 14191: u8 [a0 + 14] = 0\n 14194: u8 [a0 + 13] = 0\n 14197: u8 [a0 + 12] = 0\n 14200: u8 [a0 + 11] = 0\n 14203: u8 [a0 + 10] = 0\n 14206: u8 [a0 + 9] = 0\n 14209: u8 [a0 + 8] = 0\n 14212: u8 [a0 + 7] = 0\n 14215: u8 [a0 + 6] = 0\n 14218: u8 [a0 + 5] = 0\n 14221: u8 [a0 + 4] = 0\n 14224: u8 [a0 + 3] = 0\n 14227: u8 [a0 + 2] = 0\n 14230: u8 [a0 + 1] = 0\n 14233: u8 [a0 + 0] = 0\n 14235: jump @235 if a1 != 0\n      : @231 (gas: 4)\n 14239: i32 s0 = s1 + 0\n 14241: a1 = 0x20\n 14244: a0 = s0\n 14246: ra = 196, jump @0\n      : @232 [@dyn 98] (gas: 41)\n 14252: u8 [a0 + 31] = 0x1a\n 14256: u8 [a0 + 30] = 0\n 14259: u8 [a0 + 29] = 0\n 14262: u8 [a0 + 28] = 0\n 14265: u8 [a0 + 27] = 0\n 14268: u8 [a0 + 26] = 0\n 14271: u8 [a0 + 25] = 0\n 14274: u8 [a0 + 24] = 0\n 14277: u8 [a0 + 23] = 0\n 14280: u8 [a0 + 22] = 0\n 14283: u8 [a0 + 21] = 0\n 14286: u8 [a0 + 20] = 0\n 14289: u8 [a0 + 19] = 0\n 14292: u8 [a0 + 18] = 0\n 14295: u8 [a0 + 17] = 0\n 14298: u8 [a0 + 16] = 0\n 14301: u8 [a0 + 15] = 0\n 14304: u8 [a0 + 14] = 0\n 14307: u8 [a0 + 13] = 0\n 14310: u8 [a0 + 12] = 0\n 14313: u8 [a0 + 11] = 0\n 14316: u8 [a0 + 10] = 0\n 14319: u8 [a0 + 9] = 0\n 14322: u8 [a0 + 8] = 0\n 14325: u8 [a0 + 7] = 0\n 14328: u8 [a0 + 6] = 0\n 14331: u8 [a0 + 5] = 0\n 14334: u8 [a0 + 4] = 0\n 14337: u8 [a0 + 3] = 0\n 14340: u8 [a0 + 2] = 0\n 14343: u8 [a0 + 1] = 0\n 14346: a1 = u64 [sp + 0x20]\n 14349: a2 = u64 [sp + 0x38]\n 14352: a1 = a1 | a2\n 14355: a2 = 0xffffffe0\n 14365: a2 = s1 <u a2\n 14368: a3 = u64 [sp + 0x40]\n 14371: a2 = 0 if a3 != 0\n 14373: a2 = 0 if a1 != 0\n 14375: u8 [a0 + 0] = 0\n 14377: jump @235 if a2 == 0\n      : @233 (gas: 3)\n 14381: i32 a0 = s0 + 0x20\n 14384: a1 = 0x20\n 14387: ra = 198, jump @0\n      : @234 [@dyn 99] (gas: 55)\n 14393: u8 [a0 + 31] = 0\n 14396: u8 [a0 + 30] = 0\n 14399: u8 [a0 + 29] = 0\n 14402: u8 [a0 + 28] = 0\n 14405: u8 [a0 + 27] = 0\n 14408: u8 [a0 + 26] = 0\n 14411: u8 [a0 + 25] = 0x74\n 14415: u8 [a0 + 24] = 0x65\n 14419: u8 [a0 + 23] = 0x6c\n 14423: u8 [a0 + 22] = 0x6c\n 14427: u8 [a0 + 21] = 0x61\n 14431: u8 [a0 + 20] = 0x57\n 14435: u8 [a0 + 19] = 0x67\n 14439: u8 [a0 + 18] = 0x69\n 14443: u8 [a0 + 17] = 0x53\n 14447: u8 [a0 + 16] = 0x69\n 14451: u8 [a0 + 15] = 0x74\n 14455: u8 [a0 + 14] = 0x6c\n 14459: u8 [a0 + 13] = 0x75\n 14463: u8 [a0 + 12] = 0x4d\n 14467: u8 [a0 + 11] = 0x20\n 14471: a5 = 0x64\n 14474: u8 [a0 + 0xa] = a5\n 14477: u8 [a0 + 9] = 0x69\n 14481: u8 [a0 + 8] = 0x6c\n 14485: u8 [a0 + 7] = 0x61\n 14489: u8 [a0 + 6] = 0x76\n 14493: u8 [a0 + 5] = 0x20\n 14497: u8 [a0 + 4] = 0x61\n 14501: u8 [a0 + 3] = 0x20\n 14505: u8 [a0 + 2] = 0x74\n 14509: u8 [a0 + 1] = 0x6f\n 14513: u8 [a0 + 0] = 0x4e\n 14516: a1 = u64 [sp]\n 14518: a0 = a1 + 0x60\n 14521: a1 = a0 <u a1\n 14524: a3 = u64 [sp + 0x8]\n 14527: a2 = a3 + a1\n 14530: a3 = a2 <u a3\n 14533: a3 = a1 if a1 == 0\n 14536: a1 = u64 [sp + 0x10]\n 14539: a3 = a3 + a1\n 14542: a1 = a3 <u a1\n 14545: a4 = u64 [sp + 0x18]\n 14548: a1 = a1 + a4\n 14551: a4 = u64 [sp + 0x28]\n 14554: u64 [a4] = a0\n 14556: u64 [a4 + 0x8] = a2\n 14559: u64 [a4 + 0x10] = a3\n 14562: u64 [a4 + 0x18] = a1\n 14565: ra = u64 [sp + 0x58]\n 14568: s0 = u64 [sp + 0x50]\n 14571: s1 = u64 [sp + 0x48]\n 14574: sp = sp + 0x60\n 14577: ret\n      : @235 (gas: 1)\n 14579: trap\n      : @236 (gas: 36)\n 14580: sp = sp + 0xfffffffffffffdc0\n 14584: u64 [sp + 0x238] = ra\n 14588: u64 [sp + 0x230] = s0\n 14592: u64 [sp + 0x228] = s1\n 14596: s0 = sp + 0x240\n 14600: sp = sp & 0xffffffffffffffe0\n 14603: a2 = u64 [a1 + 0x10]\n 14606: u64 [sp + 0x38] = a2\n 14609: a2 = u64 [a1 + 0x8]\n 14612: u64 [sp + 0x30] = a2\n 14615: a1 = u64 [a1]\n 14617: u64 [sp + 0x28] = a1\n 14620: a3 = u64 [a0 + 0x18]\n 14623: a2 = u64 [a0 + 0x10]\n 14626: a1 = u64 [a0 + 0x8]\n 14629: a0 = u64 [a0]\n 14631: u64 [sp + 0x60] = a3\n 14634: u64 [sp + 0x1f8] = a3\n 14638: u64 [sp + 0x68] = a2\n 14641: u64 [sp + 0x1f0] = a2\n 14645: u64 [sp + 0x70] = a1\n 14648: u64 [sp + 0x1e8] = a1\n 14652: u64 [sp + 0x78] = a0\n 14655: u64 [sp + 0x1e0] = a0\n 14659: u64 [sp + 536] = 0\n 14663: u64 [sp + 528] = 0\n 14667: u64 [sp + 520] = 0\n 14671: u64 [sp + 512] = 0\n 14675: u32 [sp + 448] = 0x20\n 14680: i32 a1 = sp + 0x1e0\n 14684: i32 a3 = sp + 0x200\n 14688: i32 a4 = sp + 0x1c0\n 14692: a2 = 0xffffffffffffffff\n 14695: a0 = 0\n 14697: ecalli 7 // 'get_storage'\n 14699: fallthrough\n      : @237 (gas: 7)\n 14700: a4 = u64 [sp + 0x218]\n 14704: a3 = u64 [sp + 0x210]\n 14708: a2 = u64 [sp + 0x208]\n 14712: a0 = a3 | a4\n 14715: a1 = a2 <u 0x1\n 14718: a1 = 0 if a0 != 0\n 14720: jump @240 if a1 == 0\n      : @238 (gas: 50)\n 14724: a0 = u64 [sp + 0x200]\n 14728: u64 [sp + 0x58] = a0\n 14731: a0 = a0 + 0x1\n 14734: a1 = a0 <u 0x1\n 14737: a1 = a1 + a2\n 14740: u64 [sp + 0x200] = a0\n 14744: a0 = a0 | a1\n 14747: u64 [sp + 0x208] = a1\n 14751: a0 = a0 <u 0x1\n 14754: a0 = a0 + a3\n 14757: u64 [sp + 0x210] = a0\n 14761: a0 = a0 <u a3\n 14764: a0 = a0 + a4\n 14767: u64 [sp + 0x218] = a0\n 14771: a0 = u64 [sp + 0x70]\n 14774: u64 [sp + 0x1e8] = a0\n 14778: a0 = u64 [sp + 0x78]\n 14781: u64 [sp + 0x1e0] = a0\n 14785: a0 = u64 [sp + 0x68]\n 14788: u64 [sp + 0x1f0] = a0\n 14792: s1 = u64 [sp + 0x60]\n 14795: u64 [sp + 0x1f8] = s1\n 14799: i32 a1 = sp + 0x1e0\n 14803: u64 [sp + 0x50] = a3\n 14806: i32 a3 = sp + 0x200\n 14810: u64 [sp + 0x48] = a2\n 14813: a2 = 0xffffffffffffffff\n 14816: u64 [sp + 0x40] = a4\n 14819: a4 = 0x20\n 14822: a0 = 0\n 14824: ecalli 15 // 'set_storage'\n 14826: a0 = u64 [sp + 0x40]\n 14829: u64 [sp + 0x158] = a0\n 14833: a0 = u64 [sp + 0x50]\n 14836: u64 [sp + 0x150] = a0\n 14840: a0 = u64 [sp + 0x48]\n 14843: u64 [sp + 0x148] = a0\n 14847: a0 = u64 [sp + 0x58]\n 14850: u64 [sp + 0x140] = a0\n 14854: u64 [sp + 0x178] = s1\n 14858: a0 = u64 [sp + 0x68]\n 14861: u64 [sp + 0x170] = a0\n 14865: a0 = u64 [sp + 0x70]\n 14868: u64 [sp + 0x168] = a0\n 14872: a0 = sp + 0x180\n 14876: a1 = sp + 0x160\n 14880: a2 = sp + 0x140\n 14884: a3 = u64 [sp + 0x78]\n 14887: u64 [sp + 0x160] = a3\n 14891: ra = 200, jump @90\n      : @239 [@dyn 100] (gas: 444)\n 14897: a0 = u64 [sp + 0x1b8]\n 14901: u64 [sp + 0x58] = a0\n 14904: a0 = u64 [sp + 0x1b0]\n 14908: u64 [sp + 0x50] = a0\n 14911: s1 = u64 [sp + 0x1a8]\n 14915: a0 = u64 [sp + 0x1a0]\n 14919: u64 [sp + 0x20] = a0\n 14922: a3 = u64 [sp + 0x198]\n 14926: u64 [sp + 0x60] = a3\n 14929: a2 = u64 [sp + 0x190]\n 14933: u64 [sp + 0x68] = a2\n 14936: a1 = u64 [sp + 0x188]\n 14940: u64 [sp + 0x70] = a1\n 14943: a0 = u64 [sp + 0x180]\n 14947: u64 [sp + 0x78] = a0\n 14950: u64 [sp + 0x1f8] = a3\n 14954: u64 [sp + 0x1f0] = a2\n 14958: u64 [sp + 0x1e8] = a1\n 14962: u64 [sp + 0x1e0] = a0\n 14966: u64 [sp + 536] = 0\n 14970: u64 [sp + 528] = 0\n 14974: u64 [sp + 520] = 0\n 14978: u64 [sp + 512] = 0\n 14982: u32 [sp + 448] = 0x20\n 14987: i32 a1 = sp + 0x1e0\n 14991: i32 a3 = sp + 0x200\n 14995: i32 a4 = sp + 0x1c0\n 14999: a2 = 0xffffffffffffffff\n 15002: a0 = 0\n 15004: ecalli 7 // 'get_storage'\n 15006: a2 = u64 [sp + 0x20]\n 15009: a0 = a2 >> 0x3d\n 15012: a1 = s1 << 0x3\n 15015: a0 = a0 | a1\n 15018: a1 = a2 << 0x3\n 15021: a1 = a1 <u 0x100\n 15025: t1 = a1 ^ 0x1\n 15028: a1 = a0 >u 0\n 15030: t1 = a1 if a0 != 0\n 15033: s1 = s1 >> 0x3d\n 15036: a1 = u64 [sp + 0x50]\n 15039: a0 = a1 << 0x3\n 15042: a0 = a0 | s1\n 15045: a1 = a1 >> 0x3d\n 15048: a3 = u64 [sp + 0x58]\n 15051: a3 = a3 << 0x3\n 15054: a1 = a1 | a3\n 15057: a3 = a1 >u 0\n 15059: a4 = a0 >u 0\n 15061: a4 = a3 if a1 != 0\n 15064: a0 = a0 | a1\n 15067: t1 = a4 if a0 != 0\n 15070: a0 = u64 [sp + 0x200]\n 15074: u64 [sp + 0x58] = a0\n 15077: a0 = u64 [sp + 0x208]\n 15081: u64 [sp + 0x50] = a0\n 15084: a0 = u64 [sp + 0x210]\n 15088: u64 [sp + 0x48] = a0\n 15091: a0 = u64 [sp + 0x218]\n 15095: u64 [sp + 0x40] = a0\n 15098: u8 [sp + 307] = 0xff\n 15104: u8 [sp + 303] = 0xff\n 15110: u8 [sp + 302] = 0xff\n 15116: u8 [sp + 301] = 0xff\n 15122: u8 [sp + 299] = 0xff\n 15128: u8 [sp + 295] = 0xff\n 15134: u8 [sp + 294] = 0xff\n 15140: u8 [sp + 293] = 0xff\n 15146: u8 [sp + 291] = 0xff\n 15152: a0 = 0xffffffff\n 15162: u8 [sp + 0x12c] = a0\n 15166: u8 [sp + 0x124] = a0\n 15170: a0 = 0xffffffffffff\n 15180: u8 [sp + 0x132] = a0\n 15184: u8 [sp + 0x12a] = a0\n 15188: u8 [sp + 0x122] = a0\n 15192: u8 [sp + 304] = 0xffffffffffffffff\n 15197: u8 [sp + 296] = 0xffffffffffffffff\n 15202: u8 [sp + 288] = 0xffffffffffffffff\n 15207: a0 = 0xffffffffffffff\n 15217: u8 [sp + 0x131] = a0\n 15221: u8 [sp + 0x129] = a0\n 15225: u8 [sp + 0x121] = a0\n 15229: u8 [sp + 319] = 0\n 15233: u8 [sp + 318] = 0\n 15237: u8 [sp + 317] = 0\n 15241: u8 [sp + 316] = 0\n 15245: u8 [sp + 315] = 0\n 15249: u8 [sp + 314] = 0\n 15253: u8 [sp + 313] = 0\n 15257: u8 [sp + 312] = 0\n 15261: u8 [sp + 311] = 0\n 15265: u8 [sp + 310] = 0\n 15269: u8 [sp + 309] = 0\n 15273: u8 [sp + 308] = 0\n 15277: u8 [sp + 287] = 0\n 15281: u8 [sp + 286] = 0\n 15285: u8 [sp + 285] = 0\n 15289: u8 [sp + 284] = 0\n 15293: u8 [sp + 283] = 0\n 15297: u8 [sp + 282] = 0\n 15301: u8 [sp + 281] = 0\n 15305: u8 [sp + 280] = 0\n 15309: u8 [sp + 279] = 0\n 15313: u8 [sp + 278] = 0\n 15317: u8 [sp + 277] = 0\n 15321: u8 [sp + 276] = 0\n 15325: u8 [sp + 275] = 0\n 15329: u8 [sp + 274] = 0\n 15333: u8 [sp + 273] = 0\n 15337: u8 [sp + 272] = 0\n 15341: u8 [sp + 271] = 0\n 15345: u8 [sp + 270] = 0\n 15349: u8 [sp + 269] = 0\n 15353: u8 [sp + 268] = 0\n 15357: u8 [sp + 267] = 0\n 15361: u8 [sp + 266] = 0\n 15365: u8 [sp + 265] = 0\n 15369: u8 [sp + 264] = 0\n 15373: u8 [sp + 263] = 0\n 15377: u8 [sp + 262] = 0\n 15381: u8 [sp + 261] = 0\n 15385: u8 [sp + 260] = 0\n 15389: u8 [sp + 259] = 0\n 15393: u8 [sp + 258] = 0\n 15397: u8 [sp + 257] = 0\n 15401: u8 [sp + 256] = 0\n 15405: a4 = a2 & 0x1f\n 15408: a3 = sp + 0x120\n 15412: a3 = a3 - a4\n 15415: a0 = u8 [a3 + 0x19]\n 15418: a1 = u8 [a3 + 0x18]\n 15421: a5 = u8 [a3 + 0x1a]\n 15424: s1 = u8 [a3 + 0x1b]\n 15427: a0 = a0 << 0x8\n 15430: a0 = a0 | a1\n 15433: a5 = a5 << 0x10\n 15436: s1 = s1 << 0x18\n 15439: a5 = a5 | s1\n 15442: t0 = a5 | a0\n 15445: a1 = u8 [a3 + 0x1d]\n 15448: a5 = u8 [a3 + 0x1c]\n 15451: s1 = u8 [a3 + 0x1e]\n 15454: a0 = u8 [a3 + 0x1f]\n 15457: a1 = a1 << 0x8\n 15460: a1 = a1 | a5\n 15463: s1 = s1 << 0x10\n 15466: a0 = a0 << 0x18\n 15469: a0 = a0 | s1\n 15472: a0 = a0 | a1\n 15475: a0 = a0 << 0x20\n 15478: a0 = a0 | t0\n 15481: u64 [sp + 0x20] = a0\n 15484: a0 = u8 [a3 + 0x11]\n 15487: a1 = u8 [a3 + 0x10]\n 15490: a5 = u8 [a3 + 0x12]\n 15493: s1 = u8 [a3 + 0x13]\n 15496: a0 = a0 << 0x8\n 15499: a0 = a0 | a1\n 15502: a5 = a5 << 0x10\n 15505: s1 = s1 << 0x18\n 15508: a5 = a5 | s1\n 15511: t0 = a5 | a0\n 15514: a1 = u8 [a3 + 0x15]\n 15517: a5 = u8 [a3 + 0x14]\n 15520: s1 = u8 [a3 + 0x16]\n 15523: a0 = u8 [a3 + 0x17]\n 15526: a1 = a1 << 0x8\n 15529: a1 = a1 | a5\n 15532: s1 = s1 << 0x10\n 15535: a0 = a0 << 0x18\n 15538: a0 = a0 | s1\n 15541: a0 = a0 | a1\n 15544: a0 = a0 << 0x20\n 15547: a0 = a0 | t0\n 15550: u64 [sp + 0x18] = a0\n 15553: a0 = u8 [a3 + 0x9]\n 15556: a1 = u8 [a3 + 0x8]\n 15559: a5 = u8 [a3 + 0xa]\n 15562: s1 = u8 [a3 + 0xb]\n 15565: a0 = a0 << 0x8\n 15568: a0 = a0 | a1\n 15571: a5 = a5 << 0x10\n 15574: s1 = s1 << 0x18\n 15577: a5 = a5 | s1\n 15580: a2 = a5 | a0\n 15583: a1 = u8 [a3 + 0xd]\n 15586: a5 = u8 [a3 + 0xc]\n 15589: s1 = u8 [a3 + 0xe]\n 15592: a0 = u8 [a3 + 0xf]\n 15595: a1 = a1 << 0x8\n 15598: a1 = a1 | a5\n 15601: s1 = s1 << 0x10\n 15604: a0 = a0 << 0x18\n 15607: a0 = a0 | s1\n 15610: a0 = a0 | a1\n 15613: a0 = a0 << 0x20\n 15616: ra = a0 | a2\n 15619: a0 = u8 [a3 + 0x1]\n 15622: a1 = u8 [a3]\n 15624: a2 = u8 [a3 + 0x2]\n 15627: s1 = u8 [a3 + 0x3]\n 15630: a0 = a0 << 0x8\n 15633: a0 = a0 | a1\n 15636: a2 = a2 << 0x10\n 15639: s1 = s1 << 0x18\n 15642: a2 = a2 | s1\n 15645: a0 = a0 | a2\n 15648: a1 = u8 [a3 + 0x5]\n 15651: a2 = u8 [a3 + 0x4]\n 15654: s1 = u8 [a3 + 0x6]\n 15657: a3 = u8 [a3 + 0x7]\n 15660: a1 = a1 << 0x8\n 15663: a1 = a1 | a2\n 15666: s1 = s1 << 0x10\n 15669: a3 = a3 << 0x18\n 15672: a3 = a3 | s1\n 15675: a1 = a1 | a3\n 15678: a1 = a1 << 0x20\n 15681: t2 = a1 | a0\n 15684: a1 = u64 [sp + 0x28]\n 15687: a0 = a1 >> 0x38\n 15690: u8 [sp + 0xe7] = a0\n 15694: a0 = a1 >> 0x30\n 15697: u8 [sp + 0xe6] = a0\n 15701: a0 = a1 >> 0x28\n 15704: u8 [sp + 0xe5] = a0\n 15708: a0 = a1 >> 0x20\n 15711: u8 [sp + 0xe4] = a0\n 15715: a0 = a1 >> 0x18\n 15718: u8 [sp + 0xe3] = a0\n 15722: a0 = a1 >> 0x10\n 15725: u8 [sp + 0xe2] = a0\n 15729: u8 [sp + 0xe0] = a1\n 15733: a0 = a1 >> 0x8\n 15736: u8 [sp + 0xe1] = a0\n 15740: a1 = u64 [sp + 0x30]\n 15743: a0 = a1 >> 0x38\n 15746: u8 [sp + 0xef] = a0\n 15750: a0 = a1 >> 0x30\n 15753: u8 [sp + 0xee] = a0\n 15757: a0 = a1 >> 0x28\n 15760: u8 [sp + 0xed] = a0\n 15764: a0 = a1 >> 0x20\n 15767: u8 [sp + 0xec] = a0\n 15771: a0 = a1 >> 0x18\n 15774: u8 [sp + 0xeb] = a0\n 15778: a0 = a1 >> 0x10\n 15781: u8 [sp + 0xea] = a0\n 15785: u8 [sp + 0xe8] = a1\n 15789: a0 = a1 >> 0x8\n 15792: u8 [sp + 0xe9] = a0\n 15796: a1 = u64 [sp + 0x38]\n 15799: a0 = a1 >> 0x18\n 15802: u8 [sp + 0xf3] = a0\n 15806: a0 = a1 >> 0x10\n 15809: u8 [sp + 0xf2] = a0\n 15813: u8 [sp + 0xf0] = a1\n 15817: a0 = a1 >> 0x8\n 15820: u8 [sp + 0xf1] = a0\n 15824: a0 = sp + 0xe0\n 15828: a4 = a0 - a4\n 15831: u8 [sp + 255] = 0\n 15835: u8 [sp + 254] = 0\n 15839: u8 [sp + 253] = 0\n 15843: u8 [sp + 252] = 0\n 15847: u8 [sp + 251] = 0\n 15851: u8 [sp + 250] = 0\n 15855: u8 [sp + 249] = 0\n 15859: u8 [sp + 248] = 0\n 15863: u8 [sp + 247] = 0\n 15867: u8 [sp + 246] = 0\n 15871: u8 [sp + 245] = 0\n 15875: u8 [sp + 244] = 0\n 15879: u8 [sp + 223] = 0\n 15883: u8 [sp + 222] = 0\n 15887: u8 [sp + 221] = 0\n 15891: u8 [sp + 220] = 0\n 15895: u8 [sp + 219] = 0\n 15899: u8 [sp + 218] = 0\n 15903: u8 [sp + 217] = 0\n 15907: u8 [sp + 216] = 0\n 15911: u8 [sp + 215] = 0\n 15915: u8 [sp + 214] = 0\n 15919: u8 [sp + 213] = 0\n 15923: u8 [sp + 212] = 0\n 15927: u8 [sp + 211] = 0\n 15931: u8 [sp + 210] = 0\n 15935: u8 [sp + 209] = 0\n 15939: u8 [sp + 208] = 0\n 15943: u8 [sp + 207] = 0\n 15947: u8 [sp + 206] = 0\n 15951: u8 [sp + 205] = 0\n 15955: u8 [sp + 204] = 0\n 15959: u8 [sp + 203] = 0\n 15963: u8 [sp + 202] = 0\n 15967: u8 [sp + 201] = 0\n 15971: u8 [sp + 200] = 0\n 15975: u8 [sp + 199] = 0\n 15979: u8 [sp + 198] = 0\n 15983: u8 [sp + 197] = 0\n 15987: u8 [sp + 196] = 0\n 15991: u8 [sp + 195] = 0\n 15995: u8 [sp + 194] = 0\n 15999: u8 [sp + 193] = 0\n 16003: u8 [sp + 192] = 0\n 16007: a0 = u8 [a4 + 0x19]\n 16010: a1 = u8 [a4 + 0x18]\n 16013: a2 = u8 [a4 + 0x1a]\n 16016: s1 = u8 [a4 + 0x1b]\n 16019: a0 = a0 << 0x8\n 16022: a0 = a0 | a1\n 16025: a2 = a2 << 0x10\n 16028: s1 = s1 << 0x18\n 16031: a2 = a2 | s1\n 16034: a3 = a2 | a0\n 16037: a1 = u8 [a4 + 0x1d]\n 16040: a2 = u8 [a4 + 0x1c]\n 16043: s1 = u8 [a4 + 0x1e]\n 16046: a0 = u8 [a4 + 0x1f]\n 16049: a1 = a1 << 0x8\n 16052: a1 = a1 | a2\n 16055: s1 = s1 << 0x10\n 16058: a0 = a0 << 0x18\n 16061: a0 = a0 | s1\n 16064: a0 = a0 | a1\n 16067: a0 = a0 << 0x20\n 16070: s1 = a0 | a3\n 16073: a0 = u8 [a4 + 0x11]\n 16076: a1 = u8 [a4 + 0x10]\n 16079: a2 = u8 [a4 + 0x12]\n 16082: a3 = u8 [a4 + 0x13]\n 16085: a0 = a0 << 0x8\n 16088: a0 = a0 | a1\n 16091: a2 = a2 << 0x10\n 16094: a3 = a3 << 0x18\n 16097: a2 = a2 | a3\n 16100: a5 = a2 | a0\n 16103: a1 = u8 [a4 + 0x15]\n 16106: a2 = u8 [a4 + 0x14]\n 16109: a3 = u8 [a4 + 0x16]\n 16112: a0 = u8 [a4 + 0x17]\n 16115: a1 = a1 << 0x8\n 16118: a1 = a1 | a2\n 16121: a3 = a3 << 0x10\n 16124: a0 = a0 << 0x18\n 16127: a0 = a0 | a3\n 16130: a0 = a0 | a1\n 16133: a0 = a0 << 0x20\n 16136: t0 = a0 | a5\n 16139: a0 = u8 [a4 + 0x9]\n 16142: a2 = u8 [a4 + 0x8]\n 16145: a3 = u8 [a4 + 0xa]\n 16148: a5 = u8 [a4 + 0xb]\n 16151: a0 = a0 << 0x8\n 16154: a0 = a0 | a2\n 16157: a3 = a3 << 0x10\n 16160: a5 = a5 << 0x18\n 16163: a3 = a3 | a5\n 16166: a1 = a3 | a0\n 16169: a2 = u8 [a4 + 0xd]\n 16172: a3 = u8 [a4 + 0xc]\n 16175: a5 = u8 [a4 + 0xe]\n 16178: a0 = u8 [a4 + 0xf]\n 16181: a2 = a2 << 0x8\n 16184: a2 = a2 | a3\n 16187: a5 = a5 << 0x10\n 16190: a0 = a0 << 0x18\n 16193: a0 = a0 | a5\n 16196: a0 = a0 | a2\n 16199: a0 = a0 << 0x20\n 16202: a0 = a0 | a1\n 16205: a1 = u8 [a4 + 0x1]\n 16208: a2 = u8 [a4]\n 16210: a3 = u8 [a4 + 0x2]\n 16213: a5 = u8 [a4 + 0x3]\n 16216: a1 = a1 << 0x8\n 16219: a1 = a1 | a2\n 16222: a3 = a3 << 0x10\n 16225: a5 = a5 << 0x18\n 16228: a3 = a3 | a5\n 16231: a1 = a1 | a3\n 16234: a2 = u8 [a4 + 0x5]\n 16237: a3 = u8 [a4 + 0x4]\n 16240: a5 = u8 [a4 + 0x6]\n 16243: a4 = u8 [a4 + 0x7]\n 16246: a2 = a2 << 0x8\n 16249: a2 = a2 | a3\n 16252: a5 = a5 << 0x10\n 16255: a4 = a4 << 0x18\n 16258: a4 = a4 | a5\n 16261: a2 = a2 | a4\n 16264: a2 = a2 << 0x20\n 16267: a4 = a2 | a1\n 16270: t2 = 0 if t1 != 0\n 16272: ra = 0 if t1 != 0\n 16274: a5 = u64 [sp + 0x18]\n 16277: a5 = 0 if t1 != 0\n 16279: a2 = u64 [sp + 0x20]\n 16282: a2 = 0 if t1 != 0\n 16284: a4 = 0 if t1 != 0\n 16286: a0 = 0 if t1 != 0\n 16288: t0 = 0 if t1 != 0\n 16290: s1 = 0 if t1 != 0\n 16292: a1 = u64 [sp + 0x40]\n 16295: t1 = a1 & ~a2\n 16298: a2 = a2 & s1\n 16301: a1 = u64 [sp + 0x48]\n 16304: a3 = a1 & ~a5\n 16307: a5 = t0 & a5\n 16310: a1 = u64 [sp + 0x50]\n 16313: s1 = a1 & ~ra\n 16316: a0 = a0 & ra\n 16319: a1 = u64 [sp + 0x58]\n 16322: a1 = a1 & ~t2\n 16325: a4 = a4 & t2\n 16328: a1 = a1 | a4\n 16331: a0 = a0 | s1\n 16334: a3 = a3 | a5\n 16337: a2 = t1 | a2\n 16340: a4 = u64 [sp + 0x60]\n 16343: u64 [sp + 0x1f8] = a4\n 16347: a4 = u64 [sp + 0x68]\n 16350: u64 [sp + 0x1f0] = a4\n 16354: a4 = u64 [sp + 0x70]\n 16357: u64 [sp + 0x1e8] = a4\n 16361: a4 = u64 [sp + 0x78]\n 16364: u64 [sp + 0x1e0] = a4\n 16368: u64 [sp + 0x218] = a2\n 16372: u64 [sp + 0x210] = a3\n 16376: u64 [sp + 0x208] = a0\n 16380: u64 [sp + 0x200] = a1\n 16384: i32 a1 = sp + 0x1e0\n 16388: i32 a3 = sp + 0x200\n 16392: a2 = 0xffffffffffffffff\n 16395: a4 = 0x20\n 16398: a0 = 0\n 16400: ecalli 15 // 'set_storage'\n 16402: sp = s0 + 0xfffffffffffffdc0\n 16406: ra = u64 [sp + 0x238]\n 16410: s0 = u64 [sp + 0x230]\n 16414: s1 = u64 [sp + 0x228]\n 16418: sp = sp + 0x240\n 16422: ret\n      : @240 (gas: 8)\n 16424: u64 [sp + 176] = 0\n 16428: u64 [sp + 168] = 0\n 16432: u64 [sp + 160] = 0\n 16436: a0 = 0x4e487b7100000000\n 16446: a1 = sp + 0xa0\n 16450: u64 [sp + 0xb8] = a0\n 16454: a0 = 0\n 16456: ra = 202, jump @8\n      : @241 [@dyn 101] (gas: 7)\n 16462: u64 [sp + 152] = 0\n 16466: u64 [sp + 144] = 0\n 16470: u64 [sp + 128] = 0x41\n 16475: a0 = 0x4\n 16478: a1 = sp + 0x80\n 16482: u64 [sp + 136] = 0\n 16486: ra = 204, jump @8\n      : @242 [@dyn 102] (gas: 3)\n 16492: a1 = 0x24\n 16495: a0 = 0\n 16497: ra = 206, jump @0\n      : @243 [@dyn 103] (gas: 6)\n 16503: i32 a1 = a0 + 0\n 16505: a0 = 0x1\n 16508: a2 = 0x24\n 16511: ra = 0xd0\n 16515: ecalli 13 // 'seal_return'\n 16517: fallthrough\n      : @244 [@dyn 104] (gas: 18)\n 16518: sp = sp + 0xfffffffffffffd40\n 16522: u64 [sp + 0x2b8] = ra\n 16526: u64 [sp + 0x2b0] = s0\n 16530: u64 [sp + 0x2a8] = s1\n 16534: s0 = sp + 0x2c0\n 16538: sp = sp & 0xffffffffffffffe0\n 16541: a1 = u64 [a0 + 0x10]\n 16544: a3 = u64 [a0 + 0x8]\n 16547: a4 = u64 [a0]\n 16549: u64 [sp + 0x70] = a1\n 16552: a1 = a1 << 0x20\n 16555: a2 = a1 >> 0x20\n 16558: u64 [sp + 0x68] = a3\n 16561: u64 [sp + 0x60] = a4\n 16564: a1 = a4 | a3\n 16567: u64 [sp + 0x28] = a2\n 16570: a1 = a1 | a2\n 16573: jump @268 if a1 == 0\n      : @245 (gas: 13)\n 16577: a0 = u64 [a0 + 0x18]\n 16580: u64 [sp + 0x20] = a0\n 16583: i32 a0 = sp + 0x180\n 16587: ecalli 0 // 'address'\n 16588: a0 = i32 [sp + 0x190]\n 16592: u64 [sp + 0x40] = a0\n 16595: a0 = u64 [sp + 0x180]\n 16599: u64 [sp + 0x38] = a0\n 16602: a0 = u64 [sp + 0x188]\n 16606: u64 [sp + 0x30] = a0\n 16609: a0 = 0x40\n 16612: a1 = 0x20\n 16615: ra = 210, jump @0\n      : @246 [@dyn 105] (gas: 102)\n 16621: a1 = u8 [a0 + 0x11]\n 16624: a2 = u8 [a0 + 0x10]\n 16627: a3 = u8 [a0 + 0x12]\n 16630: a4 = u8 [a0 + 0x13]\n 16633: a1 = a1 << 0x8\n 16636: a1 = a1 | a2\n 16639: a3 = a3 << 0x10\n 16642: a4 = a4 << 0x18\n 16645: a3 = a3 | a4\n 16648: a1 = a1 | a3\n 16651: a2 = u8 [a0 + 0x15]\n 16654: a3 = u8 [a0 + 0x14]\n 16657: a4 = u8 [a0 + 0x16]\n 16660: a5 = u8 [a0 + 0x17]\n 16663: a2 = a2 << 0x8\n 16666: a2 = a2 | a3\n 16669: a4 = a4 << 0x10\n 16672: a5 = a5 << 0x18\n 16675: a4 = a4 | a5\n 16678: a2 = a2 | a4\n 16681: a2 = a2 << 0x20\n 16684: t0 = a2 | a1\n 16687: a2 = u8 [a0 + 0x1]\n 16690: a3 = u8 [a0]\n 16692: a4 = u8 [a0 + 0x2]\n 16695: a5 = u8 [a0 + 0x3]\n 16698: a2 = a2 << 0x8\n 16701: a2 = a2 | a3\n 16704: a4 = a4 << 0x10\n 16707: a5 = a5 << 0x18\n 16710: a4 = a4 | a5\n 16713: a2 = a2 | a4\n 16716: a3 = u8 [a0 + 0x5]\n 16719: a4 = u8 [a0 + 0x4]\n 16722: a5 = u8 [a0 + 0x6]\n 16725: s1 = u8 [a0 + 0x7]\n 16728: a3 = a3 << 0x8\n 16731: a3 = a3 | a4\n 16734: a5 = a5 << 0x10\n 16737: s1 = s1 << 0x18\n 16740: a5 = a5 | s1\n 16743: a3 = a3 | a5\n 16746: a3 = a3 << 0x20\n 16749: a2 = a2 | a3\n 16752: a3 = u8 [a0 + 0x19]\n 16755: a4 = u8 [a0 + 0x18]\n 16758: a5 = u8 [a0 + 0x1a]\n 16761: s1 = u8 [a0 + 0x1b]\n 16764: a3 = a3 << 0x8\n 16767: a3 = a3 | a4\n 16770: a5 = a5 << 0x10\n 16773: s1 = s1 << 0x18\n 16776: a5 = a5 | s1\n 16779: a3 = a3 | a5\n 16782: a4 = u8 [a0 + 0x1d]\n 16785: a5 = u8 [a0 + 0x1c]\n 16788: s1 = u8 [a0 + 0x1e]\n 16791: a1 = u8 [a0 + 0x1f]\n 16794: a4 = a4 << 0x8\n 16797: a4 = a4 | a5\n 16800: s1 = s1 << 0x10\n 16803: a1 = a1 << 0x18\n 16806: a1 = a1 | s1\n 16809: a1 = a1 | a4\n 16812: a1 = a1 << 0x20\n 16815: a3 = a3 | a1\n 16818: a1 = u8 [a0 + 0x9]\n 16821: a4 = u8 [a0 + 0x8]\n 16824: a5 = u8 [a0 + 0xa]\n 16827: s1 = u8 [a0 + 0xb]\n 16830: a1 = a1 << 0x8\n 16833: a1 = a1 | a4\n 16836: a5 = a5 << 0x10\n 16839: s1 = s1 << 0x18\n 16842: a5 = a5 | s1\n 16845: a1 = a1 | a5\n 16848: a4 = u8 [a0 + 0xd]\n 16851: a5 = u8 [a0 + 0xc]\n 16854: s1 = u8 [a0 + 0xe]\n 16857: a0 = u8 [a0 + 0xf]\n 16860: a4 = a4 << 0x8\n 16863: a4 = a4 | a5\n 16866: s1 = s1 << 0x10\n 16869: a0 = a0 << 0x18\n 16872: a0 = a0 | s1\n 16875: a0 = a0 | a4\n 16878: a0 = a0 << 0x20\n 16881: a0 = a0 | a1\n 16884: s1 = reverse a0\n 16886: a3 = reverse a3\n 16888: a1 = reverse a2\n 16890: a0 = reverse t0\n 16892: u64 [sp + 0x50] = a0\n 16895: u64 [sp + 0x58] = a1\n 16898: a0 = a0 | a1\n 16901: a1 = a3 | s1\n 16904: a1 = a1 | a0\n 16907: a1 = a1 >> 0x20\n 16910: a0 = a0 | s1\n 16913: a0 = a0 << 0x20\n 16916: a0 = a0 | a1\n 16919: jump @279 if a0 != 0\n      : @247 (gas: 5)\n 16923: i32 a0 = a3 + 0\n 16925: a1 = 0x20\n 16928: u64 [sp + 0x78] = a0\n 16931: u64 [sp + 0x48] = a3\n 16934: ra = 212, jump @0\n      : @248 [@dyn 106] (gas: 42)\n 16940: u8 [a0 + 3] = 0x6e\n 16944: u8 [a0 + 2] = 0xbf\n 16949: u8 [a0 + 1] = 0x54\n 16953: u8 [a0 + 0] = 0x2f\n 16956: u64 [sp + 0x18] = s1\n 16959: a2 = u64 [sp + 0x58]\n 16962: a2 = a2 | s1\n 16965: a1 = 0xfffffffc\n 16975: a3 = u64 [sp + 0x48]\n 16978: a1 = a3 <u a1\n 16981: a3 = u64 [sp + 0x50]\n 16984: a1 = 0 if a3 != 0\n 16986: a1 = 0 if a2 != 0\n 16988: u8 [a0 + 31] = 0\n 16991: u8 [a0 + 30] = 0\n 16994: u8 [a0 + 29] = 0\n 16997: u8 [a0 + 28] = 0\n 17000: u8 [a0 + 27] = 0\n 17003: u8 [a0 + 26] = 0\n 17006: u8 [a0 + 25] = 0\n 17009: u8 [a0 + 24] = 0\n 17012: u8 [a0 + 23] = 0\n 17015: u8 [a0 + 22] = 0\n 17018: u8 [a0 + 21] = 0\n 17021: u8 [a0 + 20] = 0\n 17024: u8 [a0 + 19] = 0\n 17027: u8 [a0 + 18] = 0\n 17030: u8 [a0 + 17] = 0\n 17033: u8 [a0 + 16] = 0\n 17036: u8 [a0 + 15] = 0\n 17039: u8 [a0 + 14] = 0\n 17042: u8 [a0 + 13] = 0\n 17045: u8 [a0 + 12] = 0\n 17048: u8 [a0 + 11] = 0\n 17051: u8 [a0 + 10] = 0\n 17054: u8 [a0 + 9] = 0\n 17057: u8 [a0 + 8] = 0\n 17060: u8 [a0 + 7] = 0\n 17063: u8 [a0 + 6] = 0\n 17066: u8 [a0 + 5] = 0\n 17069: u8 [a0 + 4] = 0\n 17072: jump @279 if a1 == 0\n      : @249 (gas: 19)\n 17076: a0 = u64 [sp + 0x30]\n 17079: a0 = reverse a0\n 17081: a1 = a0 >> 0x20\n 17084: a2 = u64 [sp + 0x38]\n 17087: a2 = reverse a2\n 17089: a3 = a2 << 0x20\n 17092: a1 = a1 | a3\n 17095: u64 [sp + 0x38] = a1\n 17098: a0 = a0 << 0x20\n 17101: a1 = u64 [sp + 0x40]\n 17104: a1 = reverse a1\n 17106: a1 = a1 >> 0x20\n 17109: a0 = a0 | a1\n 17112: u64 [sp + 0x40] = a0\n 17115: s1 = a2 >> 0x20\n 17118: a0 = u64 [sp + 0x78]\n 17121: i32 a0 = a0 + 0x4\n 17124: a1 = 0x20\n 17127: ra = 214, jump @0\n      : @250 [@dyn 107] (gas: 82)\n 17133: a1 = reverse s1\n 17135: a2 = u64 [sp + 0x38]\n 17138: a2 = reverse a2\n 17140: a3 = u64 [sp + 0x40]\n 17143: a3 = reverse a3\n 17145: a4 = a3 >> 0x38\n 17148: u8 [a0 + 0x1f] = a4\n 17151: a4 = a3 >> 0x30\n 17154: u8 [a0 + 0x1e] = a4\n 17157: a4 = a3 >> 0x28\n 17160: u8 [a0 + 0x1d] = a4\n 17163: a4 = a3 >> 0x20\n 17166: u8 [a0 + 0x1c] = a4\n 17169: a4 = a3 >> 0x18\n 17172: u8 [a0 + 0x1b] = a4\n 17175: a4 = a3 >> 0x10\n 17178: u8 [a0 + 0x1a] = a4\n 17181: a4 = a3 >> 0x8\n 17184: u8 [a0 + 0x19] = a4\n 17187: u8 [a0 + 0x18] = a3\n 17190: u8 [a0 + 0x10] = a2\n 17193: u8 [a0 + 11] = 0\n 17196: u8 [a0 + 10] = 0\n 17199: u8 [a0 + 9] = 0\n 17202: u8 [a0 + 7] = 0\n 17205: u8 [a0 + 6] = 0\n 17208: u8 [a0 + 5] = 0\n 17211: u8 [a0 + 4] = 0\n 17214: u8 [a0 + 3] = 0\n 17217: u8 [a0 + 2] = 0\n 17220: u8 [a0 + 1] = 0\n 17223: u8 [a0 + 0] = 0\n 17225: a3 = a2 >> 0x38\n 17228: u8 [a0 + 0x17] = a3\n 17231: a3 = a2 >> 0x30\n 17234: u8 [a0 + 0x16] = a3\n 17237: a3 = a2 >> 0x28\n 17240: u8 [a0 + 0x15] = a3\n 17243: a3 = a2 >> 0x20\n 17246: u8 [a0 + 0x14] = a3\n 17249: a3 = a2 >> 0x18\n 17252: u8 [a0 + 0x13] = a3\n 17255: a3 = a2 >> 0x10\n 17258: u8 [a0 + 0x12] = a3\n 17261: a2 = a2 >> 0x8\n 17264: u8 [a0 + 0x11] = a2\n 17267: u8 [a0 + 0x8] = a1\n 17270: a2 = a1 >> 0x38\n 17273: u8 [a0 + 0xf] = a2\n 17276: a2 = a1 >> 0x30\n 17279: u8 [a0 + 0xe] = a2\n 17282: a2 = a1 >> 0x28\n 17285: u8 [a0 + 0xd] = a2\n 17288: a1 = a1 >> 0x20\n 17291: u8 [a0 + 0xc] = a1\n 17294: ecalli 10 // 'ref_time_left'\n 17296: a0 = u64 [sp + 0x68]\n 17299: a2 = reverse a0\n 17301: a0 = a2 << 0x20\n 17304: a1 = u64 [sp + 0x70]\n 17307: a1 = reverse a1\n 17309: a1 = a1 >> 0x20\n 17312: a0 = a0 | a1\n 17315: a1 = u64 [sp + 0x60]\n 17318: a3 = reverse a1\n 17320: a1 = a3 << 0x20\n 17323: u64 [sp + 0x38] = a2\n 17326: a2 = a2 >> 0x20\n 17329: a1 = a1 | a2\n 17332: u64 [sp + 0x30] = a3\n 17335: a2 = a3 >> 0x20\n 17338: u64 [sp + 0x1a8] = a1\n 17342: u64 [sp + 0x1a0] = a0\n 17346: u32 [sp + 0x1b0] = a2\n 17350: u64 [sp + 472] = 0\n 17354: u64 [sp + 464] = 0\n 17358: u64 [sp + 456] = 0\n 17362: u64 [sp + 448] = 0\n 17366: a1 = 0x24\n 17369: s1 = u64 [sp + 0x78]\n 17372: a0 = s1\n 17374: ra = 216, jump @0\n      : @251 [@dyn 108] (gas: 4)\n 17380: u64 [sp + 0x40] = a0\n 17383: a1 = 0x20\n 17386: a0 = s1\n 17388: ra = 218, jump @0\n      : @252 [@dyn 109] (gas: 31)\n 17394: u32 [sp + 480] = 0x20\n 17399: u64 [sp + 536] = 0\n 17403: u64 [sp + 528] = 0\n 17407: u64 [sp + 520] = 0\n 17411: u64 [sp + 512] = 0\n 17415: a1 = sp + 0x1a0\n 17419: a1 = a1 << 0x20\n 17422: a1 = a1 >> 0x20\n 17425: a2 = 0x1800000000\n 17435: s1 = a1 | a2\n 17438: a1 = sp + 0x1c0\n 17442: a1 = a1 << 0x20\n 17445: a1 = a1 >> 0x20\n 17448: a2 = sp + 0x200\n 17452: a2 = a2 << 0x20\n 17455: a3 = a2 | a1\n 17458: a1 = u64 [sp + 0x40]\n 17461: a1 = a1 << 0x20\n 17464: a1 = a1 >> 0x20\n 17467: a2 = 0x2400000000\n 17477: a4 = a1 | a2\n 17480: a0 = a0 << 0x20\n 17483: a0 = a0 >> 0x20\n 17486: a1 = sp + 0x1e0\n 17490: a1 = a1 << 0x20\n 17493: a5 = a1 | a0\n 17496: a1 = 0xffffffffffffffff\n 17499: a2 = 0xffffffffffffffff\n 17502: a0 = s1\n 17504: ecalli 1 // 'call'\n 17506: fallthrough\n      : @253 (gas: 1)\n 17507: jump @273 if a0 != 0\n      : @254 (gas: 2)\n 17511: ecalli 12 // 'return_data_size'\n 17513: fallthrough\n      : @255 (gas: 1)\n 17514: jump @257 if a0 >u 31\n      : @256 (gas: 3)\n 17518: ecalli 12 // 'return_data_size'\n 17520: a4 = 0\n 17522: jump @258\n      : @257 (gas: 3)\n 17524: a4 = 0\n 17526: a0 = 0x20\n 17529: fallthrough\n      : @258 (gas: 27)\n 17530: a3 = u64 [sp + 0x58]\n 17533: a2 = u64 [sp + 0x48]\n 17536: s1 = u64 [sp + 0x50]\n 17539: a5 = a0 + 0x1f\n 17542: u64 [sp + 0x50] = a0\n 17545: a1 = a5 <u a0\n 17548: u64 [sp + 88] = 0\n 17551: a1 = a1 & 0x1\n 17554: a0 = a5 & 0xffffffffffffffe0\n 17557: a2 = a2 + a0\n 17560: u64 [sp + 0x48] = a2\n 17563: a0 = a2 <u a0\n 17566: s1 = s1 + a1\n 17569: s1 = s1 + a0\n 17572: a2 = s1 ^ a1\n 17575: a1 = s1 <u a1\n 17578: a1 = a0 if a2 == 0\n 17581: a0 = u64 [sp + 0x18]\n 17584: a1 = a1 + a0\n 17587: a0 = a1 <u a0\n 17590: a0 = a0 + a3\n 17593: u64 [sp + 0x40] = a1\n 17596: u64 [sp + 0x18] = a0\n 17599: a0 = a0 | a1\n 17602: a1 = s1 <u 0x1\n 17605: a1 = 0 if a0 != 0\n 17607: jump @282 if a1 == 0\n      : @259 (gas: 3)\n 17611: a0 = 0x40\n 17614: a1 = 0x20\n 17617: ra = 220, jump @0\n      : @260 [@dyn 110] (gas: 79)\n 17623: a1 = u64 [sp + 0x18]\n 17626: a1 = reverse a1\n 17628: a2 = u64 [sp + 0x40]\n 17631: a2 = reverse a2\n 17633: a3 = reverse s1\n 17635: a4 = u64 [sp + 0x48]\n 17638: a4 = reverse a4\n 17640: u8 [a0 + 0x18] = a4\n 17643: a5 = a4 >> 0x38\n 17646: u8 [a0 + 0x1f] = a5\n 17649: a5 = a4 >> 0x30\n 17652: u8 [a0 + 0x1e] = a5\n 17655: a5 = a4 >> 0x28\n 17658: u8 [a0 + 0x1d] = a5\n 17661: a5 = a4 >> 0x20\n 17664: u8 [a0 + 0x1c] = a5\n 17667: a5 = a4 >> 0x18\n 17670: u8 [a0 + 0x1b] = a5\n 17673: a5 = a4 >> 0x10\n 17676: u8 [a0 + 0x1a] = a5\n 17679: a4 = a4 >> 0x8\n 17682: u8 [a0 + 0x19] = a4\n 17685: u8 [a0 + 0x10] = a3\n 17688: a4 = a3 >> 0x38\n 17691: u8 [a0 + 0x17] = a4\n 17694: a4 = a3 >> 0x30\n 17697: u8 [a0 + 0x16] = a4\n 17700: a4 = a3 >> 0x28\n 17703: u8 [a0 + 0x15] = a4\n 17706: a4 = a3 >> 0x20\n 17709: u8 [a0 + 0x14] = a4\n 17712: a4 = a3 >> 0x18\n 17715: u8 [a0 + 0x13] = a4\n 17718: a4 = a3 >> 0x10\n 17721: u8 [a0 + 0x12] = a4\n 17724: a3 = a3 >> 0x8\n 17727: u8 [a0 + 0x11] = a3\n 17730: u8 [a0 + 0x8] = a2\n 17733: a3 = a2 >> 0x38\n 17736: u8 [a0 + 0xf] = a3\n 17739: a3 = a2 >> 0x30\n 17742: u8 [a0 + 0xe] = a3\n 17745: a3 = a2 >> 0x28\n 17748: u8 [a0 + 0xd] = a3\n 17751: a3 = a2 >> 0x20\n 17754: u8 [a0 + 0xc] = a3\n 17757: a3 = a2 >> 0x18\n 17760: u8 [a0 + 0xb] = a3\n 17763: a3 = a2 >> 0x10\n 17766: u8 [a0 + 0xa] = a3\n 17769: a2 = a2 >> 0x8\n 17772: u8 [a0 + 0x9] = a2\n 17775: u8 [a0] = a1\n 17777: a2 = a1 >> 0x38\n 17780: u8 [a0 + 0x7] = a2\n 17783: a2 = a1 >> 0x30\n 17786: u8 [a0 + 0x6] = a2\n 17789: a2 = a1 >> 0x28\n 17792: u8 [a0 + 0x5] = a2\n 17795: a2 = a1 >> 0x20\n 17798: u8 [a0 + 0x4] = a2\n 17801: a2 = a1 >> 0x18\n 17804: u8 [a0 + 0x3] = a2\n 17807: a2 = a1 >> 0x10\n 17810: u8 [a0 + 0x2] = a2\n 17813: a1 = a1 >> 0x8\n 17816: a5 = u64 [sp + 0x58]\n 17819: a2 = a5 >u 0\n 17821: a3 = u64 [sp + 0x50]\n 17824: a3 = a3 <u 0x20\n 17827: a3 = a3 ^ 0x1\n 17830: a3 = a2 if a5 != 0\n 17833: a2 = a5 >u 0\n 17835: a4 = a5 >u 0\n 17837: a4 = a2 if a5 == 0\n 17840: a2 = a5 | a5\n 17843: a4 = a3 if a2 == 0\n 17846: u8 [a0 + 0x1] = a1\n 17849: jump @280 if a4 == 0\n      : @261 (gas: 3)\n 17853: a1 = 0x20\n 17856: a0 = u64 [sp + 0x78]\n 17859: ra = 222, jump @0\n      : @262 [@dyn 111] (gas: 95)\n 17865: a1 = u8 [a0 + 0x19]\n 17868: a2 = u8 [a0 + 0x18]\n 17871: a3 = u8 [a0 + 0x1a]\n 17874: a4 = u8 [a0 + 0x1b]\n 17877: a1 = a1 << 0x8\n 17880: a1 = a1 | a2\n 17883: a3 = a3 << 0x10\n 17886: a4 = a4 << 0x18\n 17889: a3 = a3 | a4\n 17892: a1 = a1 | a3\n 17895: a2 = u8 [a0 + 0x1d]\n 17898: a3 = u8 [a0 + 0x1c]\n 17901: a4 = u8 [a0 + 0x1e]\n 17904: a5 = u8 [a0 + 0x1f]\n 17907: a2 = a2 << 0x8\n 17910: a2 = a2 | a3\n 17913: a4 = a4 << 0x10\n 17916: a5 = a5 << 0x18\n 17919: a4 = a4 | a5\n 17922: a2 = a2 | a4\n 17925: a2 = a2 << 0x20\n 17928: t0 = a2 | a1\n 17931: a2 = u8 [a0 + 0x11]\n 17934: a3 = u8 [a0 + 0x10]\n 17937: a4 = u8 [a0 + 0x12]\n 17940: a5 = u8 [a0 + 0x13]\n 17943: a2 = a2 << 0x8\n 17946: a2 = a2 | a3\n 17949: a4 = a4 << 0x10\n 17952: a5 = a5 << 0x18\n 17955: a4 = a4 | a5\n 17958: a2 = a2 | a4\n 17961: a3 = u8 [a0 + 0x15]\n 17964: a4 = u8 [a0 + 0x14]\n 17967: a5 = u8 [a0 + 0x16]\n 17970: s1 = u8 [a0 + 0x17]\n 17973: a3 = a3 << 0x8\n 17976: a3 = a3 | a4\n 17979: a5 = a5 << 0x10\n 17982: s1 = s1 << 0x18\n 17985: a5 = a5 | s1\n 17988: a3 = a3 | a5\n 17991: a3 = a3 << 0x20\n 17994: t1 = a3 | a2\n 17997: a3 = u8 [a0 + 0x1]\n 18000: a4 = u8 [a0]\n 18002: a5 = u8 [a0 + 0x2]\n 18005: s1 = u8 [a0 + 0x3]\n 18008: a3 = a3 << 0x8\n 18011: a3 = a3 | a4\n 18014: a5 = a5 << 0x10\n 18017: s1 = s1 << 0x18\n 18020: a5 = a5 | s1\n 18023: a3 = a3 | a5\n 18026: a4 = u8 [a0 + 0x9]\n 18029: a5 = u8 [a0 + 0x8]\n 18032: s1 = u8 [a0 + 0xa]\n 18035: a1 = u8 [a0 + 0xb]\n 18038: a4 = a4 << 0x8\n 18041: a4 = a4 | a5\n 18044: s1 = s1 << 0x10\n 18047: a1 = a1 << 0x18\n 18050: a1 = a1 | s1\n 18053: a4 = a4 | a1\n 18056: a1 = u8 [a0 + 0x5]\n 18059: a5 = u8 [a0 + 0x4]\n 18062: s1 = u8 [a0 + 0x6]\n 18065: a2 = u8 [a0 + 0x7]\n 18068: a1 = a1 << 0x8\n 18071: a1 = a1 | a5\n 18074: s1 = s1 << 0x10\n 18077: a2 = a2 << 0x18\n 18080: a2 = a2 | s1\n 18083: a1 = a1 | a2\n 18086: a2 = u8 [a0 + 0xd]\n 18089: a5 = u8 [a0 + 0xc]\n 18092: s1 = u8 [a0 + 0xe]\n 18095: a0 = u8 [a0 + 0xf]\n 18098: a2 = a2 << 0x8\n 18101: a2 = a2 | a5\n 18104: s1 = s1 << 0x10\n 18107: a0 = a0 << 0x18\n 18110: a0 = a0 | s1\n 18113: a0 = a0 | a2\n 18116: a2 = reverse t1\n 18118: a5 = reverse t0\n 18120: a5 = a5 <u 0x2\n 18123: a5 = 0 if a2 != 0\n 18125: a0 = a0 | a1\n 18128: a0 = a0 << 0x20\n 18131: a3 = a3 | a4\n 18134: a0 = a0 | a3\n 18137: a0 = reverse a0\n 18139: a5 = 0 if a0 != 0\n 18141: jump @280 if a5 == 0\n      : @263 (gas: 15)\n 18145: a0 = u64 [sp + 0x60]\n 18148: u64 [sp + 0x100] = a0\n 18152: u64 [sp + 312] = 0\n 18156: u64 [sp + 304] = 0\n 18160: u64 [sp + 296] = 0\n 18164: u64 [sp + 288] = 0\n 18168: a0 = u64 [sp + 0x68]\n 18171: u64 [sp + 0x108] = a0\n 18175: a0 = u64 [sp + 0x70]\n 18178: u64 [sp + 0x110] = a0\n 18182: a0 = sp + 0x120\n 18186: a1 = sp + 0x100\n 18190: a2 = u64 [sp + 0x20]\n 18193: u64 [sp + 0x118] = a2\n 18197: ra = 224, jump @236\n      : @264 [@dyn 112] (gas: 11)\n 18203: i32 a0 = sp + 0x220\n 18207: ecalli 5 // 'caller'\n 18209: a0 = u32 [sp + 0x230]\n 18213: u64 [sp + 0x70] = a0\n 18216: a0 = u64 [sp + 0x228]\n 18220: u64 [sp + 0x68] = a0\n 18223: a0 = u64 [sp + 0x220]\n 18227: u64 [sp + 0x78] = a0\n 18230: a0 = 0x40\n 18233: a1 = 0x20\n 18236: ra = 226, jump @0\n      : @265 [@dyn 113] (gas: 100)\n 18242: a1 = u8 [a0 + 0x11]\n 18245: a2 = u8 [a0 + 0x10]\n 18248: a3 = u8 [a0 + 0x12]\n 18251: a4 = u8 [a0 + 0x13]\n 18254: a1 = a1 << 0x8\n 18257: a1 = a1 | a2\n 18260: a3 = a3 << 0x10\n 18263: a4 = a4 << 0x18\n 18266: a3 = a3 | a4\n 18269: a1 = a1 | a3\n 18272: a2 = u8 [a0 + 0x15]\n 18275: a3 = u8 [a0 + 0x14]\n 18278: a4 = u8 [a0 + 0x16]\n 18281: a5 = u8 [a0 + 0x17]\n 18284: a2 = a2 << 0x8\n 18287: a2 = a2 | a3\n 18290: a4 = a4 << 0x10\n 18293: a5 = a5 << 0x18\n 18296: a4 = a4 | a5\n 18299: a2 = a2 | a4\n 18302: a2 = a2 << 0x20\n 18305: t0 = a2 | a1\n 18308: a2 = u8 [a0 + 0x1]\n 18311: a3 = u8 [a0]\n 18313: a4 = u8 [a0 + 0x2]\n 18316: a5 = u8 [a0 + 0x3]\n 18319: a2 = a2 << 0x8\n 18322: a2 = a2 | a3\n 18325: a4 = a4 << 0x10\n 18328: a5 = a5 << 0x18\n 18331: a4 = a4 | a5\n 18334: a2 = a2 | a4\n 18337: a3 = u8 [a0 + 0x5]\n 18340: a4 = u8 [a0 + 0x4]\n 18343: a5 = u8 [a0 + 0x6]\n 18346: s1 = u8 [a0 + 0x7]\n 18349: a3 = a3 << 0x8\n 18352: a3 = a3 | a4\n 18355: a5 = a5 << 0x10\n 18358: s1 = s1 << 0x18\n 18361: a5 = a5 | s1\n 18364: a3 = a3 | a5\n 18367: a3 = a3 << 0x20\n 18370: a2 = a2 | a3\n 18373: a3 = u8 [a0 + 0x19]\n 18376: a4 = u8 [a0 + 0x18]\n 18379: a5 = u8 [a0 + 0x1a]\n 18382: s1 = u8 [a0 + 0x1b]\n 18385: a3 = a3 << 0x8\n 18388: a3 = a3 | a4\n 18391: a5 = a5 << 0x10\n 18394: s1 = s1 << 0x18\n 18397: a5 = a5 | s1\n 18400: a3 = a3 | a5\n 18403: a4 = u8 [a0 + 0x1d]\n 18406: a5 = u8 [a0 + 0x1c]\n 18409: s1 = u8 [a0 + 0x1e]\n 18412: a1 = u8 [a0 + 0x1f]\n 18415: a4 = a4 << 0x8\n 18418: a4 = a4 | a5\n 18421: s1 = s1 << 0x10\n 18424: a1 = a1 << 0x18\n 18427: a1 = a1 | s1\n 18430: a1 = a1 | a4\n 18433: a1 = a1 << 0x20\n 18436: a3 = a3 | a1\n 18439: a1 = u8 [a0 + 0x9]\n 18442: a4 = u8 [a0 + 0x8]\n 18445: a5 = u8 [a0 + 0xa]\n 18448: s1 = u8 [a0 + 0xb]\n 18451: a1 = a1 << 0x8\n 18454: a1 = a1 | a4\n 18457: a5 = a5 << 0x10\n 18460: s1 = s1 << 0x18\n 18463: a5 = a5 | s1\n 18466: a1 = a1 | a5\n 18469: a4 = u8 [a0 + 0xd]\n 18472: a5 = u8 [a0 + 0xc]\n 18475: s1 = u8 [a0 + 0xe]\n 18478: a0 = u8 [a0 + 0xf]\n 18481: a4 = a4 << 0x8\n 18484: a4 = a4 | a5\n 18487: s1 = s1 << 0x10\n 18490: a0 = a0 << 0x18\n 18493: a0 = a0 | s1\n 18496: a0 = a0 | a4\n 18499: a0 = a0 << 0x20\n 18502: a0 = a0 | a1\n 18505: a1 = reverse a0\n 18507: a0 = reverse a3\n 18509: a2 = reverse a2\n 18511: a3 = reverse t0\n 18513: a2 = a2 | a3\n 18516: a3 = a0 | a1\n 18519: a3 = a3 | a2\n 18522: a3 = a3 >> 0x20\n 18525: a1 = a1 | a2\n 18528: a1 = a1 << 0x20\n 18531: a1 = a1 | a3\n 18534: jump @279 if a1 != 0\n      : @266 (gas: 17)\n 18538: s1 = u64 [sp + 0x78]\n 18541: a1 = reverse s1\n 18543: a1 = a1 << 0x20\n 18546: a2 = u64 [sp + 0x68]\n 18549: a2 = reverse a2\n 18551: a3 = a2 >> 0x20\n 18554: a1 = a1 | a3\n 18557: u64 [sp + 0x68] = a1\n 18560: a2 = a2 << 0x20\n 18563: a1 = u64 [sp + 0x70]\n 18566: a1 = reverse a1\n 18568: a1 = a1 >> 0x20\n 18571: a1 = a1 | a2\n 18574: u64 [sp + 0x70] = a1\n 18577: i32 a0 = a0 + 0\n 18579: a1 = 0\n 18581: ra = 228, jump @0\n      : @267 [@dyn 114] (gas: 36)\n 18587: a1 = u64 [0x20000]\n 18592: a2 = u64 [0x20008]\n 18597: a3 = u64 [0x20010]\n 18602: a4 = u64 [0x20018]\n 18607: u64 [sp + 0x258] = a1\n 18611: u64 [sp + 0x250] = a2\n 18615: u64 [sp + 0x248] = a3\n 18619: u64 [sp + 0x240] = a4\n 18623: a1 = u64 [sp + 0x70]\n 18626: a1 = reverse a1\n 18628: a2 = u64 [sp + 0x68]\n 18631: a2 = reverse a2\n 18633: a3 = s1 << 0x20\n 18636: u64 [sp + 0x268] = a3\n 18640: u64 [sp + 608] = 0\n 18644: u64 [sp + 0x270] = a2\n 18648: u64 [sp + 0x278] = a1\n 18652: a1 = u64 [sp + 0x28]\n 18655: a1 = reverse a1\n 18657: a2 = u64 [sp + 0x30]\n 18660: u64 [sp + 0x298] = a2\n 18664: a2 = u64 [sp + 0x38]\n 18667: u64 [sp + 0x290] = a2\n 18671: u64 [sp + 640] = 0\n 18675: u64 [sp + 0x288] = a1\n 18679: i32 a2 = a0 + 0\n 18681: i32 a0 = sp + 0x240\n 18685: a1 = 0x3\n 18688: a3 = 0\n 18690: ecalli 6 // 'deposit_event'\n 18692: sp = s0 + 0xfffffffffffffd40\n 18696: ra = u64 [sp + 0x2b8]\n 18700: s0 = u64 [sp + 0x2b0]\n 18704: s1 = u64 [sp + 0x2a8]\n 18708: sp = sp + 0x2c0\n 18712: ret\n      : @268 (gas: 3)\n 18714: a0 = 0x40\n 18717: a1 = 0x20\n 18720: ra = 230, jump @0\n      : @269 [@dyn 115] (gas: 103)\n 18726: a1 = u8 [a0 + 0x11]\n 18729: a2 = u8 [a0 + 0x10]\n 18732: a3 = u8 [a0 + 0x12]\n 18735: a4 = u8 [a0 + 0x13]\n 18738: a1 = a1 << 0x8\n 18741: a1 = a1 | a2\n 18744: a3 = a3 << 0x10\n 18747: a4 = a4 << 0x18\n 18750: a3 = a3 | a4\n 18753: a1 = a1 | a3\n 18756: a2 = u8 [a0 + 0x15]\n 18759: a3 = u8 [a0 + 0x14]\n 18762: a4 = u8 [a0 + 0x16]\n 18765: a5 = u8 [a0 + 0x17]\n 18768: a2 = a2 << 0x8\n 18771: a2 = a2 | a3\n 18774: a4 = a4 << 0x10\n 18777: a5 = a5 << 0x18\n 18780: a4 = a4 | a5\n 18783: a2 = a2 | a4\n 18786: a2 = a2 << 0x20\n 18789: t0 = a2 | a1\n 18792: a2 = u8 [a0 + 0x1]\n 18795: a3 = u8 [a0]\n 18797: a4 = u8 [a0 + 0x2]\n 18800: a5 = u8 [a0 + 0x3]\n 18803: a2 = a2 << 0x8\n 18806: a2 = a2 | a3\n 18809: a4 = a4 << 0x10\n 18812: a5 = a5 << 0x18\n 18815: a4 = a4 | a5\n 18818: a2 = a2 | a4\n 18821: a3 = u8 [a0 + 0x5]\n 18824: a4 = u8 [a0 + 0x4]\n 18827: a5 = u8 [a0 + 0x6]\n 18830: s1 = u8 [a0 + 0x7]\n 18833: a3 = a3 << 0x8\n 18836: a3 = a3 | a4\n 18839: a5 = a5 << 0x10\n 18842: s1 = s1 << 0x18\n 18845: a5 = a5 | s1\n 18848: a3 = a3 | a5\n 18851: a3 = a3 << 0x20\n 18854: a2 = a2 | a3\n 18857: a3 = u8 [a0 + 0x19]\n 18860: a4 = u8 [a0 + 0x18]\n 18863: a5 = u8 [a0 + 0x1a]\n 18866: s1 = u8 [a0 + 0x1b]\n 18869: a3 = a3 << 0x8\n 18872: a3 = a3 | a4\n 18875: a5 = a5 << 0x10\n 18878: s1 = s1 << 0x18\n 18881: a5 = a5 | s1\n 18884: a3 = a3 | a5\n 18887: a4 = u8 [a0 + 0x1d]\n 18890: a5 = u8 [a0 + 0x1c]\n 18893: s1 = u8 [a0 + 0x1e]\n 18896: a1 = u8 [a0 + 0x1f]\n 18899: a4 = a4 << 0x8\n 18902: a4 = a4 | a5\n 18905: s1 = s1 << 0x10\n 18908: a1 = a1 << 0x18\n 18911: a1 = a1 | s1\n 18914: a1 = a1 | a4\n 18917: a1 = a1 << 0x20\n 18920: a3 = a3 | a1\n 18923: a1 = u8 [a0 + 0x9]\n 18926: a4 = u8 [a0 + 0x8]\n 18929: a5 = u8 [a0 + 0xa]\n 18932: s1 = u8 [a0 + 0xb]\n 18935: a1 = a1 << 0x8\n 18938: a1 = a1 | a4\n 18941: a5 = a5 << 0x10\n 18944: s1 = s1 << 0x18\n 18947: a5 = a5 | s1\n 18950: a1 = a1 | a5\n 18953: a4 = u8 [a0 + 0xd]\n 18956: a5 = u8 [a0 + 0xc]\n 18959: s1 = u8 [a0 + 0xe]\n 18962: a0 = u8 [a0 + 0xf]\n 18965: a4 = a4 << 0x8\n 18968: a4 = a4 | a5\n 18971: s1 = s1 << 0x10\n 18974: a0 = a0 << 0x18\n 18977: a0 = a0 | s1\n 18980: a0 = a0 | a4\n 18983: a0 = a0 << 0x20\n 18986: a0 = a0 | a1\n 18989: s1 = reverse a0\n 18991: a1 = reverse a3\n 18993: a2 = reverse a2\n 18995: a0 = reverse t0\n 18997: u64 [sp + 0x78] = a0\n 19000: u64 [sp + 0x70] = a2\n 19003: a0 = a0 | a2\n 19006: a2 = a1\n 19008: a1 = a1 | s1\n 19011: a1 = a1 | a0\n 19014: a1 = a1 >> 0x20\n 19017: a0 = a0 | s1\n 19020: a0 = a0 << 0x20\n 19023: a0 = a0 | a1\n 19026: jump @279 if a0 != 0\n      : @270 (gas: 5)\n 19030: u64 [sp + 0x68] = a2\n 19033: i32 a0 = a2 + 0\n 19035: a1 = 0x20\n 19038: u64 [sp + 0x60] = a0\n 19041: ra = 232, jump @0\n      : @271 [@dyn 116] (gas: 50)\n 19047: u8 [a0 + 31] = 0\n 19050: u8 [a0 + 30] = 0\n 19053: u8 [a0 + 29] = 0\n 19056: u8 [a0 + 28] = 0\n 19059: u8 [a0 + 27] = 0\n 19062: u8 [a0 + 26] = 0\n 19065: u8 [a0 + 25] = 0\n 19068: u8 [a0 + 24] = 0\n 19071: u8 [a0 + 23] = 0\n 19074: u8 [a0 + 22] = 0\n 19077: u8 [a0 + 21] = 0\n 19080: u8 [a0 + 20] = 0\n 19083: u8 [a0 + 19] = 0\n 19086: u8 [a0 + 18] = 0\n 19089: u8 [a0 + 17] = 0\n 19092: u8 [a0 + 16] = 0\n 19095: u8 [a0 + 15] = 0\n 19098: u8 [a0 + 14] = 0\n 19101: u8 [a0 + 13] = 0\n 19104: u8 [a0 + 12] = 0\n 19107: u8 [a0 + 11] = 0\n 19110: u8 [a0 + 10] = 0\n 19113: u8 [a0 + 9] = 0\n 19116: u8 [a0 + 8] = 0\n 19119: u8 [a0 + 7] = 0\n 19122: u8 [a0 + 6] = 0\n 19125: u8 [a0 + 5] = 0\n 19128: u8 [a0 + 4] = 0\n 19131: u8 [a0 + 3] = 0xa0\n 19136: u8 [a0 + 2] = 0x79\n 19140: u8 [a0 + 1] = 0xc3\n 19145: u8 [a0 + 0] = 0x8\n 19148: a1 = u64 [sp + 0x68]\n 19151: a0 = a1 + 0x4\n 19154: a1 = a0 <u a1\n 19157: a3 = u64 [sp + 0x78]\n 19160: a2 = a3 + a1\n 19163: a3 = a2 <u a3\n 19166: a3 = a1 if a1 == 0\n 19169: a3 = a3 + s1\n 19172: a1 = a3 <u s1\n 19175: a4 = u64 [sp + 0x70]\n 19178: a4 = a4 + a1\n 19181: u64 [sp + 0x88] = a2\n 19185: u64 [sp + 0x80] = a0\n 19189: u64 [sp + 0x90] = a3\n 19193: a0 = sp + 0xa0\n 19197: a1 = sp + 0x80\n 19201: u64 [sp + 0x98] = a4\n 19205: ra = 234, jump @204\n      : @272 [@dyn 117] (gas: 5)\n 19211: a0 = u64 [sp + 0xa8]\n 19215: t0 = u64 [sp + 0xb8]\n 19219: t1 = u64 [sp + 0xa0]\n 19223: a3 = u64 [sp + 0xb0]\n 19227: jump @278\n      : @273 (gas: 3)\n 19230: a0 = 0x40\n 19233: a1 = 0x20\n 19236: ra = 236, jump @0\n      : @274 [@dyn 118] (gas: 103)\n 19242: a1 = u8 [a0 + 0x11]\n 19245: a2 = u8 [a0 + 0x10]\n 19248: a3 = u8 [a0 + 0x12]\n 19251: a4 = u8 [a0 + 0x13]\n 19254: a1 = a1 << 0x8\n 19257: a1 = a1 | a2\n 19260: a3 = a3 << 0x10\n 19263: a4 = a4 << 0x18\n 19266: a3 = a3 | a4\n 19269: a1 = a1 | a3\n 19272: a2 = u8 [a0 + 0x15]\n 19275: a3 = u8 [a0 + 0x14]\n 19278: a4 = u8 [a0 + 0x16]\n 19281: a5 = u8 [a0 + 0x17]\n 19284: a2 = a2 << 0x8\n 19287: a2 = a2 | a3\n 19290: a4 = a4 << 0x10\n 19293: a5 = a5 << 0x18\n 19296: a4 = a4 | a5\n 19299: a2 = a2 | a4\n 19302: a2 = a2 << 0x20\n 19305: t0 = a2 | a1\n 19308: a2 = u8 [a0 + 0x1]\n 19311: a3 = u8 [a0]\n 19313: a4 = u8 [a0 + 0x2]\n 19316: a5 = u8 [a0 + 0x3]\n 19319: a2 = a2 << 0x8\n 19322: a2 = a2 | a3\n 19325: a4 = a4 << 0x10\n 19328: a5 = a5 << 0x18\n 19331: a4 = a4 | a5\n 19334: a2 = a2 | a4\n 19337: a3 = u8 [a0 + 0x5]\n 19340: a4 = u8 [a0 + 0x4]\n 19343: a5 = u8 [a0 + 0x6]\n 19346: s1 = u8 [a0 + 0x7]\n 19349: a3 = a3 << 0x8\n 19352: a3 = a3 | a4\n 19355: a5 = a5 << 0x10\n 19358: s1 = s1 << 0x18\n 19361: a5 = a5 | s1\n 19364: a3 = a3 | a5\n 19367: a3 = a3 << 0x20\n 19370: a2 = a2 | a3\n 19373: a3 = u8 [a0 + 0x19]\n 19376: a4 = u8 [a0 + 0x18]\n 19379: a5 = u8 [a0 + 0x1a]\n 19382: s1 = u8 [a0 + 0x1b]\n 19385: a3 = a3 << 0x8\n 19388: a3 = a3 | a4\n 19391: a5 = a5 << 0x10\n 19394: s1 = s1 << 0x18\n 19397: a5 = a5 | s1\n 19400: a3 = a3 | a5\n 19403: a4 = u8 [a0 + 0x1d]\n 19406: a5 = u8 [a0 + 0x1c]\n 19409: s1 = u8 [a0 + 0x1e]\n 19412: a1 = u8 [a0 + 0x1f]\n 19415: a4 = a4 << 0x8\n 19418: a4 = a4 | a5\n 19421: s1 = s1 << 0x10\n 19424: a1 = a1 << 0x18\n 19427: a1 = a1 | s1\n 19430: a1 = a1 | a4\n 19433: a1 = a1 << 0x20\n 19436: a3 = a3 | a1\n 19439: a1 = u8 [a0 + 0x9]\n 19442: a4 = u8 [a0 + 0x8]\n 19445: a5 = u8 [a0 + 0xa]\n 19448: s1 = u8 [a0 + 0xb]\n 19451: a1 = a1 << 0x8\n 19454: a1 = a1 | a4\n 19457: a5 = a5 << 0x10\n 19460: s1 = s1 << 0x18\n 19463: a5 = a5 | s1\n 19466: a1 = a1 | a5\n 19469: a4 = u8 [a0 + 0xd]\n 19472: a5 = u8 [a0 + 0xc]\n 19475: s1 = u8 [a0 + 0xe]\n 19478: a0 = u8 [a0 + 0xf]\n 19481: a4 = a4 << 0x8\n 19484: a4 = a4 | a5\n 19487: s1 = s1 << 0x10\n 19490: a0 = a0 << 0x18\n 19493: a0 = a0 | s1\n 19496: a0 = a0 | a4\n 19499: a0 = a0 << 0x20\n 19502: a0 = a0 | a1\n 19505: s1 = reverse a0\n 19507: a1 = reverse a3\n 19509: a2 = reverse a2\n 19511: a0 = reverse t0\n 19513: u64 [sp + 0x78] = a0\n 19516: u64 [sp + 0x70] = a2\n 19519: a0 = a0 | a2\n 19522: a2 = a1\n 19524: a1 = a1 | s1\n 19527: a1 = a1 | a0\n 19530: a1 = a1 >> 0x20\n 19533: a0 = a0 | s1\n 19536: a0 = a0 << 0x20\n 19539: a0 = a0 | a1\n 19542: jump @279 if a0 != 0\n      : @275 (gas: 5)\n 19546: u64 [sp + 0x68] = a2\n 19549: i32 a0 = a2 + 0\n 19551: a1 = 0x20\n 19554: u64 [sp + 0x60] = a0\n 19557: ra = 238, jump @0\n      : @276 [@dyn 119] (gas: 50)\n 19563: u8 [a0 + 31] = 0\n 19566: u8 [a0 + 30] = 0\n 19569: u8 [a0 + 29] = 0\n 19572: u8 [a0 + 28] = 0\n 19575: u8 [a0 + 27] = 0\n 19578: u8 [a0 + 26] = 0\n 19581: u8 [a0 + 25] = 0\n 19584: u8 [a0 + 24] = 0\n 19587: u8 [a0 + 23] = 0\n 19590: u8 [a0 + 22] = 0\n 19593: u8 [a0 + 21] = 0\n 19596: u8 [a0 + 20] = 0\n 19599: u8 [a0 + 19] = 0\n 19602: u8 [a0 + 18] = 0\n 19605: u8 [a0 + 17] = 0\n 19608: u8 [a0 + 16] = 0\n 19611: u8 [a0 + 15] = 0\n 19614: u8 [a0 + 14] = 0\n 19617: u8 [a0 + 13] = 0\n 19620: u8 [a0 + 12] = 0\n 19623: u8 [a0 + 11] = 0\n 19626: u8 [a0 + 10] = 0\n 19629: u8 [a0 + 9] = 0\n 19632: u8 [a0 + 8] = 0\n 19635: u8 [a0 + 7] = 0\n 19638: u8 [a0 + 6] = 0\n 19641: u8 [a0 + 5] = 0\n 19644: u8 [a0 + 4] = 0\n 19647: u8 [a0 + 3] = 0xa0\n 19652: u8 [a0 + 2] = 0x79\n 19656: u8 [a0 + 1] = 0xc3\n 19661: u8 [a0 + 0] = 0x8\n 19664: a1 = u64 [sp + 0x68]\n 19667: a0 = a1 + 0x4\n 19670: a1 = a0 <u a1\n 19673: a3 = u64 [sp + 0x78]\n 19676: a2 = a3 + a1\n 19679: a3 = a2 <u a3\n 19682: a3 = a1 if a1 == 0\n 19685: a3 = a3 + s1\n 19688: a1 = a3 <u s1\n 19691: a4 = u64 [sp + 0x70]\n 19694: a4 = a4 + a1\n 19697: u64 [sp + 0x148] = a2\n 19701: u64 [sp + 0x140] = a0\n 19705: u64 [sp + 0x150] = a3\n 19709: a0 = sp + 0x160\n 19713: a1 = sp + 0x140\n 19717: u64 [sp + 0x158] = a4\n 19721: ra = 240, jump @228\n      : @277 [@dyn 120] (gas: 5)\n 19727: a0 = u64 [sp + 0x168]\n 19731: t0 = u64 [sp + 0x178]\n 19735: t1 = u64 [sp + 0x160]\n 19739: a3 = u64 [sp + 0x170]\n 19743: fallthrough\n      : @278 (gas: 26)\n 19744: a1 = u64 [sp + 0x78]\n 19747: a4 = a0 ^ a1\n 19750: a5 = a0 <u a1\n 19753: t2 = a1\n 19755: a2 = u64 [sp + 0x68]\n 19758: a1 = t1 <u a2\n 19761: a5 = a1 if a4 == 0\n 19764: a4 = a3 - s1\n 19767: a3 = a3 <u s1\n 19770: s1 = u64 [sp + 0x70]\n 19773: s1 = t0 - s1\n 19776: s1 = s1 - a3\n 19779: a3 = a4 <u a5\n 19782: s1 = s1 - a3\n 19785: a4 = a4 - a5\n 19788: a0 = a0 - t2\n 19791: a1 = a0 - a1\n 19794: a0 = t1 - a2\n 19797: a1 = a1 | s1\n 19800: a2 = a0 | a4\n 19803: a2 = a2 | a1\n 19806: a1 = a1 | a4\n 19809: a2 = a2 >> 0x20\n 19812: a1 = a1 << 0x20\n 19815: a1 = a1 | a2\n 19818: jump @286 if a1 == 0\n      : @279 (gas: 1)\n 19821: trap\n      : @280 (gas: 3)\n 19822: a0 = 0\n 19824: a1 = 0\n 19826: ra = 242, jump @0\n      : @281 [@dyn 121] (gas: 5)\n 19832: i32 a1 = a0 + 0\n 19834: a0 = 0x1\n 19837: a2 = 0\n 19839: ecalli 13 // 'seal_return'\n 19841: fallthrough\n      : @282 (gas: 8)\n 19842: u64 [sp + 240] = 0\n 19846: u64 [sp + 232] = 0\n 19850: u64 [sp + 224] = 0\n 19854: a0 = 0x4e487b7100000000\n 19864: a1 = sp + 0xe0\n 19868: u64 [sp + 0xf8] = a0\n 19872: a0 = 0\n 19874: ra = 244, jump @8\n      : @283 [@dyn 122] (gas: 7)\n 19880: u64 [sp + 216] = 0\n 19884: u64 [sp + 208] = 0\n 19888: u64 [sp + 192] = 0x41\n 19893: a0 = 0x4\n 19896: a1 = sp + 0xc0\n 19900: u64 [sp + 200] = 0\n 19904: ra = 246, jump @8\n      : @284 [@dyn 123] (gas: 3)\n 19910: a1 = 0x24\n 19913: a0 = 0\n 19915: ra = 248, jump @0\n      : @285 [@dyn 124] (gas: 5)\n 19921: i32 a1 = a0 + 0\n 19923: a0 = 0x1\n 19926: a2 = 0x24\n 19929: ecalli 13 // 'seal_return'\n 19931: fallthrough\n      : @286 (gas: 4)\n 19932: i32 s1 = a0 + 0\n 19934: a0 = u64 [sp + 0x60]\n 19937: a1 = s1\n 19939: ra = 250, jump @0\n      : @287 [@dyn 125] (gas: 6)\n 19945: i32 a1 = a0 + 0\n 19947: a0 = 0x1\n 19950: a2 = s1\n 19952: ra = 0xfc\n 19956: ecalli 13 // 'seal_return'\n 19958: fallthrough\n      : @288 [@dyn 126] (gas: 6)\n 19959: u64 [a0 + 24] = 0\n 19962: u64 [a0 + 16] = 0\n 19965: u64 [a0 + 8] = 0\n 19968: a1 = 0x60\n 19971: u64 [a0] = a1\n 19973: ret\n      : @289 (gas: 14)\n 19975: sp = sp + 0xffffffffffffff10\n 19979: u64 [sp + 0xe8] = ra\n 19983: u64 [sp + 0xe0] = s0\n 19987: u64 [sp + 0xd8] = s1\n 19991: s0 = sp + 0xf0\n 19995: sp = sp & 0xfffffffffffffff0\n 19998: a2 = u64 [a1 + 0x18]\n 20001: a4 = u64 [a1 + 0x10]\n 20004: a5 = u64 [a1 + 0x8]\n 20007: s1 = a4 | a2\n 20010: a3 = a5 <u 0x1\n 20013: a3 = 0 if s1 != 0\n 20015: u64 [sp + 0x48] = a0\n 20018: jump @295 if a3 == 0\n      : @290 (gas: 30)\n 20022: s1 = u64 [a1]\n 20024: a0 = a4 >> 0x3b\n 20027: u64 [sp + 0x20] = a2\n 20030: a1 = a2 << 0x5\n 20033: a0 = a0 | a1\n 20036: a1 = a5 >> 0x3b\n 20039: u64 [sp + 0x28] = a4\n 20042: a2 = a4 << 0x5\n 20045: a1 = a1 | a2\n 20048: a2 = s1 >> 0x3b\n 20051: u64 [sp + 0x10] = a5\n 20054: a3 = a5 << 0x5\n 20057: a2 = a2 | a3\n 20060: u64 [sp + 0x18] = s1\n 20063: a3 = s1 << 0x5\n 20066: a4 = a3 + 0x20\n 20069: a3 = a4 <u a3\n 20072: a5 = a2 + a3\n 20075: a2 = a5 <u a2\n 20078: a2 = a3 if a3 == 0\n 20081: a2 = a2 + a1\n 20084: a1 = a2 <u a1\n 20087: a3 = a0 + a1\n 20090: u64 [sp + 0x90] = a4\n 20094: u64 [sp + 0x98] = a5\n 20098: u64 [sp + 0xa0] = a2\n 20102: a0 = sp + 0xb0\n 20106: a1 = sp + 0x90\n 20110: u64 [sp + 0xa8] = a3\n 20114: ra = 254, jump @141\n      : @291 [@dyn 127] (gas: 15)\n 20120: a0 = u64 [sp + 0xc8]\n 20124: a2 = u64 [sp + 0xc0]\n 20128: a1 = u64 [sp + 0xb8]\n 20132: a3 = u64 [sp + 0xb0]\n 20136: u64 [sp + 0x38] = a0\n 20139: u64 [sp + 0x30] = a1\n 20142: a0 = a0 | a1\n 20145: a1 = a3 | a2\n 20148: a1 = a1 | a0\n 20151: a1 = a1 >> 0x20\n 20154: u64 [sp + 0x40] = a2\n 20157: a0 = a0 | a2\n 20160: a0 = a0 << 0x20\n 20163: a0 = a0 | a1\n 20166: jump @294 if a0 != 0\n      : @292 (gas: 4)\n 20170: i32 a0 = a3 + 0\n 20172: a1 = 0x20\n 20175: u64 [sp + 0x8] = a3\n 20178: ra = 256, jump @0\n      : @293 [@dyn 128] (gas: 83)\n 20184: a1 = u64 [sp + 0x20]\n 20187: a1 = reverse a1\n 20189: a2 = u64 [sp + 0x28]\n 20192: a2 = reverse a2\n 20194: a3 = u64 [sp + 0x10]\n 20197: a3 = reverse a3\n 20199: a4 = u64 [sp + 0x18]\n 20202: a4 = reverse a4\n 20204: a5 = a4 >> 0x38\n 20207: u8 [a0 + 0x1f] = a5\n 20210: a5 = a4 >> 0x30\n 20213: u8 [a0 + 0x1e] = a5\n 20216: a5 = a4 >> 0x28\n 20219: u8 [a0 + 0x1d] = a5\n 20222: a5 = a4 >> 0x20\n 20225: u8 [a0 + 0x1c] = a5\n 20228: a5 = a4 >> 0x18\n 20231: u8 [a0 + 0x1b] = a5\n 20234: a5 = a4 >> 0x10\n 20237: u8 [a0 + 0x1a] = a5\n 20240: a5 = a4 >> 0x8\n 20243: u8 [a0 + 0x19] = a5\n 20246: u8 [a0 + 0x18] = a4\n 20249: u8 [a0 + 0x10] = a3\n 20252: a4 = a3 >> 0x38\n 20255: u8 [a0 + 0x17] = a4\n 20258: a4 = a3 >> 0x30\n 20261: u8 [a0 + 0x16] = a4\n 20264: a4 = a3 >> 0x28\n 20267: u8 [a0 + 0x15] = a4\n 20270: a4 = a3 >> 0x20\n 20273: u8 [a0 + 0x14] = a4\n 20276: a4 = a3 >> 0x18\n 20279: u8 [a0 + 0x13] = a4\n 20282: a4 = a3 >> 0x10\n 20285: u8 [a0 + 0x12] = a4\n 20288: a3 = a3 >> 0x8\n 20291: u8 [a0 + 0x11] = a3\n 20294: u8 [a0 + 0x8] = a2\n 20297: a3 = a2 >> 0x38\n 20300: u8 [a0 + 0xf] = a3\n 20303: a3 = a2 >> 0x30\n 20306: u8 [a0 + 0xe] = a3\n 20309: a3 = a2 >> 0x28\n 20312: u8 [a0 + 0xd] = a3\n 20315: a3 = a2 >> 0x20\n 20318: u8 [a0 + 0xc] = a3\n 20321: a3 = a2 >> 0x18\n 20324: u8 [a0 + 0xb] = a3\n 20327: a3 = a2 >> 0x10\n 20330: u8 [a0 + 0xa] = a3\n 20333: a2 = a2 >> 0x8\n 20336: u8 [a0 + 0x9] = a2\n 20339: u8 [a0] = a1\n 20341: a2 = a1 >> 0x38\n 20344: u8 [a0 + 0x7] = a2\n 20347: a2 = a1 >> 0x30\n 20350: u8 [a0 + 0x6] = a2\n 20353: a2 = a1 >> 0x28\n 20356: u8 [a0 + 0x5] = a2\n 20359: a2 = a1 >> 0x20\n 20362: u8 [a0 + 0x4] = a2\n 20365: a2 = a1 >> 0x18\n 20368: u8 [a0 + 0x3] = a2\n 20371: a2 = a1 >> 0x10\n 20374: u8 [a0 + 0x2] = a2\n 20377: a1 = a1 >> 0x8\n 20380: u8 [a0 + 0x1] = a1\n 20383: a0 = u64 [sp + 0x48]\n 20386: a1 = u64 [sp + 0x8]\n 20389: u64 [a0] = a1\n 20391: a1 = u64 [sp + 0x38]\n 20394: u64 [a0 + 0x18] = a1\n 20397: a1 = u64 [sp + 0x30]\n 20400: u64 [a0 + 0x8] = a1\n 20403: a1 = u64 [sp + 0x40]\n 20406: u64 [a0 + 0x10] = a1\n 20409: sp = s0 + 0xffffffffffffff10\n 20413: ra = u64 [sp + 0xe8]\n 20417: s0 = u64 [sp + 0xe0]\n 20421: s1 = u64 [sp + 0xd8]\n 20425: sp = sp + 0xf0\n 20429: ret\n      : @294 (gas: 1)\n 20431: trap\n      : @295 (gas: 8)\n 20432: u64 [sp + 128] = 0\n 20436: u64 [sp + 120] = 0\n 20439: u64 [sp + 112] = 0\n 20442: a0 = 0x4e487b7100000000\n 20452: a1 = sp + 0x70\n 20455: u64 [sp + 0x88] = a0\n 20459: a0 = 0\n 20461: ra = 258, jump @8\n      : @296 [@dyn 129] (gas: 7)\n 20467: u64 [sp + 104] = 0\n 20470: u64 [sp + 96] = 0\n 20473: u64 [sp + 80] = 0x41\n 20477: a0 = 0x4\n 20480: a1 = sp + 0x50\n 20483: u64 [sp + 88] = 0\n 20486: ra = 260, jump @8\n      : @297 [@dyn 130] (gas: 3)\n 20492: a1 = 0x24\n 20495: a0 = 0\n 20497: ra = 262, jump @0\n      : @298 [@dyn 131] (gas: 6)\n 20503: i32 a1 = a0 + 0\n 20505: a0 = 0x1\n 20508: a2 = 0x24\n 20511: ra = 0x108\n 20515: ecalli 13 // 'seal_return'\n 20517: fallthrough\n      : @299 [@dyn 132] (gas: 16)\n 20518: sp = sp + 0xffffffffffffffe8\n 20521: u64 [sp + 0x10] = ra\n 20524: u64 [sp + 0x8] = s0\n 20527: u64 [sp] = s1\n 20529: a2 = u64 [a1 + 0x10]\n 20532: a3 = u64 [a1 + 0x18]\n 20535: a4 = u64 [a1 + 0x8]\n 20538: s1 = u64 [a1]\n 20540: a3 = a3 | a4\n 20543: a1 = s1 | a2\n 20546: a1 = a1 | a3\n 20549: a1 = a1 >> 0x20\n 20552: a2 = a2 | a3\n 20555: a2 = a2 << 0x20\n 20558: a1 = a1 | a2\n 20561: jump @303 if a1 != 0\n      : @300 (gas: 12)\n 20564: a2 = u64 [a0 + 0x18]\n 20567: a3 = u64 [a0 + 0x10]\n 20570: a1 = u64 [a0]\n 20572: a0 = u64 [a0 + 0x8]\n 20575: a4 = a1 | a3\n 20578: a0 = a0 | a2\n 20581: a4 = a4 | a0\n 20584: a4 = a4 >> 0x20\n 20587: a0 = a0 | a3\n 20590: a0 = a0 << 0x20\n 20593: a0 = a0 | a4\n 20596: jump @303 if a0 != 0\n      : @301 (gas: 5)\n 20599: s0 = i32 [0x20044]\n 20604: i32 a0 = a1 + 0\n 20606: i32 s1 = s1 + 0\n 20608: a1 = s1\n 20610: ra = 266, jump @0\n      : @302 [@dyn 133] (gas: 9)\n 20616: i32 a0 = a0 + 0\n 20618: a1 = s1\n 20620: a2 = s0\n 20622: ra = u64 [sp + 0x10]\n 20625: s0 = u64 [sp + 0x8]\n 20628: s1 = u64 [sp]\n 20630: sp = sp + 0x18\n 20633: ecalli 2 // 'call_data_copy'\n 20635: ret\n      : @303 (gas: 1)\n 20637: trap\n      : @304 (gas: 21)\n 20638: sp = sp + 0xffffffffffffff20\n 20642: u64 [sp + 0xd8] = ra\n 20646: u64 [sp + 0xd0] = s0\n 20650: u64 [sp + 0xc8] = s1\n 20654: s0 = sp + 0xe0\n 20658: sp = sp & 0xfffffffffffffff0\n 20661: a2 = u64 [a1]\n 20663: a3 = u64 [a1 + 0x8]\n 20666: u64 [sp + 0x28] = a3\n 20669: s1 = u64 [a1 + 0x10]\n 20672: a1 = u64 [a1 + 0x18]\n 20675: u64 [sp + 0x30] = a1\n 20678: u64 [sp + 0x20] = a0\n 20681: u64 [sp + 0x98] = a1\n 20685: u64 [sp + 0x90] = s1\n 20689: u64 [sp + 0x88] = a3\n 20693: a0 = sp + 0xa0\n 20697: a1 = sp + 0x80\n 20701: u64 [sp + 0x38] = a2\n 20704: u64 [sp + 0x80] = a2\n 20708: ra = 268, jump @289\n      : @305 [@dyn 134] (gas: 6)\n 20714: a3 = u64 [sp + 0x30]\n 20717: a2 = u64 [sp + 0x28]\n 20720: a0 = s1 | a3\n 20723: a1 = a2 <u 0x1\n 20726: a1 = 0 if a0 != 0\n 20728: jump @311 if a1 == 0\n      : @306 (gas: 9)\n 20732: a5 = u64 [sp + 0x38]\n 20735: a0 = a5 | s1\n 20738: a1 = a2 | a3\n 20741: a0 = a0 | a1\n 20744: a0 = a0 >> 0x1b\n 20747: a1 = a1 | s1\n 20750: a1 = a1 << 0x25\n 20753: a0 = a0 | a1\n 20756: jump @310 if a0 != 0\n      : @307 (gas: 24)\n 20760: a1 = u64 [sp + 0xa0]\n 20764: a4 = u64 [sp + 0xb8]\n 20768: a3 = u64 [sp + 0xa8]\n 20772: s1 = u64 [sp + 0xb0]\n 20776: a0 = a1 + 0x20\n 20779: u64 [sp + 0x30] = a1\n 20782: a1 = a0 <u a1\n 20785: a2 = a3 + a1\n 20788: u64 [sp + 0x28] = a3\n 20791: a3 = a2 <u a3\n 20794: a3 = a1 if a1 == 0\n 20797: a3 = a3 + s1\n 20800: u64 [sp + 0x10] = s1\n 20803: a1 = a3 <u s1\n 20806: u64 [sp + 0x18] = a4\n 20809: a1 = a1 + a4\n 20812: a4 = a0 | a3\n 20815: a1 = a1 | a2\n 20818: a4 = a4 | a1\n 20821: a4 = a4 >> 0x20\n 20824: a1 = a1 | a3\n 20827: a1 = a1 << 0x20\n 20830: a1 = a1 | a4\n 20833: jump @310 if a1 != 0\n      : @308 (gas: 6)\n 20836: a1 = i32 [0x20044]\n 20841: u64 [sp + 0x8] = a1\n 20844: i32 s1 = a5 << 0x5\n 20847: i32 a0 = a0 + 0\n 20849: a1 = s1\n 20851: ra = 270, jump @0\n      : @309 [@dyn 135] (gas: 19)\n 20857: i32 a0 = a0 + 0\n 20859: a1 = s1\n 20861: a2 = u64 [sp + 0x8]\n 20864: ecalli 2 // 'call_data_copy'\n 20866: a0 = u64 [sp + 0x20]\n 20869: a1 = u64 [sp + 0x18]\n 20872: u64 [a0 + 0x18] = a1\n 20875: a1 = u64 [sp + 0x10]\n 20878: u64 [a0 + 0x10] = a1\n 20881: a1 = u64 [sp + 0x28]\n 20884: u64 [a0 + 0x8] = a1\n 20887: a1 = u64 [sp + 0x30]\n 20890: u64 [a0] = a1\n 20892: sp = s0 + 0xffffffffffffff20\n 20896: ra = u64 [sp + 0xd8]\n 20900: s0 = u64 [sp + 0xd0]\n 20904: s1 = u64 [sp + 0xc8]\n 20908: sp = sp + 0xe0\n 20912: ret\n      : @310 (gas: 1)\n 20914: trap\n      : @311 (gas: 8)\n 20915: u64 [sp + 112] = 0\n 20918: u64 [sp + 104] = 0\n 20921: u64 [sp + 96] = 0\n 20924: a0 = 0x4e487b7100000000\n 20934: a1 = sp + 0x60\n 20937: u64 [sp + 0x78] = a0\n 20940: a0 = 0\n 20942: ra = 272, jump @8\n      : @312 [@dyn 136] (gas: 7)\n 20948: u64 [sp + 88] = 0\n 20951: u64 [sp + 80] = 0\n 20954: u64 [sp + 64] = 0x41\n 20958: a0 = 0x4\n 20961: a1 = sp + 0x40\n 20964: u64 [sp + 72] = 0\n 20967: ra = 274, jump @8\n      : @313 [@dyn 137] (gas: 3)\n 20973: a1 = 0x24\n 20976: a0 = 0\n 20978: ra = 276, jump @0\n      : @314 [@dyn 138] (gas: 6)\n 20984: i32 a1 = a0 + 0\n 20986: a0 = 0x1\n 20989: a2 = 0x24\n 20992: ra = 0x116\n 20996: ecalli 13 // 'seal_return'\n 20998: fallthrough\n      : @315 [@dyn 139] (gas: 22)\n 20999: sp = sp + 0xffffffffffffff50\n 21003: u64 [sp + 0xa8] = ra\n 21007: u64 [sp + 0xa0] = s0\n 21011: u64 [sp + 0x98] = s1\n 21015: s0 = sp + 0xb0\n 21019: sp = sp & 0xfffffffffffffff0\n 21022: a4 = u64 [a1 + 0x10]\n 21025: a3 = u64 [a1 + 0x18]\n 21028: a5 = u64 [a1 + 0x8]\n 21031: s1 = u64 [a1]\n 21033: u64 [sp + 0x38] = a3\n 21036: u64 [sp + 0x30] = a5\n 21039: a1 = a5 | a3\n 21042: a3 = s1 | a4\n 21045: a3 = a3 | a1\n 21048: a3 = a3 >> 0x20\n 21051: u64 [sp + 0x40] = a4\n 21054: a1 = a1 | a4\n 21057: a1 = a1 << 0x20\n 21060: a1 = a1 | a3\n 21063: u64 [sp + 0x48] = a0\n 21066: jump @319 if a1 != 0\n      : @316 (gas: 12)\n 21070: a0 = u64 [a2 + 0x18]\n 21073: u64 [sp + 0x20] = a0\n 21076: a0 = u64 [a2 + 0x10]\n 21079: u64 [sp + 0x10] = a0\n 21082: a0 = u64 [a2 + 0x8]\n 21085: u64 [sp + 0x8] = a0\n 21088: a0 = u64 [a2]\n 21090: u64 [sp + 0x18] = a0\n 21093: u64 [sp + 0x28] = s1\n 21096: i32 a0 = s1 + 0\n 21098: a1 = 0x20\n 21101: ra = 280, jump @0\n      : @317 [@dyn 140] (gas: 108)\n 21107: t2 = u64 [sp + 0x8]\n 21110: a1 = u8 [a0 + 0x1]\n 21113: a2 = u8 [a0]\n 21115: a3 = u8 [a0 + 0x2]\n 21118: a4 = u8 [a0 + 0x3]\n 21121: a1 = a1 << 0x8\n 21124: a1 = a1 | a2\n 21127: a3 = a3 << 0x10\n 21130: a4 = a4 << 0x18\n 21133: a3 = a3 | a4\n 21136: a1 = a1 | a3\n 21139: a2 = u8 [a0 + 0x5]\n 21142: a3 = u8 [a0 + 0x4]\n 21145: a4 = u8 [a0 + 0x6]\n 21148: a5 = u8 [a0 + 0x7]\n 21151: a2 = a2 << 0x8\n 21154: a2 = a2 | a3\n 21157: a4 = a4 << 0x10\n 21160: a5 = a5 << 0x18\n 21163: a4 = a4 | a5\n 21166: a2 = a2 | a4\n 21169: a2 = a2 << 0x20\n 21172: t0 = a2 | a1\n 21175: a2 = u8 [a0 + 0x9]\n 21178: a3 = u8 [a0 + 0x8]\n 21181: a4 = u8 [a0 + 0xa]\n 21184: a5 = u8 [a0 + 0xb]\n 21187: a2 = a2 << 0x8\n 21190: a2 = a2 | a3\n 21193: a4 = a4 << 0x10\n 21196: a5 = a5 << 0x18\n 21199: a4 = a4 | a5\n 21202: a2 = a2 | a4\n 21205: a3 = u8 [a0 + 0xd]\n 21208: a4 = u8 [a0 + 0xc]\n 21211: a5 = u8 [a0 + 0xe]\n 21214: a1 = u8 [a0 + 0xf]\n 21217: a3 = a3 << 0x8\n 21220: a3 = a3 | a4\n 21223: a5 = a5 << 0x10\n 21226: a1 = a1 << 0x18\n 21229: a1 = a1 | a5\n 21232: a1 = a1 | a3\n 21235: a1 = a1 << 0x20\n 21238: t1 = a1 | a2\n 21241: a1 = u8 [a0 + 0x11]\n 21244: a3 = u8 [a0 + 0x10]\n 21247: a4 = u8 [a0 + 0x12]\n 21250: a5 = u8 [a0 + 0x13]\n 21253: a1 = a1 << 0x8\n 21256: a1 = a1 | a3\n 21259: a4 = a4 << 0x10\n 21262: a5 = a5 << 0x18\n 21265: a4 = a4 | a5\n 21268: a1 = a1 | a4\n 21271: a3 = u8 [a0 + 0x15]\n 21274: a4 = u8 [a0 + 0x14]\n 21277: a5 = u8 [a0 + 0x16]\n 21280: a2 = u8 [a0 + 0x17]\n 21283: a3 = a3 << 0x8\n 21286: a3 = a3 | a4\n 21289: a5 = a5 << 0x10\n 21292: a2 = a2 << 0x18\n 21295: a2 = a2 | a5\n 21298: a2 = a2 | a3\n 21301: a2 = a2 << 0x20\n 21304: a3 = a2 | a1\n 21307: a1 = u8 [a0 + 0x19]\n 21310: a2 = u8 [a0 + 0x18]\n 21313: a4 = u8 [a0 + 0x1a]\n 21316: a5 = u8 [a0 + 0x1b]\n 21319: a1 = a1 << 0x8\n 21322: a1 = a1 | a2\n 21325: a4 = a4 << 0x10\n 21328: a5 = a5 << 0x18\n 21331: a4 = a4 | a5\n 21334: a1 = a1 | a4\n 21337: a2 = u8 [a0 + 0x1d]\n 21340: a4 = u8 [a0 + 0x1c]\n 21343: a5 = u8 [a0 + 0x1e]\n 21346: a0 = u8 [a0 + 0x1f]\n 21349: a2 = a2 << 0x8\n 21352: a2 = a2 | a4\n 21355: a5 = a5 << 0x10\n 21358: a0 = a0 << 0x18\n 21361: a0 = a0 | a5\n 21364: a0 = a0 | a2\n 21367: a0 = a0 << 0x20\n 21370: a0 = a0 | a1\n 21373: ra = reverse a0\n 21375: s1 = reverse a3\n 21377: a2 = reverse t1\n 21379: t1 = u64 [sp + 0x18]\n 21382: a3 = reverse t0\n 21384: a1 = u64 [sp + 0x20]\n 21387: a4 = a3 ^ a1\n 21390: a0 = a1 <u a3\n 21393: a3 = u64 [sp + 0x10]\n 21396: a5 = a3 <u a2\n 21399: a5 = a0 if a4 != 0\n 21402: t0 = s1 ^ t2\n 21405: s1 = t2 <u s1\n 21408: a0 = t1 <u ra\n 21411: a0 = s1 if t0 != 0\n 21414: a2 = a2 ^ a3\n 21417: a2 = a2 | a4\n 21420: a0 = a5 if a2 != 0\n 21423: jump @320 if a0 == 0\n      : @318 (gas: 48)\n 21427: s1 = a3\n 21429: a0 = s1 >> 0x3b\n 21432: a1 = a1 << 0x5\n 21435: t0 = a1 | a0\n 21438: a1 = t2 >> 0x3b\n 21441: s1 = s1 << 0x5\n 21444: a1 = a1 | s1\n 21447: a2 = t1 >> 0x3b\n 21450: a3 = t2 << 0x5\n 21453: a2 = a2 | a3\n 21456: a3 = t1 << 0x5\n 21459: a0 = u64 [sp + 0x28]\n 21462: a3 = a3 + a0\n 21465: a4 = a3 <u a0\n 21468: a5 = u64 [sp + 0x30]\n 21471: a2 = a2 + a5\n 21474: a2 = a2 + a4\n 21477: a0 = a2 ^ a5\n 21480: s1 = a2 <u a5\n 21483: s1 = a4 if a0 == 0\n 21486: a5 = u64 [sp + 0x40]\n 21489: a1 = a1 + a5\n 21492: s1 = s1 + a1\n 21495: a4 = s1 <u a1\n 21498: a1 = a1 <u a5\n 21501: a5 = u64 [sp + 0x38]\n 21504: a0 = a5 + t0\n 21507: a0 = a0 + a1\n 21510: a0 = a0 + a4\n 21513: a1 = a3 + 0x20\n 21516: a3 = a1 <u a3\n 21519: a4 = a2 + a3\n 21522: a2 = a4 <u a2\n 21525: a2 = a3 if a3 == 0\n 21528: a2 = a2 + s1\n 21531: a3 = a2 <u s1\n 21534: a0 = a0 + a3\n 21537: a3 = u64 [sp + 0x48]\n 21540: u64 [a3] = a1\n 21542: u64 [a3 + 0x8] = a4\n 21545: u64 [a3 + 0x10] = a2\n 21548: u64 [a3 + 0x18] = a0\n 21551: sp = s0 + 0xffffffffffffff50\n 21555: ra = u64 [sp + 0xa8]\n 21559: s0 = u64 [sp + 0xa0]\n 21563: s1 = u64 [sp + 0x98]\n 21567: sp = sp + 0xb0\n 21571: ret\n      : @319 (gas: 1)\n 21573: trap\n      : @320 (gas: 8)\n 21574: u64 [sp + 128] = 0\n 21578: u64 [sp + 120] = 0\n 21581: u64 [sp + 112] = 0\n 21584: a0 = 0x4e487b7100000000\n 21594: a1 = sp + 0x70\n 21597: u64 [sp + 0x88] = a0\n 21601: a0 = 0\n 21603: ra = 282, jump @8\n      : @321 [@dyn 141] (gas: 7)\n 21609: u64 [sp + 104] = 0\n 21612: u64 [sp + 96] = 0\n 21615: u64 [sp + 80] = 0x32\n 21619: a0 = 0x4\n 21622: a1 = sp + 0x50\n 21625: u64 [sp + 88] = 0\n 21628: ra = 284, jump @8\n      : @322 [@dyn 142] (gas: 3)\n 21634: a1 = 0x24\n 21637: a0 = 0\n 21639: ra = 286, jump @0\n      : @323 [@dyn 143] (gas: 6)\n 21645: i32 a1 = a0 + 0\n 21647: a0 = 0x1\n 21650: a2 = 0x24\n 21653: ra = 0x120\n 21657: ecalli 13 // 'seal_return'\n 21659: fallthrough\n      : @324 [@dyn 144] (gas: 12)\n 21660: a2 = u64 [a0 + 0x10]\n 21663: a3 = u64 [a0 + 0x18]\n 21666: a4 = u64 [a0 + 0x8]\n 21669: a0 = u64 [a0]\n 21671: a3 = a3 | a4\n 21674: a4 = a0 | a2\n 21677: a4 = a4 | a3\n 21680: a4 = a4 >> 0x20\n 21683: a2 = a2 | a3\n 21686: a2 = a2 << 0x20\n 21689: a2 = a2 | a4\n 21692: jump @327 if a2 != 0\n      : @325 (gas: 13)\n 21696: sp = sp + 0xffffffffffffffe0\n 21699: u64 [sp + 0x18] = ra\n 21702: u64 [sp + 0x10] = s0\n 21705: u64 [sp + 0x8] = s1\n 21708: a2 = u64 [a1 + 0x10]\n 21711: a3 = u64 [a1 + 0x8]\n 21714: u64 [sp] = a3\n 21716: s1 = u64 [a1]\n 21718: a2 = a2 << 0x20\n 21721: s0 = a2 >> 0x20\n 21724: i32 a0 = a0 + 0\n 21726: a1 = 0x20\n 21729: ra = 290, jump @0\n      : @326 [@dyn 145] (gas: 59)\n 21735: a1 = reverse s0\n 21737: a2 = u64 [sp]\n 21739: a2 = reverse a2\n 21741: a3 = reverse s1\n 21743: a4 = a3 >> 0x38\n 21746: u8 [a0 + 0x1f] = a4\n 21749: a4 = a3 >> 0x30\n 21752: u8 [a0 + 0x1e] = a4\n 21755: a4 = a3 >> 0x28\n 21758: u8 [a0 + 0x1d] = a4\n 21761: a4 = a3 >> 0x20\n 21764: u8 [a0 + 0x1c] = a4\n 21767: a4 = a3 >> 0x18\n 21770: u8 [a0 + 0x1b] = a4\n 21773: a4 = a3 >> 0x10\n 21776: u8 [a0 + 0x1a] = a4\n 21779: a4 = a3 >> 0x8\n 21782: u8 [a0 + 0x19] = a4\n 21785: u8 [a0 + 0x18] = a3\n 21788: u8 [a0 + 0x10] = a2\n 21791: u8 [a0 + 11] = 0\n 21794: u8 [a0 + 10] = 0\n 21797: u8 [a0 + 9] = 0\n 21800: u8 [a0 + 7] = 0\n 21803: u8 [a0 + 6] = 0\n 21806: u8 [a0 + 5] = 0\n 21809: u8 [a0 + 4] = 0\n 21812: u8 [a0 + 3] = 0\n 21815: u8 [a0 + 2] = 0\n 21818: u8 [a0 + 1] = 0\n 21821: u8 [a0 + 0] = 0\n 21823: a3 = a2 >> 0x38\n 21826: u8 [a0 + 0x17] = a3\n 21829: a3 = a2 >> 0x30\n 21832: u8 [a0 + 0x16] = a3\n 21835: a3 = a2 >> 0x28\n 21838: u8 [a0 + 0x15] = a3\n 21841: a3 = a2 >> 0x20\n 21844: u8 [a0 + 0x14] = a3\n 21847: a3 = a2 >> 0x18\n 21850: u8 [a0 + 0x13] = a3\n 21853: a3 = a2 >> 0x10\n 21856: u8 [a0 + 0x12] = a3\n 21859: a2 = a2 >> 0x8\n 21862: u8 [a0 + 0x11] = a2\n 21865: u8 [a0 + 0x8] = a1\n 21868: a2 = a1 >> 0x38\n 21871: u8 [a0 + 0xf] = a2\n 21874: a2 = a1 >> 0x30\n 21877: u8 [a0 + 0xe] = a2\n 21880: a2 = a1 >> 0x28\n 21883: u8 [a0 + 0xd] = a2\n 21886: a1 = a1 >> 0x20\n 21889: u8 [a0 + 0xc] = a1\n 21892: ra = u64 [sp + 0x18]\n 21895: s0 = u64 [sp + 0x10]\n 21898: s1 = u64 [sp + 0x8]\n 21901: sp = sp + 0x20\n 21904: ret\n      : @327 (gas: 1)\n 21906: trap\n      : @328 (gas: 12)\n 21907: a0 = u64 [sp + 0x718]\n 21911: a1 = u64 [sp + 0x710]\n 21915: a2 = u64 [sp + 0x708]\n 21919: a3 = u64 [sp + 0x700]\n 21923: u64 [sp + 0x1b8] = a0\n 21927: u64 [sp + 0x1a8] = a2\n 21931: a0 = a0 | a2\n 21934: u64 [sp + 0x1b0] = a1\n 21938: u64 [sp + 0x1a0] = a3\n 21942: a1 = a1 | a3\n 21945: a0 = a0 | a1\n 21948: jump @330 if a0 != 0\n      : @329 (gas: 1)\n 21951: jump @394\n      : @330 (gas: 41)\n 21954: a5 = 0\n 21956: a2 = 0\n 21958: a3 = 0\n 21960: t1 = 0\n 21962: u64 [sp + 192] = 0\n 21966: u64 [sp + 184] = 0\n 21970: u64 [sp + 176] = 0\n 21974: u64 [sp + 200] = 0\n 21978: a0 = 0x2400000000\n 21988: u64 [sp + 0x198] = a0\n 21992: a0 = sp + 0x600\n 21996: a0 = a0 << 0x20\n 21999: a0 = a0 >> 0x20\n 22002: a1 = sp + 0x640\n 22006: a1 = a1 << 0x20\n 22009: a0 = a0 | a1\n 22012: u64 [sp + 0xa8] = a0\n 22016: a1 = 0x1800000000\n 22026: u64 [sp + 0x58] = s1\n 22029: a0 = s1 << 0x20\n 22032: a0 = a0 >> 0x20\n 22035: a0 = reverse a0\n 22037: u64 [sp + 0xa0] = a0\n 22041: a0 = sp + 0x5e0\n 22045: a0 = a0 << 0x20\n 22048: a0 = a0 >> 0x20\n 22051: u64 [sp + 0x60] = a1\n 22054: a0 = a0 | a1\n 22057: u64 [sp + 0x98] = a0\n 22061: a0 = sp + 0x620\n 22065: a0 = a0 << 0x20\n 22068: u64 [sp + 0x90] = a0\n 22072: s1 = 0xffffffff\n 22082: u64 [sp + 0x70] = s1\n 22085: a0 = u64 [sp + 0x78]\n 22088: a0 = reverse a0\n 22090: u64 [sp + 0x88] = a0\n 22094: a0 = u64 [sp + 0x68]\n 22097: a0 = reverse a0\n 22099: u64 [sp + 0x80] = a0\n 22103: jump @333\n      : @331 (gas: 3)\n 22105: a5 = u64 [sp + 0xf0]\n 22109: a2 = u64 [sp + 0xe8]\n 22113: fallthrough\n      : @332 (gas: 26)\n 22114: a5 = a5 + 0x1\n 22117: a0 = a5 <u 0x1\n 22120: a2 = a2 + a0\n 22123: a0 = a5 | a2\n 22126: a0 = a0 <u 0x1\n 22129: a1 = u64 [sp + 0xd8]\n 22133: a0 = a0 + a1\n 22136: a1 = a0 <u a1\n 22139: t1 = t1 + a1\n 22142: a1 = u64 [sp + 0x1a0]\n 22146: a1 = a5 <u a1\n 22149: a3 = u64 [sp + 0x1a8]\n 22153: a4 = a2 ^ a3\n 22156: a3 = a2 <u a3\n 22159: a3 = a1 if a4 == 0\n 22162: a1 = u64 [sp + 0x1b0]\n 22166: t0 = a0 <u a1\n 22169: a4 = u64 [sp + 0x1b8]\n 22173: s1 = t1 ^ a4\n 22176: a4 = t1 <u a4\n 22179: a4 = t0 if s1 == 0\n 22182: a1 = a1 ^ a0\n 22185: a1 = a1 | s1\n 22188: a4 = a3 if a1 == 0\n 22191: a3 = a0\n 22193: jump @361 if a4 == 0\n      : @333 (gas: 16)\n 22197: u64 [sp + 0xf0] = a5\n 22201: u64 [sp + 0x560] = a5\n 22205: u64 [sp + 1432] = 0\n 22209: u64 [sp + 1424] = 0\n 22213: u64 [sp + 1416] = 0\n 22217: u64 [sp + 1408] = 0\n 22221: u64 [sp + 0xe8] = a2\n 22225: u64 [sp + 0x568] = a2\n 22229: u64 [sp + 0xd8] = a3\n 22233: u64 [sp + 0x570] = a3\n 22237: a0 = sp + 0x5a0\n 22241: a1 = sp + 0x580\n 22245: a2 = sp + 0x560\n 22249: u64 [sp + 0xe0] = t1\n 22253: u64 [sp + 0x578] = t1\n 22257: ra = 292, jump @90\n      : @334 [@dyn 146] (gas: 177)\n 22263: s1 = u64 [sp + 0x5c0]\n 22267: a0 = u64 [sp + 0x5c8]\n 22271: u64 [sp + 0x1f8] = a0\n 22275: a0 = u64 [sp + 0x5d8]\n 22279: u64 [sp + 0x1e8] = a0\n 22283: a0 = u64 [sp + 0x5d0]\n 22287: u64 [sp + 0x1f0] = a0\n 22291: a0 = u64 [sp + 0x5b8]\n 22295: a1 = u64 [sp + 0x5b0]\n 22299: a2 = u64 [sp + 0x5a8]\n 22303: a3 = u64 [sp + 0x5a0]\n 22307: u64 [sp + 0x6f8] = a0\n 22311: u64 [sp + 0x6f0] = a1\n 22315: u64 [sp + 0x6e8] = a2\n 22319: u64 [sp + 0x6e0] = a3\n 22323: u64 [sp + 1816] = 0\n 22327: u64 [sp + 1808] = 0\n 22331: u64 [sp + 1800] = 0\n 22335: u64 [sp + 1792] = 0\n 22339: u32 [sp + 1824] = 0x20\n 22344: i32 a1 = sp + 0x6e0\n 22348: i32 a3 = sp + 0x700\n 22352: i32 a4 = sp + 0x720\n 22356: a2 = 0xffffffffffffffff\n 22359: a0 = 0\n 22361: ecalli 7 // 'get_storage'\n 22363: a0 = u64 [sp + 0x700]\n 22367: a1 = u64 [sp + 0x708]\n 22371: a2 = u64 [sp + 0x710]\n 22375: a3 = u64 [sp + 0x718]\n 22379: u8 [sp + 1375] = 0\n 22383: u8 [sp + 1374] = 0\n 22387: u8 [sp + 1373] = 0\n 22391: u8 [sp + 1372] = 0\n 22395: u8 [sp + 1371] = 0\n 22399: u8 [sp + 1370] = 0\n 22403: u8 [sp + 1369] = 0\n 22407: u8 [sp + 1368] = 0\n 22411: u8 [sp + 1367] = 0\n 22415: u8 [sp + 1366] = 0\n 22419: u8 [sp + 1365] = 0\n 22423: u8 [sp + 1364] = 0\n 22427: u8 [sp + 1363] = 0\n 22431: u8 [sp + 1362] = 0\n 22435: u8 [sp + 1361] = 0\n 22439: u8 [sp + 1360] = 0\n 22443: u8 [sp + 1359] = 0\n 22447: u8 [sp + 1358] = 0\n 22451: u8 [sp + 1357] = 0\n 22455: u8 [sp + 1356] = 0\n 22459: u8 [sp + 1355] = 0\n 22463: u8 [sp + 1354] = 0\n 22467: u8 [sp + 1353] = 0\n 22471: u8 [sp + 1352] = 0\n 22475: u8 [sp + 1351] = 0\n 22479: u8 [sp + 1350] = 0\n 22483: u8 [sp + 1349] = 0\n 22487: u8 [sp + 1348] = 0\n 22491: u8 [sp + 1347] = 0\n 22495: u8 [sp + 1346] = 0\n 22499: u8 [sp + 1345] = 0\n 22503: u8 [sp + 1344] = 0\n 22507: u8 [sp + 0x538] = a3\n 22511: u8 [sp + 0x530] = a2\n 22515: u8 [sp + 0x528] = a1\n 22519: u8 [sp + 0x520] = a0\n 22523: a4 = a3 >> 0x38\n 22526: u8 [sp + 0x53f] = a4\n 22530: a4 = a3 >> 0x30\n 22533: u8 [sp + 0x53e] = a4\n 22537: a4 = a3 >> 0x28\n 22540: u8 [sp + 0x53d] = a4\n 22544: a4 = a3 >> 0x20\n 22547: u8 [sp + 0x53c] = a4\n 22551: a4 = a3 >> 0x18\n 22554: u8 [sp + 0x53b] = a4\n 22558: a4 = a3 >> 0x10\n 22561: u8 [sp + 0x53a] = a4\n 22565: a3 = a3 >> 0x8\n 22568: u8 [sp + 0x539] = a3\n 22572: a3 = a2 >> 0x38\n 22575: u8 [sp + 0x537] = a3\n 22579: a3 = a2 >> 0x30\n 22582: u8 [sp + 0x536] = a3\n 22586: a3 = a2 >> 0x28\n 22589: u8 [sp + 0x535] = a3\n 22593: a3 = a2 >> 0x20\n 22596: u8 [sp + 0x534] = a3\n 22600: a3 = a2 >> 0x18\n 22603: u8 [sp + 0x533] = a3\n 22607: a3 = a2 >> 0x10\n 22610: u8 [sp + 0x532] = a3\n 22614: a2 = a2 >> 0x8\n 22617: u8 [sp + 0x531] = a2\n 22621: a2 = a1 >> 0x38\n 22624: u8 [sp + 0x52f] = a2\n 22628: a2 = a1 >> 0x30\n 22631: u8 [sp + 0x52e] = a2\n 22635: a2 = a1 >> 0x28\n 22638: u8 [sp + 0x52d] = a2\n 22642: a2 = a1 >> 0x20\n 22645: u8 [sp + 0x52c] = a2\n 22649: a2 = a1 >> 0x18\n 22652: u8 [sp + 0x52b] = a2\n 22656: a2 = a1 >> 0x10\n 22659: u8 [sp + 0x52a] = a2\n 22663: a1 = a1 >> 0x8\n 22666: u8 [sp + 0x529] = a1\n 22670: a1 = a0 >> 0x38\n 22673: u8 [sp + 0x527] = a1\n 22677: a1 = a0 >> 0x30\n 22680: u8 [sp + 0x526] = a1\n 22684: a1 = a0 >> 0x28\n 22687: u8 [sp + 0x525] = a1\n 22691: a1 = a0 >> 0x20\n 22694: u8 [sp + 0x524] = a1\n 22698: a1 = a0 >> 0x18\n 22701: u8 [sp + 0x523] = a1\n 22705: a1 = a0 >> 0x10\n 22708: u8 [sp + 0x522] = a1\n 22712: a0 = a0 >> 0x8\n 22715: u8 [sp + 0x521] = a0\n 22719: u64 [sp + 0x1e0] = s1\n 22723: a0 = s1 & 0x1f\n 22726: a1 = sp + 0x520\n 22730: a0 = a0 + a1\n 22733: a1 = u8 [a0 + 0x10]\n 22736: u64 [sp + 0x118] = a1\n 22740: a1 = u8 [a0 + 0x11]\n 22743: u64 [sp + 0xf8] = a1\n 22747: a1 = u8 [a0 + 0x12]\n 22750: u64 [sp + 0x108] = a1\n 22754: a1 = u8 [a0 + 0x13]\n 22757: u64 [sp + 0x100] = a1\n 22761: a1 = u8 [a0 + 0x14]\n 22764: u64 [sp + 0x130] = a1\n 22768: a1 = u8 [a0 + 0x15]\n 22771: u64 [sp + 0x110] = a1\n 22775: a1 = u8 [a0 + 0x16]\n 22778: u64 [sp + 0x128] = a1\n 22782: a1 = u8 [a0 + 0x17]\n 22785: u64 [sp + 0x120] = a1\n 22789: a1 = u8 [a0 + 0x8]\n 22792: u64 [sp + 0x158] = a1\n 22796: a1 = u8 [a0 + 0x9]\n 22799: u64 [sp + 0x138] = a1\n 22803: a1 = u8 [a0 + 0xa]\n 22806: u64 [sp + 0x148] = a1\n 22810: a1 = u8 [a0 + 0xb]\n 22813: u64 [sp + 0x140] = a1\n 22817: a1 = u8 [a0 + 0xc]\n 22820: u64 [sp + 0x170] = a1\n 22824: a1 = u8 [a0 + 0xd]\n 22827: u64 [sp + 0x150] = a1\n 22831: a1 = u8 [a0 + 0xe]\n 22834: u64 [sp + 0x168] = a1\n 22838: a1 = u8 [a0 + 0xf]\n 22841: u64 [sp + 0x160] = a1\n 22845: a1 = u8 [a0]\n 22847: u64 [sp + 0x1c0] = a1\n 22851: a1 = u8 [a0 + 0x1]\n 22854: u64 [sp + 0x178] = a1\n 22858: a1 = u8 [a0 + 0x2]\n 22861: u64 [sp + 0x188] = a1\n 22865: a1 = u8 [a0 + 0x3]\n 22868: u64 [sp + 0x180] = a1\n 22872: a1 = u8 [a0 + 0x4]\n 22875: u64 [sp + 0x1d8] = a1\n 22879: a1 = u8 [a0 + 0x5]\n 22882: u64 [sp + 0x190] = a1\n 22886: a1 = u8 [a0 + 0x6]\n 22889: u64 [sp + 0x1d0] = a1\n 22893: a0 = u8 [a0 + 0x7]\n 22896: u64 [sp + 0x1c8] = a0\n 22900: a0 = 0x40\n 22903: a1 = 0x20\n 22906: ra = 294, jump @0\n      : @335 [@dyn 147] (gas: 102)\n 22912: a1 = u8 [a0 + 0x11]\n 22915: a2 = u8 [a0 + 0x10]\n 22918: a3 = u8 [a0 + 0x12]\n 22921: a4 = u8 [a0 + 0x13]\n 22924: a1 = a1 << 0x8\n 22927: a1 = a1 | a2\n 22930: a3 = a3 << 0x10\n 22933: a4 = a4 << 0x18\n 22936: a3 = a3 | a4\n 22939: a1 = a1 | a3\n 22942: a2 = u8 [a0 + 0x15]\n 22945: a3 = u8 [a0 + 0x14]\n 22948: a4 = u8 [a0 + 0x16]\n 22951: a5 = u8 [a0 + 0x17]\n 22954: a2 = a2 << 0x8\n 22957: a2 = a2 | a3\n 22960: a4 = a4 << 0x10\n 22963: a5 = a5 << 0x18\n 22966: a4 = a4 | a5\n 22969: a2 = a2 | a4\n 22972: a2 = a2 << 0x20\n 22975: t0 = a2 | a1\n 22978: a2 = u8 [a0 + 0x1]\n 22981: a3 = u8 [a0]\n 22983: a4 = u8 [a0 + 0x2]\n 22986: a5 = u8 [a0 + 0x3]\n 22989: a2 = a2 << 0x8\n 22992: a2 = a2 | a3\n 22995: a4 = a4 << 0x10\n 22998: a5 = a5 << 0x18\n 23001: a4 = a4 | a5\n 23004: a2 = a2 | a4\n 23007: a3 = u8 [a0 + 0x5]\n 23010: a4 = u8 [a0 + 0x4]\n 23013: a5 = u8 [a0 + 0x6]\n 23016: s1 = u8 [a0 + 0x7]\n 23019: a3 = a3 << 0x8\n 23022: a3 = a3 | a4\n 23025: a5 = a5 << 0x10\n 23028: s1 = s1 << 0x18\n 23031: a5 = a5 | s1\n 23034: a3 = a3 | a5\n 23037: a3 = a3 << 0x20\n 23040: a2 = a2 | a3\n 23043: a3 = u8 [a0 + 0x19]\n 23046: a4 = u8 [a0 + 0x18]\n 23049: a5 = u8 [a0 + 0x1a]\n 23052: s1 = u8 [a0 + 0x1b]\n 23055: a3 = a3 << 0x8\n 23058: a3 = a3 | a4\n 23061: a5 = a5 << 0x10\n 23064: s1 = s1 << 0x18\n 23067: a5 = a5 | s1\n 23070: a3 = a3 | a5\n 23073: a4 = u8 [a0 + 0x1d]\n 23076: a5 = u8 [a0 + 0x1c]\n 23079: s1 = u8 [a0 + 0x1e]\n 23082: a1 = u8 [a0 + 0x1f]\n 23085: a4 = a4 << 0x8\n 23088: a4 = a4 | a5\n 23091: s1 = s1 << 0x10\n 23094: a1 = a1 << 0x18\n 23097: a1 = a1 | s1\n 23100: a1 = a1 | a4\n 23103: a1 = a1 << 0x20\n 23106: a3 = a3 | a1\n 23109: a1 = u8 [a0 + 0x9]\n 23112: a4 = u8 [a0 + 0x8]\n 23115: a5 = u8 [a0 + 0xa]\n 23118: s1 = u8 [a0 + 0xb]\n 23121: a1 = a1 << 0x8\n 23124: a1 = a1 | a4\n 23127: a5 = a5 << 0x10\n 23130: s1 = s1 << 0x18\n 23133: a5 = a5 | s1\n 23136: a1 = a1 | a5\n 23139: a4 = u8 [a0 + 0xd]\n 23142: a5 = u8 [a0 + 0xc]\n 23145: s1 = u8 [a0 + 0xe]\n 23148: a0 = u8 [a0 + 0xf]\n 23151: a4 = a4 << 0x8\n 23154: a4 = a4 | a5\n 23157: s1 = s1 << 0x10\n 23160: a0 = a0 << 0x18\n 23163: a0 = a0 | s1\n 23166: a0 = a0 | a4\n 23169: a0 = a0 << 0x20\n 23172: a0 = a0 | a1\n 23175: a4 = reverse a0\n 23177: a3 = reverse a3\n 23179: a1 = reverse a2\n 23181: a0 = reverse t0\n 23183: u64 [sp + 0x208] = a0\n 23187: u64 [sp + 0x210] = a1\n 23191: a0 = a0 | a1\n 23194: a1 = a3 | a4\n 23197: a1 = a1 | a0\n 23200: a1 = a1 >> 0x20\n 23203: a0 = a0 | a4\n 23206: a0 = a0 << 0x20\n 23209: a0 = a0 | a1\n 23212: jump @337 if a0 == 0\n      : @336 (gas: 1)\n 23215: jump @397\n      : @337 (gas: 6)\n 23218: s1 = a4\n 23220: i32 a0 = a3 + 0\n 23222: a1 = 0x20\n 23225: u64 [sp + 0x218] = a0\n 23229: u64 [sp + 0x200] = a3\n 23233: ra = 296, jump @0\n      : @338 [@dyn 148] (gas: 42)\n 23239: u64 [sp + 0xd0] = s1\n 23243: a2 = u64 [sp + 0x210]\n 23247: a2 = a2 | s1\n 23250: a1 = 0xfffffffc\n 23260: a3 = u64 [sp + 0x200]\n 23264: a1 = a3 <u a1\n 23267: a3 = u64 [sp + 0x208]\n 23271: a1 = 0 if a3 != 0\n 23273: a1 = 0 if a2 != 0\n 23275: u8 [a0 + 31] = 0\n 23278: u8 [a0 + 30] = 0\n 23281: u8 [a0 + 29] = 0\n 23284: u8 [a0 + 28] = 0\n 23287: u8 [a0 + 27] = 0\n 23290: u8 [a0 + 26] = 0\n 23293: u8 [a0 + 25] = 0\n 23296: u8 [a0 + 24] = 0\n 23299: u8 [a0 + 23] = 0\n 23302: u8 [a0 + 22] = 0\n 23305: u8 [a0 + 21] = 0\n 23308: u8 [a0 + 20] = 0\n 23311: u8 [a0 + 19] = 0\n 23314: u8 [a0 + 18] = 0\n 23317: u8 [a0 + 17] = 0\n 23320: u8 [a0 + 16] = 0\n 23323: u8 [a0 + 15] = 0\n 23326: u8 [a0 + 14] = 0\n 23329: u8 [a0 + 13] = 0\n 23332: u8 [a0 + 12] = 0\n 23335: u8 [a0 + 11] = 0\n 23338: u8 [a0 + 10] = 0\n 23341: u8 [a0 + 9] = 0\n 23344: u8 [a0 + 8] = 0\n 23347: u8 [a0 + 7] = 0\n 23350: u8 [a0 + 6] = 0\n 23353: u8 [a0 + 5] = 0\n 23356: u8 [a0 + 4] = 0\n 23359: u8 [a0 + 3] = 0x6e\n 23363: u8 [a0 + 2] = 0xbf\n 23368: u8 [a0 + 1] = 0x54\n 23372: u8 [a0 + 0] = 0x2f\n 23375: jump @340 if a1 != 0\n      : @339 (gas: 1)\n 23378: jump @397\n      : @340 (gas: 96)\n 23381: s1 = u64 [sp + 0x1e0]\n 23385: a0 = s1 >> 0x3d\n 23388: a3 = u64 [sp + 0x1f8]\n 23392: a1 = a3 << 0x3\n 23395: a0 = a0 | a1\n 23398: s1 = s1 << 0x3\n 23401: a1 = s1 <u 0x100\n 23405: a1 = a1 ^ 0x1\n 23408: a2 = a0 >u 0\n 23410: a1 = a2 if a0 != 0\n 23413: a0 = u64 [sp + 0x1e8]\n 23417: a0 = a0 << 0x3\n 23420: a4 = u64 [sp + 0x1f0]\n 23424: a2 = a4 >> 0x3d\n 23427: a0 = a0 | a2\n 23430: a2 = a3 >> 0x3d\n 23433: a3 = a4 << 0x3\n 23436: a2 = a2 | a3\n 23439: a3 = a2 >u 0\n 23441: s1 = a0 >u 0\n 23443: s1 = a3 if a0 == 0\n 23446: a0 = a0 | a2\n 23449: s1 = a1 if a0 == 0\n 23452: a0 = u64 [sp + 0xf8]\n 23456: a0 = a0 << 0x8\n 23459: a1 = u64 [sp + 0x118]\n 23463: a0 = a0 | a1\n 23466: a1 = u64 [sp + 0x108]\n 23470: a1 = a1 << 0x10\n 23473: a2 = u64 [sp + 0x100]\n 23477: a2 = a2 << 0x18\n 23480: a1 = a1 | a2\n 23483: a0 = a0 | a1\n 23486: a1 = u64 [sp + 0x110]\n 23490: a1 = a1 << 0x8\n 23493: a2 = u64 [sp + 0x130]\n 23497: a1 = a1 | a2\n 23500: a2 = u64 [sp + 0x128]\n 23504: a2 = a2 << 0x10\n 23507: a3 = u64 [sp + 0x120]\n 23511: a3 = a3 << 0x18\n 23514: a2 = a2 | a3\n 23517: a1 = a1 | a2\n 23520: a1 = a1 << 0x20\n 23523: a0 = a0 | a1\n 23526: u64 [sp + 0x1f8] = a0\n 23530: a0 = u64 [sp + 0x138]\n 23534: a0 = a0 << 0x8\n 23537: a1 = u64 [sp + 0x158]\n 23541: a0 = a0 | a1\n 23544: a1 = u64 [sp + 0x148]\n 23548: a1 = a1 << 0x10\n 23551: a2 = u64 [sp + 0x140]\n 23555: a2 = a2 << 0x18\n 23558: a1 = a1 | a2\n 23561: a0 = a0 | a1\n 23564: a1 = u64 [sp + 0x150]\n 23568: a1 = a1 << 0x8\n 23571: a2 = u64 [sp + 0x170]\n 23575: a1 = a1 | a2\n 23578: a2 = u64 [sp + 0x168]\n 23582: a2 = a2 << 0x10\n 23585: a3 = u64 [sp + 0x160]\n 23589: a3 = a3 << 0x18\n 23592: a2 = a2 | a3\n 23595: a1 = a1 | a2\n 23598: a1 = a1 << 0x20\n 23601: a0 = a0 | a1\n 23604: u64 [sp + 0x1f0] = a0\n 23608: a0 = u64 [sp + 0x178]\n 23612: a0 = a0 << 0x8\n 23615: a1 = u64 [sp + 0x1c0]\n 23619: a0 = a0 | a1\n 23622: a1 = u64 [sp + 0x188]\n 23626: a1 = a1 << 0x10\n 23629: a2 = u64 [sp + 0x180]\n 23633: a2 = a2 << 0x18\n 23636: a1 = a1 | a2\n 23639: a0 = a0 | a1\n 23642: a1 = u64 [sp + 0x190]\n 23646: a1 = a1 << 0x8\n 23649: a2 = u64 [sp + 0x1d8]\n 23653: a1 = a1 | a2\n 23656: a2 = u64 [sp + 0x1d0]\n 23660: a2 = a2 << 0x10\n 23663: a3 = u64 [sp + 0x1c8]\n 23667: a3 = a3 << 0x18\n 23670: a2 = a2 | a3\n 23673: a1 = a1 | a2\n 23676: a1 = a1 << 0x20\n 23679: a0 = a0 | a1\n 23682: u64 [sp + 0x1e8] = a0\n 23686: a0 = u64 [sp + 0x218]\n 23690: i32 a0 = a0 + 0x4\n 23693: a1 = 0x20\n 23696: ra = 298, jump @0\n      : @341 [@dyn 149] (gas: 84)\n 23702: a3 = u64 [sp + 0x80]\n 23706: u8 [a0 + 0x10] = a3\n 23709: a2 = u64 [sp + 0xa0]\n 23713: a1 = a2 >> 0x38\n 23716: u8 [a0 + 0xf] = a1\n 23719: a1 = a2 >> 0x30\n 23722: u8 [a0 + 0xe] = a1\n 23725: a1 = a2 >> 0x28\n 23728: u8 [a0 + 0xd] = a1\n 23731: a1 = a2 >> 0x20\n 23734: u8 [a0 + 0xc] = a1\n 23737: a1 = a2 >> 0x18\n 23740: u8 [a0 + 0xb] = a1\n 23743: a1 = a2 >> 0x10\n 23746: u8 [a0 + 0xa] = a1\n 23749: a1 = a2 >> 0x8\n 23752: u8 [a0 + 0x9] = a1\n 23755: u8 [a0 + 0x8] = a2\n 23758: u8 [a0 + 7] = 0\n 23761: u8 [a0 + 6] = 0\n 23764: u8 [a0 + 5] = 0\n 23767: u8 [a0 + 4] = 0\n 23770: u8 [a0 + 3] = 0\n 23773: u8 [a0 + 2] = 0\n 23776: u8 [a0 + 1] = 0\n 23779: u8 [a0 + 0] = 0\n 23781: a2 = u64 [sp + 0x88]\n 23785: u8 [a0 + 0x18] = a2\n 23788: a1 = a3 >> 0x38\n 23791: u8 [a0 + 0x17] = a1\n 23794: a1 = a3 >> 0x30\n 23797: u8 [a0 + 0x16] = a1\n 23800: a1 = a3 >> 0x28\n 23803: u8 [a0 + 0x15] = a1\n 23806: a1 = a3 >> 0x20\n 23809: u8 [a0 + 0x14] = a1\n 23812: a1 = a3 >> 0x18\n 23815: u8 [a0 + 0x13] = a1\n 23818: a1 = a3 >> 0x10\n 23821: u8 [a0 + 0x12] = a1\n 23824: a1 = a3 >> 0x8\n 23827: u8 [a0 + 0x11] = a1\n 23830: a1 = a2 >> 0x38\n 23833: u8 [a0 + 0x1f] = a1\n 23836: a1 = a2 >> 0x30\n 23839: u8 [a0 + 0x1e] = a1\n 23842: a1 = a2 >> 0x28\n 23845: u8 [a0 + 0x1d] = a1\n 23848: a1 = a2 >> 0x20\n 23851: u8 [a0 + 0x1c] = a1\n 23854: a1 = a2 >> 0x18\n 23857: u8 [a0 + 0x1b] = a1\n 23860: a1 = a2 >> 0x10\n 23863: u8 [a0 + 0x1a] = a1\n 23866: a1 = a2 >> 0x8\n 23869: u8 [a0 + 0x19] = a1\n 23872: ecalli 10 // 'ref_time_left'\n 23874: a3 = u64 [sp + 0x1e8]\n 23878: a3 = 0 if s1 != 0\n 23880: a2 = u64 [sp + 0x1f8]\n 23884: a2 = 0 if s1 != 0\n 23886: a0 = u64 [sp + 0x1f0]\n 23890: a0 = 0 if s1 != 0\n 23892: a0 = reverse a0\n 23894: a1 = a0 << 0x20\n 23897: a2 = reverse a2\n 23899: a2 = a2 >> 0x20\n 23902: a1 = a1 | a2\n 23905: a0 = a0 >> 0x20\n 23908: a2 = reverse a3\n 23910: a3 = a2 << 0x20\n 23913: a0 = a0 | a3\n 23916: a2 = a2 >> 0x20\n 23919: u32 [sp + 0x5f0] = a2\n 23923: u64 [sp + 0x5e8] = a0\n 23927: u64 [sp + 0x5e0] = a1\n 23931: u64 [sp + 1560] = 0\n 23935: u64 [sp + 1552] = 0\n 23939: u64 [sp + 1544] = 0\n 23943: u64 [sp + 1536] = 0\n 23947: a1 = 0x24\n 23950: s1 = u64 [sp + 0x218]\n 23954: a0 = s1\n 23956: ra = 300, jump @0\n      : @342 [@dyn 150] (gas: 4)\n 23962: u64 [sp + 0x1f8] = a0\n 23966: a1 = 0x20\n 23969: a0 = s1\n 23971: ra = 302, jump @0\n      : @343 [@dyn 151] (gas: 20)\n 23977: u32 [sp + 1568] = 0x20\n 23982: u64 [sp + 1624] = 0\n 23986: u64 [sp + 1616] = 0\n 23990: u64 [sp + 1608] = 0\n 23994: u64 [sp + 1600] = 0\n 23998: s1 = u64 [sp + 0x1f8]\n 24002: s1 = s1 << 0x20\n 24005: s1 = s1 >> 0x20\n 24008: a4 = u64 [sp + 0x198]\n 24012: a4 = a4 | s1\n 24015: a0 = a0 << 0x20\n 24018: a0 = a0 >> 0x20\n 24021: a5 = u64 [sp + 0x90]\n 24025: a5 = a5 | a0\n 24028: a1 = 0xffffffffffffffff\n 24031: a2 = 0xffffffffffffffff\n 24034: a0 = u64 [sp + 0x98]\n 24038: a3 = u64 [sp + 0xa8]\n 24042: ecalli 1 // 'call'\n 24044: fallthrough\n      : @344 (gas: 1)\n 24045: jump @346 if a0 == 0\n      : @345 (gas: 1)\n 24048: jump @398\n      : @346 (gas: 2)\n 24051: ecalli 12 // 'return_data_size'\n 24053: fallthrough\n      : @347 (gas: 2)\n 24054: a1 = 0x20\n 24057: jump @349 if a0 >=u a1\n      : @348 (gas: 3)\n 24060: ecalli 12 // 'return_data_size'\n 24062: a1 = a0\n 24064: fallthrough\n      : @349 (gas: 27)\n 24065: a3 = u64 [sp + 0x210]\n 24069: a4 = u64 [sp + 0x200]\n 24073: s1 = u64 [sp + 0x208]\n 24077: a0 = a1 + 0x1f\n 24080: u64 [sp + 0x208] = a1\n 24084: a1 = a0 <u a1\n 24087: u64 [sp + 528] = 0\n 24091: a1 = a1 & 0x1\n 24094: a0 = a0 & 0xffffffffffffffe0\n 24097: a4 = a4 + a0\n 24100: u64 [sp + 0x200] = a4\n 24104: a0 = a4 <u a0\n 24107: s1 = s1 + a1\n 24110: s1 = s1 + a0\n 24113: a2 = s1 ^ a1\n 24116: a1 = s1 <u a1\n 24119: a1 = a0 if a2 == 0\n 24122: a0 = u64 [sp + 0xd0]\n 24126: a1 = a1 + a0\n 24129: a0 = a1 <u a0\n 24132: a0 = a0 + a3\n 24135: u64 [sp + 0x1f8] = a1\n 24139: u64 [sp + 0x1f0] = a0\n 24143: a0 = a0 | a1\n 24146: a1 = s1 <u 0x1\n 24149: a1 = 0 if a0 != 0\n 24151: jump @351 if a1 != 0\n      : @350 (gas: 1)\n 24154: jump @401\n      : @351 (gas: 3)\n 24157: a0 = 0x40\n 24160: a1 = 0x20\n 24163: ra = 304, jump @0\n      : @352 [@dyn 152] (gas: 79)\n 24169: a1 = u64 [sp + 0x1f0]\n 24173: a1 = reverse a1\n 24175: a2 = u64 [sp + 0x1f8]\n 24179: a2 = reverse a2\n 24181: a3 = reverse s1\n 24183: a4 = u64 [sp + 0x200]\n 24187: a4 = reverse a4\n 24189: u8 [a0 + 0x18] = a4\n 24192: a5 = a4 >> 0x38\n 24195: u8 [a0 + 0x1f] = a5\n 24198: a5 = a4 >> 0x30\n 24201: u8 [a0 + 0x1e] = a5\n 24204: a5 = a4 >> 0x28\n 24207: u8 [a0 + 0x1d] = a5\n 24210: a5 = a4 >> 0x20\n 24213: u8 [a0 + 0x1c] = a5\n 24216: a5 = a4 >> 0x18\n 24219: u8 [a0 + 0x1b] = a5\n 24222: a5 = a4 >> 0x10\n 24225: u8 [a0 + 0x1a] = a5\n 24228: a4 = a4 >> 0x8\n 24231: u8 [a0 + 0x19] = a4\n 24234: u8 [a0 + 0x10] = a3\n 24237: a4 = a3 >> 0x38\n 24240: u8 [a0 + 0x17] = a4\n 24243: a4 = a3 >> 0x30\n 24246: u8 [a0 + 0x16] = a4\n 24249: a4 = a3 >> 0x28\n 24252: u8 [a0 + 0x15] = a4\n 24255: a4 = a3 >> 0x20\n 24258: u8 [a0 + 0x14] = a4\n 24261: a4 = a3 >> 0x18\n 24264: u8 [a0 + 0x13] = a4\n 24267: a4 = a3 >> 0x10\n 24270: u8 [a0 + 0x12] = a4\n 24273: a3 = a3 >> 0x8\n 24276: u8 [a0 + 0x11] = a3\n 24279: u8 [a0 + 0x8] = a2\n 24282: a3 = a2 >> 0x38\n 24285: u8 [a0 + 0xf] = a3\n 24288: a3 = a2 >> 0x30\n 24291: u8 [a0 + 0xe] = a3\n 24294: a3 = a2 >> 0x28\n 24297: u8 [a0 + 0xd] = a3\n 24300: a3 = a2 >> 0x20\n 24303: u8 [a0 + 0xc] = a3\n 24306: a3 = a2 >> 0x18\n 24309: u8 [a0 + 0xb] = a3\n 24312: a3 = a2 >> 0x10\n 24315: u8 [a0 + 0xa] = a3\n 24318: a2 = a2 >> 0x8\n 24321: u8 [a0 + 0x9] = a2\n 24324: u8 [a0] = a1\n 24326: a2 = a1 >> 0x38\n 24329: u8 [a0 + 0x7] = a2\n 24332: a2 = a1 >> 0x30\n 24335: u8 [a0 + 0x6] = a2\n 24338: a2 = a1 >> 0x28\n 24341: u8 [a0 + 0x5] = a2\n 24344: a2 = a1 >> 0x20\n 24347: u8 [a0 + 0x4] = a2\n 24350: a2 = a1 >> 0x18\n 24353: u8 [a0 + 0x3] = a2\n 24356: a2 = a1 >> 0x10\n 24359: u8 [a0 + 0x2] = a2\n 24362: a1 = a1 >> 0x8\n 24365: a5 = u64 [sp + 0x210]\n 24369: a2 = a5 >u 0\n 24371: a3 = u64 [sp + 0x208]\n 24375: a3 = a3 <u 0x20\n 24378: a3 = a3 ^ 0x1\n 24381: a3 = a2 if a5 != 0\n 24384: a2 = a5 >u 0\n 24386: a4 = a5 >u 0\n 24388: a4 = a2 if a5 == 0\n 24391: a2 = a5 | a5\n 24394: a4 = a3 if a2 == 0\n 24397: u8 [a0 + 0x1] = a1\n 24400: jump @354 if a4 != 0\n      : @353 (gas: 1)\n 24403: jump @399\n      : @354 (gas: 3)\n 24406: a1 = 0x20\n 24409: a0 = u64 [sp + 0x218]\n 24413: ra = 306, jump @0\n      : @355 [@dyn 153] (gas: 96)\n 24419: a1 = u8 [a0 + 0x9]\n 24422: a2 = u8 [a0 + 0x8]\n 24425: a3 = u8 [a0 + 0xa]\n 24428: a4 = u8 [a0 + 0xb]\n 24431: a1 = a1 << 0x8\n 24434: a1 = a1 | a2\n 24437: a3 = a3 << 0x10\n 24440: a4 = a4 << 0x18\n 24443: a3 = a3 | a4\n 24446: a1 = a1 | a3\n 24449: a2 = u8 [a0 + 0xd]\n 24452: a3 = u8 [a0 + 0xc]\n 24455: a4 = u8 [a0 + 0xe]\n 24458: a5 = u8 [a0 + 0xf]\n 24461: a2 = a2 << 0x8\n 24464: a2 = a2 | a3\n 24467: a4 = a4 << 0x10\n 24470: a5 = a5 << 0x18\n 24473: a4 = a4 | a5\n 24476: a2 = a2 | a4\n 24479: a2 = a2 << 0x20\n 24482: t0 = a2 | a1\n 24485: a2 = u8 [a0 + 0x1]\n 24488: a3 = u8 [a0]\n 24490: a4 = u8 [a0 + 0x2]\n 24493: a5 = u8 [a0 + 0x3]\n 24496: a2 = a2 << 0x8\n 24499: a2 = a2 | a3\n 24502: a4 = a4 << 0x10\n 24505: a5 = a5 << 0x18\n 24508: a4 = a4 | a5\n 24511: a2 = a2 | a4\n 24514: a3 = u8 [a0 + 0x5]\n 24517: a4 = u8 [a0 + 0x4]\n 24520: a5 = u8 [a0 + 0x6]\n 24523: s1 = u8 [a0 + 0x7]\n 24526: a3 = a3 << 0x8\n 24529: a3 = a3 | a4\n 24532: a5 = a5 << 0x10\n 24535: s1 = s1 << 0x18\n 24538: a5 = a5 | s1\n 24541: a3 = a3 | a5\n 24544: a3 = a3 << 0x20\n 24547: a2 = a2 | a3\n 24550: a3 = u8 [a0 + 0x19]\n 24553: a4 = u8 [a0 + 0x18]\n 24556: a5 = u8 [a0 + 0x1a]\n 24559: s1 = u8 [a0 + 0x1b]\n 24562: a3 = a3 << 0x8\n 24565: a3 = a3 | a4\n 24568: a5 = a5 << 0x10\n 24571: s1 = s1 << 0x18\n 24574: a5 = a5 | s1\n 24577: a3 = a3 | a5\n 24580: a4 = u8 [a0 + 0x1d]\n 24583: a5 = u8 [a0 + 0x1c]\n 24586: s1 = u8 [a0 + 0x1e]\n 24589: a1 = u8 [a0 + 0x1f]\n 24592: a4 = a4 << 0x8\n 24595: a4 = a4 | a5\n 24598: s1 = s1 << 0x10\n 24601: a1 = a1 << 0x18\n 24604: a1 = a1 | s1\n 24607: a1 = a1 | a4\n 24610: a1 = a1 << 0x20\n 24613: a3 = a3 | a1\n 24616: a1 = u8 [a0 + 0x11]\n 24619: a4 = u8 [a0 + 0x10]\n 24622: a5 = u8 [a0 + 0x12]\n 24625: s1 = u8 [a0 + 0x13]\n 24628: a1 = a1 << 0x8\n 24631: a1 = a1 | a4\n 24634: a5 = a5 << 0x10\n 24637: s1 = s1 << 0x18\n 24640: a5 = a5 | s1\n 24643: a1 = a1 | a5\n 24646: a4 = u8 [a0 + 0x15]\n 24649: a5 = u8 [a0 + 0x14]\n 24652: s1 = u8 [a0 + 0x16]\n 24655: a0 = u8 [a0 + 0x17]\n 24658: a4 = a4 << 0x8\n 24661: a4 = a4 | a5\n 24664: s1 = s1 << 0x10\n 24667: a0 = a0 << 0x18\n 24670: a0 = a0 | s1\n 24673: a0 = a0 | a4\n 24676: a0 = a0 << 0x20\n 24679: a0 = a0 | a1\n 24682: a1 = reverse a0\n 24684: a4 = reverse a3\n 24686: a4 = a4 <u 0x2\n 24689: a4 = 0 if a1 != 0\n 24691: a1 = t0 | a2\n 24694: a1 = reverse a1\n 24696: a4 = 0 if a1 != 0\n 24698: jump @357 if a4 != 0\n      : @356 (gas: 1)\n 24701: jump @399\n      : @357 (gas: 5)\n 24704: a0 = a0 | a2\n 24707: a1 = t0 | a3\n 24710: a0 = a0 | a1\n 24713: t1 = u64 [sp + 0xe0]\n 24717: jump @331 if a0 == 0\n      : @358 (gas: 18)\n 24721: a4 = u64 [sp + 0xc0]\n 24725: a4 = a4 + 0x1\n 24728: a0 = a4 <u 0x1\n 24731: s1 = u64 [sp + 0xb8]\n 24735: s1 = s1 + a0\n 24738: a0 = a4 | s1\n 24741: a0 = a0 <u 0x1\n 24744: a1 = u64 [sp + 0xb0]\n 24748: a0 = a0 + a1\n 24751: a1 = a0 <u a1\n 24754: a3 = u64 [sp + 0xc8]\n 24758: a3 = a3 + a1\n 24761: a1 = s1 | a3\n 24764: a2 = a4 | a0\n 24767: a1 = a1 | a2\n 24770: a5 = u64 [sp + 0xf0]\n 24774: a2 = u64 [sp + 0xe8]\n 24778: jump @360 if a1 != 0\n      : @359 (gas: 1)\n 24781: jump @405\n      : @360 (gas: 5)\n 24784: u64 [sp + 0xb8] = s1\n 24788: u64 [sp + 0xc0] = a4\n 24792: u64 [sp + 0xc8] = a3\n 24796: u64 [sp + 0xb0] = a0\n 24800: jump @332\n      : @361 (gas: 11)\n 24803: a0 = u64 [sp + 0xc0]\n 24807: u64 [sp + 0x4a0] = a0\n 24811: a0 = u64 [sp + 0xb8]\n 24815: u64 [sp + 0x4a8] = a0\n 24819: a0 = u64 [sp + 0xb0]\n 24823: u64 [sp + 0x4b0] = a0\n 24827: a0 = sp + 0x4c0\n 24831: a1 = sp + 0x4a0\n 24835: a2 = u64 [sp + 0xc8]\n 24839: u64 [sp + 0x4b8] = a2\n 24843: ra = 308, jump @304\n      : @362 [@dyn 154] (gas: 62)\n 24849: s1 = 0\n 24851: t0 = 0\n 24853: a5 = 0\n 24855: t1 = 0\n 24857: u64 [sp + 464] = 0\n 24861: u64 [sp + 456] = 0\n 24865: t2 = 0\n 24867: u64 [sp + 448] = 0\n 24871: a0 = sp + 0x660\n 24875: a0 = a0 << 0x20\n 24878: a0 = a0 >> 0x20\n 24881: a1 = u64 [sp + 0x60]\n 24884: a0 = a0 | a1\n 24887: u64 [sp + 0xa0] = a0\n 24891: a0 = sp + 0x680\n 24895: a0 = a0 << 0x20\n 24898: a0 = a0 >> 0x20\n 24901: a4 = u64 [sp + 0x4c0]\n 24905: a1 = sp + 0x6c0\n 24909: a1 = a1 << 0x20\n 24912: a2 = u64 [sp + 0x4c8]\n 24916: a0 = a0 | a1\n 24919: u64 [sp + 0x98] = a0\n 24923: a0 = a4 + 0x20\n 24926: u64 [sp + 0x48] = a0\n 24929: a0 = a0 <u a4\n 24932: a1 = a2 + a0\n 24935: u64 [sp + 0x60] = a2\n 24938: u64 [sp + 0x40] = a1\n 24941: a1 = a1 <u a2\n 24944: a1 = a0 if a0 == 0\n 24947: a0 = u64 [sp + 0x70]\n 24950: a2 = u64 [sp + 0x58]\n 24953: a0 = a0 & a2\n 24956: a2 = u64 [sp + 0x68]\n 24959: a2 = a2 & 0xffffffffffffffff\n 24962: a3 = u64 [sp + 0x78]\n 24965: a3 = a3 & 0xffffffffffffffff\n 24968: a3 = reverse a3\n 24970: u64 [sp + 0x90] = a3\n 24974: a2 = reverse a2\n 24976: u64 [sp + 0x88] = a2\n 24980: a0 = reverse a0\n 24982: u64 [sp + 0x80] = a0\n 24986: a3 = u64 [sp + 0x4d0]\n 24990: a2 = u64 [sp + 0x4d8]\n 24994: a0 = sp + 0x6a0\n 24998: a0 = a0 << 0x20\n 25001: u64 [sp + 0x78] = a0\n 25004: a1 = a1 + a3\n 25007: u64 [sp + 0x50] = a3\n 25010: u64 [sp + 0x38] = a1\n 25013: a0 = a1 <u a3\n 25016: u64 [sp + 0x58] = a2\n 25019: a0 = a0 + a2\n 25022: u64 [sp + 0x30] = a0\n 25025: a0 = 0xfffffffc\n 25035: u64 [sp + 0xa8] = a0\n 25039: u64 [sp + 0x68] = a4\n 25042: i32 a4 = a4 + 0\n 25044: u64 [sp + 0x28] = a4\n 25047: jump @366\n      : @363 (gas: 4)\n 25049: s1 = u64 [sp + 0x1f8]\n 25053: t0 = u64 [sp + 0x1f0]\n 25057: t2 = u64 [sp + 0x1d8]\n 25061: fallthrough\n      : @364 (gas: 25)\n 25062: s1 = s1 + 0x1\n 25065: a0 = s1 <u 0x1\n 25068: t0 = t0 + a0\n 25071: a0 = s1 | t0\n 25074: a0 = a0 <u 0x1\n 25077: a0 = a0 + a4\n 25080: a1 = a0 <u a4\n 25083: t1 = t1 + a1\n 25086: a1 = u64 [sp + 0x1a0]\n 25090: a1 = s1 <u a1\n 25093: a3 = u64 [sp + 0x1a8]\n 25097: a2 = t0 ^ a3\n 25100: a3 = t0 <u a3\n 25103: a3 = a1 if a2 == 0\n 25106: a5 = u64 [sp + 0x1b0]\n 25110: a1 = a0 <u a5\n 25113: a4 = u64 [sp + 0x1b8]\n 25117: a2 = t1 ^ a4\n 25120: a4 = t1 <u a4\n 25123: a4 = a1 if a2 == 0\n 25126: a1 = a0 ^ a5\n 25129: a1 = a1 | a2\n 25132: a4 = a3 if a1 == 0\n 25135: a5 = a0\n 25137: jump @366 if a4 != 0\n      : @365 (gas: 1)\n 25140: jump @393\n      : @366 (gas: 17)\n 25143: u64 [sp + 0x1d8] = t2\n 25147: u64 [sp + 0x1f8] = s1\n 25151: u64 [sp + 0x420] = s1\n 25155: u64 [sp + 1112] = 0\n 25159: u64 [sp + 1104] = 0\n 25163: u64 [sp + 1096] = 0\n 25167: u64 [sp + 1088] = 0\n 25171: u64 [sp + 0x1f0] = t0\n 25175: u64 [sp + 0x428] = t0\n 25179: u64 [sp + 0x1e0] = a5\n 25183: u64 [sp + 0x430] = a5\n 25187: a0 = sp + 0x460\n 25191: a1 = sp + 0x440\n 25195: a2 = sp + 0x420\n 25199: u64 [sp + 0x1e8] = t1\n 25203: u64 [sp + 0x438] = t1\n 25207: ra = 310, jump @90\n      : @367 [@dyn 155] (gas: 177)\n 25213: s1 = u64 [sp + 0x480]\n 25217: a0 = u64 [sp + 0x488]\n 25221: u64 [sp + 0x190] = a0\n 25225: a0 = u64 [sp + 0x498]\n 25229: u64 [sp + 0x180] = a0\n 25233: a0 = u64 [sp + 0x490]\n 25237: u64 [sp + 0x188] = a0\n 25241: a0 = u64 [sp + 0x478]\n 25245: a1 = u64 [sp + 0x470]\n 25249: a2 = u64 [sp + 0x468]\n 25253: a3 = u64 [sp + 0x460]\n 25257: u64 [sp + 0x6f8] = a0\n 25261: u64 [sp + 0x6f0] = a1\n 25265: u64 [sp + 0x6e8] = a2\n 25269: u64 [sp + 0x6e0] = a3\n 25273: u64 [sp + 1816] = 0\n 25277: u64 [sp + 1808] = 0\n 25281: u64 [sp + 1800] = 0\n 25285: u64 [sp + 1792] = 0\n 25289: u32 [sp + 1824] = 0x20\n 25294: i32 a1 = sp + 0x6e0\n 25298: i32 a3 = sp + 0x700\n 25302: i32 a4 = sp + 0x720\n 25306: a2 = 0xffffffffffffffff\n 25309: a0 = 0\n 25311: ecalli 7 // 'get_storage'\n 25313: a0 = u64 [sp + 0x700]\n 25317: a1 = u64 [sp + 0x708]\n 25321: a2 = u64 [sp + 0x710]\n 25325: a3 = u64 [sp + 0x718]\n 25329: u8 [sp + 1055] = 0\n 25333: u8 [sp + 1054] = 0\n 25337: u8 [sp + 1053] = 0\n 25341: u8 [sp + 1052] = 0\n 25345: u8 [sp + 1051] = 0\n 25349: u8 [sp + 1050] = 0\n 25353: u8 [sp + 1049] = 0\n 25357: u8 [sp + 1048] = 0\n 25361: u8 [sp + 1047] = 0\n 25365: u8 [sp + 1046] = 0\n 25369: u8 [sp + 1045] = 0\n 25373: u8 [sp + 1044] = 0\n 25377: u8 [sp + 1043] = 0\n 25381: u8 [sp + 1042] = 0\n 25385: u8 [sp + 1041] = 0\n 25389: u8 [sp + 1040] = 0\n 25393: u8 [sp + 1039] = 0\n 25397: u8 [sp + 1038] = 0\n 25401: u8 [sp + 1037] = 0\n 25405: u8 [sp + 1036] = 0\n 25409: u8 [sp + 1035] = 0\n 25413: u8 [sp + 1034] = 0\n 25417: u8 [sp + 1033] = 0\n 25421: u8 [sp + 1032] = 0\n 25425: u8 [sp + 1031] = 0\n 25429: u8 [sp + 1030] = 0\n 25433: u8 [sp + 1029] = 0\n 25437: u8 [sp + 1028] = 0\n 25441: u8 [sp + 1027] = 0\n 25445: u8 [sp + 1026] = 0\n 25449: u8 [sp + 1025] = 0\n 25453: u8 [sp + 1024] = 0\n 25457: u8 [sp + 0x3f8] = a3\n 25461: u8 [sp + 0x3f0] = a2\n 25465: u8 [sp + 0x3e8] = a1\n 25469: u8 [sp + 0x3e0] = a0\n 25473: a4 = a3 >> 0x38\n 25476: u8 [sp + 0x3ff] = a4\n 25480: a4 = a3 >> 0x30\n 25483: u8 [sp + 0x3fe] = a4\n 25487: a4 = a3 >> 0x28\n 25490: u8 [sp + 0x3fd] = a4\n 25494: a4 = a3 >> 0x20\n 25497: u8 [sp + 0x3fc] = a4\n 25501: a4 = a3 >> 0x18\n 25504: u8 [sp + 0x3fb] = a4\n 25508: a4 = a3 >> 0x10\n 25511: u8 [sp + 0x3fa] = a4\n 25515: a3 = a3 >> 0x8\n 25518: u8 [sp + 0x3f9] = a3\n 25522: a3 = a2 >> 0x38\n 25525: u8 [sp + 0x3f7] = a3\n 25529: a3 = a2 >> 0x30\n 25532: u8 [sp + 0x3f6] = a3\n 25536: a3 = a2 >> 0x28\n 25539: u8 [sp + 0x3f5] = a3\n 25543: a3 = a2 >> 0x20\n 25546: u8 [sp + 0x3f4] = a3\n 25550: a3 = a2 >> 0x18\n 25553: u8 [sp + 0x3f3] = a3\n 25557: a3 = a2 >> 0x10\n 25560: u8 [sp + 0x3f2] = a3\n 25564: a2 = a2 >> 0x8\n 25567: u8 [sp + 0x3f1] = a2\n 25571: a2 = a1 >> 0x38\n 25574: u8 [sp + 0x3ef] = a2\n 25578: a2 = a1 >> 0x30\n 25581: u8 [sp + 0x3ee] = a2\n 25585: a2 = a1 >> 0x28\n 25588: u8 [sp + 0x3ed] = a2\n 25592: a2 = a1 >> 0x20\n 25595: u8 [sp + 0x3ec] = a2\n 25599: a2 = a1 >> 0x18\n 25602: u8 [sp + 0x3eb] = a2\n 25606: a2 = a1 >> 0x10\n 25609: u8 [sp + 0x3ea] = a2\n 25613: a1 = a1 >> 0x8\n 25616: u8 [sp + 0x3e9] = a1\n 25620: a1 = a0 >> 0x38\n 25623: u8 [sp + 0x3e7] = a1\n 25627: a1 = a0 >> 0x30\n 25630: u8 [sp + 0x3e6] = a1\n 25634: a1 = a0 >> 0x28\n 25637: u8 [sp + 0x3e5] = a1\n 25641: a1 = a0 >> 0x20\n 25644: u8 [sp + 0x3e4] = a1\n 25648: a1 = a0 >> 0x18\n 25651: u8 [sp + 0x3e3] = a1\n 25655: a1 = a0 >> 0x10\n 25658: u8 [sp + 0x3e2] = a1\n 25662: a0 = a0 >> 0x8\n 25665: u8 [sp + 0x3e1] = a0\n 25669: u64 [sp + 0x178] = s1\n 25673: a0 = s1 & 0x1f\n 25676: a1 = sp + 0x3e0\n 25680: a0 = a0 + a1\n 25683: a1 = u8 [a0 + 0x10]\n 25686: u64 [sp + 0xd8] = a1\n 25690: a1 = u8 [a0 + 0x11]\n 25693: u64 [sp + 0xb8] = a1\n 25697: a1 = u8 [a0 + 0x12]\n 25700: u64 [sp + 0xc8] = a1\n 25704: a1 = u8 [a0 + 0x13]\n 25707: u64 [sp + 0xc0] = a1\n 25711: a1 = u8 [a0 + 0x14]\n 25714: u64 [sp + 0xf0] = a1\n 25718: a1 = u8 [a0 + 0x15]\n 25721: u64 [sp + 0xd0] = a1\n 25725: a1 = u8 [a0 + 0x16]\n 25728: u64 [sp + 0xe8] = a1\n 25732: a1 = u8 [a0 + 0x17]\n 25735: u64 [sp + 0xe0] = a1\n 25739: a1 = u8 [a0 + 0x8]\n 25742: u64 [sp + 0x118] = a1\n 25746: a1 = u8 [a0 + 0x9]\n 25749: u64 [sp + 0xf8] = a1\n 25753: a1 = u8 [a0 + 0xa]\n 25756: u64 [sp + 0x108] = a1\n 25760: a1 = u8 [a0 + 0xb]\n 25763: u64 [sp + 0x100] = a1\n 25767: a1 = u8 [a0 + 0xc]\n 25770: u64 [sp + 0x130] = a1\n 25774: a1 = u8 [a0 + 0xd]\n 25777: u64 [sp + 0x110] = a1\n 25781: a1 = u8 [a0 + 0xe]\n 25784: u64 [sp + 0x128] = a1\n 25788: a1 = u8 [a0 + 0xf]\n 25791: u64 [sp + 0x120] = a1\n 25795: a1 = u8 [a0]\n 25797: u64 [sp + 0x158] = a1\n 25801: a1 = u8 [a0 + 0x1]\n 25804: u64 [sp + 0x138] = a1\n 25808: a1 = u8 [a0 + 0x2]\n 25811: u64 [sp + 0x148] = a1\n 25815: a1 = u8 [a0 + 0x3]\n 25818: u64 [sp + 0x140] = a1\n 25822: a1 = u8 [a0 + 0x4]\n 25825: u64 [sp + 0x170] = a1\n 25829: a1 = u8 [a0 + 0x5]\n 25832: u64 [sp + 0x150] = a1\n 25836: a1 = u8 [a0 + 0x6]\n 25839: u64 [sp + 0x168] = a1\n 25843: a0 = u8 [a0 + 0x7]\n 25846: u64 [sp + 0x160] = a0\n 25850: a0 = 0x40\n 25853: a1 = 0x20\n 25856: ra = 312, jump @0\n      : @368 [@dyn 156] (gas: 102)\n 25862: a1 = u8 [a0 + 0x11]\n 25865: a2 = u8 [a0 + 0x10]\n 25868: a3 = u8 [a0 + 0x12]\n 25871: a4 = u8 [a0 + 0x13]\n 25874: a1 = a1 << 0x8\n 25877: a1 = a1 | a2\n 25880: a3 = a3 << 0x10\n 25883: a4 = a4 << 0x18\n 25886: a3 = a3 | a4\n 25889: a1 = a1 | a3\n 25892: a2 = u8 [a0 + 0x15]\n 25895: a3 = u8 [a0 + 0x14]\n 25898: a4 = u8 [a0 + 0x16]\n 25901: a5 = u8 [a0 + 0x17]\n 25904: a2 = a2 << 0x8\n 25907: a2 = a2 | a3\n 25910: a4 = a4 << 0x10\n 25913: a5 = a5 << 0x18\n 25916: a4 = a4 | a5\n 25919: a2 = a2 | a4\n 25922: a2 = a2 << 0x20\n 25925: t0 = a2 | a1\n 25928: a2 = u8 [a0 + 0x1]\n 25931: a3 = u8 [a0]\n 25933: a4 = u8 [a0 + 0x2]\n 25936: a5 = u8 [a0 + 0x3]\n 25939: a2 = a2 << 0x8\n 25942: a2 = a2 | a3\n 25945: a4 = a4 << 0x10\n 25948: a5 = a5 << 0x18\n 25951: a4 = a4 | a5\n 25954: a2 = a2 | a4\n 25957: a3 = u8 [a0 + 0x5]\n 25960: a4 = u8 [a0 + 0x4]\n 25963: a5 = u8 [a0 + 0x6]\n 25966: s1 = u8 [a0 + 0x7]\n 25969: a3 = a3 << 0x8\n 25972: a3 = a3 | a4\n 25975: a5 = a5 << 0x10\n 25978: s1 = s1 << 0x18\n 25981: a5 = a5 | s1\n 25984: a3 = a3 | a5\n 25987: a3 = a3 << 0x20\n 25990: a2 = a2 | a3\n 25993: a3 = u8 [a0 + 0x19]\n 25996: a4 = u8 [a0 + 0x18]\n 25999: a5 = u8 [a0 + 0x1a]\n 26002: s1 = u8 [a0 + 0x1b]\n 26005: a3 = a3 << 0x8\n 26008: a3 = a3 | a4\n 26011: a5 = a5 << 0x10\n 26014: s1 = s1 << 0x18\n 26017: a5 = a5 | s1\n 26020: a3 = a3 | a5\n 26023: a4 = u8 [a0 + 0x1d]\n 26026: a5 = u8 [a0 + 0x1c]\n 26029: s1 = u8 [a0 + 0x1e]\n 26032: a1 = u8 [a0 + 0x1f]\n 26035: a4 = a4 << 0x8\n 26038: a4 = a4 | a5\n 26041: s1 = s1 << 0x10\n 26044: a1 = a1 << 0x18\n 26047: a1 = a1 | s1\n 26050: a1 = a1 | a4\n 26053: a1 = a1 << 0x20\n 26056: a3 = a3 | a1\n 26059: a1 = u8 [a0 + 0x9]\n 26062: a4 = u8 [a0 + 0x8]\n 26065: a5 = u8 [a0 + 0xa]\n 26068: s1 = u8 [a0 + 0xb]\n 26071: a1 = a1 << 0x8\n 26074: a1 = a1 | a4\n 26077: a5 = a5 << 0x10\n 26080: s1 = s1 << 0x18\n 26083: a5 = a5 | s1\n 26086: a1 = a1 | a5\n 26089: a4 = u8 [a0 + 0xd]\n 26092: a5 = u8 [a0 + 0xc]\n 26095: s1 = u8 [a0 + 0xe]\n 26098: a0 = u8 [a0 + 0xf]\n 26101: a4 = a4 << 0x8\n 26104: a4 = a4 | a5\n 26107: s1 = s1 << 0x10\n 26110: a0 = a0 << 0x18\n 26113: a0 = a0 | s1\n 26116: a0 = a0 | a4\n 26119: a0 = a0 << 0x20\n 26122: a0 = a0 | a1\n 26125: a4 = reverse a0\n 26127: a3 = reverse a3\n 26129: a1 = reverse a2\n 26131: a0 = reverse t0\n 26133: u64 [sp + 0x208] = a0\n 26137: u64 [sp + 0x210] = a1\n 26141: a0 = a0 | a1\n 26144: a1 = a3 | a4\n 26147: a1 = a1 | a0\n 26150: a1 = a1 >> 0x20\n 26153: a0 = a0 | a4\n 26156: a0 = a0 << 0x20\n 26159: a0 = a0 | a1\n 26162: jump @397 if a0 != 0\n      : @369 (gas: 6)\n 26166: s1 = a4\n 26168: i32 a0 = a3 + 0\n 26170: a1 = 0x20\n 26173: u64 [sp + 0x218] = a0\n 26177: u64 [sp + 0x200] = a3\n 26181: ra = 314, jump @0\n      : @370 [@dyn 157] (gas: 42)\n 26187: u64 [sp + 0xb0] = s1\n 26191: a2 = u64 [sp + 0x210]\n 26195: a2 = a2 | s1\n 26198: a1 = u64 [sp + 0xa8]\n 26202: a3 = u64 [sp + 0x200]\n 26206: a1 = a3 <u a1\n 26209: a3 = u64 [sp + 0x208]\n 26213: a1 = 0 if a3 != 0\n 26215: a1 = 0 if a2 != 0\n 26217: u8 [a0 + 31] = 0\n 26220: u8 [a0 + 30] = 0\n 26223: u8 [a0 + 29] = 0\n 26226: u8 [a0 + 28] = 0\n 26229: u8 [a0 + 27] = 0\n 26232: u8 [a0 + 26] = 0\n 26235: u8 [a0 + 25] = 0\n 26238: u8 [a0 + 24] = 0\n 26241: u8 [a0 + 23] = 0\n 26244: u8 [a0 + 22] = 0\n 26247: u8 [a0 + 21] = 0\n 26250: u8 [a0 + 20] = 0\n 26253: u8 [a0 + 19] = 0\n 26256: u8 [a0 + 18] = 0\n 26259: u8 [a0 + 17] = 0\n 26262: u8 [a0 + 16] = 0\n 26265: u8 [a0 + 15] = 0\n 26268: u8 [a0 + 14] = 0\n 26271: u8 [a0 + 13] = 0\n 26274: u8 [a0 + 12] = 0\n 26277: u8 [a0 + 11] = 0\n 26280: u8 [a0 + 10] = 0\n 26283: u8 [a0 + 9] = 0\n 26286: u8 [a0 + 8] = 0\n 26289: u8 [a0 + 7] = 0\n 26292: u8 [a0 + 6] = 0\n 26295: u8 [a0 + 5] = 0\n 26298: u8 [a0 + 4] = 0\n 26301: u8 [a0 + 3] = 0x6e\n 26305: u8 [a0 + 2] = 0xbf\n 26310: u8 [a0 + 1] = 0x54\n 26314: u8 [a0 + 0] = 0x2f\n 26317: jump @397 if a1 == 0\n      : @371 (gas: 96)\n 26321: s1 = u64 [sp + 0x178]\n 26325: a0 = s1 >> 0x3d\n 26328: a3 = u64 [sp + 0x190]\n 26332: a1 = a3 << 0x3\n 26335: a0 = a0 | a1\n 26338: s1 = s1 << 0x3\n 26341: a1 = s1 <u 0x100\n 26345: a1 = a1 ^ 0x1\n 26348: a2 = a0 >u 0\n 26350: a1 = a2 if a0 != 0\n 26353: a0 = u64 [sp + 0x180]\n 26357: a0 = a0 << 0x3\n 26360: a4 = u64 [sp + 0x188]\n 26364: a2 = a4 >> 0x3d\n 26367: a0 = a0 | a2\n 26370: a2 = a3 >> 0x3d\n 26373: a3 = a4 << 0x3\n 26376: a2 = a2 | a3\n 26379: a3 = a2 >u 0\n 26381: s1 = a0 >u 0\n 26383: s1 = a3 if a0 == 0\n 26386: a0 = a0 | a2\n 26389: s1 = a1 if a0 == 0\n 26392: a0 = u64 [sp + 0xb8]\n 26396: a0 = a0 << 0x8\n 26399: a1 = u64 [sp + 0xd8]\n 26403: a0 = a0 | a1\n 26406: a1 = u64 [sp + 0xc8]\n 26410: a1 = a1 << 0x10\n 26413: a2 = u64 [sp + 0xc0]\n 26417: a2 = a2 << 0x18\n 26420: a1 = a1 | a2\n 26423: a0 = a0 | a1\n 26426: a1 = u64 [sp + 0xd0]\n 26430: a1 = a1 << 0x8\n 26433: a2 = u64 [sp + 0xf0]\n 26437: a1 = a1 | a2\n 26440: a2 = u64 [sp + 0xe8]\n 26444: a2 = a2 << 0x10\n 26447: a3 = u64 [sp + 0xe0]\n 26451: a3 = a3 << 0x18\n 26454: a2 = a2 | a3\n 26457: a1 = a1 | a2\n 26460: a1 = a1 << 0x20\n 26463: a0 = a0 | a1\n 26466: u64 [sp + 0x190] = a0\n 26470: a0 = u64 [sp + 0xf8]\n 26474: a0 = a0 << 0x8\n 26477: a1 = u64 [sp + 0x118]\n 26481: a0 = a0 | a1\n 26484: a1 = u64 [sp + 0x108]\n 26488: a1 = a1 << 0x10\n 26491: a2 = u64 [sp + 0x100]\n 26495: a2 = a2 << 0x18\n 26498: a1 = a1 | a2\n 26501: a0 = a0 | a1\n 26504: a1 = u64 [sp + 0x110]\n 26508: a1 = a1 << 0x8\n 26511: a2 = u64 [sp + 0x130]\n 26515: a1 = a1 | a2\n 26518: a2 = u64 [sp + 0x128]\n 26522: a2 = a2 << 0x10\n 26525: a3 = u64 [sp + 0x120]\n 26529: a3 = a3 << 0x18\n 26532: a2 = a2 | a3\n 26535: a1 = a1 | a2\n 26538: a1 = a1 << 0x20\n 26541: a0 = a0 | a1\n 26544: u64 [sp + 0x188] = a0\n 26548: a0 = u64 [sp + 0x138]\n 26552: a0 = a0 << 0x8\n 26555: a1 = u64 [sp + 0x158]\n 26559: a0 = a0 | a1\n 26562: a1 = u64 [sp + 0x148]\n 26566: a1 = a1 << 0x10\n 26569: a2 = u64 [sp + 0x140]\n 26573: a2 = a2 << 0x18\n 26576: a1 = a1 | a2\n 26579: a0 = a0 | a1\n 26582: a1 = u64 [sp + 0x150]\n 26586: a1 = a1 << 0x8\n 26589: a2 = u64 [sp + 0x170]\n 26593: a1 = a1 | a2\n 26596: a2 = u64 [sp + 0x168]\n 26600: a2 = a2 << 0x10\n 26603: a3 = u64 [sp + 0x160]\n 26607: a3 = a3 << 0x18\n 26610: a2 = a2 | a3\n 26613: a1 = a1 | a2\n 26616: a1 = a1 << 0x20\n 26619: a0 = a0 | a1\n 26622: u64 [sp + 0x180] = a0\n 26626: a0 = u64 [sp + 0x218]\n 26630: i32 a0 = a0 + 0x4\n 26633: a1 = 0x20\n 26636: ra = 316, jump @0\n      : @372 [@dyn 158] (gas: 84)\n 26642: a3 = u64 [sp + 0x88]\n 26646: u8 [a0 + 0x10] = a3\n 26649: a2 = u64 [sp + 0x80]\n 26653: a1 = a2 >> 0x38\n 26656: u8 [a0 + 0xf] = a1\n 26659: a1 = a2 >> 0x30\n 26662: u8 [a0 + 0xe] = a1\n 26665: a1 = a2 >> 0x28\n 26668: u8 [a0 + 0xd] = a1\n 26671: a1 = a2 >> 0x20\n 26674: u8 [a0 + 0xc] = a1\n 26677: a1 = a2 >> 0x18\n 26680: u8 [a0 + 0xb] = a1\n 26683: a1 = a2 >> 0x10\n 26686: u8 [a0 + 0xa] = a1\n 26689: a1 = a2 >> 0x8\n 26692: u8 [a0 + 0x9] = a1\n 26695: u8 [a0 + 0x8] = a2\n 26698: u8 [a0 + 7] = 0\n 26701: u8 [a0 + 6] = 0\n 26704: u8 [a0 + 5] = 0\n 26707: u8 [a0 + 4] = 0\n 26710: u8 [a0 + 3] = 0\n 26713: u8 [a0 + 2] = 0\n 26716: u8 [a0 + 1] = 0\n 26719: u8 [a0 + 0] = 0\n 26721: a2 = u64 [sp + 0x90]\n 26725: u8 [a0 + 0x18] = a2\n 26728: a1 = a3 >> 0x38\n 26731: u8 [a0 + 0x17] = a1\n 26734: a1 = a3 >> 0x30\n 26737: u8 [a0 + 0x16] = a1\n 26740: a1 = a3 >> 0x28\n 26743: u8 [a0 + 0x15] = a1\n 26746: a1 = a3 >> 0x20\n 26749: u8 [a0 + 0x14] = a1\n 26752: a1 = a3 >> 0x18\n 26755: u8 [a0 + 0x13] = a1\n 26758: a1 = a3 >> 0x10\n 26761: u8 [a0 + 0x12] = a1\n 26764: a1 = a3 >> 0x8\n 26767: u8 [a0 + 0x11] = a1\n 26770: a1 = a2 >> 0x38\n 26773: u8 [a0 + 0x1f] = a1\n 26776: a1 = a2 >> 0x30\n 26779: u8 [a0 + 0x1e] = a1\n 26782: a1 = a2 >> 0x28\n 26785: u8 [a0 + 0x1d] = a1\n 26788: a1 = a2 >> 0x20\n 26791: u8 [a0 + 0x1c] = a1\n 26794: a1 = a2 >> 0x18\n 26797: u8 [a0 + 0x1b] = a1\n 26800: a1 = a2 >> 0x10\n 26803: u8 [a0 + 0x1a] = a1\n 26806: a1 = a2 >> 0x8\n 26809: u8 [a0 + 0x19] = a1\n 26812: ecalli 10 // 'ref_time_left'\n 26814: a3 = u64 [sp + 0x180]\n 26818: a3 = 0 if s1 != 0\n 26820: a2 = u64 [sp + 0x190]\n 26824: a2 = 0 if s1 != 0\n 26826: a0 = u64 [sp + 0x188]\n 26830: a0 = 0 if s1 != 0\n 26832: a0 = reverse a0\n 26834: a1 = a0 << 0x20\n 26837: a2 = reverse a2\n 26839: a2 = a2 >> 0x20\n 26842: a1 = a1 | a2\n 26845: a0 = a0 >> 0x20\n 26848: a2 = reverse a3\n 26850: a3 = a2 << 0x20\n 26853: a0 = a0 | a3\n 26856: a2 = a2 >> 0x20\n 26859: u32 [sp + 0x670] = a2\n 26863: u64 [sp + 0x668] = a0\n 26867: u64 [sp + 0x660] = a1\n 26871: u64 [sp + 1688] = 0\n 26875: u64 [sp + 1680] = 0\n 26879: u64 [sp + 1672] = 0\n 26883: u64 [sp + 1664] = 0\n 26887: a1 = 0x24\n 26890: s1 = u64 [sp + 0x218]\n 26894: a0 = s1\n 26896: ra = 318, jump @0\n      : @373 [@dyn 159] (gas: 4)\n 26902: u64 [sp + 0x190] = a0\n 26906: a1 = 0x20\n 26909: a0 = s1\n 26911: ra = 320, jump @0\n      : @374 [@dyn 160] (gas: 20)\n 26917: u32 [sp + 1696] = 0x20\n 26922: u64 [sp + 1752] = 0\n 26926: u64 [sp + 1744] = 0\n 26930: u64 [sp + 1736] = 0\n 26934: u64 [sp + 1728] = 0\n 26938: s1 = u64 [sp + 0x190]\n 26942: s1 = s1 << 0x20\n 26945: s1 = s1 >> 0x20\n 26948: a4 = u64 [sp + 0x198]\n 26952: a4 = a4 | s1\n 26955: a0 = a0 << 0x20\n 26958: a0 = a0 >> 0x20\n 26961: a5 = u64 [sp + 0x78]\n 26964: a5 = a5 | a0\n 26967: a1 = 0xffffffffffffffff\n 26970: a2 = 0xffffffffffffffff\n 26973: a0 = u64 [sp + 0xa0]\n 26977: a3 = u64 [sp + 0x98]\n 26981: ecalli 1 // 'call'\n 26983: fallthrough\n      : @375 (gas: 1)\n 26984: jump @398 if a0 != 0\n      : @376 (gas: 2)\n 26988: ecalli 12 // 'return_data_size'\n 26990: fallthrough\n      : @377 (gas: 2)\n 26991: a1 = 0x20\n 26994: jump @379 if a0 >=u a1\n      : @378 (gas: 3)\n 26997: ecalli 12 // 'return_data_size'\n 26999: a1 = a0\n 27001: fallthrough\n      : @379 (gas: 27)\n 27002: a3 = u64 [sp + 0x210]\n 27006: s1 = u64 [sp + 0x208]\n 27010: a0 = a1 + 0x1f\n 27013: u64 [sp + 0x208] = a1\n 27017: a1 = a0 <u a1\n 27020: u64 [sp + 528] = 0\n 27024: a1 = a1 & 0x1\n 27027: a0 = a0 & 0xffffffffffffffe0\n 27030: a2 = u64 [sp + 0x200]\n 27034: a2 = a2 + a0\n 27037: u64 [sp + 0x200] = a2\n 27041: a0 = a2 <u a0\n 27044: s1 = s1 + a1\n 27047: s1 = s1 + a0\n 27050: a2 = s1 ^ a1\n 27053: a1 = s1 <u a1\n 27056: a1 = a0 if a2 == 0\n 27059: a0 = u64 [sp + 0xb0]\n 27063: a1 = a1 + a0\n 27066: a0 = a1 <u a0\n 27069: a0 = a0 + a3\n 27072: u64 [sp + 0x190] = a1\n 27076: u64 [sp + 0x188] = a0\n 27080: a0 = a0 | a1\n 27083: a1 = s1 <u 0x1\n 27086: a1 = 0 if a0 != 0\n 27088: jump @403 if a1 == 0\n      : @380 (gas: 3)\n 27092: a0 = 0x40\n 27095: a1 = 0x20\n 27098: ra = 322, jump @0\n      : @381 [@dyn 161] (gas: 79)\n 27104: a1 = u64 [sp + 0x188]\n 27108: a1 = reverse a1\n 27110: a2 = u64 [sp + 0x190]\n 27114: a2 = reverse a2\n 27116: a3 = reverse s1\n 27118: a4 = u64 [sp + 0x200]\n 27122: a4 = reverse a4\n 27124: u8 [a0 + 0x18] = a4\n 27127: a5 = a4 >> 0x38\n 27130: u8 [a0 + 0x1f] = a5\n 27133: a5 = a4 >> 0x30\n 27136: u8 [a0 + 0x1e] = a5\n 27139: a5 = a4 >> 0x28\n 27142: u8 [a0 + 0x1d] = a5\n 27145: a5 = a4 >> 0x20\n 27148: u8 [a0 + 0x1c] = a5\n 27151: a5 = a4 >> 0x18\n 27154: u8 [a0 + 0x1b] = a5\n 27157: a5 = a4 >> 0x10\n 27160: u8 [a0 + 0x1a] = a5\n 27163: a4 = a4 >> 0x8\n 27166: u8 [a0 + 0x19] = a4\n 27169: u8 [a0 + 0x10] = a3\n 27172: a4 = a3 >> 0x38\n 27175: u8 [a0 + 0x17] = a4\n 27178: a4 = a3 >> 0x30\n 27181: u8 [a0 + 0x16] = a4\n 27184: a4 = a3 >> 0x28\n 27187: u8 [a0 + 0x15] = a4\n 27190: a4 = a3 >> 0x20\n 27193: u8 [a0 + 0x14] = a4\n 27196: a4 = a3 >> 0x18\n 27199: u8 [a0 + 0x13] = a4\n 27202: a4 = a3 >> 0x10\n 27205: u8 [a0 + 0x12] = a4\n 27208: a3 = a3 >> 0x8\n 27211: u8 [a0 + 0x11] = a3\n 27214: u8 [a0 + 0x8] = a2\n 27217: a3 = a2 >> 0x38\n 27220: u8 [a0 + 0xf] = a3\n 27223: a3 = a2 >> 0x30\n 27226: u8 [a0 + 0xe] = a3\n 27229: a3 = a2 >> 0x28\n 27232: u8 [a0 + 0xd] = a3\n 27235: a3 = a2 >> 0x20\n 27238: u8 [a0 + 0xc] = a3\n 27241: a3 = a2 >> 0x18\n 27244: u8 [a0 + 0xb] = a3\n 27247: a3 = a2 >> 0x10\n 27250: u8 [a0 + 0xa] = a3\n 27253: a2 = a2 >> 0x8\n 27256: u8 [a0 + 0x9] = a2\n 27259: u8 [a0] = a1\n 27261: a2 = a1 >> 0x38\n 27264: u8 [a0 + 0x7] = a2\n 27267: a2 = a1 >> 0x30\n 27270: u8 [a0 + 0x6] = a2\n 27273: a2 = a1 >> 0x28\n 27276: u8 [a0 + 0x5] = a2\n 27279: a2 = a1 >> 0x20\n 27282: u8 [a0 + 0x4] = a2\n 27285: a2 = a1 >> 0x18\n 27288: u8 [a0 + 0x3] = a2\n 27291: a2 = a1 >> 0x10\n 27294: u8 [a0 + 0x2] = a2\n 27297: a1 = a1 >> 0x8\n 27300: a5 = u64 [sp + 0x210]\n 27304: a2 = a5 >u 0\n 27306: a3 = u64 [sp + 0x208]\n 27310: a3 = a3 <u 0x20\n 27313: a3 = a3 ^ 0x1\n 27316: a3 = a2 if a5 != 0\n 27319: a2 = a5 >u 0\n 27321: a4 = a5 >u 0\n 27323: a4 = a2 if a5 == 0\n 27326: a2 = a5 | a5\n 27329: a4 = a3 if a2 == 0\n 27332: u8 [a0 + 0x1] = a1\n 27335: jump @399 if a4 == 0\n      : @382 (gas: 3)\n 27339: a1 = 0x20\n 27342: a0 = u64 [sp + 0x218]\n 27346: ra = 324, jump @0\n      : @383 [@dyn 162] (gas: 96)\n 27352: a1 = u8 [a0 + 0x9]\n 27355: a2 = u8 [a0 + 0x8]\n 27358: a3 = u8 [a0 + 0xa]\n 27361: a4 = u8 [a0 + 0xb]\n 27364: a1 = a1 << 0x8\n 27367: a1 = a1 | a2\n 27370: a3 = a3 << 0x10\n 27373: a4 = a4 << 0x18\n 27376: a3 = a3 | a4\n 27379: a1 = a1 | a3\n 27382: a2 = u8 [a0 + 0xd]\n 27385: a3 = u8 [a0 + 0xc]\n 27388: a4 = u8 [a0 + 0xe]\n 27391: a5 = u8 [a0 + 0xf]\n 27394: a2 = a2 << 0x8\n 27397: a2 = a2 | a3\n 27400: a4 = a4 << 0x10\n 27403: a5 = a5 << 0x18\n 27406: a4 = a4 | a5\n 27409: a2 = a2 | a4\n 27412: a2 = a2 << 0x20\n 27415: t0 = a2 | a1\n 27418: a2 = u8 [a0 + 0x1]\n 27421: a3 = u8 [a0]\n 27423: a4 = u8 [a0 + 0x2]\n 27426: a5 = u8 [a0 + 0x3]\n 27429: a2 = a2 << 0x8\n 27432: a2 = a2 | a3\n 27435: a4 = a4 << 0x10\n 27438: a5 = a5 << 0x18\n 27441: a4 = a4 | a5\n 27444: a2 = a2 | a4\n 27447: a3 = u8 [a0 + 0x5]\n 27450: a4 = u8 [a0 + 0x4]\n 27453: a5 = u8 [a0 + 0x6]\n 27456: s1 = u8 [a0 + 0x7]\n 27459: a3 = a3 << 0x8\n 27462: a3 = a3 | a4\n 27465: a5 = a5 << 0x10\n 27468: s1 = s1 << 0x18\n 27471: a5 = a5 | s1\n 27474: a3 = a3 | a5\n 27477: a3 = a3 << 0x20\n 27480: a2 = a2 | a3\n 27483: a3 = u8 [a0 + 0x19]\n 27486: a4 = u8 [a0 + 0x18]\n 27489: a5 = u8 [a0 + 0x1a]\n 27492: s1 = u8 [a0 + 0x1b]\n 27495: a3 = a3 << 0x8\n 27498: a3 = a3 | a4\n 27501: a5 = a5 << 0x10\n 27504: s1 = s1 << 0x18\n 27507: a5 = a5 | s1\n 27510: a3 = a3 | a5\n 27513: a4 = u8 [a0 + 0x1d]\n 27516: a5 = u8 [a0 + 0x1c]\n 27519: s1 = u8 [a0 + 0x1e]\n 27522: a1 = u8 [a0 + 0x1f]\n 27525: a4 = a4 << 0x8\n 27528: a4 = a4 | a5\n 27531: s1 = s1 << 0x10\n 27534: a1 = a1 << 0x18\n 27537: a1 = a1 | s1\n 27540: a1 = a1 | a4\n 27543: a1 = a1 << 0x20\n 27546: a3 = a3 | a1\n 27549: a1 = u8 [a0 + 0x11]\n 27552: a4 = u8 [a0 + 0x10]\n 27555: a5 = u8 [a0 + 0x12]\n 27558: s1 = u8 [a0 + 0x13]\n 27561: a1 = a1 << 0x8\n 27564: a1 = a1 | a4\n 27567: a5 = a5 << 0x10\n 27570: s1 = s1 << 0x18\n 27573: a5 = a5 | s1\n 27576: a1 = a1 | a5\n 27579: a4 = u8 [a0 + 0x15]\n 27582: a5 = u8 [a0 + 0x14]\n 27585: s1 = u8 [a0 + 0x16]\n 27588: a0 = u8 [a0 + 0x17]\n 27591: a4 = a4 << 0x8\n 27594: a4 = a4 | a5\n 27597: s1 = s1 << 0x10\n 27600: a0 = a0 << 0x18\n 27603: a0 = a0 | s1\n 27606: a0 = a0 | a4\n 27609: a0 = a0 << 0x20\n 27612: a0 = a0 | a1\n 27615: a1 = reverse a0\n 27617: a4 = reverse a3\n 27619: a4 = a4 <u 0x2\n 27622: a4 = 0 if a1 != 0\n 27624: a1 = t0 | a2\n 27627: a1 = reverse a1\n 27629: a4 = 0 if a1 != 0\n 27631: jump @399 if a4 == 0\n      : @384 (gas: 6)\n 27635: a0 = a0 | a2\n 27638: a1 = t0 | a3\n 27641: a0 = a0 | a1\n 27644: t1 = u64 [sp + 0x1e8]\n 27648: a4 = u64 [sp + 0x1e0]\n 27652: jump @363 if a0 == 0\n      : @385 (gas: 26)\n 27656: a0 = u64 [sp + 0x68]\n 27659: a3 = u64 [sp + 0x50]\n 27662: a0 = a0 | a3\n 27665: a1 = u64 [sp + 0x60]\n 27668: a2 = u64 [sp + 0x58]\n 27671: a1 = a1 | a2\n 27674: a0 = a0 | a1\n 27677: a0 = a0 >> 0x20\n 27680: a1 = a1 | a3\n 27683: a1 = a1 << 0x20\n 27686: a0 = a0 | a1\n 27689: u64 [sp + 0x218] = a0\n 27693: a0 = u64 [sp + 0x1f8]\n 27697: u64 [sp + 0x360] = a0\n 27701: u64 [sp + 920] = 0\n 27705: u64 [sp + 912] = 0\n 27709: u64 [sp + 904] = 0\n 27713: u64 [sp + 896] = 0\n 27717: a0 = u64 [sp + 0x1f0]\n 27721: u64 [sp + 0x368] = a0\n 27725: u64 [sp + 0x370] = a4\n 27729: a0 = sp + 0x3a0\n 27733: a1 = sp + 0x380\n 27737: a2 = sp + 0x360\n 27741: u64 [sp + 0x378] = t1\n 27745: ra = 326, jump @90\n      : @386 [@dyn 163] (gas: 27)\n 27751: a0 = u64 [sp + 0x3d8]\n 27755: u64 [sp + 0x210] = a0\n 27759: a0 = u64 [sp + 0x3d0]\n 27763: u64 [sp + 0x208] = a0\n 27767: a0 = u64 [sp + 0x3c8]\n 27771: u64 [sp + 0x200] = a0\n 27775: s1 = u64 [sp + 0x3c0]\n 27779: a0 = u64 [sp + 0x3b8]\n 27783: a1 = u64 [sp + 0x3b0]\n 27787: a2 = u64 [sp + 0x3a8]\n 27791: a3 = u64 [sp + 0x3a0]\n 27795: u64 [sp + 0x6f8] = a0\n 27799: u64 [sp + 0x6f0] = a1\n 27803: u64 [sp + 0x6e8] = a2\n 27807: u64 [sp + 0x6e0] = a3\n 27811: u64 [sp + 1816] = 0\n 27815: u64 [sp + 1808] = 0\n 27819: u64 [sp + 1800] = 0\n 27823: u64 [sp + 1792] = 0\n 27827: u32 [sp + 1824] = 0x20\n 27832: i32 a1 = sp + 0x6e0\n 27836: i32 a3 = sp + 0x700\n 27840: i32 a4 = sp + 0x720\n 27844: a2 = 0xffffffffffffffff\n 27847: a0 = 0\n 27849: ecalli 7 // 'get_storage'\n 27851: fallthrough\n      : @387 (gas: 98)\n 27852: a0 = u64 [sp + 0x700]\n 27856: a1 = u64 [sp + 0x708]\n 27860: a2 = u64 [sp + 0x710]\n 27864: a3 = u64 [sp + 0x718]\n 27868: u8 [sp + 863] = 0\n 27872: u8 [sp + 862] = 0\n 27876: u8 [sp + 861] = 0\n 27880: u8 [sp + 860] = 0\n 27884: u8 [sp + 859] = 0\n 27888: u8 [sp + 858] = 0\n 27892: u8 [sp + 857] = 0\n 27896: u8 [sp + 856] = 0\n 27900: u8 [sp + 855] = 0\n 27904: u8 [sp + 854] = 0\n 27908: u8 [sp + 853] = 0\n 27912: u8 [sp + 852] = 0\n 27916: u8 [sp + 851] = 0\n 27920: u8 [sp + 850] = 0\n 27924: u8 [sp + 849] = 0\n 27928: u8 [sp + 848] = 0\n 27932: u8 [sp + 847] = 0\n 27936: u8 [sp + 846] = 0\n 27940: u8 [sp + 845] = 0\n 27944: u8 [sp + 844] = 0\n 27948: u8 [sp + 843] = 0\n 27952: u8 [sp + 842] = 0\n 27956: u8 [sp + 841] = 0\n 27960: u8 [sp + 840] = 0\n 27964: u8 [sp + 839] = 0\n 27968: u8 [sp + 838] = 0\n 27972: u8 [sp + 837] = 0\n 27976: u8 [sp + 836] = 0\n 27980: u8 [sp + 835] = 0\n 27984: u8 [sp + 834] = 0\n 27988: u8 [sp + 833] = 0\n 27992: u8 [sp + 832] = 0\n 27996: u8 [sp + 0x338] = a3\n 28000: u8 [sp + 0x330] = a2\n 28004: u8 [sp + 0x328] = a1\n 28008: u8 [sp + 0x320] = a0\n 28012: a4 = a3 >> 0x38\n 28015: u8 [sp + 0x33f] = a4\n 28019: a4 = a3 >> 0x30\n 28022: u8 [sp + 0x33e] = a4\n 28026: a4 = a3 >> 0x28\n 28029: u8 [sp + 0x33d] = a4\n 28033: a4 = a3 >> 0x20\n 28036: u8 [sp + 0x33c] = a4\n 28040: a4 = a3 >> 0x18\n 28043: u8 [sp + 0x33b] = a4\n 28047: a4 = a3 >> 0x10\n 28050: u8 [sp + 0x33a] = a4\n 28054: a3 = a3 >> 0x8\n 28057: u8 [sp + 0x339] = a3\n 28061: a3 = a2 >> 0x38\n 28064: u8 [sp + 0x337] = a3\n 28068: a3 = a2 >> 0x30\n 28071: u8 [sp + 0x336] = a3\n 28075: a3 = a2 >> 0x28\n 28078: u8 [sp + 0x335] = a3\n 28082: a3 = a2 >> 0x20\n 28085: u8 [sp + 0x334] = a3\n 28089: a3 = a2 >> 0x18\n 28092: u8 [sp + 0x333] = a3\n 28096: a3 = a2 >> 0x10\n 28099: u8 [sp + 0x332] = a3\n 28103: a2 = a2 >> 0x8\n 28106: u8 [sp + 0x331] = a2\n 28110: a2 = a1 >> 0x38\n 28113: u8 [sp + 0x32f] = a2\n 28117: a2 = a1 >> 0x30\n 28120: u8 [sp + 0x32e] = a2\n 28124: a2 = a1 >> 0x28\n 28127: u8 [sp + 0x32d] = a2\n 28131: a2 = a1 >> 0x20\n 28134: u8 [sp + 0x32c] = a2\n 28138: a2 = a1 >> 0x18\n 28141: u8 [sp + 0x32b] = a2\n 28145: a2 = a1 >> 0x10\n 28148: u8 [sp + 0x32a] = a2\n 28152: a1 = a1 >> 0x8\n 28155: u8 [sp + 0x329] = a1\n 28159: a1 = a0 >> 0x38\n 28162: u8 [sp + 0x327] = a1\n 28166: a1 = a0 >> 0x30\n 28169: u8 [sp + 0x326] = a1\n 28173: a1 = a0 >> 0x28\n 28176: u8 [sp + 0x325] = a1\n 28180: a1 = a0 >> 0x20\n 28183: u8 [sp + 0x324] = a1\n 28187: a1 = a0 >> 0x18\n 28190: u8 [sp + 0x323] = a1\n 28194: a1 = a0 >> 0x10\n 28197: u8 [sp + 0x322] = a1\n 28201: a0 = a0 >> 0x8\n 28204: u8 [sp + 0x321] = a0\n 28208: a0 = u64 [sp + 0x218]\n 28212: jump @397 if a0 != 0\n      : @388 (gas: 47)\n 28216: u64 [sp + 0x218] = s1\n 28220: a0 = s1 & 0x1f\n 28223: a1 = sp + 0x320\n 28227: a0 = a0 + a1\n 28230: a1 = u8 [a0 + 0x8]\n 28233: u64 [sp + 0x118] = a1\n 28237: a1 = u8 [a0 + 0x9]\n 28240: u64 [sp + 0xf8] = a1\n 28244: a1 = u8 [a0 + 0xa]\n 28247: u64 [sp + 0x108] = a1\n 28251: a1 = u8 [a0 + 0xb]\n 28254: u64 [sp + 0x100] = a1\n 28258: a1 = u8 [a0 + 0xc]\n 28261: u64 [sp + 0x130] = a1\n 28265: a1 = u8 [a0 + 0xd]\n 28268: u64 [sp + 0x110] = a1\n 28272: a1 = u8 [a0 + 0xe]\n 28275: u64 [sp + 0x128] = a1\n 28279: a1 = u8 [a0 + 0xf]\n 28282: u64 [sp + 0x120] = a1\n 28286: a1 = u8 [a0]\n 28288: u64 [sp + 0x158] = a1\n 28292: a1 = u8 [a0 + 0x1]\n 28295: u64 [sp + 0x138] = a1\n 28299: a1 = u8 [a0 + 0x2]\n 28302: u64 [sp + 0x148] = a1\n 28306: a1 = u8 [a0 + 0x3]\n 28309: u64 [sp + 0x140] = a1\n 28313: a1 = u8 [a0 + 0x4]\n 28316: u64 [sp + 0x170] = a1\n 28320: a1 = u8 [a0 + 0x5]\n 28323: u64 [sp + 0x150] = a1\n 28327: a1 = u8 [a0 + 0x6]\n 28330: u64 [sp + 0x168] = a1\n 28334: a1 = u8 [a0 + 0x7]\n 28337: u64 [sp + 0x160] = a1\n 28341: a1 = u8 [a0 + 0x10]\n 28344: u64 [sp + 0x190] = a1\n 28348: a1 = u8 [a0 + 0x11]\n 28351: u64 [sp + 0x178] = a1\n 28355: a1 = u8 [a0 + 0x12]\n 28358: u64 [sp + 0x188] = a1\n 28362: a0 = u8 [a0 + 0x13]\n 28365: u64 [sp + 0x180] = a0\n 28369: a1 = 0x20\n 28372: a0 = u64 [sp + 0x28]\n 28375: ra = 328, jump @0\n      : @389 [@dyn 164] (gas: 108)\n 28381: a1 = u8 [a0 + 0x1]\n 28384: a2 = u8 [a0]\n 28386: a3 = u8 [a0 + 0x2]\n 28389: a4 = u8 [a0 + 0x3]\n 28392: a1 = a1 << 0x8\n 28395: a1 = a1 | a2\n 28398: a3 = a3 << 0x10\n 28401: a4 = a4 << 0x18\n 28404: a3 = a3 | a4\n 28407: a1 = a1 | a3\n 28410: a2 = u8 [a0 + 0x5]\n 28413: a3 = u8 [a0 + 0x4]\n 28416: a4 = u8 [a0 + 0x6]\n 28419: a5 = u8 [a0 + 0x7]\n 28422: a2 = a2 << 0x8\n 28425: a2 = a2 | a3\n 28428: a4 = a4 << 0x10\n 28431: a5 = a5 << 0x18\n 28434: a4 = a4 | a5\n 28437: a2 = a2 | a4\n 28440: a2 = a2 << 0x20\n 28443: t0 = a2 | a1\n 28446: a2 = u8 [a0 + 0x9]\n 28449: a3 = u8 [a0 + 0x8]\n 28452: a4 = u8 [a0 + 0xa]\n 28455: a5 = u8 [a0 + 0xb]\n 28458: a2 = a2 << 0x8\n 28461: a2 = a2 | a3\n 28464: a4 = a4 << 0x10\n 28467: a5 = a5 << 0x18\n 28470: a4 = a4 | a5\n 28473: a2 = a2 | a4\n 28476: a3 = u8 [a0 + 0xd]\n 28479: a4 = u8 [a0 + 0xc]\n 28482: a5 = u8 [a0 + 0xe]\n 28485: s1 = u8 [a0 + 0xf]\n 28488: a3 = a3 << 0x8\n 28491: a3 = a3 | a4\n 28494: a5 = a5 << 0x10\n 28497: s1 = s1 << 0x18\n 28500: a5 = a5 | s1\n 28503: a3 = a3 | a5\n 28506: a3 = a3 << 0x20\n 28509: a2 = a2 | a3\n 28512: a3 = u8 [a0 + 0x11]\n 28515: a4 = u8 [a0 + 0x10]\n 28518: a5 = u8 [a0 + 0x12]\n 28521: s1 = u8 [a0 + 0x13]\n 28524: a3 = a3 << 0x8\n 28527: a3 = a3 | a4\n 28530: a5 = a5 << 0x10\n 28533: s1 = s1 << 0x18\n 28536: a5 = a5 | s1\n 28539: a3 = a3 | a5\n 28542: a4 = u8 [a0 + 0x15]\n 28545: a5 = u8 [a0 + 0x14]\n 28548: s1 = u8 [a0 + 0x16]\n 28551: a1 = u8 [a0 + 0x17]\n 28554: a4 = a4 << 0x8\n 28557: a4 = a4 | a5\n 28560: s1 = s1 << 0x10\n 28563: a1 = a1 << 0x18\n 28566: a1 = a1 | s1\n 28569: a1 = a1 | a4\n 28572: a1 = a1 << 0x20\n 28575: a3 = a3 | a1\n 28578: a1 = u8 [a0 + 0x19]\n 28581: a4 = u8 [a0 + 0x18]\n 28584: a5 = u8 [a0 + 0x1a]\n 28587: s1 = u8 [a0 + 0x1b]\n 28590: a1 = a1 << 0x8\n 28593: a1 = a1 | a4\n 28596: a5 = a5 << 0x10\n 28599: s1 = s1 << 0x18\n 28602: a5 = a5 | s1\n 28605: a1 = a1 | a5\n 28608: a4 = u8 [a0 + 0x1d]\n 28611: a5 = u8 [a0 + 0x1c]\n 28614: s1 = u8 [a0 + 0x1e]\n 28617: a0 = u8 [a0 + 0x1f]\n 28620: a4 = a4 << 0x8\n 28623: a4 = a4 | a5\n 28626: s1 = s1 << 0x10\n 28629: a0 = a0 << 0x18\n 28632: a0 = a0 | s1\n 28635: a0 = a0 | a4\n 28638: a0 = a0 << 0x20\n 28641: a0 = a0 | a1\n 28644: a0 = reverse a0\n 28646: a1 = reverse a3\n 28648: a2 = reverse a2\n 28650: a3 = reverse t0\n 28652: t1 = u64 [sp + 0x1c0]\n 28656: a4 = a3 ^ t1\n 28659: a3 = t1 <u a3\n 28662: t2 = u64 [sp + 0x1d8]\n 28666: a5 = t2 <u a2\n 28669: a5 = a3 if a4 != 0\n 28672: s1 = u64 [sp + 0x1c8]\n 28676: a3 = a1 ^ s1\n 28679: a1 = s1 <u a1\n 28682: t0 = u64 [sp + 0x1d0]\n 28686: a0 = t0 <u a0\n 28689: a0 = a1 if a3 != 0\n 28692: a1 = a2 ^ t2\n 28695: a1 = a1 | a4\n 28698: a0 = a5 if a1 != 0\n 28701: jump @407 if a0 == 0\n      : @390 (gas: 40)\n 28705: a0 = t2 >> 0x3b\n 28708: a1 = t1 << 0x5\n 28711: ra = a1 | a0\n 28714: a0 = t0 >> 0x3b\n 28717: a2 = s1 << 0x5\n 28720: a2 = a2 | a0\n 28723: a0 = t0 << 0x5\n 28726: a3 = u64 [sp + 0x48]\n 28729: a0 = a0 + a3\n 28732: a3 = a0 <u a3\n 28735: a5 = u64 [sp + 0x40]\n 28738: a2 = a2 + a5\n 28741: a2 = a2 + a3\n 28744: a4 = a2 ^ a5\n 28747: a5 = a2 <u a5\n 28750: a5 = a3 if a4 == 0\n 28753: a3 = s1 >> 0x3b\n 28756: a4 = t2 << 0x5\n 28759: a3 = a3 | a4\n 28762: a4 = u64 [sp + 0x38]\n 28765: a3 = a3 + a4\n 28768: a4 = a3 <u a4\n 28771: a1 = u64 [sp + 0x30]\n 28774: a1 = a1 + ra\n 28777: a1 = a1 + a4\n 28780: a5 = a5 + a3\n 28783: a3 = a5 <u a3\n 28786: a1 = a1 + a3\n 28789: a1 = a1 | a2\n 28792: a2 = a0 | a5\n 28795: a2 = a2 | a1\n 28798: a1 = a1 | a5\n 28801: a2 = a2 >> 0x20\n 28804: a1 = a1 << 0x20\n 28807: a1 = a1 | a2\n 28810: u64 [sp + 0x1d0] = t0\n 28814: u64 [sp + 0x1c8] = s1\n 28818: t0 = 0xffffffffffffffff\n 28821: u64 [sp + 0x1c0] = t1\n 28825: jump @397 if a1 != 0\n      : @391 (gas: 89)\n 28829: a3 = u64 [sp + 0x218]\n 28833: a1 = a3 >> 0x3d\n 28836: a4 = u64 [sp + 0x200]\n 28840: a2 = a4 << 0x3\n 28843: a2 = a2 | a1\n 28846: a1 = a3 << 0x3\n 28849: a1 = a1 <u 0x100\n 28853: a1 = a1 ^ 0x1\n 28856: a3 = a2 >u 0\n 28858: a1 = a3 if a2 != 0\n 28861: a2 = a4 >> 0x3d\n 28864: a4 = u64 [sp + 0x208]\n 28868: a3 = a4 << 0x3\n 28871: a2 = a2 | a3\n 28874: a3 = a4 >> 0x3d\n 28877: a4 = u64 [sp + 0x210]\n 28881: a4 = a4 << 0x3\n 28884: a3 = a3 | a4\n 28887: a4 = a3 >u 0\n 28889: a5 = a2 >u 0\n 28891: a5 = a4 if a3 != 0\n 28894: a2 = a2 | a3\n 28897: a1 = a5 if a2 != 0\n 28900: a2 = u64 [sp + 0xf8]\n 28904: a2 = a2 << 0x8\n 28907: a3 = u64 [sp + 0x118]\n 28911: a2 = a2 | a3\n 28914: a3 = u64 [sp + 0x108]\n 28918: a3 = a3 << 0x10\n 28921: a4 = u64 [sp + 0x100]\n 28925: a4 = a4 << 0x18\n 28928: a3 = a3 | a4\n 28931: a2 = a2 | a3\n 28934: a3 = u64 [sp + 0x110]\n 28938: a3 = a3 << 0x8\n 28941: a4 = u64 [sp + 0x130]\n 28945: a3 = a3 | a4\n 28948: a4 = u64 [sp + 0x128]\n 28952: a4 = a4 << 0x10\n 28955: a5 = u64 [sp + 0x120]\n 28959: a5 = a5 << 0x18\n 28962: a4 = a4 | a5\n 28965: a3 = a3 | a4\n 28968: a3 = a3 << 0x20\n 28971: a2 = a2 | a3\n 28974: a3 = u64 [sp + 0x138]\n 28978: a3 = a3 << 0x8\n 28981: a4 = u64 [sp + 0x158]\n 28985: a3 = a3 | a4\n 28988: a4 = u64 [sp + 0x148]\n 28992: a4 = a4 << 0x10\n 28995: a5 = u64 [sp + 0x140]\n 28999: a5 = a5 << 0x18\n 29002: a4 = a4 | a5\n 29005: a3 = a3 | a4\n 29008: a4 = u64 [sp + 0x150]\n 29012: a4 = a4 << 0x8\n 29015: a5 = u64 [sp + 0x170]\n 29019: a4 = a4 | a5\n 29022: a5 = u64 [sp + 0x168]\n 29026: a5 = a5 << 0x10\n 29029: s1 = u64 [sp + 0x160]\n 29033: s1 = s1 << 0x18\n 29036: a5 = a5 | s1\n 29039: a4 = a4 | a5\n 29042: a4 = a4 << 0x20\n 29045: a3 = a3 | a4\n 29048: a4 = u64 [sp + 0x178]\n 29052: a4 = a4 << 0x8\n 29055: a5 = u64 [sp + 0x190]\n 29059: a4 = a4 | a5\n 29062: a5 = u64 [sp + 0x188]\n 29066: a5 = a5 << 0x10\n 29069: s1 = u64 [sp + 0x180]\n 29073: s1 = s1 << 0x18\n 29076: a5 = a5 | s1\n 29079: a4 = a4 | a5\n 29082: a3 = a3 & 0xffffffffffffffff\n 29085: a2 = a2 & 0xffffffffffffffff\n 29088: s1 = u64 [sp + 0x70]\n 29091: s1 = s1 & a4\n 29094: s1 = 0 if a1 != 0\n 29096: a2 = 0 if a1 != 0\n 29098: u64 [sp + 0x218] = a2\n 29102: a3 = 0 if a1 != 0\n 29104: u64 [sp + 0x210] = a3\n 29108: i32 a0 = a0 + 0\n 29110: a1 = 0x20\n 29113: ra = 330, jump @0\n      : @392 [@dyn 165] (gas: 76)\n 29119: a1 = reverse s1\n 29121: a2 = u64 [sp + 0x218]\n 29125: a2 = reverse a2\n 29127: a3 = u64 [sp + 0x210]\n 29131: a3 = reverse a3\n 29133: a4 = a3 >> 0x38\n 29136: u8 [a0 + 0x1f] = a4\n 29139: a4 = a3 >> 0x30\n 29142: u8 [a0 + 0x1e] = a4\n 29145: a4 = a3 >> 0x28\n 29148: u8 [a0 + 0x1d] = a4\n 29151: a4 = a3 >> 0x20\n 29154: u8 [a0 + 0x1c] = a4\n 29157: a4 = a3 >> 0x18\n 29160: u8 [a0 + 0x1b] = a4\n 29163: a4 = a3 >> 0x10\n 29166: u8 [a0 + 0x1a] = a4\n 29169: a4 = a3 >> 0x8\n 29172: u8 [a0 + 0x19] = a4\n 29175: u8 [a0 + 0x18] = a3\n 29178: u8 [a0 + 0x10] = a2\n 29181: u8 [a0 + 11] = 0\n 29184: u8 [a0 + 10] = 0\n 29187: u8 [a0 + 9] = 0\n 29190: u8 [a0 + 7] = 0\n 29193: u8 [a0 + 6] = 0\n 29196: u8 [a0 + 5] = 0\n 29199: u8 [a0 + 4] = 0\n 29202: u8 [a0 + 3] = 0\n 29205: u8 [a0 + 2] = 0\n 29208: u8 [a0 + 1] = 0\n 29211: u8 [a0 + 0] = 0\n 29213: a3 = a2 >> 0x38\n 29216: u8 [a0 + 0x17] = a3\n 29219: a3 = a2 >> 0x30\n 29222: u8 [a0 + 0x16] = a3\n 29225: a3 = a2 >> 0x28\n 29228: u8 [a0 + 0x15] = a3\n 29231: a3 = a2 >> 0x20\n 29234: u8 [a0 + 0x14] = a3\n 29237: a3 = a2 >> 0x18\n 29240: u8 [a0 + 0x13] = a3\n 29243: a3 = a2 >> 0x10\n 29246: u8 [a0 + 0x12] = a3\n 29249: a2 = a2 >> 0x8\n 29252: u8 [a0 + 0x11] = a2\n 29255: u8 [a0 + 0x8] = a1\n 29258: a2 = a1 >> 0x38\n 29261: u8 [a0 + 0xf] = a2\n 29264: a2 = a1 >> 0x30\n 29267: u8 [a0 + 0xe] = a2\n 29270: a2 = a1 >> 0x28\n 29273: u8 [a0 + 0xd] = a2\n 29276: a1 = a1 >> 0x20\n 29279: u8 [a0 + 0xc] = a1\n 29282: a1 = u64 [sp + 0x1d0]\n 29286: a1 = a1 + 0x1\n 29289: a0 = a1 <u 0x1\n 29292: a2 = u64 [sp + 0x1c8]\n 29296: a2 = a2 + a0\n 29299: u64 [sp + 0x1d0] = a1\n 29303: u64 [sp + 0x1c8] = a2\n 29307: a0 = a1 | a2\n 29310: a0 = a0 <u 0x1\n 29313: a1 = u64 [sp + 0x1d8]\n 29317: a0 = a0 + a1\n 29320: a1 = a0 <u a1\n 29323: a2 = u64 [sp + 0x1c0]\n 29327: a2 = a2 + a1\n 29330: u64 [sp + 0x1c0] = a2\n 29334: t2 = a0\n 29336: s1 = u64 [sp + 0x1f8]\n 29340: t0 = u64 [sp + 0x1f0]\n 29344: t1 = u64 [sp + 0x1e8]\n 29348: a4 = u64 [sp + 0x1e0]\n 29352: jump @364\n      : @393 (gas: 5)\n 29355: a1 = u64 [sp + 0x68]\n 29358: a2 = u64 [sp + 0x60]\n 29361: a3 = u64 [sp + 0x58]\n 29364: a4 = u64 [sp + 0x50]\n 29367: jump @396\n      : @394 (gas: 7)\n 29369: u64 [sp + 568] = 0\n 29373: u64 [sp + 560] = 0\n 29377: u64 [sp + 552] = 0\n 29381: a0 = sp + 0x240\n 29385: a1 = sp + 0x220\n 29389: u64 [sp + 544] = 0\n 29393: ra = 332, jump @304\n      : @395 [@dyn 166] (gas: 5)\n 29399: a3 = u64 [sp + 0x258]\n 29403: a4 = u64 [sp + 0x250]\n 29407: a2 = u64 [sp + 0x248]\n 29411: a1 = u64 [sp + 0x240]\n 29415: fallthrough\n      : @396 (gas: 11)\n 29416: a0 = u64 [sp + 0x20]\n 29419: u64 [a0] = a1\n 29421: u64 [a0 + 0x8] = a2\n 29424: u64 [a0 + 0x10] = a4\n 29427: u64 [a0 + 0x18] = a3\n 29430: sp = s0 + 0xfffffffffffff8c0\n 29434: ra = u64 [sp + 0x738]\n 29438: s0 = u64 [sp + 0x730]\n 29442: s1 = u64 [sp + 0x728]\n 29446: sp = sp + 0x740\n 29450: ret\n      : @397 (gas: 1)\n 29452: trap\n      : @398 (gas: 1)\n 29453: ra = 334, jump @212\n      : @399 [@dyn 167] (gas: 3)\n 29459: a0 = 0\n 29461: a1 = 0\n 29463: ra = 336, jump @0\n      : @400 [@dyn 168] (gas: 5)\n 29469: i32 a1 = a0 + 0\n 29471: a0 = 0x1\n 29474: a2 = 0\n 29476: ecalli 13 // 'seal_return'\n 29478: fallthrough\n      : @401 (gas: 8)\n 29479: u64 [sp + 656] = 0\n 29483: u64 [sp + 648] = 0\n 29487: u64 [sp + 640] = 0\n 29491: a0 = 0x4e487b7100000000\n 29501: a1 = sp + 0x280\n 29505: u64 [sp + 0x298] = a0\n 29509: a0 = 0\n 29511: ra = 338, jump @8\n      : @402 [@dyn 169] (gas: 8)\n 29517: u64 [sp + 632] = 0\n 29521: u64 [sp + 624] = 0\n 29525: u64 [sp + 608] = 0x41\n 29530: a0 = 0x4\n 29533: a1 = sp + 0x260\n 29537: u64 [sp + 616] = 0\n 29541: ra = 0x15a\n 29545: jump @8\n      : @403 (gas: 8)\n 29548: u64 [sp + 720] = 0\n 29552: u64 [sp + 712] = 0\n 29556: u64 [sp + 704] = 0\n 29560: a0 = 0x4e487b7100000000\n 29570: a1 = sp + 0x2c0\n 29574: u64 [sp + 0x2d8] = a0\n 29578: a0 = 0\n 29580: ra = 340, jump @8\n      : @404 [@dyn 170] (gas: 8)\n 29586: u64 [sp + 696] = 0\n 29590: u64 [sp + 688] = 0\n 29594: u64 [sp + 672] = 0x41\n 29599: a0 = 0x4\n 29602: a1 = sp + 0x2a0\n 29606: u64 [sp + 680] = 0\n 29610: ra = 0x15a\n 29614: jump @8\n      : @405 (gas: 8)\n 29617: u64 [sp + 1296] = 0\n 29621: u64 [sp + 1288] = 0\n 29625: u64 [sp + 1280] = 0\n 29629: a0 = 0x4e487b7100000000\n 29639: a1 = sp + 0x500\n 29643: u64 [sp + 0x518] = a0\n 29647: a0 = 0\n 29649: ra = 342, jump @8\n      : @406 [@dyn 171] (gas: 8)\n 29655: u64 [sp + 1272] = 0\n 29659: u64 [sp + 1264] = 0\n 29663: u64 [sp + 1248] = 0x11\n 29668: a0 = 0x4\n 29671: a1 = sp + 0x4e0\n 29675: u64 [sp + 1256] = 0\n 29679: ra = 0x15a\n 29683: jump @8\n      : @407 (gas: 8)\n 29686: u64 [sp + 784] = 0\n 29690: u64 [sp + 776] = 0\n 29694: u64 [sp + 768] = 0\n 29698: a0 = 0x4e487b7100000000\n 29708: a1 = sp + 0x300\n 29712: u64 [sp + 0x318] = a0\n 29716: a0 = 0\n 29718: ra = 344, jump @8\n      : @408 [@dyn 172] (gas: 7)\n 29724: u64 [sp + 760] = 0\n 29728: u64 [sp + 752] = 0\n 29732: u64 [sp + 736] = 0x32\n 29737: a0 = 0x4\n 29740: a1 = sp + 0x2e0\n 29744: u64 [sp + 744] = 0\n 29748: ra = 346, jump @8\n      : @409 [@dyn 173] (gas: 3)\n 29754: a1 = 0x24\n 29757: a0 = 0\n 29759: ra = 348, jump @0\n      : @410 [@dyn 174] (gas: 6)\n 29765: i32 a1 = a0 + 0\n 29767: a0 = 0x1\n 29770: a2 = 0x24\n 29773: ra = 0x15e\n 29777: ecalli 13 // 'seal_return'\n 29779: fallthrough\n      : @411 [@dyn 175] (gas: 20)\n 29780: sp = sp + 0xffffffffffffffb0\n 29783: u64 [sp + 0x48] = ra\n 29786: u64 [sp + 0x40] = s0\n 29789: u64 [sp + 0x38] = s1\n 29792: a4 = u64 [a1 + 0x10]\n 29795: a3 = u64 [a1 + 0x18]\n 29798: a5 = u64 [a1 + 0x8]\n 29801: s0 = u64 [a1]\n 29803: u64 [sp + 0x28] = a3\n 29806: u64 [sp + 0x20] = a5\n 29809: a1 = a5 | a3\n 29812: a3 = s0 | a4\n 29815: a3 = a3 | a1\n 29818: a3 = a3 >> 0x20\n 29821: u64 [sp + 0x30] = a4\n 29824: a1 = a1 | a4\n 29827: a1 = a1 << 0x20\n 29830: a1 = a1 | a3\n 29833: u64 [sp + 0x18] = a0\n 29836: jump @414 if a1 != 0\n      : @412 (gas: 10)\n 29840: a0 = u64 [a2 + 0x18]\n 29843: u64 [sp] = a0\n 29845: s1 = u64 [a2 + 0x10]\n 29848: a0 = u64 [a2 + 0x8]\n 29851: u64 [sp + 0x8] = a0\n 29854: a0 = u64 [a2]\n 29856: u64 [sp + 0x10] = a0\n 29859: i32 a0 = s0 + 0\n 29861: a1 = 0x20\n 29864: ra = 352, jump @0\n      : @413 [@dyn 176] (gas: 88)\n 29870: a1 = u64 [sp]\n 29872: a1 = reverse a1\n 29874: a2 = reverse s1\n 29876: a3 = u64 [sp + 0x8]\n 29879: a3 = reverse a3\n 29881: a4 = u64 [sp + 0x10]\n 29884: a4 = reverse a4\n 29886: a5 = a4 >> 0x38\n 29889: u8 [a0 + 0x1f] = a5\n 29892: a5 = a4 >> 0x30\n 29895: u8 [a0 + 0x1e] = a5\n 29898: a5 = a4 >> 0x28\n 29901: u8 [a0 + 0x1d] = a5\n 29904: a5 = a4 >> 0x20\n 29907: u8 [a0 + 0x1c] = a5\n 29910: a5 = a4 >> 0x18\n 29913: u8 [a0 + 0x1b] = a5\n 29916: a5 = a4 >> 0x10\n 29919: u8 [a0 + 0x1a] = a5\n 29922: a5 = a4 >> 0x8\n 29925: u8 [a0 + 0x19] = a5\n 29928: u8 [a0 + 0x18] = a4\n 29931: u8 [a0 + 0x10] = a3\n 29934: a4 = a3 >> 0x38\n 29937: u8 [a0 + 0x17] = a4\n 29940: a4 = a3 >> 0x30\n 29943: u8 [a0 + 0x16] = a4\n 29946: a4 = a3 >> 0x28\n 29949: u8 [a0 + 0x15] = a4\n 29952: a4 = a3 >> 0x20\n 29955: u8 [a0 + 0x14] = a4\n 29958: a4 = a3 >> 0x18\n 29961: u8 [a0 + 0x13] = a4\n 29964: a4 = a3 >> 0x10\n 29967: u8 [a0 + 0x12] = a4\n 29970: a3 = a3 >> 0x8\n 29973: u8 [a0 + 0x11] = a3\n 29976: u8 [a0 + 0x8] = a2\n 29979: a3 = a2 >> 0x38\n 29982: u8 [a0 + 0xf] = a3\n 29985: a3 = a2 >> 0x30\n 29988: u8 [a0 + 0xe] = a3\n 29991: a3 = a2 >> 0x28\n 29994: u8 [a0 + 0xd] = a3\n 29997: a3 = a2 >> 0x20\n 30000: u8 [a0 + 0xc] = a3\n 30003: a3 = a2 >> 0x18\n 30006: u8 [a0 + 0xb] = a3\n 30009: a3 = a2 >> 0x10\n 30012: u8 [a0 + 0xa] = a3\n 30015: a2 = a2 >> 0x8\n 30018: u8 [a0 + 0x9] = a2\n 30021: u8 [a0] = a1\n 30023: a2 = a1 >> 0x38\n 30026: u8 [a0 + 0x7] = a2\n 30029: a2 = a1 >> 0x30\n 30032: u8 [a0 + 0x6] = a2\n 30035: a2 = a1 >> 0x28\n 30038: u8 [a0 + 0x5] = a2\n 30041: a2 = a1 >> 0x20\n 30044: u8 [a0 + 0x4] = a2\n 30047: a2 = a1 >> 0x18\n 30050: u8 [a0 + 0x3] = a2\n 30053: a2 = a1 >> 0x10\n 30056: u8 [a0 + 0x2] = a2\n 30059: a1 = a1 >> 0x8\n 30062: u8 [a0 + 0x1] = a1\n 30065: a0 = s0 + 0x20\n 30068: a1 = a0 <u s0\n 30071: a3 = u64 [sp + 0x20]\n 30074: a2 = a3 + a1\n 30077: a3 = a2 <u a3\n 30080: a3 = a1 if a1 == 0\n 30083: a1 = u64 [sp + 0x30]\n 30086: a3 = a3 + a1\n 30089: a1 = a3 <u a1\n 30092: a4 = u64 [sp + 0x28]\n 30095: a1 = a1 + a4\n 30098: a4 = u64 [sp + 0x18]\n 30101: u64 [a4] = a0\n 30103: u64 [a4 + 0x8] = a2\n 30106: u64 [a4 + 0x10] = a3\n 30109: u64 [a4 + 0x18] = a1\n 30112: ra = u64 [sp + 0x48]\n 30115: s0 = u64 [sp + 0x40]\n 30118: s1 = u64 [sp + 0x38]\n 30121: sp = sp + 0x50\n 30124: ret\n      : @414 (gas: 1)\n 30126: trap\n      : @415 (gas: 12)\n 30127: a0 = u64 [sp + 0x70]\n 30130: a1 = u64 [sp + 0x78]\n 30133: a0 = a0 | a1\n 30136: a1 = u64 [sp + 0x98]\n 30140: a1 = a1 | s1\n 30143: a1 = a1 | a0\n 30146: a1 = a1 >> 0x20\n 30149: u64 [sp + 0x68] = s1\n 30152: a0 = a0 | s1\n 30155: a0 = a0 << 0x20\n 30158: a0 = a0 | a1\n 30161: jump @429 if a0 != 0\n      : @416 (gas: 11)\n 30165: s1 = u64 [sp + 0xd8]\n 30169: u64 [sp + 0x80] = s1\n 30173: a0 = u64 [sp + 0xd0]\n 30177: u64 [sp + 0x90] = a0\n 30181: a0 = u64 [sp + 0xc8]\n 30185: u64 [sp + 0x60] = a0\n 30188: a0 = u64 [sp + 0xc0]\n 30192: u64 [sp + 0x88] = a0\n 30196: a0 = i32 [sp + 0x98]\n 30200: a1 = 0x20\n 30203: ra = 354, jump @0\n      : @417 [@dyn 177] (gas: 70)\n 30209: a1 = reverse s1\n 30211: a2 = u64 [sp + 0x90]\n 30215: a2 = reverse a2\n 30217: s1 = u64 [sp + 0x60]\n 30220: a3 = reverse s1\n 30222: a4 = u64 [sp + 0x88]\n 30226: a4 = reverse a4\n 30228: a5 = a4 >> 0x38\n 30231: u8 [a0 + 0x1f] = a5\n 30234: a5 = a4 >> 0x30\n 30237: u8 [a0 + 0x1e] = a5\n 30240: a5 = a4 >> 0x28\n 30243: u8 [a0 + 0x1d] = a5\n 30246: a5 = a4 >> 0x20\n 30249: u8 [a0 + 0x1c] = a5\n 30252: a5 = a4 >> 0x18\n 30255: u8 [a0 + 0x1b] = a5\n 30258: a5 = a4 >> 0x10\n 30261: u8 [a0 + 0x1a] = a5\n 30264: a5 = a4 >> 0x8\n 30267: u8 [a0 + 0x19] = a5\n 30270: u8 [a0 + 0x18] = a4\n 30273: u8 [a0 + 0x10] = a3\n 30276: a4 = a3 >> 0x38\n 30279: u8 [a0 + 0x17] = a4\n 30282: a4 = a3 >> 0x30\n 30285: u8 [a0 + 0x16] = a4\n 30288: a4 = a3 >> 0x28\n 30291: u8 [a0 + 0x15] = a4\n 30294: a4 = a3 >> 0x20\n 30297: u8 [a0 + 0x14] = a4\n 30300: a4 = a3 >> 0x18\n 30303: u8 [a0 + 0x13] = a4\n 30306: a4 = a3 >> 0x10\n 30309: u8 [a0 + 0x12] = a4\n 30312: a3 = a3 >> 0x8\n 30315: u8 [a0 + 0x11] = a3\n 30318: u8 [a0 + 0x8] = a2\n 30321: a3 = a2 >> 0x38\n 30324: u8 [a0 + 0xf] = a3\n 30327: a3 = a2 >> 0x30\n 30330: u8 [a0 + 0xe] = a3\n 30333: a3 = a2 >> 0x28\n 30336: u8 [a0 + 0xd] = a3\n 30339: a3 = a2 >> 0x20\n 30342: u8 [a0 + 0xc] = a3\n 30345: a3 = a2 >> 0x18\n 30348: u8 [a0 + 0xb] = a3\n 30351: a3 = a2 >> 0x10\n 30354: u8 [a0 + 0xa] = a3\n 30357: a2 = a2 >> 0x8\n 30360: u8 [a0 + 0x9] = a2\n 30363: u8 [a0] = a1\n 30365: a2 = a1 >> 0x38\n 30368: u8 [a0 + 0x7] = a2\n 30371: a2 = a1 >> 0x30\n 30374: u8 [a0 + 0x6] = a2\n 30377: a2 = a1 >> 0x28\n 30380: u8 [a0 + 0x5] = a2\n 30383: a2 = a1 >> 0x20\n 30386: u8 [a0 + 0x4] = a2\n 30389: a2 = a1 >> 0x18\n 30392: u8 [a0 + 0x3] = a2\n 30395: a2 = a1 >> 0x10\n 30398: u8 [a0 + 0x2] = a2\n 30401: a1 = a1 >> 0x8\n 30404: u8 [a0 + 0x1] = a1\n 30407: a1 = 0x20\n 30410: a0 = 0\n 30412: ra = 356, jump @0\n      : @418 [@dyn 178] (gas: 71)\n 30418: a1 = u64 [sp + 0x40]\n 30421: a1 = reverse a1\n 30423: a2 = u64 [sp + 0x48]\n 30426: a2 = reverse a2\n 30428: a3 = u64 [sp + 0x50]\n 30431: a3 = reverse a3\n 30433: a4 = u64 [sp + 0x58]\n 30436: a4 = reverse a4\n 30438: a5 = a4 >> 0x38\n 30441: u8 [a0 + 0x1f] = a5\n 30444: a5 = a4 >> 0x30\n 30447: u8 [a0 + 0x1e] = a5\n 30450: a5 = a4 >> 0x28\n 30453: u8 [a0 + 0x1d] = a5\n 30456: a5 = a4 >> 0x20\n 30459: u8 [a0 + 0x1c] = a5\n 30462: a5 = a4 >> 0x18\n 30465: u8 [a0 + 0x1b] = a5\n 30468: a5 = a4 >> 0x10\n 30471: u8 [a0 + 0x1a] = a5\n 30474: a5 = a4 >> 0x8\n 30477: u8 [a0 + 0x19] = a5\n 30480: u8 [a0 + 0x18] = a4\n 30483: a4 = a3 >> 0x38\n 30486: u8 [a0 + 0x17] = a4\n 30489: a4 = a3 >> 0x30\n 30492: u8 [a0 + 0x16] = a4\n 30495: a4 = a3 >> 0x28\n 30498: u8 [a0 + 0x15] = a4\n 30501: a4 = a3 >> 0x20\n 30504: u8 [a0 + 0x14] = a4\n 30507: a4 = a3 >> 0x18\n 30510: u8 [a0 + 0x13] = a4\n 30513: a4 = a3 >> 0x10\n 30516: u8 [a0 + 0x12] = a4\n 30519: a4 = a3 >> 0x8\n 30522: u8 [a0 + 0x11] = a4\n 30525: u8 [a0 + 0x10] = a3\n 30528: a3 = a2 >> 0x38\n 30531: u8 [a0 + 0xf] = a3\n 30534: a3 = a2 >> 0x30\n 30537: u8 [a0 + 0xe] = a3\n 30540: a3 = a2 >> 0x28\n 30543: u8 [a0 + 0xd] = a3\n 30546: a3 = a2 >> 0x20\n 30549: u8 [a0 + 0xc] = a3\n 30552: a3 = a2 >> 0x18\n 30555: u8 [a0 + 0xb] = a3\n 30558: a3 = a2 >> 0x10\n 30561: u8 [a0 + 0xa] = a3\n 30564: a3 = a2 >> 0x8\n 30567: u8 [a0 + 0x9] = a3\n 30570: u8 [a0 + 0x8] = a2\n 30573: a2 = a1 >> 0x38\n 30576: u8 [a0 + 0x7] = a2\n 30579: a2 = a1 >> 0x30\n 30582: u8 [a0 + 0x6] = a2\n 30585: a2 = a1 >> 0x28\n 30588: u8 [a0 + 0x5] = a2\n 30591: a2 = a1 >> 0x20\n 30594: u8 [a0 + 0x4] = a2\n 30597: a2 = a1 >> 0x18\n 30600: u8 [a0 + 0x3] = a2\n 30603: a2 = a1 >> 0x10\n 30606: u8 [a0 + 0x2] = a2\n 30609: a2 = a1 >> 0x8\n 30612: u8 [a0 + 0x1] = a2\n 30615: u8 [a0] = a1\n 30617: a1 = 0x20\n 30620: a0 = 0\n 30622: ra = 358, jump @0\n      : @419 [@dyn 179] (gas: 5)\n 30628: i32 a0 = a0 + 0\n 30630: i32 a2 = sp + 0xc0\n 30634: a1 = 0x20\n 30637: ecalli 8 // 'hash_keccak_256'\n 30639: fallthrough\n      : @420 (gas: 20)\n 30640: a1 = u64 [sp + 0x98]\n 30644: a0 = a1 + 0x20\n 30647: u64 [sp + 0x50] = a0\n 30650: a2 = a0 <u a1\n 30653: a1 = u64 [sp + 0x78]\n 30656: t2 = a1 + a2\n 30659: a3 = t2 <u a1\n 30662: a3 = a2 if a2 == 0\n 30665: a2 = u64 [sp + 0x68]\n 30668: ra = a2 + a3\n 30671: a0 = u64 [sp + 0x90]\n 30675: a3 = u64 [sp + 0x88]\n 30679: a3 = a3 | a0\n 30682: a0 = u64 [sp + 0x80]\n 30686: a4 = s1 | a0\n 30689: a4 = a4 | a3\n 30692: a3 = ra <u a2\n 30695: t1 = u64 [sp + 0x70]\n 30698: a3 = a3 + t1\n 30701: jump @427 if a4 == 0\n      : @421 (gas: 161)\n 30705: a0 = 0xffffffe0\n 30715: a4 = u64 [sp + 0x98]\n 30719: s1 = a0 <u a4\n 30722: u64 [sp + 0x40] = s1\n 30725: a5 = a1 >u 0\n 30727: a5 = s1 if a1 == 0\n 30730: s1 = -a2\n 30732: a1 = s1 - a5\n 30735: u64 [sp + 0x58] = a1\n 30738: t0 = a1 >u 0\n 30740: a5 = s1 <u a5\n 30743: s1 = a2 >u 0\n 30745: s1 = s1 + t1\n 30748: s1 = -s1\n 30750: s1 = s1 - a5\n 30753: t1 = s1 >u 0\n 30755: t1 = t0 if s1 == 0\n 30758: a2 = s1\n 30760: u64 [sp + 0x48] = s1\n 30763: t0 = a0 - a4\n 30766: a1 = u64 [sp + 0x78]\n 30769: a5 = -a1\n 30771: a1 = u64 [sp + 0x40]\n 30774: a4 = a5 - a1\n 30777: u64 [sp + 0x40] = a0\n 30780: s1 = a0 <u t0\n 30783: a5 = a4 >u 0\n 30785: a5 = s1 if a4 == 0\n 30788: a1 = u64 [sp + 0x58]\n 30791: s1 = a1 | a2\n 30794: a5 = t1 if s1 != 0\n 30797: t0 = 0 if a5 != 0\n 30799: a0 = t0 + 0x1f\n 30802: s1 = a0 <u t0\n 30805: a4 = 0 if a5 != 0\n 30807: t0 = a4 + s1\n 30810: a4 = t0 <u a4\n 30813: a4 = s1 if s1 == 0\n 30816: a1 = 0 if a5 != 0\n 30818: u64 [sp + 0x58] = a1\n 30821: a1 = a1 + a4\n 30824: u64 [sp + 0x8] = a1\n 30827: a4 = a1 << 0x3b\n 30830: s1 = t0 >> 0x5\n 30833: t1 = s1 | a4\n 30836: t0 = t0 << 0x3b\n 30839: a4 = a0 >> 0x5\n 30842: s1 = a4 | t0\n 30845: u64 [sp + 0x38] = s1\n 30848: a1 = u64 [sp + 0x88]\n 30852: a4 = a1 <u 0x1\n 30855: t0 = u64 [sp + 0x60]\n 30858: a0 = t0 - a4\n 30861: u64 [sp + 0x20] = a0\n 30864: a2 = a1 + 0xffffffffffffffff\n 30867: u64 [sp + 0x30] = a2\n 30870: u64 [sp + 0x28] = t1\n 30873: a4 = a0 ^ t1\n 30876: t1 = a0 <u t1\n 30879: a0 = a2 <u s1\n 30882: a0 = t1 if a4 != 0\n 30885: u64 [sp + 0x10] = a0\n 30888: a4 = a1 | t0\n 30891: a4 = a4 <u 0x1\n 30894: a0 = u64 [sp + 0x90]\n 30898: t1 = a0 <u a4\n 30901: a1 = u64 [sp + 0x80]\n 30905: a1 = a1 - t1\n 30908: a0 = a0 - a4\n 30911: a2 = u64 [sp + 0x48]\n 30914: a2 = 0 if a5 != 0\n 30916: a4 = u64 [sp + 0x8]\n 30919: a5 = u64 [sp + 0x58]\n 30922: a5 = a4 <u a5\n 30925: a2 = a2 + a5\n 30928: t1 = a4 >> 0x5\n 30931: a5 = a2 << 0x3b\n 30934: t1 = t1 | a5\n 30937: a5 = a2 >> 0x5\n 30940: a2 = a0 <u t1\n 30943: t0 = a1 ^ a5\n 30946: a4 = a1 <u a5\n 30949: a4 = a2 if t0 == 0\n 30952: s1 = a0 ^ t1\n 30955: s1 = s1 | t0\n 30958: a2 = u64 [sp + 0x10]\n 30961: a4 = a2 if s1 == 0\n 30964: a1 = a5 if a4 == 0\n 30967: u64 [sp + 0x90] = a1\n 30971: a0 = t1 if a4 == 0\n 30974: a1 = u64 [sp + 0x20]\n 30977: a2 = u64 [sp + 0x28]\n 30980: a1 = a2 if a4 == 0\n 30983: a2 = u64 [sp + 0x30]\n 30986: a5 = u64 [sp + 0x38]\n 30989: a2 = a5 if a4 == 0\n 30992: a4 = a2 >> 0x3b\n 30995: a5 = a1 << 0x5\n 30998: t1 = a1\n 31000: a4 = a4 | a5\n 31003: a5 = a2 << 0x5\n 31006: s1 = u64 [sp + 0x78]\n 31009: s1 = s1 + a4\n 31012: a1 = u64 [sp + 0x98]\n 31016: a5 = a5 + a1\n 31019: u64 [sp + 0x60] = a5\n 31022: a4 = a5 <u a1\n 31025: s1 = s1 + a4\n 31028: a1 = u64 [sp + 0x78]\n 31031: t0 = s1 ^ a1\n 31034: a1 = u64 [sp + 0x78]\n 31037: a5 = s1 <u a1\n 31040: a5 = a4 if t0 == 0\n 31043: a1 = u64 [sp + 0xd0]\n 31047: u64 [sp + 0x88] = a1\n 31051: t1 = t1 >> 0x3b\n 31054: a4 = a0 << 0x5\n 31057: t1 = a4 | t1\n 31060: a1 = u64 [sp + 0xc8]\n 31064: u64 [sp + 0x80] = a1\n 31068: a0 = a0 >> 0x3b\n 31071: t0 = u64 [sp + 0x90]\n 31075: t0 = t0 << 0x5\n 31078: a4 = t0 | a0\n 31081: a2 = u64 [sp + 0x68]\n 31084: t0 = u64 [sp + 0x70]\n 31087: t0 = t0 + a4\n 31090: t1 = t1 + a2\n 31093: a4 = t1 <u a2\n 31096: t0 = t0 + a4\n 31099: a5 = a5 + t1\n 31102: a4 = a5 <u t1\n 31105: a1 = u64 [sp + 0x70]\n 31108: t0 = t0 + a4\n 31111: a4 = u64 [sp + 0x60]\n 31114: a0 = a4 + 0x20\n 31117: u64 [sp + 0x38] = a0\n 31120: a4 = a0 <u a4\n 31123: a0 = s1 + a4\n 31126: u64 [sp + 0x30] = a0\n 31129: s1 = a0 <u s1\n 31132: s1 = a4 if a4 == 0\n 31135: a0 = u64 [sp + 0xc0]\n 31139: s1 = s1 + a5\n 31142: u64 [sp + 0x28] = s1\n 31145: a5 = s1 <u a5\n 31148: a5 = a5 + t0\n 31151: u64 [sp + 0x20] = a5\n 31154: a4 = u64 [sp + 0x78]\n 31157: a5 = u64 [sp + 0xd8]\n 31161: a0 = reverse a0\n 31163: u64 [sp + 0x90] = a0\n 31167: a0 = u64 [sp + 0x80]\n 31171: t0 = reverse a0\n 31173: a0 = u64 [sp + 0x88]\n 31177: a0 = reverse a0\n 31179: u64 [sp + 0x88] = a0\n 31183: a0 = reverse a5\n 31185: u64 [sp + 0x80] = a0\n 31189: t1 = u64 [sp + 0x50]\n 31192: fallthrough\n      : @422 (gas: 29)\n 31193: u64 [sp + 0x60] = a1\n 31196: u64 [sp + 0x58] = a2\n 31199: s1 = a4\n 31201: a0 = u64 [sp + 0x98]\n 31205: u64 [sp + 0x50] = a0\n 31208: u64 [sp + 0x70] = a3\n 31211: u64 [sp + 0x68] = ra\n 31214: u64 [sp + 0x78] = t2\n 31217: u64 [sp + 0x98] = t1\n 31221: u64 [sp + 0x48] = t0\n 31224: u64 [sp + 0xb0] = t0\n 31228: a0 = u64 [sp + 0x88]\n 31232: u64 [sp + 0xa8] = a0\n 31236: a0 = u64 [sp + 0x80]\n 31240: u64 [sp + 0xa0] = a0\n 31244: a0 = u64 [sp + 0x90]\n 31248: u64 [sp + 0xb8] = a0\n 31252: u64 [sp + 216] = 0\n 31256: u64 [sp + 208] = 0\n 31260: u64 [sp + 200] = 0\n 31264: u64 [sp + 192] = 0\n 31268: u32 [sp + 224] = 0x20\n 31273: i32 a1 = sp + 0xa0\n 31277: i32 a3 = sp + 0xc0\n 31281: i32 a4 = sp + 0xe0\n 31285: a2 = 0xffffffffffffffff\n 31288: a0 = 0\n 31290: ecalli 7 // 'get_storage'\n 31292: fallthrough\n      : @423 (gas: 9)\n 31293: a0 = u64 [sp + 0x60]\n 31296: a1 = u64 [sp + 0x58]\n 31299: a0 = a0 | a1\n 31302: a1 = u64 [sp + 0x40]\n 31305: a2 = u64 [sp + 0x50]\n 31308: a1 = a2 <u a1\n 31311: a1 = 0 if s1 != 0\n 31313: a1 = 0 if a0 != 0\n 31315: jump @429 if a1 == 0\n      : @424 (gas: 10)\n 31319: a0 = u64 [sp + 0xd0]\n 31323: a1 = u64 [sp + 0xc8]\n 31327: u64 [sp + 0x58] = a1\n 31330: a1 = u64 [sp + 0xc0]\n 31334: u64 [sp + 0x60] = a1\n 31337: a0 = a0 << 0x20\n 31340: s1 = a0 >> 0x20\n 31343: a0 = i32 [sp + 0x98]\n 31347: a1 = 0x20\n 31350: ra = 360, jump @0\n      : @425 [@dyn 180] (gas: 95)\n 31356: a1 = reverse s1\n 31358: a2 = u64 [sp + 0x58]\n 31361: a2 = reverse a2\n 31363: a3 = u64 [sp + 0x60]\n 31366: a3 = reverse a3\n 31368: a4 = a3 >> 0x38\n 31371: u8 [a0 + 0x1f] = a4\n 31374: a4 = a3 >> 0x30\n 31377: u8 [a0 + 0x1e] = a4\n 31380: a4 = a3 >> 0x28\n 31383: u8 [a0 + 0x1d] = a4\n 31386: a4 = a3 >> 0x20\n 31389: u8 [a0 + 0x1c] = a4\n 31392: a4 = a3 >> 0x18\n 31395: u8 [a0 + 0x1b] = a4\n 31398: a4 = a3 >> 0x10\n 31401: u8 [a0 + 0x1a] = a4\n 31404: a4 = a3 >> 0x8\n 31407: u8 [a0 + 0x19] = a4\n 31410: u8 [a0 + 0x18] = a3\n 31413: u8 [a0 + 0x10] = a2\n 31416: u8 [a0 + 11] = 0\n 31419: u8 [a0 + 10] = 0\n 31422: u8 [a0 + 9] = 0\n 31425: u8 [a0 + 7] = 0\n 31428: u8 [a0 + 6] = 0\n 31431: u8 [a0 + 5] = 0\n 31434: u8 [a0 + 4] = 0\n 31437: u8 [a0 + 3] = 0\n 31440: u8 [a0 + 2] = 0\n 31443: u8 [a0 + 1] = 0\n 31446: u8 [a0 + 0] = 0\n 31448: a3 = a2 >> 0x38\n 31451: u8 [a0 + 0x17] = a3\n 31454: a3 = a2 >> 0x30\n 31457: u8 [a0 + 0x16] = a3\n 31460: a3 = a2 >> 0x28\n 31463: u8 [a0 + 0x15] = a3\n 31466: a3 = a2 >> 0x20\n 31469: u8 [a0 + 0x14] = a3\n 31472: a3 = a2 >> 0x18\n 31475: u8 [a0 + 0x13] = a3\n 31478: a3 = a2 >> 0x10\n 31481: u8 [a0 + 0x12] = a3\n 31484: a2 = a2 >> 0x8\n 31487: u8 [a0 + 0x11] = a2\n 31490: u8 [a0 + 0x8] = a1\n 31493: a2 = a1 >> 0x38\n 31496: u8 [a0 + 0xf] = a2\n 31499: a2 = a1 >> 0x30\n 31502: u8 [a0 + 0xe] = a2\n 31505: a2 = a1 >> 0x28\n 31508: u8 [a0 + 0xd] = a2\n 31511: a1 = a1 >> 0x20\n 31514: u8 [a0 + 0xc] = a1\n 31517: a2 = u64 [sp + 0x80]\n 31521: a2 = a2 + 0x1\n 31524: a0 = a2 <u 0x1\n 31527: a1 = u64 [sp + 0x88]\n 31531: a1 = a1 + a0\n 31534: u64 [sp + 0x88] = a1\n 31538: u64 [sp + 0x80] = a2\n 31542: a0 = a2 | a1\n 31545: a4 = a0 <u 0x1\n 31548: a0 = u64 [sp + 0x48]\n 31551: t0 = a0 + a4\n 31554: a0 = t0 <u a0\n 31557: a1 = u64 [sp + 0x90]\n 31561: a1 = a1 + a0\n 31564: u64 [sp + 0x90] = a1\n 31568: a0 = u64 [sp + 0x98]\n 31572: t1 = a0 + 0x20\n 31575: a2 = t1 <u a0\n 31578: s1 = a0\n 31580: a4 = u64 [sp + 0x78]\n 31583: t2 = a4 + a2\n 31586: a3 = t2 <u a4\n 31589: a3 = a2 if a2 == 0\n 31592: a0 = u64 [sp + 0x38]\n 31595: s1 = s1 ^ a0\n 31598: a2 = u64 [sp + 0x68]\n 31601: a5 = u64 [sp + 0x28]\n 31604: a5 = a5 ^ a2\n 31607: a5 = a5 | s1\n 31610: a0 = u64 [sp + 0x30]\n 31613: a0 = a0 ^ a4\n 31616: a1 = u64 [sp + 0x70]\n 31619: s1 = u64 [sp + 0x20]\n 31622: s1 = s1 ^ a1\n 31625: s1 = s1 | a0\n 31628: ra = a2 + a3\n 31631: a5 = a5 | s1\n 31634: a3 = ra <u a2\n 31637: a3 = a3 + a1\n 31640: jump @422 if a5 != 0\n      : @426 (gas: 1)\n 31644: jump @428\n      : @427 (gas: 2)\n 31646: t1 = u64 [sp + 0x50]\n 31649: fallthrough\n      : @428 (gas: 11)\n 31650: a4 = u64 [sp + 0x18]\n 31653: u64 [a4] = t1\n 31655: u64 [a4 + 0x8] = t2\n 31658: u64 [a4 + 0x10] = ra\n 31661: u64 [a4 + 0x18] = a3\n 31664: sp = s0 + 0xffffffffffffff00\n 31668: ra = u64 [sp + 0xf8]\n 31672: s0 = u64 [sp + 0xf0]\n 31676: s1 = u64 [sp + 0xe8]\n 31680: sp = sp + 0x100\n 31684: ret\n      : @429 (gas: 1)\n 31686: trap\n      : @430 (gas: 18)\n 31687: sp = sp + 0xffffffffffffff00\n 31691: u64 [sp + 0xf8] = ra\n 31695: u64 [sp + 0xf0] = s0\n 31699: u64 [sp + 0xe8] = s1\n 31703: s0 = sp + 0x100\n 31707: sp = sp & 0xfffffffffffffff0\n 31710: a2 = u64 [a1]\n 31712: u64 [sp + 0x20] = a2\n 31715: a2 = u64 [a1 + 0x8]\n 31718: u64 [sp + 0x10] = a2\n 31721: a2 = u64 [a1 + 0x10]\n 31724: u64 [sp + 0x8] = a2\n 31727: a1 = u64 [a1 + 0x18]\n 31730: u64 [sp] = a1\n 31732: u64 [sp + 0x18] = a0\n 31735: a0 = 0x40\n 31738: a1 = 0x20\n 31741: ra = 362, jump @0\n      : @431 [@dyn 181] (gas: 149)\n 31747: a1 = u8 [a0 + 0x1]\n 31750: a2 = u8 [a0]\n 31752: a3 = u8 [a0 + 0x2]\n 31755: a4 = u8 [a0 + 0x3]\n 31758: a1 = a1 << 0x8\n 31761: a1 = a1 | a2\n 31764: a3 = a3 << 0x10\n 31767: a4 = a4 << 0x18\n 31770: a3 = a3 | a4\n 31773: a1 = a1 | a3\n 31776: a2 = u8 [a0 + 0x5]\n 31779: a3 = u8 [a0 + 0x4]\n 31782: a4 = u8 [a0 + 0x6]\n 31785: a5 = u8 [a0 + 0x7]\n 31788: a2 = a2 << 0x8\n 31791: a2 = a2 | a3\n 31794: a4 = a4 << 0x10\n 31797: a5 = a5 << 0x18\n 31800: a4 = a4 | a5\n 31803: a2 = a2 | a4\n 31806: a2 = a2 << 0x20\n 31809: t0 = a2 | a1\n 31812: a2 = u8 [a0 + 0x9]\n 31815: a3 = u8 [a0 + 0x8]\n 31818: a4 = u8 [a0 + 0xa]\n 31821: a5 = u8 [a0 + 0xb]\n 31824: a2 = a2 << 0x8\n 31827: a2 = a2 | a3\n 31830: a4 = a4 << 0x10\n 31833: a5 = a5 << 0x18\n 31836: a4 = a4 | a5\n 31839: a2 = a2 | a4\n 31842: a3 = u8 [a0 + 0xd]\n 31845: a4 = u8 [a0 + 0xc]\n 31848: a5 = u8 [a0 + 0xe]\n 31851: s1 = u8 [a0 + 0xf]\n 31854: a3 = a3 << 0x8\n 31857: a3 = a3 | a4\n 31860: a5 = a5 << 0x10\n 31863: s1 = s1 << 0x18\n 31866: a5 = a5 | s1\n 31869: a3 = a3 | a5\n 31872: a3 = a3 << 0x20\n 31875: a2 = a2 | a3\n 31878: a3 = u8 [a0 + 0x11]\n 31881: a4 = u8 [a0 + 0x10]\n 31884: a5 = u8 [a0 + 0x12]\n 31887: s1 = u8 [a0 + 0x13]\n 31890: a3 = a3 << 0x8\n 31893: a3 = a3 | a4\n 31896: a5 = a5 << 0x10\n 31899: s1 = s1 << 0x18\n 31902: a5 = a5 | s1\n 31905: a3 = a3 | a5\n 31908: a4 = u8 [a0 + 0x15]\n 31911: a5 = u8 [a0 + 0x14]\n 31914: s1 = u8 [a0 + 0x16]\n 31917: a1 = u8 [a0 + 0x17]\n 31920: a4 = a4 << 0x8\n 31923: a4 = a4 | a5\n 31926: s1 = s1 << 0x10\n 31929: a1 = a1 << 0x18\n 31932: a1 = a1 | s1\n 31935: a1 = a1 | a4\n 31938: a1 = a1 << 0x20\n 31941: a3 = a3 | a1\n 31944: a1 = u8 [a0 + 0x19]\n 31947: a4 = u8 [a0 + 0x18]\n 31950: a5 = u8 [a0 + 0x1a]\n 31953: s1 = u8 [a0 + 0x1b]\n 31956: a1 = a1 << 0x8\n 31959: a1 = a1 | a4\n 31962: a5 = a5 << 0x10\n 31965: s1 = s1 << 0x18\n 31968: a5 = a5 | s1\n 31971: a1 = a1 | a5\n 31974: a4 = u8 [a0 + 0x1d]\n 31977: a5 = u8 [a0 + 0x1c]\n 31980: s1 = u8 [a0 + 0x1e]\n 31983: a0 = u8 [a0 + 0x1f]\n 31986: a4 = a4 << 0x8\n 31989: a4 = a4 | a5\n 31992: s1 = s1 << 0x10\n 31995: a0 = a0 << 0x18\n 31998: a0 = a0 | s1\n 32001: a0 = a0 | a4\n 32004: a0 = a0 << 0x20\n 32007: a0 = a0 | a1\n 32010: a4 = reverse a0\n 32012: u64 [sp + 0x38] = a4\n 32015: s1 = reverse a3\n 32017: a2 = reverse a2\n 32019: u64 [sp + 0x30] = a2\n 32022: a1 = reverse t0\n 32024: u64 [sp + 0x28] = a1\n 32027: a0 = u64 [sp]\n 32029: u64 [sp + 0xb8] = a0\n 32033: a0 = u64 [sp + 0x8]\n 32036: u64 [sp + 0xb0] = a0\n 32040: a0 = u64 [sp + 0x10]\n 32043: u64 [sp + 0xa8] = a0\n 32047: a0 = u64 [sp + 0x20]\n 32050: u64 [sp + 0xa0] = a0\n 32054: u64 [sp + 0x98] = a1\n 32058: u64 [sp + 0x90] = a2\n 32062: u64 [sp + 0x88] = s1\n 32066: a0 = sp + 0xc0\n 32070: a1 = sp + 0xa0\n 32074: a2 = sp + 0x80\n 32078: u64 [sp + 0x80] = a4\n 32082: ra = 0x16c\n 32086: sp = sp + 0xffffffffffffff00\n 32090: u64 [sp + 0xf8] = ra\n 32094: u64 [sp + 0xf0] = s0\n 32098: u64 [sp + 0xe8] = s1\n 32102: s0 = sp + 0x100\n 32106: sp = sp & 0xffffffffffffffe0\n 32109: u64 [sp + 0x18] = a0\n 32112: s1 = u64 [a2 + 0x10]\n 32115: a0 = u64 [a2]\n 32117: u64 [sp + 0x98] = a0\n 32121: a0 = u64 [a2 + 0x18]\n 32124: u64 [sp + 0x70] = a0\n 32127: a0 = u64 [a2 + 0x8]\n 32130: u64 [sp + 0x78] = a0\n 32133: a4 = u64 [a1 + 0x18]\n 32136: a3 = u64 [a1 + 0x10]\n 32139: a2 = u64 [a1 + 0x8]\n 32142: a0 = u64 [a1]\n 32144: u64 [sp + 0x40] = a4\n 32147: u64 [sp + 0xb8] = a4\n 32151: u64 [sp + 0x48] = a3\n 32154: u64 [sp + 0xb0] = a3\n 32158: u64 [sp + 0x50] = a2\n 32161: u64 [sp + 0xa8] = a2\n 32165: u64 [sp + 0x58] = a0\n 32168: u64 [sp + 0xa0] = a0\n 32172: u64 [sp + 216] = 0\n 32176: u64 [sp + 208] = 0\n 32180: u64 [sp + 200] = 0\n 32184: u64 [sp + 192] = 0\n 32188: u32 [sp + 224] = 0x20\n 32193: i32 a1 = sp + 0xa0\n 32197: i32 a3 = sp + 0xc0\n 32201: i32 a4 = sp + 0xe0\n 32205: a2 = 0xffffffffffffffff\n 32208: a0 = 0\n 32210: ecalli 7 // 'get_storage'\n 32212: jump @415\n      : @432 [@dyn 182] (gas: 58)\n 32215: t2 = s1\n 32217: a3 = u64 [sp + 0xc8]\n 32221: a0 = u64 [sp + 0xd8]\n 32225: u64 [sp + 0x10] = a0\n 32228: a4 = u64 [sp + 0xc0]\n 32232: t1 = u64 [sp + 0xd0]\n 32236: a5 = a3 ^ s1\n 32239: a1 = a3 <u s1\n 32242: a2 = u64 [sp + 0x38]\n 32245: s1 = a4 <u a2\n 32248: a1 = s1 if a5 == 0\n 32251: a3 = a3 - t2\n 32254: a3 = a3 - s1\n 32257: u64 [sp + 0x8] = a3\n 32260: a4 = a4 - a2\n 32263: a5 = a4 + 0x1f\n 32266: a4 = a5 <u a4\n 32269: a3 = a3 + a4\n 32272: a5 = a5 & 0xffffffffffffffe0\n 32275: a0 = a3 + t2\n 32278: a2 = a2 + a5\n 32281: u64 [sp + 0x20] = a2\n 32284: a5 = a2 <u a5\n 32287: t0 = a0 + a5\n 32290: a0 = t0 ^ a3\n 32293: a2 = t0 <u a3\n 32296: a2 = a5 if a0 == 0\n 32299: s1 = u64 [sp + 0x30]\n 32302: a0 = t1 - s1\n 32305: a5 = t1 <u s1\n 32308: t1 = s1\n 32310: ra = u64 [sp + 0x28]\n 32313: s1 = u64 [sp + 0x10]\n 32316: s1 = s1 - ra\n 32319: s1 = s1 - a5\n 32322: a5 = a0 <u a1\n 32325: s1 = s1 - a5\n 32328: a0 = a0 - a1\n 32331: a1 = u64 [sp + 0x8]\n 32334: a1 = a3 <u a1\n 32337: a1 = a4 if a4 == 0\n 32340: a1 = a1 + a0\n 32343: a0 = a1 <u a0\n 32346: a3 = a1 + t1\n 32349: a5 = a3 + a2\n 32352: a1 = a3 <u a1\n 32355: a2 = a5 <u a3\n 32358: s1 = s1 + ra\n 32361: a0 = a0 + s1\n 32364: a0 = a0 + a1\n 32367: s1 = a0 + a2\n 32370: a0 = s1 >u 0\n 32372: a1 = a5 >u 0\n 32374: a1 = a0 if s1 != 0\n 32377: a0 = a5 | s1\n 32380: a2 = t0 >u 0\n 32382: a2 = a1 if a0 != 0\n 32385: jump @436 if a2 != 0\n      : @433 (gas: 15)\n 32389: a4 = t1\n 32391: a0 = u64 [sp + 0x38]\n 32394: a1 = u64 [sp + 0x20]\n 32397: a0 = a1 <u a0\n 32400: a1 = t0 ^ t2\n 32403: a2 = t0 <u t2\n 32406: a2 = a0 if a1 == 0\n 32409: a0 = a5 <u t1\n 32412: a1 = s1 ^ ra\n 32415: a3 = s1 <u ra\n 32418: a3 = a0 if a1 == 0\n 32421: a0 = a5 ^ t1\n 32424: a0 = a0 | a1\n 32427: a3 = a2 if a0 == 0\n 32430: jump @436 if a3 != 0\n      : @434 (gas: 6)\n 32434: a0 = 0x40\n 32437: a1 = 0x20\n 32440: u64 [sp + 0x10] = t2\n 32443: u64 [sp + 0x8] = t0\n 32446: u64 [sp] = a5\n 32448: ra = 366, jump @0\n      : @435 [@dyn 183] (gas: 82)\n 32454: a1 = reverse s1\n 32456: a2 = u64 [sp]\n 32458: a2 = reverse a2\n 32460: a3 = u64 [sp + 0x8]\n 32463: a3 = reverse a3\n 32465: a4 = u64 [sp + 0x20]\n 32468: a4 = reverse a4\n 32470: u8 [a0 + 0x18] = a4\n 32473: a5 = a4 >> 0x38\n 32476: u8 [a0 + 0x1f] = a5\n 32479: a5 = a4 >> 0x30\n 32482: u8 [a0 + 0x1e] = a5\n 32485: a5 = a4 >> 0x28\n 32488: u8 [a0 + 0x1d] = a5\n 32491: a5 = a4 >> 0x20\n 32494: u8 [a0 + 0x1c] = a5\n 32497: a5 = a4 >> 0x18\n 32500: u8 [a0 + 0x1b] = a5\n 32503: a5 = a4 >> 0x10\n 32506: u8 [a0 + 0x1a] = a5\n 32509: a4 = a4 >> 0x8\n 32512: u8 [a0 + 0x19] = a4\n 32515: u8 [a0 + 0x10] = a3\n 32518: a4 = a3 >> 0x38\n 32521: u8 [a0 + 0x17] = a4\n 32524: a4 = a3 >> 0x30\n 32527: u8 [a0 + 0x16] = a4\n 32530: a4 = a3 >> 0x28\n 32533: u8 [a0 + 0x15] = a4\n 32536: a4 = a3 >> 0x20\n 32539: u8 [a0 + 0x14] = a4\n 32542: a4 = a3 >> 0x18\n 32545: u8 [a0 + 0x13] = a4\n 32548: a4 = a3 >> 0x10\n 32551: u8 [a0 + 0x12] = a4\n 32554: a3 = a3 >> 0x8\n 32557: u8 [a0 + 0x11] = a3\n 32560: u8 [a0 + 0x8] = a2\n 32563: a3 = a2 >> 0x38\n 32566: u8 [a0 + 0xf] = a3\n 32569: a3 = a2 >> 0x30\n 32572: u8 [a0 + 0xe] = a3\n 32575: a3 = a2 >> 0x28\n 32578: u8 [a0 + 0xd] = a3\n 32581: a3 = a2 >> 0x20\n 32584: u8 [a0 + 0xc] = a3\n 32587: a3 = a2 >> 0x18\n 32590: u8 [a0 + 0xb] = a3\n 32593: a3 = a2 >> 0x10\n 32596: u8 [a0 + 0xa] = a3\n 32599: a2 = a2 >> 0x8\n 32602: u8 [a0 + 0x9] = a2\n 32605: u8 [a0] = a1\n 32607: a2 = a1 >> 0x38\n 32610: u8 [a0 + 0x7] = a2\n 32613: a2 = a1 >> 0x30\n 32616: u8 [a0 + 0x6] = a2\n 32619: a2 = a1 >> 0x28\n 32622: u8 [a0 + 0x5] = a2\n 32625: a2 = a1 >> 0x20\n 32628: u8 [a0 + 0x4] = a2\n 32631: a2 = a1 >> 0x18\n 32634: u8 [a0 + 0x3] = a2\n 32637: a2 = a1 >> 0x10\n 32640: u8 [a0 + 0x2] = a2\n 32643: a1 = a1 >> 0x8\n 32646: u8 [a0 + 0x1] = a1\n 32649: a0 = u64 [sp + 0x18]\n 32652: a1 = u64 [sp + 0x38]\n 32655: u64 [a0] = a1\n 32657: a1 = u64 [sp + 0x28]\n 32660: u64 [a0 + 0x18] = a1\n 32663: a1 = u64 [sp + 0x10]\n 32666: u64 [a0 + 0x8] = a1\n 32669: a1 = u64 [sp + 0x30]\n 32672: u64 [a0 + 0x10] = a1\n 32675: sp = s0 + 0xffffffffffffff00\n 32679: ra = u64 [sp + 0xf8]\n 32683: s0 = u64 [sp + 0xf0]\n 32687: s1 = u64 [sp + 0xe8]\n 32691: sp = sp + 0x100\n 32695: ret\n      : @436 (gas: 8)\n 32697: u64 [sp + 112] = 0\n 32700: u64 [sp + 104] = 0\n 32703: u64 [sp + 96] = 0\n 32706: a0 = 0x4e487b7100000000\n 32716: a1 = sp + 0x60\n 32719: u64 [sp + 0x78] = a0\n 32722: a0 = 0\n 32724: ra = 368, jump @8\n      : @437 [@dyn 184] (gas: 7)\n 32730: u64 [sp + 88] = 0\n 32733: u64 [sp + 80] = 0\n 32736: u64 [sp + 64] = 0x41\n 32740: a0 = 0x4\n 32743: a1 = sp + 0x40\n 32746: u64 [sp + 72] = 0\n 32749: ra = 370, jump @8\n      : @438 [@dyn 185] (gas: 3)\n 32755: a1 = 0x24\n 32758: a0 = 0\n 32760: ra = 372, jump @0\n      : @439 [@dyn 186] (gas: 6)\n 32766: i32 a1 = a0 + 0\n 32768: a0 = 0x1\n 32771: a2 = 0x24\n 32774: ra = 0x176\n 32778: ecalli 13 // 'seal_return'\n 32780: fallthrough\n      : @440 [@dyn 187] (gas: 18)\n 32781: sp = sp + 0xffffffffffffffa0\n 32784: u64 [sp + 0x58] = ra\n 32787: u64 [sp + 0x50] = s0\n 32790: u64 [sp + 0x48] = s1\n 32793: s0 = sp + 0x60\n 32796: sp = sp & 0xfffffffffffffff0\n 32799: a2 = u64 [a1]\n 32801: a3 = u64 [a1 + 0x8]\n 32804: a4 = u64 [a1 + 0x10]\n 32807: a1 = u64 [a1 + 0x18]\n 32810: s1 = a0\n 32812: u64 [sp + 0x18] = a1\n 32815: u64 [sp + 0x10] = a4\n 32818: u64 [sp + 0x8] = a3\n 32821: a0 = sp + 0x20\n 32824: a1 = sp\n 32826: u64 [sp] = a2\n 32828: ra = 376, jump @430\n      : @441 [@dyn 188] (gas: 14)\n 32834: a0 = u64 [sp + 0x30]\n 32837: a1 = u64 [sp + 0x38]\n 32840: a2 = u64 [sp + 0x20]\n 32843: a3 = u64 [sp + 0x28]\n 32846: u64 [s1 + 0x10] = a0\n 32849: u64 [s1 + 0x18] = a1\n 32852: u64 [s1] = a2\n 32854: u64 [s1 + 0x8] = a3\n 32857: sp = s0 + 0xffffffffffffffa0\n 32860: ra = u64 [sp + 0x58]\n 32863: s0 = u64 [sp + 0x50]\n 32866: s1 = u64 [sp + 0x48]\n 32869: sp = sp + 0x60\n 32872: ret\n      : @442 [@dyn 189] (gas: 97)\n 32874: a1 = u8 [a0 + 0x19]\n 32877: a2 = u8 [a0 + 0x18]\n 32880: a3 = u8 [a0 + 0x1a]\n 32883: a4 = u8 [a0 + 0x1b]\n 32886: a1 = a1 << 0x8\n 32889: a1 = a1 | a2\n 32892: a3 = a3 << 0x10\n 32895: a4 = a4 << 0x18\n 32898: a3 = a3 | a4\n 32901: a1 = a1 | a3\n 32904: a2 = u8 [a0 + 0x1d]\n 32907: a3 = u8 [a0 + 0x1c]\n 32910: a4 = u8 [a0 + 0x1e]\n 32913: a5 = u8 [a0 + 0x1f]\n 32916: a2 = a2 << 0x8\n 32919: a2 = a2 | a3\n 32922: a4 = a4 << 0x10\n 32925: a5 = a5 << 0x18\n 32928: a4 = a4 | a5\n 32931: a2 = a2 | a4\n 32934: a2 = a2 << 0x20\n 32937: t0 = a2 | a1\n 32940: a2 = u8 [a0 + 0x11]\n 32943: a3 = u8 [a0 + 0x10]\n 32946: a4 = u8 [a0 + 0x12]\n 32949: a5 = u8 [a0 + 0x13]\n 32952: a2 = a2 << 0x8\n 32955: a2 = a2 | a3\n 32958: a4 = a4 << 0x10\n 32961: a5 = a5 << 0x18\n 32964: a4 = a4 | a5\n 32967: a2 = a2 | a4\n 32970: a3 = u8 [a0 + 0x15]\n 32973: a4 = u8 [a0 + 0x14]\n 32976: a5 = u8 [a0 + 0x16]\n 32979: s1 = u8 [a0 + 0x17]\n 32982: a3 = a3 << 0x8\n 32985: a3 = a3 | a4\n 32988: a5 = a5 << 0x10\n 32991: s1 = s1 << 0x18\n 32994: a5 = a5 | s1\n 32997: a3 = a3 | a5\n 33000: a3 = a3 << 0x20\n 33003: a2 = a2 | a3\n 33006: a3 = u8 [a0 + 0x9]\n 33009: a4 = u8 [a0 + 0x8]\n 33012: a5 = u8 [a0 + 0xa]\n 33015: s1 = u8 [a0 + 0xb]\n 33018: a3 = a3 << 0x8\n 33021: a3 = a3 | a4\n 33024: a5 = a5 << 0x10\n 33027: s1 = s1 << 0x18\n 33030: a5 = a5 | s1\n 33033: a3 = a3 | a5\n 33036: a4 = u8 [a0 + 0xd]\n 33039: a5 = u8 [a0 + 0xc]\n 33042: s1 = u8 [a0 + 0xe]\n 33045: a1 = u8 [a0 + 0xf]\n 33048: a4 = a4 << 0x8\n 33051: a4 = a4 | a5\n 33054: s1 = s1 << 0x10\n 33057: a1 = a1 << 0x18\n 33060: a1 = a1 | s1\n 33063: a1 = a1 | a4\n 33066: a1 = a1 << 0x20\n 33069: a3 = a3 | a1\n 33072: a1 = u8 [a0 + 0x1]\n 33075: a4 = u8 [a0]\n 33077: a5 = u8 [a0 + 0x2]\n 33080: s1 = u8 [a0 + 0x3]\n 33083: a1 = a1 << 0x8\n 33086: a1 = a1 | a4\n 33089: a5 = a5 << 0x10\n 33092: s1 = s1 << 0x18\n 33095: a5 = a5 | s1\n 33098: a1 = a1 | a5\n 33101: a4 = u8 [a0 + 0x5]\n 33104: a5 = u8 [a0 + 0x4]\n 33107: s1 = u8 [a0 + 0x6]\n 33110: a0 = u8 [a0 + 0x7]\n 33113: a4 = a4 << 0x8\n 33116: a4 = a4 | a5\n 33119: s1 = s1 << 0x10\n 33122: a0 = a0 << 0x18\n 33125: a0 = a0 | s1\n 33128: a0 = a0 | a4\n 33131: a0 = a0 << 0x20\n 33134: a0 = a0 | a1\n 33137: a4 = reverse a0\n 33139: a3 = reverse a3\n 33141: a2 = reverse a2\n 33143: s1 = reverse t0\n 33145: a0 = a3 | a4\n 33148: a1 = s1 <u 0xffffffffffffffe0\n 33151: a1 = 0 if a2 != 0\n 33153: a1 = 0 if a0 != 0\n 33155: jump @466 if a1 == 0\n      : @443 (gas: 8)\n 33159: a0 = s1 | a3\n 33162: a1 = a2 | a4\n 33165: a0 = a0 | a1\n 33168: a0 = a0 >> 0x20\n 33171: a1 = a1 | a3\n 33174: a1 = a1 << 0x20\n 33177: a0 = a0 | a1\n 33180: jump @464 if a0 != 0\n      : @444 (gas: 19)\n 33184: a0 = s1 + 0x20\n 33187: u64 [sp + 0x180] = a0\n 33191: a0 = a0 <u s1\n 33194: a1 = a2 + a0\n 33197: u64 [sp + 0x198] = a1\n 33201: u64 [sp + 0x178] = a2\n 33205: a1 = a1 <u a2\n 33208: a1 = a0 if a0 == 0\n 33211: a1 = a1 + a3\n 33214: u64 [sp + 0x190] = a1\n 33218: u64 [sp + 0x168] = a3\n 33222: a0 = a1 <u a3\n 33225: u64 [sp + 0x170] = a4\n 33229: a0 = a0 + a4\n 33232: u64 [sp + 0x188] = a0\n 33236: i32 a0 = s1 + 0\n 33238: a1 = 0x20\n 33241: u64 [sp + 0x108] = a0\n 33245: ra = 380, jump @0\n      : @445 [@dyn 190] (gas: 45)\n 33252: u8 [a0 + 31] = 0x54\n 33256: u8 [a0 + 30] = 0xfb\n 33261: u8 [a0 + 29] = 0x7b\n 33265: u8 [a0 + 28] = 0x75\n 33269: u8 [a0 + 27] = 0xfa\n 33274: u8 [a0 + 26] = 0x81\n 33279: u8 [a0 + 25] = 0x79\n 33283: u8 [a0 + 24] = 0xd2\n 33288: u8 [a0 + 23] = 0x35\n 33292: u8 [a0 + 22] = 0x41\n 33296: u8 [a0 + 21] = 0xe5\n 33301: u8 [a0 + 20] = 0xbd\n 33306: u8 [a0 + 19] = 0xf7\n 33311: u8 [a0 + 18] = 0x2\n 33315: u8 [a0 + 17] = 0x1d\n 33319: u8 [a0 + 16] = 0x8a\n 33324: u8 [a0 + 15] = 0x43\n 33328: u8 [a0 + 14] = 0x98\n 33333: u8 [a0 + 13] = 0xbb\n 33338: u8 [a0 + 12] = 0xe8\n 33343: u8 [a0 + 11] = 0x26\n 33347: u8 [a0 + 10] = 0x6d\n 33351: u8 [a0 + 9] = 0x9e\n 33356: u8 [a0 + 8] = 0xaf\n 33361: u8 [a0 + 7] = 0xf3\n 33366: u8 [a0 + 6] = 0xf1\n 33371: u8 [a0 + 5] = 0xe\n 33375: u8 [a0 + 4] = 0x26\n 33379: u8 [a0 + 3] = 0xdd\n 33384: u8 [a0 + 2] = 0x3c\n 33388: u8 [a0 + 1] = 0xb4\n 33393: a1 = u64 [sp + 0x180]\n 33397: a3 = a1\n 33399: a4 = u64 [sp + 0x190]\n 33403: a1 = a1 | a4\n 33406: a2 = u64 [sp + 0x198]\n 33410: a5 = u64 [sp + 0x188]\n 33414: a2 = a2 | a5\n 33417: a1 = a1 | a2\n 33420: a1 = a1 >> 0x20\n 33423: a2 = a2 | a4\n 33426: a2 = a2 << 0x20\n 33429: a1 = a1 | a2\n 33432: u8 [a0 + 0] = 0xef\n 33436: jump @464 if a1 != 0\n      : @446 (gas: 19)\n 33440: a0 = s1 + 0x60\n 33443: u64 [sp + 0x118] = a0\n 33447: u64 [sp + 0x100] = s1\n 33451: a0 = a0 <u s1\n 33454: a1 = u64 [sp + 0x178]\n 33458: s1 = a1 + a0\n 33461: a1 = s1 <u a1\n 33464: a1 = a0 if a0 == 0\n 33467: a0 = u64 [sp + 0x168]\n 33471: a1 = a1 + a0\n 33474: u64 [sp + 0x110] = a1\n 33478: a0 = a1 <u a0\n 33481: a1 = u64 [sp + 0x170]\n 33485: a0 = a0 + a1\n 33488: u64 [sp + 0x120] = a0\n 33492: i32 a0 = a3 + 0\n 33494: a1 = 0x20\n 33497: u64 [sp + 0xf8] = a0\n 33501: ra = 382, jump @0\n      : @447 [@dyn 191] (gas: 51)\n 33508: u8 [a0 + 31] = 0x40\n 33512: u8 [a0 + 30] = 0\n 33515: u8 [a0 + 29] = 0\n 33518: u8 [a0 + 28] = 0\n 33521: u8 [a0 + 27] = 0\n 33524: u8 [a0 + 26] = 0\n 33527: u8 [a0 + 25] = 0\n 33530: u8 [a0 + 24] = 0\n 33533: u8 [a0 + 23] = 0\n 33536: u8 [a0 + 22] = 0\n 33539: u8 [a0 + 21] = 0\n 33542: u8 [a0 + 20] = 0\n 33545: u8 [a0 + 19] = 0\n 33548: u8 [a0 + 18] = 0\n 33551: u8 [a0 + 17] = 0\n 33554: u8 [a0 + 16] = 0\n 33557: u8 [a0 + 15] = 0\n 33560: u8 [a0 + 14] = 0\n 33563: u8 [a0 + 13] = 0\n 33566: u8 [a0 + 12] = 0\n 33569: u8 [a0 + 11] = 0\n 33572: u8 [a0 + 10] = 0\n 33575: u8 [a0 + 9] = 0\n 33578: u8 [a0 + 8] = 0\n 33581: u8 [a0 + 7] = 0\n 33584: u8 [a0 + 6] = 0\n 33587: u8 [a0 + 5] = 0\n 33590: u8 [a0 + 4] = 0\n 33593: u8 [a0 + 3] = 0\n 33596: u8 [a0 + 2] = 0\n 33599: u8 [a0 + 1] = 0\n 33602: u8 [a0 + 0] = 0\n 33604: u64 [sp + 0x288] = s1\n 33608: a0 = u64 [sp + 0x118]\n 33612: u64 [sp + 0x280] = a0\n 33616: a0 = u64 [sp + 0x148]\n 33620: u64 [sp + 0x2b8] = a0\n 33624: a0 = u64 [sp + 0x150]\n 33628: u64 [sp + 0x2b0] = a0\n 33632: a0 = u64 [sp + 0x158]\n 33636: u64 [sp + 0x2a8] = a0\n 33640: a0 = u64 [sp + 0x160]\n 33644: u64 [sp + 0x2a0] = a0\n 33648: a0 = u64 [sp + 0x110]\n 33652: u64 [sp + 0x290] = a0\n 33656: a0 = sp + 0x2c0\n 33660: a1 = sp + 0x2a0\n 33664: a2 = sp + 0x280\n 33668: a3 = u64 [sp + 0x120]\n 33672: u64 [sp + 0x298] = a3\n 33676: ra = 384, jump @61\n      : @448 [@dyn 192] (gas: 10)\n 33682: a0 = u64 [sp + 0x190]\n 33686: a1 = u64 [sp + 0x188]\n 33690: a0 = a0 | a1\n 33693: a1 = 0xffffffe0\n 33703: a2 = u64 [sp + 0x180]\n 33707: a1 = a2 <u a1\n 33710: a2 = u64 [sp + 0x198]\n 33714: a1 = 0 if a2 != 0\n 33716: a1 = 0 if a0 != 0\n 33718: jump @464 if a1 == 0\n      : @449 (gas: 12)\n 33722: a0 = u64 [sp + 0x2d8]\n 33726: u64 [sp + 0x198] = a0\n 33730: a0 = u64 [sp + 0x2d0]\n 33734: u64 [sp + 0x190] = a0\n 33738: a0 = u64 [sp + 0x2c8]\n 33742: u64 [sp + 0x188] = a0\n 33746: s1 = u64 [sp + 0x2c0]\n 33750: u64 [sp + 0x180] = s1\n 33754: a0 = u64 [sp + 0xf8]\n 33758: i32 a0 = a0 + 0x20\n 33761: a1 = 0x20\n 33764: ra = 386, jump @0\n      : @450 [@dyn 193] (gas: 132)\n 33771: t2 = u64 [sp + 0x100]\n 33775: t0 = s1 <u t2\n 33778: a2 = u64 [sp + 0x178]\n 33782: a5 = u64 [sp + 0x188]\n 33786: a4 = a5 ^ a2\n 33789: a3 = a5 <u a2\n 33792: t1 = a5\n 33794: a3 = t0 if a4 == 0\n 33797: a4 = u64 [sp + 0x168]\n 33801: a1 = u64 [sp + 0x190]\n 33805: s1 = a1 - a4\n 33808: a4 = a1 <u a4\n 33811: a5 = u64 [sp + 0x170]\n 33815: a1 = u64 [sp + 0x198]\n 33819: a5 = a1 - a5\n 33822: a5 = a5 - a4\n 33825: a4 = s1 <u a3\n 33828: a5 = a5 - a4\n 33831: u64 [sp + 0x198] = a5\n 33835: ra = s1 - a3\n 33838: a3 = t1 - a2\n 33841: a4 = u64 [sp + 0x128]\n 33845: t1 = reverse a4\n 33847: a4 = u64 [sp + 0x130]\n 33851: a5 = reverse a4\n 33853: a4 = u64 [sp + 0x138]\n 33857: s1 = reverse a4\n 33859: a4 = u64 [sp + 0x140]\n 33863: a4 = reverse a4\n 33865: a3 = a3 - t0\n 33868: a1 = a4 >> 0x38\n 33871: u64 [sp + 0x130] = a1\n 33875: u8 [a0 + 0x1f] = a1\n 33878: a1 = u64 [sp + 0x180]\n 33882: t2 = a1 - t2\n 33885: a1 = a4 >> 0x30\n 33888: u64 [sp + 0x128] = a1\n 33892: u8 [a0 + 0x1e] = a1\n 33895: a1 = u64 [sp + 0x198]\n 33899: a3 = a3 | a1\n 33902: a1 = t2 | ra\n 33905: a1 = a1 | a3\n 33908: a2 = a3 | ra\n 33911: a3 = a4 >> 0x28\n 33914: u64 [sp + 0x110] = a3\n 33918: u8 [a0 + 0x1d] = a3\n 33921: a1 = a1 >> 0x20\n 33924: a2 = a2 << 0x20\n 33927: a1 = a1 | a2\n 33930: a2 = a4 >> 0x20\n 33933: u64 [sp + 0xf8] = a2\n 33937: u8 [a0 + 0x1c] = a2\n 33940: a2 = a4 >> 0x18\n 33943: u64 [sp + 0xe8] = a2\n 33947: u8 [a0 + 0x1b] = a2\n 33950: a2 = a4 >> 0x10\n 33953: u64 [sp + 0xe0] = a2\n 33957: u8 [a0 + 0x1a] = a2\n 33960: a2 = a4 >> 0x8\n 33963: u64 [sp + 0x138] = a2\n 33967: u8 [a0 + 0x19] = a2\n 33970: u64 [sp + 0x118] = a4\n 33974: u8 [a0 + 0x18] = a4\n 33977: u8 [a0 + 0x10] = s1\n 33980: a2 = s1 >> 0x38\n 33983: u64 [sp + 0xd0] = a2\n 33987: u8 [a0 + 0x17] = a2\n 33990: a2 = s1 >> 0x30\n 33993: u64 [sp + 0xc8] = a2\n 33997: u8 [a0 + 0x16] = a2\n 34000: a2 = s1 >> 0x28\n 34003: u64 [sp + 0xc0] = a2\n 34007: u8 [a0 + 0x15] = a2\n 34010: a2 = s1 >> 0x20\n 34013: u64 [sp + 0xb8] = a2\n 34017: u8 [a0 + 0x14] = a2\n 34020: a2 = s1 >> 0x18\n 34023: u64 [sp + 0xb0] = a2\n 34027: u8 [a0 + 0x13] = a2\n 34030: a2 = s1 >> 0x10\n 34033: u64 [sp + 0xa8] = a2\n 34037: u8 [a0 + 0x12] = a2\n 34040: u64 [sp + 0xd8] = s1\n 34044: s1 = s1 >> 0x8\n 34047: u8 [a0 + 0x11] = s1\n 34050: u8 [a0 + 0x8] = a5\n 34053: a2 = a5 >> 0x38\n 34056: u64 [sp + 0xa0] = a2\n 34060: u8 [a0 + 0xf] = a2\n 34063: a2 = a5 >> 0x30\n 34066: u64 [sp + 0x98] = a2\n 34070: u8 [a0 + 0xe] = a2\n 34073: a2 = a5 >> 0x28\n 34076: u64 [sp + 0x90] = a2\n 34080: u8 [a0 + 0xd] = a2\n 34083: a2 = a5 >> 0x20\n 34086: u64 [sp + 0x88] = a2\n 34090: u8 [a0 + 0xc] = a2\n 34093: a2 = a5 >> 0x18\n 34096: u64 [sp + 0x80] = a2\n 34100: u8 [a0 + 0xb] = a2\n 34103: a2 = a5 >> 0x10\n 34106: u64 [sp + 0x78] = a2\n 34109: u8 [a0 + 0xa] = a2\n 34112: u64 [sp + 0x100] = a5\n 34116: a5 = a5 >> 0x8\n 34119: u64 [sp + 0x70] = a5\n 34122: u8 [a0 + 0x9] = a5\n 34125: u8 [a0] = t1\n 34127: a2 = t1 >> 0x38\n 34130: u64 [sp + 0x68] = a2\n 34133: u8 [a0 + 0x7] = a2\n 34136: a2 = t1 >> 0x30\n 34139: u64 [sp + 0x60] = a2\n 34142: u8 [a0 + 0x6] = a2\n 34145: a2 = t1 >> 0x28\n 34148: u64 [sp + 0x58] = a2\n 34151: u8 [a0 + 0x5] = a2\n 34154: a2 = t1 >> 0x20\n 34157: u64 [sp + 0x50] = a2\n 34160: u8 [a0 + 0x4] = a2\n 34163: a2 = t1 >> 0x18\n 34166: u64 [sp + 0x48] = a2\n 34169: u8 [a0 + 0x3] = a2\n 34172: a2 = t1 >> 0x10\n 34175: u64 [sp + 0x40] = a2\n 34178: u8 [a0 + 0x2] = a2\n 34181: u64 [sp + 0x120] = t1\n 34185: a2 = t1 >> 0x8\n 34188: u64 [sp + 0x38] = a2\n 34191: u8 [a0 + 0x1] = a2\n 34194: jump @464 if a1 != 0\n      : @451 (gas: 5)\n 34198: u64 [sp + 0x30] = s1\n 34201: i32 a1 = t2 + 0\n 34203: a0 = u64 [sp + 0x108]\n 34207: s1 = t2\n 34209: ra = 388, jump @0\n      : @452 [@dyn 194] (gas: 31)\n 34216: u64 [sp + 760] = 0\n 34220: u64 [sp + 752] = 0\n 34224: u64 [sp + 744] = 0\n 34228: u64 [sp + 736] = 0\n 34232: u64 [sp + 792] = 0\n 34236: u64 [sp + 784] = 0\n 34240: u64 [sp + 776] = 0\n 34244: u64 [sp + 768] = 0\n 34248: u64 [sp + 824] = 0xffffffffffffffff\n 34253: u64 [sp + 816] = 0xffffffffffffffff\n 34258: u64 [sp + 808] = 0xffffffffffffffff\n 34263: u64 [sp + 800] = 0xffffffffffffffff\n 34268: a2 = sp + 0x2e0\n 34272: a2 = a2 << 0x20\n 34275: a2 = a2 >> 0x20\n 34278: a3 = sp + 0x320\n 34282: a3 = a3 << 0x20\n 34285: a2 = a2 | a3\n 34288: a0 = a0 << 0x20\n 34291: a0 = a0 >> 0x20\n 34294: a3 = s1 << 0x20\n 34297: a3 = a3 | a0\n 34300: a0 = sp + 0x300\n 34304: a0 = a0 << 0x20\n 34307: a1 = 0xffffffff\n 34317: a5 = a0 | a1\n 34320: a0 = 0xffffffffffffffff\n 34323: a1 = 0xffffffffffffffff\n 34326: a4 = 0xffffffffffffffff\n 34329: ecalli 9 // 'instantiate'\n 34331: fallthrough\n      : @453 (gas: 6)\n 34332: a0 = u32 [sp + 0x310]\n 34336: a1 = u64 [sp + 0x300]\n 34340: a2 = u64 [sp + 0x308]\n 34344: a3 = a1 | a0\n 34347: a3 = a3 | a2\n 34350: jump @465 if a3 == 0\n      : @454 (gas: 24)\n 34354: a2 = reverse a2\n 34356: a3 = a2 >> 0x20\n 34359: a1 = reverse a1\n 34361: a4 = a1 << 0x20\n 34364: a3 = a3 | a4\n 34367: a2 = a2 << 0x20\n 34370: a0 = reverse a0\n 34372: a0 = a0 >> 0x20\n 34375: a0 = a0 | a2\n 34378: a2 = a1 >> 0x20\n 34381: u64 [sp + 600] = 0\n 34385: u64 [sp + 0x178] = a0\n 34389: u64 [sp + 0x240] = a0\n 34393: u64 [sp + 632] = 0\n 34397: u64 [sp + 624] = 0\n 34401: u64 [sp + 616] = 0\n 34405: u64 [sp + 608] = 0\n 34409: u64 [sp + 0x10] = a3\n 34412: u64 [sp + 0x248] = a3\n 34416: a0 = sp + 0x260\n 34420: a1 = sp + 0x240\n 34424: u64 [sp + 0x170] = a2\n 34428: u64 [sp + 0x250] = a2\n 34432: ra = 390, jump @236\n      : @455 [@dyn 195] (gas: 11)\n 34438: i32 a0 = sp + 0x340\n 34442: ecalli 5 // 'caller'\n 34444: a0 = u32 [sp + 0x350]\n 34448: u64 [sp + 0x8] = a0\n 34451: a0 = u64 [sp + 0x348]\n 34455: u64 [sp] = a0\n 34457: a0 = u64 [sp + 0x340]\n 34461: u64 [sp + 0x168] = a0\n 34465: a0 = 0x40\n 34468: a1 = 0x20\n 34471: ra = 392, jump @0\n      : @456 [@dyn 196] (gas: 104)\n 34478: a1 = u8 [a0 + 0x11]\n 34481: a2 = u8 [a0 + 0x10]\n 34484: a3 = u8 [a0 + 0x12]\n 34487: a4 = u8 [a0 + 0x13]\n 34490: a1 = a1 << 0x8\n 34493: a1 = a1 | a2\n 34496: a3 = a3 << 0x10\n 34499: a4 = a4 << 0x18\n 34502: a3 = a3 | a4\n 34505: a1 = a1 | a3\n 34508: a2 = u8 [a0 + 0x15]\n 34511: a3 = u8 [a0 + 0x14]\n 34514: a4 = u8 [a0 + 0x16]\n 34517: a5 = u8 [a0 + 0x17]\n 34520: a2 = a2 << 0x8\n 34523: a2 = a2 | a3\n 34526: a4 = a4 << 0x10\n 34529: a5 = a5 << 0x18\n 34532: a4 = a4 | a5\n 34535: a2 = a2 | a4\n 34538: a2 = a2 << 0x20\n 34541: t0 = a2 | a1\n 34544: a2 = u8 [a0 + 0x1]\n 34547: a3 = u8 [a0]\n 34549: a4 = u8 [a0 + 0x2]\n 34552: a5 = u8 [a0 + 0x3]\n 34555: a2 = a2 << 0x8\n 34558: a2 = a2 | a3\n 34561: a4 = a4 << 0x10\n 34564: a5 = a5 << 0x18\n 34567: a4 = a4 | a5\n 34570: a2 = a2 | a4\n 34573: a3 = u8 [a0 + 0x5]\n 34576: a4 = u8 [a0 + 0x4]\n 34579: a5 = u8 [a0 + 0x6]\n 34582: s1 = u8 [a0 + 0x7]\n 34585: a3 = a3 << 0x8\n 34588: a3 = a3 | a4\n 34591: a5 = a5 << 0x10\n 34594: s1 = s1 << 0x18\n 34597: a5 = a5 | s1\n 34600: a3 = a3 | a5\n 34603: a3 = a3 << 0x20\n 34606: a2 = a2 | a3\n 34609: a3 = u8 [a0 + 0x19]\n 34612: a4 = u8 [a0 + 0x18]\n 34615: a5 = u8 [a0 + 0x1a]\n 34618: s1 = u8 [a0 + 0x1b]\n 34621: a3 = a3 << 0x8\n 34624: a3 = a3 | a4\n 34627: a5 = a5 << 0x10\n 34630: s1 = s1 << 0x18\n 34633: a5 = a5 | s1\n 34636: a3 = a3 | a5\n 34639: a4 = u8 [a0 + 0x1d]\n 34642: a5 = u8 [a0 + 0x1c]\n 34645: s1 = u8 [a0 + 0x1e]\n 34648: a1 = u8 [a0 + 0x1f]\n 34651: a4 = a4 << 0x8\n 34654: a4 = a4 | a5\n 34657: s1 = s1 << 0x10\n 34660: a1 = a1 << 0x18\n 34663: a1 = a1 | s1\n 34666: a1 = a1 | a4\n 34669: a1 = a1 << 0x20\n 34672: a3 = a3 | a1\n 34675: a1 = u8 [a0 + 0x9]\n 34678: a4 = u8 [a0 + 0x8]\n 34681: a5 = u8 [a0 + 0xa]\n 34684: s1 = u8 [a0 + 0xb]\n 34687: a1 = a1 << 0x8\n 34690: a1 = a1 | a4\n 34693: a5 = a5 << 0x10\n 34696: s1 = s1 << 0x18\n 34699: a5 = a5 | s1\n 34702: a1 = a1 | a5\n 34705: a4 = u8 [a0 + 0xd]\n 34708: a5 = u8 [a0 + 0xc]\n 34711: s1 = u8 [a0 + 0xe]\n 34714: a0 = u8 [a0 + 0xf]\n 34717: a4 = a4 << 0x8\n 34720: a4 = a4 | a5\n 34723: s1 = s1 << 0x10\n 34726: a0 = a0 << 0x18\n 34729: a0 = a0 | s1\n 34732: a0 = a0 | a4\n 34735: a0 = a0 << 0x20\n 34738: a0 = a0 | a1\n 34741: a4 = reverse a0\n 34743: a1 = reverse a3\n 34745: a2 = reverse a2\n 34747: a0 = reverse t0\n 34749: u64 [sp + 0x198] = a0\n 34753: u64 [sp + 0x188] = a2\n 34757: a0 = a0 | a2\n 34760: u64 [sp + 0x180] = a1\n 34764: a1 = a1 | a4\n 34767: a1 = a1 | a0\n 34770: a1 = a1 >> 0x20\n 34773: u64 [sp + 0x190] = a4\n 34777: a0 = a0 | a4\n 34780: a0 = a0 << 0x20\n 34783: a0 = a0 | a1\n 34786: jump @464 if a0 != 0\n      : @457 (gas: 20)\n 34790: s1 = u64 [sp + 0x180]\n 34794: a0 = s1 + 0x40\n 34797: u64 [sp + 0x28] = a0\n 34800: a0 = a0 <u s1\n 34803: a1 = u64 [sp + 0x198]\n 34807: a2 = a1 + a0\n 34810: u64 [sp + 0x18] = a2\n 34813: a1 = a2 <u a1\n 34816: a1 = a0 if a0 == 0\n 34819: a0 = u64 [sp + 0x190]\n 34823: a1 = a1 + a0\n 34826: u64 [sp + 0x20] = a1\n 34829: a0 = a1 <u a0\n 34832: a1 = u64 [sp + 0x188]\n 34836: a0 = a0 + a1\n 34839: u64 [sp + 0x108] = a0\n 34843: i32 a0 = s1 + 0\n 34845: a1 = 0x20\n 34848: u64 [sp + 0x140] = a0\n 34852: ra = 394, jump @0\n      : @458 [@dyn 197] (gas: 52)\n 34859: u8 [a0 + 31] = 0x40\n 34863: u8 [a0 + 30] = 0\n 34866: u8 [a0 + 29] = 0\n 34869: u8 [a0 + 28] = 0\n 34872: u8 [a0 + 27] = 0\n 34875: u8 [a0 + 26] = 0\n 34878: u8 [a0 + 25] = 0\n 34881: u8 [a0 + 24] = 0\n 34884: u8 [a0 + 23] = 0\n 34887: u8 [a0 + 22] = 0\n 34890: u8 [a0 + 21] = 0\n 34893: u8 [a0 + 20] = 0\n 34896: u8 [a0 + 19] = 0\n 34899: u8 [a0 + 18] = 0\n 34902: u8 [a0 + 17] = 0\n 34905: u8 [a0 + 16] = 0\n 34908: u8 [a0 + 15] = 0\n 34911: u8 [a0 + 14] = 0\n 34914: u8 [a0 + 13] = 0\n 34917: u8 [a0 + 12] = 0\n 34920: u8 [a0 + 11] = 0\n 34923: u8 [a0 + 10] = 0\n 34926: u8 [a0 + 9] = 0\n 34929: u8 [a0 + 8] = 0\n 34932: u8 [a0 + 7] = 0\n 34935: u8 [a0 + 6] = 0\n 34938: u8 [a0 + 5] = 0\n 34941: u8 [a0 + 4] = 0\n 34944: u8 [a0 + 3] = 0\n 34947: u8 [a0 + 2] = 0\n 34950: u8 [a0 + 1] = 0\n 34953: u8 [a0 + 0] = 0\n 34955: a0 = u64 [sp + 0x18]\n 34958: u64 [sp + 0x1e8] = a0\n 34962: a0 = u64 [sp + 0x28]\n 34965: u64 [sp + 0x1e0] = a0\n 34969: a0 = u64 [sp + 0x148]\n 34973: u64 [sp + 0x218] = a0\n 34977: a0 = u64 [sp + 0x150]\n 34981: u64 [sp + 0x210] = a0\n 34985: a0 = u64 [sp + 0x158]\n 34989: u64 [sp + 0x208] = a0\n 34993: a0 = u64 [sp + 0x160]\n 34997: u64 [sp + 0x200] = a0\n 35001: a0 = u64 [sp + 0x20]\n 35004: u64 [sp + 0x1f0] = a0\n 35008: a0 = sp + 0x220\n 35012: a1 = sp + 0x200\n 35016: a2 = sp + 0x1e0\n 35020: a3 = u64 [sp + 0x108]\n 35024: u64 [sp + 0x1f8] = a3\n 35028: ra = 396, jump @61\n      : @459 [@dyn 198] (gas: 9)\n 35034: a0 = u64 [sp + 0x190]\n 35038: a1 = u64 [sp + 0x188]\n 35042: a0 = a0 | a1\n 35045: a1 = 0xffffffe0\n 35055: a1 = s1 <u a1\n 35058: a2 = u64 [sp + 0x198]\n 35062: a1 = 0 if a2 != 0\n 35064: a1 = 0 if a0 != 0\n 35066: jump @464 if a1 == 0\n      : @460 (gas: 11)\n 35070: a0 = u64 [sp + 0x238]\n 35074: u64 [sp + 0x160] = a0\n 35078: a0 = u64 [sp + 0x230]\n 35082: u64 [sp + 0x158] = a0\n 35086: a0 = u64 [sp + 0x228]\n 35090: u64 [sp + 0x150] = a0\n 35094: s1 = u64 [sp + 0x220]\n 35098: a0 = u64 [sp + 0x140]\n 35102: i32 a0 = a0 + 0x20\n 35105: a1 = 0x20\n 35108: ra = 398, jump @0\n      : @461 [@dyn 199] (gas: 95)\n 35115: a1 = u64 [sp + 0xd8]\n 35119: u8 [a0 + 0x10] = a1\n 35122: a1 = u64 [sp + 0xa0]\n 35126: u8 [a0 + 0xf] = a1\n 35129: a1 = u64 [sp + 0x98]\n 35133: u8 [a0 + 0xe] = a1\n 35136: a1 = u64 [sp + 0x90]\n 35140: u8 [a0 + 0xd] = a1\n 35143: a1 = u64 [sp + 0x88]\n 35147: u8 [a0 + 0xc] = a1\n 35150: a1 = u64 [sp + 0x80]\n 35154: u8 [a0 + 0xb] = a1\n 35157: a1 = u64 [sp + 0x78]\n 35160: u8 [a0 + 0xa] = a1\n 35163: a1 = u64 [sp + 0x70]\n 35166: u8 [a0 + 0x9] = a1\n 35169: a1 = u64 [sp + 0x100]\n 35173: u8 [a0 + 0x8] = a1\n 35176: a1 = u64 [sp + 0x68]\n 35179: u8 [a0 + 0x7] = a1\n 35182: a1 = u64 [sp + 0x60]\n 35185: u8 [a0 + 0x6] = a1\n 35188: a1 = u64 [sp + 0x58]\n 35191: u8 [a0 + 0x5] = a1\n 35194: a1 = u64 [sp + 0x50]\n 35197: u8 [a0 + 0x4] = a1\n 35200: a1 = u64 [sp + 0x48]\n 35203: u8 [a0 + 0x3] = a1\n 35206: a1 = u64 [sp + 0x40]\n 35209: u8 [a0 + 0x2] = a1\n 35212: a1 = u64 [sp + 0x38]\n 35215: u8 [a0 + 0x1] = a1\n 35218: a1 = u64 [sp + 0x120]\n 35222: u8 [a0] = a1\n 35224: a1 = u64 [sp + 0x118]\n 35228: u8 [a0 + 0x18] = a1\n 35231: a1 = u64 [sp + 0xd0]\n 35235: u8 [a0 + 0x17] = a1\n 35238: a1 = u64 [sp + 0xc8]\n 35242: u8 [a0 + 0x16] = a1\n 35245: a1 = u64 [sp + 0xc0]\n 35249: u8 [a0 + 0x15] = a1\n 35252: a1 = u64 [sp + 0xb8]\n 35256: u8 [a0 + 0x14] = a1\n 35259: a1 = u64 [sp + 0xb0]\n 35263: u8 [a0 + 0x13] = a1\n 35266: a1 = u64 [sp + 0xa8]\n 35270: u8 [a0 + 0x12] = a1\n 35273: a1 = u64 [sp + 0x30]\n 35276: u8 [a0 + 0x11] = a1\n 35279: a1 = u64 [sp + 0x130]\n 35283: u8 [a0 + 0x1f] = a1\n 35286: a1 = u64 [sp + 0x128]\n 35290: u8 [a0 + 0x1e] = a1\n 35293: a1 = u64 [sp + 0x110]\n 35297: u8 [a0 + 0x1d] = a1\n 35300: a1 = u64 [sp + 0xf8]\n 35304: u8 [a0 + 0x1c] = a1\n 35307: a1 = u64 [sp + 0xe8]\n 35311: u8 [a0 + 0x1b] = a1\n 35314: a1 = u64 [sp + 0xe0]\n 35318: u8 [a0 + 0x1a] = a1\n 35321: t0 = u64 [sp + 0x180]\n 35325: t1 = s1\n 35327: a1 = s1 <u t0\n 35330: s1 = u64 [sp + 0x198]\n 35334: a4 = u64 [sp + 0x150]\n 35338: a2 = a4 ^ s1\n 35341: a3 = a4 <u s1\n 35344: t2 = a4\n 35346: a3 = a1 if a2 == 0\n 35349: a4 = u64 [sp + 0x190]\n 35353: a5 = u64 [sp + 0x158]\n 35357: a2 = a5 - a4\n 35360: ra = a5 <u a4\n 35363: a5 = u64 [sp + 0x188]\n 35367: a4 = u64 [sp + 0x160]\n 35371: a5 = a4 - a5\n 35374: a5 = a5 - ra\n 35377: a4 = a2 <u a3\n 35380: a5 = a5 - a4\n 35383: a2 = a2 - a3\n 35386: a3 = t2 - s1\n 35389: a3 = a3 - a1\n 35392: s1 = t1 - t0\n 35395: a3 = a3 | a5\n 35398: a1 = s1 | a2\n 35401: a1 = a1 | a3\n 35404: a2 = a2 | a3\n 35407: a1 = a1 >> 0x20\n 35410: a2 = a2 << 0x20\n 35413: a1 = a1 | a2\n 35416: a2 = u64 [sp + 0x138]\n 35420: u8 [a0 + 0x19] = a2\n 35423: jump @464 if a1 != 0\n      : @462 (gas: 18)\n 35427: a0 = u64 [sp + 0x168]\n 35431: a0 = reverse a0\n 35433: a0 = a0 << 0x20\n 35436: a1 = u64 [sp]\n 35438: a1 = reverse a1\n 35440: a2 = a1 >> 0x20\n 35443: a0 = a0 | a2\n 35446: u64 [sp + 0x190] = a0\n 35450: a1 = a1 << 0x20\n 35453: a0 = u64 [sp + 0x8]\n 35456: a0 = reverse a0\n 35458: a0 = a0 >> 0x20\n 35461: a0 = a0 | a1\n 35464: u64 [sp + 0x188] = a0\n 35468: i32 a1 = s1 + 0\n 35470: u64 [sp + 0x198] = a1\n 35474: a0 = u64 [sp + 0x140]\n 35478: ra = 400, jump @0\n      : @463 [@dyn 200] (gas: 46)\n 35485: a1 = u64 [0x20020]\n 35490: a2 = u64 [0x20028]\n 35495: a3 = u64 [0x20030]\n 35500: a4 = u64 [0x20038]\n 35505: u64 [sp + 0x378] = a1\n 35509: u64 [sp + 0x370] = a2\n 35513: u64 [sp + 0x368] = a3\n 35517: u64 [sp + 0x360] = a4\n 35521: a1 = u64 [sp + 0x188]\n 35525: a1 = reverse a1\n 35527: a2 = u64 [sp + 0x190]\n 35531: a2 = reverse a2\n 35533: a3 = u64 [sp + 0x168]\n 35537: a3 = a3 << 0x20\n 35540: u64 [sp + 0x388] = a3\n 35544: u64 [sp + 896] = 0\n 35548: u64 [sp + 0x390] = a2\n 35552: u64 [sp + 0x398] = a1\n 35556: a1 = u64 [sp + 0x170]\n 35560: a1 = reverse a1\n 35562: s1 = u64 [sp + 0x10]\n 35565: a2 = reverse s1\n 35567: a3 = u64 [sp + 0x178]\n 35571: a3 = reverse a3\n 35573: u64 [sp + 0x3b8] = a3\n 35577: u64 [sp + 0x3b0] = a2\n 35581: u64 [sp + 928] = 0\n 35585: u64 [sp + 0x3a8] = a1\n 35589: i32 a2 = a0 + 0\n 35591: i32 a0 = sp + 0x360\n 35595: a1 = 0x3\n 35598: a3 = u64 [sp + 0x198]\n 35602: ecalli 6 // 'deposit_event'\n 35604: a0 = u64 [sp + 0xf0]\n 35608: u64 [a0 + 24] = 0\n 35611: a1 = u64 [sp + 0x170]\n 35615: u64 [a0 + 0x10] = a1\n 35618: u64 [a0 + 0x8] = s1\n 35621: a1 = u64 [sp + 0x178]\n 35625: u64 [a0] = a1\n 35627: sp = s0 + 0xfffffffffffffc20\n 35631: ra = u64 [sp + 0x3d8]\n 35635: s0 = u64 [sp + 0x3d0]\n 35639: s1 = u64 [sp + 0x3c8]\n 35643: sp = sp + 0x3e0\n 35647: ret\n      : @464 (gas: 1)\n 35649: trap\n      : @465 (gas: 1)\n 35650: ra = 402, jump @212\n      : @466 [@dyn 201] (gas: 8)\n 35656: u64 [sp + 464] = 0\n 35660: u64 [sp + 456] = 0\n 35664: u64 [sp + 448] = 0\n 35668: a0 = 0x4e487b7100000000\n 35678: a1 = sp + 0x1c0\n 35682: u64 [sp + 0x1d8] = a0\n 35686: a0 = 0\n 35688: ra = 404, jump @8\n      : @467 [@dyn 202] (gas: 7)\n 35695: u64 [sp + 440] = 0\n 35699: u64 [sp + 432] = 0\n 35703: u64 [sp + 416] = 0x41\n 35708: a0 = 0x4\n 35711: a1 = sp + 0x1a0\n 35715: u64 [sp + 424] = 0\n 35719: ra = 406, jump @8\n      : @468 [@dyn 203] (gas: 3)\n 35726: a1 = 0x24\n 35729: a0 = 0\n 35731: ra = 408, jump @0\n      : @469 [@dyn 204] (gas: 7)\n 35738: i32 a1 = a0 + 0\n 35740: a0 = 0x1\n 35743: a2 = 0x24\n 35746: ecalli 13 // 'seal_return'\n 35748: a0 = 0\n 35750: ra = 0x19a\n 35754: jump @10\n      : @470 [export #0: 'call'] (gas: 2)\n 35758: a0 = 0\n 35760: ra = 410, jump @10\n      : @471 [@dyn 205] [export #1: 'deploy'] (gas: 2)\n 35767: a0 = 0x1\n 35770: ra = 412, jump @10\n      : @472 [@dyn 206] (gas: 27)\n 35777: sp = sp + 0xffffffffffffff80\n 35780: u64 [sp + 0x78] = ra\n 35783: u64 [sp + 0x70] = s0\n 35786: u64 [sp + 0x68] = s1\n 35789: s0 = sp + 0x80\n 35793: sp = sp & 0xfffffffffffffff0\n 35796: t0 = u64 [a1]\n 35798: t1 = u64 [a1 + 0x8]\n 35801: t2 = u64 [a1 + 0x10]\n 35804: a1 = u64 [a1 + 0x18]\n 35807: a3 = u64 [a2]\n 35809: a4 = u64 [a2 + 0x8]\n 35812: a5 = u64 [a2 + 0x10]\n 35815: a2 = u64 [a2 + 0x18]\n 35818: s1 = a0\n 35820: u64 [sp + 0x18] = a2\n 35823: u64 [sp + 0x10] = a5\n 35826: u64 [sp + 0x8] = a4\n 35829: u64 [sp] = a3\n 35831: u64 [sp + 0x38] = a1\n 35834: u64 [sp + 0x30] = t2\n 35837: u64 [sp + 0x28] = t1\n 35840: a0 = sp + 0x40\n 35843: a1 = sp + 0x20\n 35846: a2 = sp\n 35848: u64 [sp + 0x20] = t0\n 35851: ra = 414, jump @411\n      : @473 [@dyn 207] (gas: 14)\n 35857: a0 = u64 [sp + 0x50]\n 35860: a1 = u64 [sp + 0x58]\n 35863: a2 = u64 [sp + 0x40]\n 35866: a3 = u64 [sp + 0x48]\n 35869: u64 [s1 + 0x10] = a0\n 35872: u64 [s1 + 0x18] = a1\n 35875: u64 [s1] = a2\n 35877: u64 [s1 + 0x8] = a3\n 35880: sp = s0 + 0xffffffffffffff80\n 35883: ra = u64 [sp + 0x78]\n 35886: s0 = u64 [sp + 0x70]\n 35889: s1 = u64 [sp + 0x68]\n 35892: sp = sp + 0x80\n 35896: ret\n",
				"bytecode": {
					"object": "50564d0000f3a0000000000000010700c15000c000400340dab34a1b0d247369d483a646da37c224034592f6523ffb5f4efa4b67ce92db70527e49853a355abd18e023e81ac9ec77b3c1a8cdbf17e1414fe3daf9045507cc0481181100000000070000000b0000001900000027000000350000003b0000004800000053000000620000006d0000007a0000008a0000009a000000a5000000b7000000c20000006164647265737363616c6c63616c6c5f646174615f636f707963616c6c5f646174615f6c6f616463616c6c5f646174615f73697a6563616c6c65726465706f7369745f6576656e746765745f73746f72616765686173685f6b656363616b5f323536696e7374616e74696174657265665f74696d655f6c65667472657475726e5f646174615f636f707972657475726e5f646174615f73697a657365616c5f72657475726e7365745f696d6d757461626c655f646174617365745f73746f7261676576616c75655f7472616e73666572726564051302c0ae8b0463616c6cc0b78b066465706c6f7906c0669f80cf02c03a8c65004d0152016f010302340349036d03790393035104640469049004c304c804dd0469067406a507bd07c90701088b09cd0a5b0c3a0da30fca0f2b11cf1136124b12571238130914b714cf14d914e7140718a51ab21afc1a611c831cb41dca1d9a1ea71eee1efb1e6d1f941ff52099210022152221222f223c22ab2256246a2583258e259d2526263d26482657262e276e27e729512b812b9f2baa2bbc2d612e6f2ef22e952fb82fea300131d231e0316532f83285335c34b035dd35eb3525361937ac373938313a4e406c4077408640ed402c42ed42e443f243d744c9451b4742479b482649674a0b4b2a4b6b4c0f4d784da84dc64dd14de94df74d984ed84ef34f0c50175026508850ea507951d451ed51f85107527352695482548d549c54e754f7568059c75a965c9a5da95d695e635f11617d6206654b66126816692569e069d86a676cdd6ebf71d77213731d734d739273d7731c743a7445745474ae740176d276a4777c7a037cd77dc67eda7ff37ffe7f0d8042806a80e481e4829283eb83a8858686ae862b88da882b899d8a488b6f8b8e8b9a8bb78bc18b118c8b791052093b3309010001ae9833c8780883881f8488e0553801000128390a400002ae8a123d084000023308500002c8870732003308500002c88707320000009511d87b10207b15187b161082897b19088289087b1982851082861883773308205010029f6f686f59821a6faa821b086fbb787b18787a10787908787898bc38787c1f98bc30787c1e98bc28787c1d98bc20787c1c98bc18787c1b98bc10787c1a98bb08787b1998ab38787b1798ab30787b1698ab28787b1598ab20787b1498ab18787b1398ab10787b1298aa08787a11989a38787a0f989a30787a0e989a28787a0d989a20787a0c989a18787a0b989a10787a0a98990878790998893878790798893078790698892878790598892078790498891878790398891078790298880878780182102082151882161095112832009511f07b10087b158475010a04013d07440002510507501004095010062c029511c07b10387b15307b16289515408411e033074033082050100896fe46171f800046171e46171d46171c46171b46171a46171946171846171746171646171546171446171346171246171146171046170f46170e46170d46170c46170b46170a4617094617084617074617064617054617044617034617024617014607491118490149110849111083170a1001821710821818821908821ad49808d4a707d487075207370133074033082050100a02fe7c78117c79107c7a127c7b13978808d4980897aa1097bb18d4ba0ad4a8087c79157c7a147c7b167c7c17979908d4a90997bb1097cc18d4cb0bd4b909979920d489027c79017c7a7c7b027c7c03979908d4a90997bb1097cc18d4cb0bd4b9097c7a057c7b047c7c067c760797aa08d4ba0a97cc10976618d46c0cd4ca0a97aa20d4a9097c7a197c7b187c7c1a7c761b97aa08d4ba0a97cc10976618d46c0cd4ca0a7c7b1d7c7c1c7c761e7c781f97bb08d4cb0b976610978818d46808d4b808978820d48a0a7c78097c7b087c7c0a7c760b978808d4b80897cc10976618d46c0cd4c8087c7b0d7c7c0c7c760e7c770f97bb08d4cb0b976610977718d46707d4b707977720d487076f776fa66f986f29d49808d47609d48909989920d48707977720d49707510717003307330850100cd1fc837833070133090a0d0183666467330850100ebcfc8377330833090a0201390848000251080d330750000383770a0e016467330850101098fc8378330733093300120a0d019511c07b10387b15309515408411e033074033082050101472fc46171f800046171e46171d46171c46171b46171a46171946171846171746171646171546171446171346171246171146171046170f46170e46170d46170c46170b46170a461709461708461707461703461702461701460739084400024617064617054617045318046b831733080a030181171c58470ee9ae0d4a51470fe9ae0d5b51474ef12a387b5247c892904448330016951140ff7b10b8007b15b0007b16a8009515c0008411e04911784911704911684911608317600a10285a17514768bf7482725247f1096ad40c501018102a50101abd1d33001c9511807b10787b1570951580008411e04911384911304911284911208317200a1028740133001e9511a0fe7b1058017b1550017b164801951560018411e049211801492110014921080149210001831700010a1028060a501020381a9511f07b10087b15647533074033082050102228fb7c78017c797c7a027c7b03978808d4980897aa1097bb18d4ba0ad4a8087c79057c7a047c7b067c7c07979908d4a90997bb1097cc18d4cb0bd4b909979920d489027c79097c7a087c7b0a7c7c0b979908d4a90997bb1097cc18d4cb0bd4b9097c7a0d7c7b0c7c7c0e7c780f97aa08d4ba0a97cc10978818d4c808d4a808978820d498037c78117c7a107c7b127c7c13978808d4a80897bb1097cc18d4cb0bd4b8087c7a157c7b147c7c167c791797aa08d4ba0a97cc10979918d4c909d4a909979920d4890a7c78197c79187c7b1a7c7c1b978808d4980897bb1097cc18d4cb0bd4b8087c791d7c7b1c7c7c1e7c771f979908d4b90997cc10977718d4c707d49707977720d487076f776fa86f396f2a7b5a187b59107b58087b5782100882159511103200821730821838821928821a20d49808d4a707d487075207860139074400025417237d018317403308040a030182175082185814090000000001000000d37909d48909987a2088aa01948a939a510a4f01821948821a407b19087b1a7b171064177b1818501024223a33074033082050102691f97c78117c79107c7a127c7b13978808d4980897aa1097bb18d4ba0ad4a8087c79157c7a147c7b167c7c17979908d4a90997bb1097cc18d4cb0bd4b909979920d489027c79017c7a7c7b027c7c03979908d4a90997bb1097cc18d4cb0bd4b9097c7a057c7b047c7c067c780797aa08d4ba0a97cc10978818d4c808d4a808978820d498037c78197c7a187c7b1a7c7c1b978808d4a80897bb1097cc18d4cb0bd4b8087c7a1d7c7b1c7c7c1e7c791f97aa08d4ba0a97cc10979918d4c909d4a909979920d4890a7c78097c79087c7b0a7c7c0b978808d4980897bb1097cc18d4cb0bd4b8087c790d7c7b0c7c7c0e7c770f979908d4b90997cc10977718d4c707d49707977720d487076f786fa76f396f2ad4a909d4870ad49a0a98aa20d49808978820d4a80851081e003307330850102860f8837833070133090a0d837733002a284df8837750102a48f883783307330933002c0a0d01828910828a18828b088288d4ba0ad4980bd4ab0b98bb20d4a909979920d4b90952093c019511f07b10087b156475838733082050102e04f87c78017c797c7a027c7b03978808d4980897aa1097bb18d4ba0ad4a8087c79057c7a047c7b067c7c07979908d4a90997bb1097cc18d4cb0bd4b909979920d489027c79097c7a087c7b0a7c7c0b979908d4a90997bb1097cc18d4cb0bd4b9097c7a0d7c7b0c7c7c0e7c780f97aa08d4ba0a97cc10978818d4c808d4a808978820d498037c78117c7a107c7b127c7c13978808d4a80897bb1097cc18d4cb0bd4b8087c7a157c7b147c7c167c791797aa08d4ba0a97cc10979918d4c909d4a909979920d4890a7c78197c79187c7b1a7c7c1b978808d4980897bb1097cc18d4cb0bd4b8087c791d7c7b1c7c7c1e7c771f979908d4b90997cc10977718d4c707d49707977720d487076f776fa86f396f2a7b5a187b59107b58087b5782100882159511103200009511b0fe7b1048017b1540017b163801828b10828a18828c0882857b1cf0007b1a3001d4ac08d4b50ad48a0a98aa20d4b808978820d4a808520867057b1be8007b178297187b17100182961082980882977b1718017b15d800835764853308205010307af682121801d462087b15080182191001d45909d498089888207b160001d46909979920d49808520815057c78197c79187c7a1a7c7b1b978808d4980897aa1097bb18d4ba0ad4a8087c791d7c7a1c7c7b1e7c7c1f979908d4a90997bb1097cc18d4cb0bd4b909979920d498087b1820017c78117c79107c7a127c7b13978808d4980897aa1097bb18d4ba0ad4a8087c79157c7a147c7b167c7c17979908d4a90997bb1097cc18d4cb0bd4b909979920d498087b1828017c78097c79087c7a0a7c7b0b978808d4980897aa1097bb18d4ba0ad4a8087c790d7c7a0c7c7b0e7c7c0f979908d4a90997bb1097cc18d4cb0bd4b909979920d489057c78017c797c7a027c7b03978808d4980897aa1097bb18d4ba0ad4a8087c79057c7a047c7b067c7707979908d4a90997bb10977718d4b707d49707977720d48706832733082050103238f58219280178791098583878780f98583078780e98582878780d98582078780c98581878780b98581078780a9858087878097875089868387878079868307878069868287878059868207878049868187878039868107878029868087878017876821a2001787a18989838787817989830787816989828787815989820787814989818787813989810787812989808649b78781198a83878781f98a83078781e98a82878781d98a82078781c98a81878781b98a81078781a98a80878781982171801957320d8730964a7821a0801c89a04d8a40ada990a821c0001c8ac00d4b60a7b15d000d4750bd4ab0bd8c00a82121001c8a20c7b1cf800510bdd02330733084921e00033096f6a7b1a20821ad0006faa7b1a18821a28016faa7b1a10821a20016faa7b1a08140be0ffffff000000007b1b288212e800821af0008215d800017b19c8007b18d0007b17d800821b3001d4b20b821628d8650c7b1af00094ac94bc8217f8007b17c0007b10b8007b14b0007b132801510c83027b12e8009557207b1720018377330820501034aaf38218000182191001d4980882191801d86909821a080194a994895109500282182001d858098215f000c895087b181801d85808da99087c790c7b1908017c790d7b1900017c790e7b19f8007c790f7b19f0007c79107b19a8007c79117b19a0007c79127b1998007c79137b1990007c79147b1988007c79157b1980007c79167b19787c79177b19707c79187b19687c79197b19607c791a7b19587c791b7b19507c791c7b19487c791d7b19407c791e7b19387c771f7b17308216e800c868087b181001d8680782183001c878087b183001821528018357330820501036cbf282183078781f82183878781e82184078781d82184878781c82185078781b82185878781a821860787819821868787818821870787817821878787816821880007878158218880078781482189000787813821898007878128218a0007878118218a8007878108218f00078780f8218f80078780e8218000178780d8218080178780c46170b46170a46170946170846170746170646170546170446170346170246170146078213d8009533018837018214d000c87404d44307887b018217e000c87b0bd87b078210c800c87000821708d87307821910d39408d89409da8709821718d87b06821a20d3a008d8a00cda860cd3b707d478089557207b17f000da890cd857098216b000c896077b17e800d8670ada990a8218b800c88a0a7b1ad800d88a0a8217c000c87a0a7b1af8007b1be00082152001821a180182121001821928017b1918017b1608017b1800017b17100164378213f00064488214e80064098210d800520c6ffd821b7bb37bb4087bb0108217f8007bb71882104801821540018216380195115001320000821710018218180182190801821a0001d49808d4a707d4870752074e0339074400025417234503831720013308040a0301821730018219380114080000000001000000d37808d49808987a2088aa01949a938a510a140382182801821a20017b18c8007b1ac0007b17d0009517e0009518c0007b19d8003300389511c0f87b1038077b1530077b162807951540078411e07b17208286108287087b176882877b17784921f8064921f0064921e8064921e0064921180749211007492108074921000748212007208318e006831a0007831b20073309ff33070a0728f3458217f8007b17408217f0007b17488217e8007b17508217e0007b175833074033082050103a3bf07c78117c79107c7a127c7b13978808d4980897aa1097bb18d4ba0ad4a8087c79157c7a147c7b167c7c17979908d4a90997bb1097cc18d4cb0bd4b909979920d489027c79017c7a7c7b027c7c03979908d4a90997bb1097cc18d4cb0bd4b9097c7a057c7b047c7c067c760797aa08d4ba0a97cc10976618d46c0cd4ca0a97aa20d4a9097c7a197c7b187c7c1a7c761b97aa08d4ba0a97cc10976618d46c0cd4ca0a7c7b1d7c7c1c7c761e7c781f97bb08d4cb0b976610978818d46808d4b808978820d48a0a7c78097c7b087c7c0a7c760b978808d4b80897cc10976618d46c0cd4c8087c7b0d7c7c0c7c760e7c770f97bb08d4cb0b976610977718d46707d4b707977720d487076f766faa6f9b6f29d4b907d46a08d47808988820d46707977720d4870752073e0195a7207b1718d8a707c879087b1808d89808da7708c868087b1810d86807c8b7077b172083a73308207b177b1a307b19287b1b3850103cdaee46171f2046171e46171d46171c46171b46171a46171946171846171746171646171546171446171346171246171146171046170f46170e46170d46170c46170b46170a46170946170846170746170646170546170446170346170246170146078217087b17688217187b17608217407b1798008217487b1790008217507b1788008217587b1780008217107b17709517a00095188000951960821a207b1a7850103e5cf78217a8008212b8008213a000821ab000821828d3870bd8870c6484821930d89308dab80cc96a0bd86a0a821638c96206c9a606d8cb0ac9a606c9cb0bc94707c98708c99307d46808d4b709d48909d4b808989920978820d498085108170033073308501040cfed837833070133090a0d01837682176468501042baed8378330764693300440a0d01828918828a10828b0882887b79187b7a107b7b087b7832009511e0fe7b1018017b1510017b160801951520018411e07b174082977b17488297087b17508297107b1758829618828b18828a1082890882877b1b187b1bb8007b1a207b1ab0007b19287b19a8007b17307b17a0004921f8004921f0004921e8004921e0004821c000208318a000831ae000831bc0003309ff33070a07018217f8008212e0008219f000821ae800d3670b7b1638d87608821758d8970cdbb80c821850d38a03d8a80a821848d82808db3a08d39707d4b707db7c08510868013308203307501046cdec8218186f888219206f99821a286faa821b306fbb98bc38787c1f98bc30787c1e98bc28787c1d98bc20787c1c98bc18787c1b98bc10787c1a98bc08787c19787b18787a1098ab38787b1798ab30787b1698ab28787b1598ab20787b1498ab18787b1398ab10787b1298aa08787a11787908989a38787a0f989a30787a0e989a28787a0d989a20787a0c989a18787a0b989a10787a0a98990878790978789889387879079889307879069889287879059889207879049889187879039889107879029888087878013308203307501048fceb83778319e0003308200a088217e0008218e8008219f800821af0006f726f886f996faa821b50c8ab0b821c48c89c0cd89c09c89b0bd3ab06d8ab0ada690a821958c88909c89a0ad89a06821738c82707d88908c88707c867078218404918384918304918284918207b8c7b8b087b8a107b87189551e0fe821018018215100182160801951120013200492190004921880049218000140700000000717b484e951880007b179800330750104a8eeb4911784911704911603233070495186049116850104c76eb330824330750104e2ceb83783307013309243300500a0d019511a07b10587b15507b16487b1782828293829708829a10828b188285108299188288088eb48e56dbb4068e80882c000185c401db8004d45b0bdbb60446114746114646114546114446114346114246114146114046113f46113e46113d46113c46113b46113a46113946113846113746113646113546113446113346113246113146113046112f46112e46112d46112c46112b46112a461129461128781920781a1878171078130898983878182798983078182698982878182598982078182498981878182398981078182298990878192198a83878181f98a83078181e98a82878181d98a82078181c98a81878181b98a81078181a98aa08781a1998783878181798783078181698782878181598782078181498781878181398781078181298770878171198373878170f98373078170e98372878170d98372078170c98371878170b98371078170a98370878170997273898773b951908c879097c97117c98107c9a127c9b13977708d4870797aa1097bb18d4ba0ad4a7077c98157c9a147c9b167c9c17978808d4a80897bb1097cc18d4cb0bd4b808978820d47800842a07d0a0087c97197c9b187c961a7c951b977708d4b707976610975518d46505d457077c9b1d7c961c7c951e7c9c1f97bb08d46b0b97551097cc18d45c0cd4cb0b97bb20d47b0297270185a33fcf370bd48b0b7c97097c98087c9c0a7c950b977708d4870797cc10975518d45c0cd4c7077c980d7c9c0c7c950e7c960f978808d4c808975510976618d46505d45808978820d47808d0a80797000185acffcfc00cd4c7007c97017c957c96027c9c03977708d4570797661097cc18d46c0cd4c7077c9c057c95047c96067c990797cc08d45c0c976610979918d46909d4c909979920d49707d0a707978801cf3808d48707d0a20894479440944b944882197b98187b9b107b90087b9782105882155082164895116032008213088212821718018218000182141001821a0801d3670bd87607821910d8490cdbb70cd32a07d8a20ad88308db7a08d39407d4b707db7c085108c7027b1360492198004921900049218800492180007b12687b19709517a000951880009519607b16785010526dfa8217d8007b17108217d0007b17088216c8008217c0007b178217b8008218b0008219a800821aa0007b17f8007b18f0007b19e8007b1ae0004921180149211001492108014921000148212001208318e000831a0001831b20013309ff33070a078218000182190801821398373d976a03d47a0a98663d821b0897b703d4760698b73d821b1097bb03d47b0b9737038eac88770001857201dbac028eba8e6cdbba0c821a1001d4b606821b1801db6c0246115f46115e46115d46115c46115b46115a46115946115846115746115646115546115446115346115246115146115046114f46114e46114d46114c46114b46114a461149461148461147461146461145461144461143461142461141461140781b38781a3078192878182098bc38781c3f98bc30781c3e98bc28781c3d98bc20781c3c98bc18781c3b98bc10781c3a98bb08781b3998ab38781b3798ab30781b3698ab28781b3598ab20781b3498ab18781b3398ab10781b3298aa08781a31989a38781a2f989a30781a2e989a28781a2d989a20781a2c989a18781a2b989a10781a2a98990878192998893878192798893078192698892878192598892078192498891878192398891078192298880878182184381f951920c898087c89097c8a087c8b0a7c8c0b979908d4a90997bb1097cc18d4cb0bd4b9097c8a0d7c8b0c7c8c0e7c860f97aa08d4ba0a97cc10976618d46c0cd4ca0a97aa20d4a9097c8a017c8b7c8c027c860397aa08d4ba0a97cc10976618d46c0cd4ca0a7c8b057c8c047c86067c870797bb08d4cb0b976610977718d46707d4b707977720d47a0a7c87117c8b107c8c127c8813977708d4b70797cc10978818d4c808d48707942a942994278218187b87107b89087b8a4918189551c0fe821038018215300182162801951140013200330750105460e5837833070133093300560a0d01828910828a18828b088288d4ba0ad4980bd4ab0b98bb20d4a909979920d4b9095209d5009511e07b10187b15107b1608827910827a087b1a8276979920989520838733082050105809e56f5882196f996f6a98ab38787b1f98ab30787b1e98ab28787b1d98ab20787b1c98ab18787b1b98ab10787b1a98ab08787b19787a1878791046170b46170a4617094617074617064617054617044617034617024617014607989a38787a17989a30787a16989a28787a15989a20787a14989a18787a13989a10787a1298990878791178780898893878790f98893078790e98892878790d98882078780c821018821510821608951120320000821770821878821968821a60d49808d4a707d487075207ee013907440002541723e501831780003308040a03821980008217880082189000821a98007b1a387b18307b17289517409518207b192033005a9511c0fe7b1038017b1530017b162801951540018411e07b171882877b17088287087b178287107b17108286184921f8004921f0004921e8004921e0004921180149211001492108014921000148212001208318e000831a0001831b20013309ff33070a072840fb8217587b178217507b17088217487b17108217407b171833074033082050105c82e37c78117c79107c7a127c7b13978808d4980897aa1097bb18d4ba0ad4a8087c79157c7a147c7b167c7c17979908d4a90997bb1097cc18d4cb0bd4b909979920d489027c79017c7a7c7b027c7c03979908d4a90997bb1097cc18d4cb0bd4b9097c7a057c7b047c7c067c760797aa08d4ba0a97cc10976618d46c0cd4ca0a97aa20d4a9097c7a197c7b187c7c1a7c761b97aa08d4ba0a97cc10976618d46c0cd4ca0a7c7b1d7c7c1c7c761e7c781f97bb08d4cb0b976610978818d46808d4b808978820d48a0a7c78097c7b087c7c0a7c760b978808d4b80897cc10976618d46c0cd4c8087c7b0d7c7c0c7c760e7c770f97bb08d4cb0b976610977718d46707d4b707977720d487076f786fa76f996f2ad4a909d4870ad49a0a98aa20d49808978820d4a808510817003307330850105e51e2837833070133090a0d01837633082064675010603be282186f888219086f99821a106faa821b186fbb98bc38787c1f98bc30787c1e98bc28787c1d98bc20787c1c98bc18787c1b98bc10787c1a98bc08787c19787b18787a1098ab38787b1798ab30787b1698ab28787b1598ab20787b1498ab18787b1398ab10787b1298aa08787a11787908989a38787a0f989a30787a0e989a28787a0d989a20787a0c989a18787a0b989a10787a0a989908787909787898893878790798893078790698892878790598892078790498891878790398891078790298880878780133082064675010626be1837833092033073300640a0d01827218828318827b10827c088289088274828a828810d3c907d8c909d84a0adb790ac9b807d8a707d8b808c92309c98909c9790957090532009511f87b103307330850106617e1837833070133093300680a0d019511c0fe7b1038017b1530017b162801951540018411e049211801492110014921080149210001831700010a1001821710018218180182190801821a0001d49808d4a707d487075207b5023907440002541703ac024921d8004921d0004921c8009517e0009518c0004921c00050106a5f5c8217f8007b17408217f0007b17488217e8007b17508217e0007b175833074033082050106c71e07c78117c79107c7a127c7b13978808d4980897aa1097bb18d4ba0ad4a8087c79157c7a147c7b167c7c17979908d4a90997bb1097cc18d4cb0bd4b909979920d489027c79017c7a7c7b027c7c03979908d4a90997bb1097cc18d4cb0bd4b9097c7a057c7b047c7c067c760797aa08d4ba0a97cc10976618d46c0cd4ca0a97aa20d4a9097c7a197c7b187c7c1a7c761b97aa08d4ba0a97cc10976618d46c0cd4ca0a7c7b1d7c7c1c7c761e7c781f97bb08d4cb0b976610978818d46808d4b808978820d48a0a7c78097c7b087c7c0a7c760b978808d4b80897cc10976618d46c0cd4c8087c7b0d7c7c0c7c760e7c770f97bb08d4cb0b976610977718d46707d4b707977720d487076f766faa6f9b6f29d4b907d46a08d47808988820d46707977720d4870752073e0195a7207b1718d8a707c879087b1808d89808da7708c868087b1810d86807c8b7077b172083a73308207b177b1a307b19287b1b3850106e10df46171f2046171e46171d46171c46171b46171a46171946171846171746171646171546171446171346171246171146171046170f46170e46170d46170c46170b46170a46170946170846170746170646170546170446170346170246170146078217087b17688217187b17608217407b1798008217487b1790008217507b1788008217587b1780008217107b17709517a00095188000951960821a207b1a7850107092e78217a8008212b8008213a000821ab000821828d3870bd8870c6484821930d89308dab80cc96a0bd86a0a821638c96206c9a606d8cb0ac9a606c9cb0bc94707c98708c99307d46808d4b709d48909d4b808989920978820d49808510817003307330850107205de837833070133090a0d01837682176468501074f0dd8378330764693300760a0d019511f87b1033073308501078d6dd8378330701330933007a0a0d018289828218828b08828810959c1fd89c09c89b0ad8ba0bda990bc88b0bd88b08c8280884cce07b7c7b7a087b7b107b78183200951160ff7b1098007b1590007b1688009515a0008411f08289187b19308289107b19288289087b192082887b18187b173833074033082050107c5add7c78197c79187c7a1a7c7b1b978808d4980897aa1097bb18d4ba0ad4a8087c791d7c7a1c7c7b1e7c7c1f979908d4a90997bb1097cc18d4cb0bd4b909979920d489027c79117c7a107c7b127c7c13979908d4a90997bb1097cc18d4cb0bd4b9097c7a157c7b147c7c167c761797aa08d4ba0a97cc10976618d46c0cd4ca0a97aa20d4a9097c7a097c7b087c7c0a7c760b97aa08d4ba0a97cc10976618d46c0cd4ca0a7c7b0d7c7c0c7c760e7c780f97bb08d4cb0b976610978818d46808d4b808978820d48a0a7c78017c7b7c7c027c7603978808d4b80897cc10976618d46c0cd4c8087c7b057c7c047c76067c770797bb08d4cb0b976610977718d46707d4b707977720d487076f736fa46f966f2c82181895871fd88708821a20c88a09d8a90ada880a821828c88a0ad88a08821b30c8b8088477e0c8c7077b1c287b1710d8c70bc86909c8b90cd36c097b1630d86c07da9b07c84a0ac87a0bd8ab06d84a09c83808c89808c886068eb88e69da6809d46b087b1c088ecadb890a520a2301d84b08d33609d8360ada980ad34b08d49808db8a0752070a013307403308207b14207b13187b1b50107eafdb6f6882196f99821a086faa821b106fbb787b1898bc38787c1f98bc30787c1e98bc28787c1d98bc20787c1c98bc18787c1b98bc10787c1a98bb08787b19787a1098ab38787b1798ab30787b1698ab28787b1598ab20787b1498ab18787b1398ab10787b1298aa08787a11787908989a38787a0f989a30787a0e989a28787a0d989a20787a0c989a18787a0b989a10787a0a98990878790978789889387879079889307879069889287879059889207879049889187879039889107879029888087878018217388218287b788218187b78188218307b78088218207b7810955160ff8210980082159000821688009511a0003200491170491168491160140700000000717b484e9518607b1778330750208000dcda4911584911504911404133070495184049114850208200c3da33082433075020840078da8378330701330924330086000a0d01828b18828a10828908d4ba02889c01942c510c48828898ac3b97bb05d4cb02989c3b97aa05d4ca0a988c3b979905d4c909978805958c20d88c08c8890bd89b09da8809c8a909d8a908c828087b7c7b7b087b79107b781832009511b07b10487b15409515508411f0491130491128491120140700000000717b484e9518207b173833075020880020da491118491110490141330704641849110850208a0009da330824330750208c00bed9837833070133092433008e000a0d01951160fe7b1098017b1590017b1688019515a0018411e0829318829b10829608d43b02886c01942c7b1718510cd904829c98b73b7b13b800973905d4790298673b7b1bb00097b905d4970798c93b7b16a800976605d469097b1ca00097cc0595c3207b1c58d8c30bc8b9067b1960d8960cdabb0c82a9187b19800082a9107b19880082a9087b196882a97b19788289187b19c8008289107b19c0008289087b19d80082887b18d000c87c0c7b179000d87c087b129800c882097b1320017b1628017b1c300195174001951820017b1938015020900047fb821758018219500182184801821a40017b17387b1828d48707d49a08d478089888207b1930d49707977720d487075207ec037b1a2083a73308205020920098d8821858821cd000c88c0cd88c08821b608219d800c8b909c88900d3b00ad8b009daa809821868d3800ad8080b7b1c70821878d8c808dbab088213c000821b9000c83b0ad8ba0b8212c800821c9800c82c0cc8cb0bc89a06d8a609c89b04821a8000d3a409d84a0a821c8800d86c0bda9b0ad3c60bd4b909db9a088219a0006f99989a38787a1f989a30787a1e989a28787a1d989a20787a1c989a18787a1b989a10787a1a989a08787a19821aa8006faa78791898a93878791798a93078791698a92878791598a92078791498a91878791398a9107879128219b0006f99787a1098aa08787a11989a38787a0f989a30787a0e989a28787a0d989a20787a0c989a18787a0b989a10787a0a821ab8006faa78790898990878790998a93878790798a93078790698a92878790598a92078790498a91878790398a910787902787a98aa08787a016429643c8213d8008212d0005208f602821770d87207d33008d8030bda870bd86c07d394087b1460d8490ada870a7b1668d3c607d48707da7b0a510a2b02831760017b1758140700000000010000007b17501407e0ffffff000000007b1748821620821b288218308217387b17b8007b1040017b1ba8007b18b000d4c2077b19c8007b13d800d49308d487079877207b1cc000d4c808978820d487075207f9017b12d00083288217580a0301821a700182197801821750d3a707d4970798a820888801949893785108cf017b1a98007b19a0008219b800821bb000d49b07821848d88608821ca80094c894785108a901956820d86807648a7b188800c87c087b189000d8c808da7708821768017b178000821760017b1778c8b8087b18a800d8b807c879097b19b80083a7330820502094001fd68218d000958220d8820b8218d800c8b803821970d8920c821940d39306d8930ada6c0ad8830cdabb0c8218c000c8c800d8800c8219c800c8c909821c68d8c004821860d38906d88908da6408d3c00cd46c0cdbc80a8218786f88988c38787c1f988c30787c1e988c28787c1d988c20787c1c988c18787c1b988c10787c1a988c08787c19787818821880006f88988c38787c17988c30787c16988c28787c15988c20787c14988c18787c13988c10787c12821c98006fcc78781098880878781198c83878780f98c83078780e98c82878780d98c82078780c98c81878780b98c81078780a8218a0006f88787c0898cc08787c09988c38787c07988c30787c06988c28787c05988c20787c04988c18787c03988c10787c02787898880878780182168800821b90008218a800640c520a12fe8217188218207b788218287b78088218307b78108218387b7818955160fe8210980182159001821688019511a001320000330750209600b5d4837833070133090a0d01492110014921080149210001140700000000717b484e951800017b171801330750209800c5d44921f8004921f0004921e000413307049518e0004921e80050209a00a7d4330824330750209c005cd483783307013309240a0d0133073308330096002843d49511a0fe7b1058017b1550017b164801951560018411e0829608828208829c8283829010d3260bd8260ad83c04dab40a7b1670c9260bc94b0b7b1c68c93c0c88cc4085cc018284108eb6dbb60c829b18828618c94008c9a809d8a8087b1060d8400a7b1b50c96b0bc9ab0bc98b0b8fb88e9adbb80ad4b909db9a0c510c1302d443097b1278d46208d489099899207b1458d44808978820d498085208f3017b16487b17208338831700017b181864360a0301821718018218100182190801d4780a889b0194ab510bc801821a0001c86a02d8a20a821b78c89b0bc8ab03d3930b7b1640d89306daba06821958c88909c89606d8960ad88908821948c89707c88707c8a70095271fd82708c88309d8390ada880ac8a604d86408c80808821c70d3c90bd8c909821c68d8c707dbb907821c60d8c409821b50d3b80ad9b808daa908d3c409d4a909db980751075001d462077b13387b1028d40308d487079877207b1630d46808978820d487075207220183288317200164260a03821220018213280182193001821a3801956b20d86b0c821838c8c807d88708dacc08821c30c8c808d8c80c821628c86c0c8216507b1698008216607b1690008216707b1688008216687b1680007b1ab8007b19b0007b13a8007b12a0007b17c8007b1bc0007b18d0009517e0009518c0009519a000951a80007b1cd80050209e00a1f8821758821848d487071408e0ffffff00000000821940d88908821978949894785108718216f8008217f0007b17688217e8007b17708217e0007b1778821718837820831720010a03821738018218300182192801821a2001821b207bb7387bb8307bb9287bba207bb6188217687bb7108217707bb7088217787bb79551a0fe82105801821550018216480195116001320000330733083300a00028aad133085020a000a5d1837833070133093300a2000a0d019511c0fe7b1038017b1530017b162801951540018411e049211801492110014921080149210001831700010a1001821710018218180182190801821a0001d49808d4a707d4870752072a0238074400024921980049219000492188007b1780004921b8004921b0004921a000049517c0009518a000951980004921a8005020a400d4fc8212c0008217c8008218d0008219d800821be000821ce8008216f000821af8007b1a387b16307b1c287b1b207b19587b18507b17489517609518409519207b12403300a600951120fc7b10d8037b15d0037b16c8039515e0038411e0829a187b1a2801829a107b1a3001829a087b1a380182997b1940018289187b1948018289107b1950018289087b19580182887b1860017b17f00033074033082033007a01286ed08217787b178217707b17088217687b17108217607b17183307403308205020a8004ed07c78117c79107c7a127c7b13978808d4980897aa1097bb18d4ba0ad4a8087c79157c7a147c7b167c7c17979908d4a90997bb1097cc18d4cb0bd4b909979920d489027c79017c7a7c7b027c7c03979908d4a90997bb1097cc18d4cb0bd4b9097c7a057c7b047c7c067c760797aa08d4ba0a97cc10976618d46c0cd4ca0a97aa20d4a9097c7a197c7b187c7c1a7c761b97aa08d4ba0a97cc10976618d46c0cd4ca0a7c7b1d7c7c1c7c761e7c781f97bb08d4cb0b976610978818d46808d4b808978820d48a0a7c78097c7b087c7c0a7c760b978808d4b80897cc10976618d46c0cd4c8087c7b0d7c7c0c7c760e7c770f97bb08d4cb0b976610977718d46707d4b707977720d487076f786fa76f996f2ad4a909d4870ad49a0a98aa20d49808978820d4a80851081800330733085020aa001ccf837833070133090a0d01837633082064675020ac0005cf82186f888219086f99821a106faa821b186fbb98bc38787c1f98bc30787c1e98bc28787c1d98bc20787c1c98bc18787c1b98bc10787c1a98bc08787c19787b18787a1098ab38787b1798ab30787b1698ab28787b1598ab20787b1498ab18787b1398ab10787b1298aa08787a11787908989a38787a0f989a30787a0e989a28787a0d989a20787a0c989a18787a0b989a10787a0a989908787909787898893878790798893078790698892878790598892078790498891878790398891078790298880878780133082064675020ae0034ce837833092033073300b0000a0d01828918828a10828b0882887b79187b7a107b7b087b7832009511a07b10587b15507b1648828a18828b10828c088286d4ac08d4b609d48909989920d4b808978820d498087b1728520816029567207b1730d86707c87c087b18407b1c08d8c805da7705c8b5057b1b10d8b5077b1a18c8a7077b17387b1683673308203306205020b200a1cd78761f8218306486d45808821940821b38d4b909d498089888207b1520d45909979920d4980846171e46171d46171c46171b46171a46171946171846171746171646171546171446171346171246171146171046170f46170e46170d46170c46170b46170a461709461708461707461706461705461704461703461702461701460752085601836533082064575020b4000ecd46171f1846171e46171d46171c46171b46171a46171946171846171746171646171546171446171346171246171146171046170f46170e46170d46170c46170b46170a461709461708461707461706461705461704461703461702461701821820821938d498081409e0ffffff00000000d89609821a4094a9948946075109c8008357203308205020b60081cc46171f46171e46171d46171c46171b46171a461719461718461717734617167346171565461714724617136446171264461711614617102046170f6746170e6946170d7346170c6946170b7446170a6c46170975330c6d787c084617072046170664461705694617046c46170361461702764617016e4607498218958760d88708821a08c88a09d8a90ada880a821810c88a0ad88a08821b18c8b808821b287bb77bb9087bba107bb8188210588215508216489511603200009511c07b10387b15307b16289515408411e03307403308205020b800aacb7c78117c79107c7a127c7b13978808d4980897aa1097bb18d4ba0ad4a8087c79157c7a147c7b167c7c17979908d4a90997bb1097cc18d4cb0bd4b909979920d489027c79017c7a7c7b027c7c03979908d4a90997bb1097cc18d4cb0bd4b9097c7a057c7b047c7c067c760797aa08d4ba0a97cc10976618d46c0cd4ca0a97aa20d4a9097c7a197c7b187c7c1a7c761b97aa08d4ba0a97cc10976618d46c0cd4ca0a7c7b1d7c7c1c7c761e7c781f97bb08d4cb0b976610978818d46808d4b808978820d48a0a7c78097c7b087c7c0a7c760b978808d4b80897cc10976618d46c0cd4c8087c7b0d7c7c0c7c760e7c770f97bb08d4cb0b976610977718d46707d4b707977720d487076f766fa77b17086f977b17186f277b17100a0c01821a08821818821910d49808d46a09d48909989920d46808978820d4980852083a647698772052073283a783687b18187b17105020ba0056ca7a1620837783182033090a0b01811720821818ac870c0a0c0198782051080400837682171064685020bc0029ca837833070164693300be000a0d01827810827918827a088277d4a909d4870ad49a0a98aa20d49808978820d4a8085208a0009511f07b10087b1583773308203305205020c000e1c946171f46171e46171d46171c46171b46171a46171974461718654617176c4617166c3309617879154617145746171367330b69787b1246171153787b1046170f7446170e6c46170d7546170c4d78750b330c64787c0a787b094617086c787907330a76787a06787505787904787503461702744617016f33084e787882100882159511103200009511a07b10587b15507b1648828a18828b10828c088286d4ac08d4b609d48909989920d4b808978820d498087b1728520818029567207b1730d86707c87c087b18407b1c08d8c805da7705c8b5057b1b10d8b5077b1a18c8a7077b17387b1683673308203306205020c200edc878761f8218306486d45808821940821b38d4b909d498089888207b1520d45909979920d4980846171e46171d46171c46171b46171a46171946171846171746171646171546171446171346171246171146171046170f46170e46170d46170c46170b46170a461709461708461707461706461705461704461703461702461701460752085801836533082064575020c4005ac846171f1a46171e46171d46171c46171b46171a46171946171846171746171646171546171446171346171246171146171046170f46170e46170d46170c46170b46170a461709461708461707461706461705461704461703461702461701821820821938d498081409e0ffffff00000000d89609821a4094a9948946075109ca008357203308205020c600cdc746171f46171e46171d46171c46171b46171a46171974461718654617176c4617166c46171561461714574617136746171269461711534617106946170f7446170e6c46170d7546170c4d46170b20330c64787c0a461709694617086c4617076146170676461705204617046146170320461702744617016f46074e8218958760d88708821a08c88a09d8a90ada880a821810c88a0ad88a08821b18c8b808821b287bb77bb9087bba107bb8188210588215508216489511603200009511c0fd7b1038027b1530027b162802951540028411e08289107b19388289087b193082887b1828827a1882791082780882777b1a607b1af8017b19687b19f0017b18707b18e8017b17787b17e001492118024921100249210802492100024821c001208318e001831a0002831bc0013309ff33070a0701821b1802821a100282190802d4ba0788980194785108a806821700027b1758957701887801c898087b170002d487077b180802887701c8a7077b171002d8a707c8b7077b1718028217707b17e8018217787b17e0018217687b17f0018216607b16f8018318e0017b1a50831a00027b19483309ff7b1b40330b2033070a0f8217407b1758018217507b1750018217487b1748018217587b1740017b1678018217687b1770018217707b176801951780019518600195194001821a787b1a60015020c80044d88217b8017b17588217b0017b17508216a8018217a0017b1720821a98017b1a60821990017b1968821888017b1870821780017b17787b1af8017b19f0017b18e8017b17e001492118024921100249210802492100024821c001208318e001831a0002831bc0013309ff33070a0782192098973d976803d48707979803888800018583018e78db780398663d821850978703d4670798883d821a5897aa03d4a8088e8a8e7bdb8a0bd48707db7b03821700027b1758821708027b1750821710027b1748821718027b174046213301ff0046212f01ff0046212e01ff0046212d01ff0046212b01ff0046212701ff0046212601ff0046212501ff0046212301ff001407ffffffff0000000078172c01781724011407ffffffffffff00007817320178172a017817220146213001ff46212801ff46212001ff1407ffffffffffffff0078173101781729017817210146213f0146213e0146213d0146213c0146213b0146213a0146213901462138014621370146213601462135014621340146211f0146211e0146211d0146211c0146211b0146211a014621190146211801462117014621160146211501462114014621130146211201462111014621100146210f0146210e0146210d0146210c0146210b0146210a0146210901462108014621070146210601462105014621040146210301462102014621010146210001849b1f951a2001c9ba0a7ca7197ca8187cac1a7ca61b977708d4870797cc10976618d46c0cd47c027ca81d7cac1c7ca61e7ca71f978808d4c808976610977718d46707d48707977720d427077b17207ca7117ca8107cac127ca613977708d4870797cc10976618d46c0cd47c027ca8157cac147ca6167ca717978808d4c808976610977718d46707d48707977720d427077b17187ca7097ca8087cac0a7ca60b977708d4870797cc10976618d46c0cd47c097ca80d7cac0c7ca60e7ca70f978808d4c808976610977718d46707d48707977720d497007ca7017ca87ca9027ca603977708d48707979910976618d46909d497077ca8057ca9047ca6067caa07978808d4980897661097aa18d46a0ad4a808978820d478048218289887387817e7009887307817e6009887287817e5009887207817e4009887187817e3009887107817e2007818e0009887087817e1008218309887387817ef009887307817ee009887287817ed009887207817ec009887187817eb009887107817ea007818e8009887087817e9008218389887187817f3009887107817f2007818f0009887087817f1009517e000c9b70b4621ff004621fe004621fd004621fc004621fb004621fa004621f9004621f8004621f7004621f6004621f5004621f4004621df004621de004621dd004621dc004621db004621da004621d9004621d8004621d7004621d6004621d5004621d4004621d3004621d2004621d1004621d0004621cf004621ce004621cd004621cc004621cb004621ca004621c9004621c8004621c7004621c6004621c5004621c4004621c3004621c2004621c1004621c0007cb7197cb8187cb91a7cb61b977708d48707979910976618d46909d4790a7cb81d7cb91c7cb61e7cb71f978808d49808976610977718d46707d48707977720d4a7067cb7117cb8107cb9127cba13977708d4870797991097aa18d4a909d4790c7cb8157cb9147cba167cb717978808d4980897aa10977718d4a707d48707977720d4c7027cb7097cb9087cba0a7cbc0b977708d4970797aa1097cc18d4ca0ad47a087cb90d7cba0c7cbc0e7cb70f979908d4a90997cc10977718d4c707d49707977720d487077cb8017cb97cba027cbc03978808d4980897aa1097cc18d4ca0ad4a8087cb9057cba047cbc067cbb07979908d4a90997cc1097bb18d4cb0bd4b909979920d4890b94349430821c18943c8219209439943b943794329436821840e09803d26909821848e0c80ad2c20c821850e00806d20707821858e04808d24b0bd4b808d46707d4ca0ad49309821b607b1bf801821b687b1bf001821b707b1be801821b787b1be0017b1918027b1a10027b1708027b1800028318e001831a00023309ff330b2033070a0f9551c0fd8210380282153002821628029511400232004921b0004921a8004921a000140700000000717b484e9518a0007b17b80033075020ca00f8bf4921980049219000492180004133070495188000492188005020cc00dabf33082433075020ce008fbf83783307013309243300d0000a0d01951140fd7b10b8027b15b0027b16a8029515c0028411e0827810827a08827b7b18709788209889207b1a687b1b60d4ab087b1928d4980851085d088277187b1720831780010a811790017b1740821780017b1738821788017b17303307403308205020d20019bf7c78117c79107c7a127c7b13978808d4980897aa1097bb18d4ba0ad4a8087c79157c7a147c7b167c7c17979908d4a90997bb1097cc18d4cb0bd4b909979920d489027c79017c7a7c7b027c7c03979908d4a90997bb1097cc18d4cb0bd4b9097c7a057c7b047c7c067c760797aa08d4ba0a97cc10976618d46c0cd4ca0a97aa20d4a9097c7a197c7b187c7c1a7c761b97aa08d4ba0a97cc10976618d46c0cd4ca0a7c7b1d7c7c1c7c761e7c781f97bb08d4cb0b976610978818d46808d4b808978820d48a0a7c78097c7b087c7c0a7c760b978808d4b80897cc10976618d46c0cd4c8087c7b0d7c7c0c7c760e7c770f97bb08d4cb0b976610977718d46707d4b707977720d487076f766faa6f986f277b17507b1858d48707d46a08d47808988820d46707977720d487075207560b83a73308207b17787b1a485020d400dabd4617036e461702bf004617015446072f7b1618821958d469091408fcffffff00000000821a48d88a08821a5094a8949846171f46171e46171d46171c46171b46171a46171946171846171746171646171546171446171346171246171146171046170f46170e46170d46170c46170b46170a4617094617084617074617064617054617045108bd0a8217306f779878208219386f99979a20d4a8087b18389777208218406f88988820d487077b17409896208217788377043308205020d60019bd6f688219386f99821a406faa98ab38787b1f98ab30787b1e98ab28787b1d98ab20787b1c98ab18787b1b98ab10787b1a98ab08787b19787a1878791046170b46170a4617094617074617064617054617044617034617024617014607989a38787a17989a30787a16989a28787a15989a20787a14989a18787a13989a10787a1298990878791178780898893878790f98893078790e98892878790d98882078780c0a0a8217686f799797208218706f88988820d487078218606f8a97a8207b1938989920d498087b1a3098a9207b18a8017b17a0017a19b0014921d8014921d0014921c8014921c00133082482167864675020d80022bc7b174033082064675020da0014bc4821e00120492118024921100249210802492100029518a00197882098882014090000000018000000d498069518c00197882098882095190002979920d4890a82184097882098882014090000000024000000d4980b9777209877209518e001978820d4780c3308ff3309ff64670a01015207bb060a0c0156171f0a0a0c330b2808330b33072001821a58821948821650957c1f7b1750d87c0849115884880184c7e0c879097b1948d87907c88606c87606d38609d88608da9708821718c87808d87807c8a7077b18407b1718d4870788680194785108bb083307403308205020dc002fbb8218186f888219406f996f6a821b486fbb787b1898bc38787c1f98bc30787c1e98bc28787c1d98bc20787c1c98bc18787c1b98bc10787c1a98bb08787b19787a1098ab38787b1798ab30787b1698ab28787b1598ab20787b1498ab18787b1398ab10787b1298aa08787a11787908989a38787a0f989a30787a0e989a28787a0d989a20787a0c989a18787a0b989a10787a0a9899087879097878988938787907988930787906988928787905988920787904988918787903988910787902988808821c588ec9821a5088aa2085aa01dbc90a8ec98ecbdac90bd4cc09da9a0b787801510bb5073308208217785020de003dba7c78197c79187c7a1a7c7b1b978808d4980897aa1097bb18d4ba0ad4a8087c791d7c7a1c7c7b1e7c7c1f979908d4a90997bb1097cc18d4cb0bd4b909979920d489027c79117c7a107c7b127c7c13979908d4a90997bb1097cc18d4cb0bd4b9097c7a157c7b147c7c167c761797aa08d4ba0a97cc10976618d46c0cd4ca0a97aa20d49a037c7a017c7b7c7c027c760397aa08d4ba0a97cc10976618d46c0cd4ca0a7c7b097c7c087c760a7c780b97bb08d4cb0b976610978818d46808d48b0b7c78057c7c047c76067c7907978808d4c808976610979918d46909d498087c790d7c7c0c7c760e7c770f979908d4c909976610977718d46707d497076f396f2c88cc02949cd48707977720d4ba0ad4a7076f77947c510c91068217607b170001492138014921300149212801492120018217687b1708018217707b17100195172001951800018219207b1918015020e000dff1831720020a05801730027b1770821728027b1768821720027b17783307403308205020e200c4b87c78117c79107c7a127c7b13978808d4980897aa1097bb18d4ba0ad4a8087c79157c7a147c7b167c7c17979908d4a90997bb1097cc18d4cb0bd4b909979920d489027c79017c7a7c7b027c7c03979908d4a90997bb1097cc18d4cb0bd4b9097c7a057c7b047c7c067c760797aa08d4ba0a97cc10976618d46c0cd4ca0a97aa20d4a9097c7a197c7b187c7c1a7c761b97aa08d4ba0a97cc10976618d46c0cd4ca0a7c7b1d7c7c1c7c761e7c781f97bb08d4cb0b976610978818d46808d4b808978820d48a0a7c78097c7b087c7c0a7c760b978808d4b80897cc10976618d46c0cd4c8087c7b0d7c7c0c7c760e7c770f97bb08d4cb0b976610977718d46707d4b707977720d487076f786fa76f996f2ad4a909d4870ad49a0a98aa20d49808978820d4a808520807058216786f689788208219686f99989a20d4a8087b18689799208218706f88988820d498087b1870837733085020e4006bb73a080000023a090800023a0a1000023a0b1800027b1858027b1950027b1a48027b1b40028218706f888219686f99976a207b1a6802492160027b1970027b1878028218286f888219307b1998028219387b199002492180027b188802837983174002330803330a0a06955140fd8210b8028215b0028216a8029511c00232003307403308205020e600e0b67c78117c79107c7a127c7b13978808d4980897aa1097bb18d4ba0ad4a8087c79157c7a147c7b167c7c17979908d4a90997bb1097cc18d4cb0bd4b909979920d489027c79017c7a7c7b027c7c03979908d4a90997bb1097cc18d4cb0bd4b9097c7a057c7b047c7c067c760797aa08d4ba0a97cc10976618d46c0cd4ca0a97aa20d4a9097c7a197c7b187c7c1a7c761b97aa08d4ba0a97cc10976618d46c0cd4ca0a7c7b1d7c7c1c7c761e7c781f97bb08d4cb0b976610978818d46808d4b808978820d48a0a7c78097c7b087c7c0a7c760b978808d4b80897cc10976618d46c0cd4c8087c7b0d7c7c0c7c760e7c770f97bb08d4cb0b976610977718d46707d4b707977720d487076f766fa86f996f277b17787b1970d497076489d46808d47808988820d46707977720d4870752071b037b196883973308207b17605020e8009fb546171f46171e46171d46171c46171b46171a46171946171846171746171646171546171446171346171246171146171046170f46170e46170d46170c46170b46170a461709461708461707461706461705461704461703a00046170279461701c300460708821868958704d88708821a78c88a09d8a90ada880ac86a0ad86a08821b70c88b0b7b1988007b1780007b1a90009517a000951880007b1b98005020ea00f3e68217a8008212b8008213a000821ab0002805023307403308205020ec00dcb47c78117c79107c7a127c7b13978808d4980897aa1097bb18d4ba0ad4a8087c79157c7a147c7b167c7c17979908d4a90997bb1097cc18d4cb0bd4b909979920d489027c79017c7a7c7b027c7c03979908d4a90997bb1097cc18d4cb0bd4b9097c7a057c7b047c7c067c760797aa08d4ba0a97cc10976618d46c0cd4ca0a97aa20d4a9097c7a197c7b187c7c1a7c761b97aa08d4ba0a97cc10976618d46c0cd4ca0a7c7b1d7c7c1c7c761e7c781f97bb08d4cb0b976610978818d46808d4b808978820d48a0a7c78097c7b087c7c0a7c760b978808d4b80897cc10976618d46c0cd4c8087c7b0d7c7c0c7c760e7c770f97bb08d4cb0b976610977718d46707d4b707977720d487076f766fa86f996f277b17787b1970d497076489d46808d47808988820d46707977720d48707520717017b196883973308207b17605020ee009bb346171f46171e46171d46171c46171b46171a46171946171846171746171646171546171446171346171246171146171046170f46170e46170d46170c46170b46170a461709461708461707461706461705461704461703a00046170279461701c300460708821868958704d88708821a78c88a09d8a90ada880ac86a0ad86a08821b70c88b0b7b1948017b1740017b1a500195176001951840017b1b58015020f000a3e9821768018212780182136001821a700101821878d3870bd8870c6484821968d89308dab80cc96a0bd86a0a821670c96206c9a606d8cb0ac9a606c9cb0bc94707c98708c99307d46808d4b709d48909d4b808989920978820d4980851087200330733085020f2008eb2837833070133090a0d014921f0004921e8004921e000140700000000717b484e9518e0007b17f80033075020f4009eb24921d8004921d0004921c000413307049518c0004921c8005020f60080b233082433075020f80035b283783307013309240a0d01837682176064685020fa001db2837833070164693300fc000a0d014917184917104917083308607b783200951110ff7b10e8007b15e0007b16d8009515f0008411f0828918828b10828c08d49b0688ca01946a7b1748510a9e01828698b73b7b1920979805d4870798c83b7b1b2897b905d4980898693b7b1c1097ca05d4a9097b1618976a0595ab20d8ab0ac8a90cd89c09daaa09c88909d88908c8870a7b1b90007b1c98007b19a0009517b000951890007b1aa8005020fe00ddd38217c8008219c0008218b800821ab0007b17387b1830d48707d49a08d478089888207b1940d49707977720d487075207090183a73308207b1a08502000012eb18218206f888219286f99821a106faa821b186fbb98bc38787c1f98bc30787c1e98bc28787c1d98bc20787c1c98bc18787c1b98bc10787c1a98bc08787c19787b18787a1098ab38787b1798ab30787b1698ab28787b1598ab20787b1498ab18787b1398ab10787b1298aa08787a11787908989a38787a0f989a30787a0e989a28787a0d989a20787a0c989a18787a0b989a10787a0a98990878790978789889387879079889307879069889287879059889207879049889187879039889107879029888087878018217488218087b788218387b78188218307b78088218407b7810955110ff8210e8008215e0008216d8009511f00032000049218000491178491170140700000000717b484e9518707b17880033075020020153b049116849116049115041330704951850491158502004013ab0330824330750200601efaf8378330701330924330008010a0d019511e87b10107b15087b16828910828a18828b088286d4ba0ad49608d4a808988820d4a909979920d4980852084c827918827a108278827708d4a80bd49707d47b0b98bb20d4a707977720d4b707520729390544000283878366646850200a017eaf83776468645982101082150882169511180a02320000951120ff7b10d8007b15d0007b16c8009515e0008411f08289828a087b1a288286108288187b18307b17207b1898007b1690007b1a88009517a000951880007b19387b19800050200c0123fd821a30821928d4a60788980194785108bb00821c38d46c07d4a908d4870798771bd46808978825d4870752079e008218a000821bb800821aa8008216b0009587207b1830d88708c88a097b1a28d8a90ada880ac86a0a7b1610d86a087b1b18c8b808d4a70bd49808d48b0b98bb20d4a808978820d4b80852085139084400027b18088ac6058377646850200e018dae837764688219080a028217208218187b78188218107b78108218287b78088218307b78955120ff8210d8008215d0008216c8009511e000320000491170491168491160140700000000717b484e9518607b177833075020100172ae491158491150491140413307049518404911485020120159ae3308243307502014010eae8378330701330924330016010a0d01951150ff7b10a8007b15a0007b1698009515b0008411f0828b10828a18828c0882867b1a387b1c30d4ac08d4b60ad48a0a98aa207b1b40d4b808978820d4a8087b17485208fb018297187b17208297107b17108297087b170882977b17187b162883673308205020180193ad8214087c78017c797c7a027c7b03978808d4980897aa1097bb18d4ba0ad4a8087c79057c7a047c7b067c7c07979908d4a90997bb1097cc18d4cb0bd4b909979920d489027c79097c7a087c7b0a7c7c0b979908d4a90997bb1097cc18d4cb0bd4b9097c7a0d7c7b0c7c7c0e7c780f97aa08d4ba0a97cc10978818d4c808d4a808978820d498037c78117c7a107c7b127c7c13978808d4a80897bb1097cc18d4cb0bd4b8087c7a157c7b147c7c167c791797aa08d4ba0a97cc10979918d4c909d4a909979920d4890a7c78197c79187c7b1a7c7c1b978808d4980897bb1097cc18d4cb0bd4b8087c791d7c7b1c7c7c1e7c771f979908d4b90997cc10977718d4c707d49707977720d487076f706fa66f398213186f2a821820d38a0bd8a807821a10d89a0cdbb70cd34602d86406d80307db2607d3a909d4b909db9c075107970064a698673b978805d4780298483b976605d4680898393b974a05d4a909973a05821728c87a0ad87a0b821c30c8c909c8b909d3c907d8c906da7b06821c40c8c808c88606d8860bd8c808821c38c82c07c88707c8b70795a820d8a80ac8a90bd89b09daaa09c86909d8690ac8a707821a487ba87bab087ba9107ba718955150ff8210a8008215a000821698009511b00032000049218000491178491170140700000000717b484e9518707b178800330750201a01ddab4911684911604911503233070495185049115850201c01c4ab330824330750201e0179ab8378330701330924330020010a0d01827910827a18827b088277d4ba0ad4970bd4ab0b98bb20d4a909979920d4b9095209d6009511e07b10187b15107b1608828910828a087b1a82869799209895208377330820502022011fab6f5882196f996f6a98ab38787b1f98ab30787b1e98ab28787b1d98ab20787b1c98ab18787b1b98ab10787b1a98ab08787b19787a1878791046170b46170a4617094617074617064617054617044617034617024617014607989a38787a17989a30787a16989a28787a15989a20787a14989a18787a13989a10787a1298990878791178780898893878790f98893078790e98892878790d98882078780c821018821510821608951120320000821718078218100782190807821a00077b17b8017b19a801d497077b18b0017b1aa001d4a808d4870752070628fa1c330c3309330a33034921c0004921b8004921b0004921c800140700000000240000007b1798019517000697772098772095184006978820d487077b17a800140800000000180000007b16589767209877206f777b17a0009517e0059777209877207b1860d487077b179800951720069777207b1790001406ffffffff000000007b16708217786f777b1788008217686f777b178000285e821cf0008219e8000195cc0188c701c87909d49c078877018218d800c88707d88708c883038218a001d88c08821aa801d3a90bd8a90adab80a8218b001d88702821bb801d3b306d8b30bda620bd37808d46808da8a0b647a510b320a7b1cf0007b1c6005492198054921900549218805492180057b19e8007b1968057b1ad8007b1a70059517a00595188005951960057b13e0007b137805502024017ebb8216c0058217c8057b17f8018217d8057b17e8018217d0057b17f0018217b8058218b0058219a805821aa0057b17f8067b18f0067b19e8067b1ae0064921180749211007492108074921000748212007208318e006831a0007831b20073309ff33070a07821700078218080782191007821a180746215f0546215e0546215d0546215c0546215b0546215a054621590546215805462157054621560546215505462154054621530546215205462151054621500546214f0546214e0546214d0546214c0546214b0546214a0546214905462148054621470546214605462145054621440546214305462142054621410546214005781a380578193005781828057817200598ab38781b3f0598ab30781b3e0598ab28781b3d0598ab20781b3c0598ab18781b3b0598ab10781b3a0598aa08781a3905989a38781a3705989a30781a3605989a28781a3505989a20781a3405989a18781a3305989a10781a32059899087819310598893878192f0598893078192e0598892878192d0598892078192c0598891878192b0598891078192a0598880878182905987838781827059878307818260598782878182505987820781824059878187818230598781078182205987708781721057b16e00184671f95182005c887077c78107b1818017c78117b18f8007c78127b1808017c78137b1800017c78147b1830017c78157b1810017c78167b1828017c78177b1820017c78087b1858017c78097b1838017c780a7b1848017c780b7b1840017c780c7b1870017c780d7b1850017c780e7b1868017c780f7b1860017c787b18c0017c78017b1878017c78027b1888017c78037b1880017c78047b18d8017c78057b1890017c78067b18d0017c77077b17c8013307403308205020260186a67c78117c79107c7a127c7b13978808d4980897aa1097bb18d4ba0ad4a8087c79157c7a147c7b167c7c17979908d4a90997bb1097cc18d4cb0bd4b909979920d489027c79017c7a7c7b027c7c03979908d4a90997bb1097cc18d4cb0bd4b9097c7a057c7b047c7c067c760797aa08d4ba0a97cc10976618d46c0cd4ca0a97aa20d4a9097c7a197c7b187c7c1a7c761b97aa08d4ba0a97cc10976618d46c0cd4ca0a7c7b1d7c7c1c7c761e7c781f97bb08d4cb0b976610978818d46808d4b808978820d48a0a7c78097c7b087c7c0a7c760b978808d4b80897cc10976618d46c0cd4c8087c7b0d7c7c0c7c760e7c770f97bb08d4cb0b976610977718d46707d4b707977720d487076f7b6faa6f986f277b1708027b181002d48707d4ba08d47808988820d4b707977720d48707510706285d1864b683a73308207b1718027b1a0002502028013fa57b16d00082191002d469091408fcffffff00000000821a0002d88a08821a080294a8949846171f46171e46171d46171c46171b46171a46171946171846171746171646171546171446171346171246171146171046170f46170e46170d46170c46170b46170a4617094617084617074617064617054617044617036e461702bf004617015446072f52080628ba178216e00198673d821af80197a803d48707976603886800018588018e79db79088217e801977703821bf00198b93dd4970798a93d97ba03d4a9098e9a8e76da7a06d49707da78068217f80097770882181801d487078218080197881082190001979918d49808d487078218100197880882193001d4980882192801979910821a200197aa18d4a909d49808978820d487077b17f8018217380197770882185801d487078218480197881082194001979918d49808d487078218500197880882197001d4980882196801979910821a600197aa18d4a909d49808978820d487077b17f001821778019777088218c001d487078218880197881082198001979918d49808d48707821890019788088219d801d498088219d001979910821ac80197aa18d4a909d49808978820d487077b17e8018217180283770433082050202a0170a3821a8000787a108219a00098983878780f98983078780e98982878780d98982078780c98981878780b98981078780a98980878780978790846170746170646170546170446170346170246170146078219880078791898a83878781798a83078781698a82878781598a82078781498a81878781398a81078781298a80878781198983878781f98983078781e98982878781d98982078781c98981878781b98981078781a9898087878190a0a821ae801946a8219f80194698217f00194676f779778206f99989920d498089877206fa9979a20d4a7079899207a19f0057b17e8057b18e0054921180649211006492108064921000633082482161802646750202c016ca27b17f801330820646750202e015da24821200620492158064921500649214806492140068216f801976620986620821b9801d46b0b977720987720821c9000d47c0c3308ff3309ff82179800821aa8000a0101510706281d150a0c01330820ae87080a0c647801821a1002821b00028216080295871f7b180802d88708492110028488018477e0c87b0b7b1b0002d87b07c88606c87606d38609d88608da97088217d000c87808d87807c8a7077b18f8017b17f001d48707886801947852080628cd14330740330820502030019da18218f0016f888219f8016f996f6a821b00026fbb787b1898bc38787c1f98bc30787c1e98bc28787c1d98bc20787c1c98bc18787c1b98bc10787c1a98bb08787b19787a1098ab38787b1798ab30787b1698ab28787b1598ab20787b1498ab18787b1398ab10787b1298aa08787a11787908989a38787a0f989a30787a0e989a28787a0d989a20787a0c989a18787a0b989a10787a0a9899087879097878988938787907988930787906988928787905988920787904988918787903988910787902988808821c10028ec9821a080288aa2085aa01dbc90a8ec98ecbdac90bd4cc09da9a0b787801520b0628c0133308208217180250203201a3a07c78097c79087c7a0a7c7b0b978808d4980897aa1097bb18d4ba0ad4a8087c790d7c7a0c7c7b0e7c7c0f979908d4a90997bb1097cc18d4cb0bd4b909979920d489027c79017c7a7c7b027c7c03979908d4a90997bb1097cc18d4cb0bd4b9097c7a057c7b047c7c067c760797aa08d4ba0a97cc10976618d46c0cd4ca0a97aa20d4a9097c7a197c7b187c7c1a7c761b97aa08d4ba0a97cc10976618d46c0cd4ca0a7c7b1d7c7c1c7c761e7c781f97bb08d4cb0b976610978818d46808d4b808978820d48a0a7c78117c7b107c7c127c7613978808d4b80897cc10976618d46c0cd4c8087c7b157c7c147c76167c771797bb08d4cb0b976610977718d46707d4b707977720d487076f786fab88bb02948bd492086f88948b520b06289612d49707d4a208d487078213e0005107ccf5821bc00095bb0188b7018216b800c87606d46b078877018218b000c88707d88708821ac800c88a0ad4a608d47b09d49808821cf0008219e80052080628e4127b16b8007b1bc0007b1ac8007b17b0002882f58217c0007b17a0048217b8007b17a8048217b0007b17b0049517c0049518a0048219c8007b19b8045020340193ef33063302330c33034921d0014921c80133044921c00195176006977720987720821860d487077b17a00095178006977720987720821bc0049518c0069788208219c804d487077b17980095b7207b1748d8b707c879087b19607b1840d89808da7708821770821958d297078219688499ff821a7884aaff6faa7b1a90006f997b1988006f777b178000821ad0048219d8049517a0069777207b1778c8a8087b1a507b1838d8a8077b1958c897077b17301407fcffffff000000007b17a8007b1b6883bb7b1b2828608216f8018212f0018214d80101956601886701c87202d42607887701c8b707d8b708c883038218a001d88608821aa801d3a209d8a20ada980a821cb001d8c708821bb801d3b309d8b30bda980bd3c708d49808da8a0b647c520b062877107b14d8017b16f8017b162004492158044921500449214804492140047b12f0017b1228047b1ce0017b1c30049517600495184004951920047b13e8017b13380450203601f8af82168004821788047b179001821798047b178001821790047b178801821778048218700482196804821a60047b17f8067b18f0067b19e8067b1ae0064921180749211007492108074921000748212007208318e006831a0007831b20073309ff33070a07821700078218080782191007821a180746211f0446211e0446211d0446211c0446211b0446211a044621190446211804462117044621160446211504462114044621130446211204462111044621100446210f0446210e0446210d0446210c0446210b0446210a0446210904462108044621070446210604462105044621040446210304462102044621010446210004781af8037819f0037818e8037817e00398ab38781bff0398ab30781bfe0398ab28781bfd0398ab20781bfc0398ab18781bfb0398ab10781bfa0398aa08781af903989a38781af703989a30781af603989a28781af503989a20781af403989a18781af303989a10781af2039899087819f1039889387819ef039889307819ee039889287819ed039889207819ec039889187819eb039889107819ea039888087818e9039878387818e7039878307818e6039878287818e5039878207818e4039878187818e3039878107818e2039877087817e1037b16780184671f9518e003c887077c78107b18d8007c78117b18b8007c78127b18c8007c78137b18c0007c78147b18f0007c78157b18d0007c78167b18e8007c78177b18e0007c78087b1818017c78097b18f8007c780a7b1808017c780b7b1800017c780c7b1830017c780d7b1810017c780e7b1828017c780f7b1820017c787b1858017c78017b1838017c78027b1848017c78037b1840017c78047b1870017c78057b1850017c78067b1868017c77077b17600133074033082050203801009b7c78117c79107c7a127c7b13978808d4980897aa1097bb18d4ba0ad4a8087c79157c7a147c7b167c7c17979908d4a90997bb1097cc18d4cb0bd4b909979920d489027c79017c7a7c7b027c7c03979908d4a90997bb1097cc18d4cb0bd4b9097c7a057c7b047c7c067c760797aa08d4ba0a97cc10976618d46c0cd4ca0a97aa20d4a9097c7a197c7b187c7c1a7c761b97aa08d4ba0a97cc10976618d46c0cd4ca0a7c7b1d7c7c1c7c761e7c781f97bb08d4cb0b976610978818d46808d4b808978820d48a0a7c78097c7b087c7c0a7c760b978808d4b80897cc10976618d46c0cd4c8087c7b0d7c7c0c7c760e7c770f97bb08d4cb0b976610977718d46707d4b707977720d487076f7b6faa6f986f277b1708027b181002d48707d4ba08d47808988820d4b707977720d487075207da0c64b683a73308207b1718027b1a000250203a01bb997b16b00082191002d469098218a800821a0002d88a08821a080294a8949846171f46171e46171d46171c46171b46171a46171946171846171746171646171546171446171346171246171146171046170f46170e46170d46170c46170b46170a4617094617084617074617064617054617044617036e461702bf004617015446072f51083f0c8216780198673d821a900197a803d48707976603886800018588018e79db790882178001977703821b880198b93dd4970798a93d97ba03d4a9098e9a8e76da7a06d49707da78068217b8009777088218d800d487078218c8009788108219c000979918d49808d487078218d0009788088219f000d498088219e800979910821ae00097aa18d4a909d49808978820d487077b1790018217f80097770882181801d487078218080197881082190001979918d49808d487078218100197880882193001d4980882192801979910821a200197aa18d4a909d49808978820d487077b1788018217380197770882185801d487078218480197881082194001979918d49808d487078218500197880882197001d4980882196801979910821a600197aa18d4a909d49808978820d487077b1780018217180283770433082050203c01f497821a8800787a108219800098983878780f98983078780e98982878780d98982078780c98981878780b98981078780a98980878780978790846170746170646170546170446170346170246170146078219900078791898a83878781798a83078781698a82878781598a82078781498a81878781398a81078781298a80878781198983878781f98983078781e98982878781d98982078781c98981878781b98981078781a9898087878190a0a821a8001946a8219900194698217880194676f779778206f99989920d498089877206fa9979a20d4a7079899207a1970067b1768067b1860064921980649219006492188064921800633082482161802646750203e01f0967b179001330820646750204001e1964821a006204921d8064921d0064921c8064921c00682169001976620986620821b9801d46b0b977720987720821c78d47c0c3308ff3309ff8217a000821a98000a01015207a5090a0c01330820ae87080a0c647801821a10028216080295871f7b180802d88708492110028488018477e082190002c879097b190002d87907c88606c87606d38609d88608da97088217b000c87808d87807c8a7077b1890017b178801d48707886801947851089c09330740330820502042012696821888016f88821990016f996f6a821b00026fbb787b1898bc38787c1f98bc30787c1e98bc28787c1d98bc20787c1c98bc18787c1b98bc10787c1a98bb08787b19787a1098ab38787b1798ab30787b1698ab28787b1598ab20787b1498ab18787b1398ab10787b1298aa08787a11787908989a38787a0f989a30787a0e989a28787a0d989a20787a0c989a18787a0b989a10787a0a9899087879097878988938787907988930787906988928787905988920787904988918787903988910787902988808821c10028ec9821a080288aa2085aa01dbc90a8ec98ecbdac90bd4cc09da9a0b787801510b4c0833082082171802502044012e957c78097c79087c7a0a7c7b0b978808d4980897aa1097bb18d4ba0ad4a8087c790d7c7a0c7c7b0e7c7c0f979908d4a90997bb1097cc18d4cb0bd4b909979920d489027c79017c7a7c7b027c7c03979908d4a90997bb1097cc18d4cb0bd4b9097c7a057c7b047c7c067c760797aa08d4ba0a97cc10976618d46c0cd4ca0a97aa20d4a9097c7a197c7b187c7c1a7c761b97aa08d4ba0a97cc10976618d46c0cd4ca0a7c7b1d7c7c1c7c761e7c781f97bb08d4cb0b976610978818d46808d4b808978820d48a0a7c78117c7b107c7c127c7613978808d4b80897cc10976618d46c0cd4c8087c7b157c7c147c76167c771797bb08d4cb0b976610977718d46707d4b707977720d487076f786fab88bb02948bd492086f88948b510b2407d49707d4a208d487078213e801821be0015107d5f5821768821a50d4a707821860821958d49808d48707987720d4a808978820d487077b1718028217f8017b176003492198034921900349218803492180038217f0017b1768037b1b70039517a00395188003951960037b137803502046010ea68217d8037b1710028217d0037b1708028217c8037b1700028216c0038217b8038218b0038219a803821aa0037b17f8067b18f0067b19e8067b1ae0064921180749211007492108074921000748212007208318e006831a0007831b20073309ff33070a0701821700078218080782191007821a180746215f0346215e0346215d0346215c0346215b0346215a034621590346215803462157034621560346215503462154034621530346215203462151034621500346214f0346214e0346214d0346214c0346214b0346214a0346214903462148034621470346214603462145034621440346214303462142034621410346214003781a380378193003781828037817200398ab38781b3f0398ab30781b3e0398ab28781b3d0398ab20781b3c0398ab18781b3b0398ab10781b3a0398aa08781a3903989a38781a3703989a30781a3603989a28781a3503989a20781a3403989a18781a3303989a10781a32039899087819310398893878192f0398893078192e0398892878192d0398892078192c0398891878192b0398891078192a039888087818290398783878182703987830781826039878287818250398782078182403987818781823039878107818220398770878172103821718025207d8047b16180284671f95182003c887077c78087b1818017c78097b18f8007c780a7b1808017c780b7b1800017c780c7b1830017c780d7b1810017c780e7b1828017c780f7b1820017c787b1858017c78017b1838017c78027b1848017c78037b1840017c78047b1870017c78057b1850017c78067b1868017c78077b1860017c78107b1890017c78117b1878017c78127b1888017c77137b1780013308208217285020480129917c78017c797c7a027c7b03978808d4980897aa1097bb18d4ba0ad4a8087c79057c7a047c7b067c7c07979908d4a90997bb1097cc18d4cb0bd4b909979920d489027c79097c7a087c7b0a7c7c0b979908d4a90997bb1097cc18d4cb0bd4b9097c7a0d7c7b0c7c7c0e7c760f97aa08d4ba0a97cc10976618d46c0cd4ca0a97aa20d4a9097c7a117c7b107c7c127c761397aa08d4ba0a97cc10976618d46c0cd4ca0a7c7b157c7c147c76167c781797bb08d4cb0b976610978818d46808d4b808978820d48a0a7c78197c7b187c7c1a7c761b978808d4b80897cc10976618d46c0cd4c8087c7b1d7c7c1c7c761e7c771f97bb08d4cb0b976610977718d46707d4b707977720d487076f776fa86f996f2a8213c001d33a0bd8a30a8214d801d8940cdbba0c8216c801d3680ad886088212d001d87207dba807d34908d4b808db8c075107d90398473b973805d4780098273b976905d47909972705821a48c8a707d8a70a821c40c8c909c8a909d3c90bd8c90cdaba0c986a3b974b05d4ba0a821b38c8ba0ad8ba0b821830c80808c8b808c8ac0cd8ac0ac8a808d49808d4c709d48909d4c808989920978820d498087b12d0017b16c8013302ff7b13c00152087302821a180298a83d821b000297b903d4890997a803888800018588018e9adb9a0898b93d821b080297ba03d4a90998ba3d821b100297bb03d4ba0a8eab8e9cdbab0cd4a909db9c088219f800979908821a1801d4a909821a080197aa10821b000197bb18d4ba0ad4a909821a100197aa08821b3001d4ba0a821b280197bb10821c200197cc18d4cb0bd4ba0a97aa20d4a909821a380197aa08821b5801d4ba0a821b480197bb10821c400197cc18d4cb0bd4ba0a821b500197bb08821c7001d4cb0b821c680197cc1082166001976618d46c0cd4cb0b97bb20d4ba0a821b780197bb08821c9001d4cb0b821c880197cc1082168001976618d46c0cd4cb0b84aaff8499ff821670d2b606948694897b191802948a7b1a1002837733082050204a01478e6f68821918026f99821a10026faa98ab38787b1f98ab30787b1e98ab28787b1d98ab20787b1c98ab18787b1b98ab10787b1a98ab08787b19787a1878791046170b46170a4617094617074617064617054617044617034617024617014607989a38787a17989a30787a16989a28787a15989a20787a14989a18787a13989a10787a1298990878791178780898893878790f98893078790e98892878790d98882078780c8218d0019588018887018219c801c879097b18d0017b19c801d498078877018218d801c88707d887088219c001c889097b19c00164748216f8018212f0018213e801821be001283eef821868821960821a58821b50283149213802492130024921280295174002951820024921200250204c01cddd821a5802821b50028219480282184002018217207b787b79087b7b107b7a189551c0f88210380782153007821628079511400732000050204e0131c13307330850205001e98c837833070133090a0d01492190024921880249218002140700000000717b484e951880027b179802330750205201f98c49217802492170024921600241330704951860024921680233005a0128d78c4921d0024921c8024921c002140700000000717b484e9518c0027b17d802330750205401b48c4921b8024921b0024921a002413307049518a0024921a80233005a0128928c492110054921080549210005140700000000717b484e951800057b1718053307502056016f8c4921f8044921f0044921e004113307049518e0044921e80433005a01284d8c492110034921080349210003140700000000717b484e951800037b1718033307502058012a8c4921f8024921f0024921e002323307049518e0024921e80250205a010c8c330824330750205c01c18b837833070133092433005e010a0d019511b07b10487b15407b1638828b10828a18828c0882857b1a287b1c20d4ac08d4b50ad48a0a98aa207b1b30d4b808978820d4a8087b1718520822018297187b178296108297087b170882977b1710835733082050206001588b82186f886f69821a086faa821b106fbb98bc38787c1f98bc30787c1e98bc28787c1d98bc20787c1c98bc18787c1b98bc10787c1a98bc08787c19787b18787a1098ab38787b1798ab30787b1698ab28787b1598ab20787b1498ab18787b1398ab10787b1298aa08787a11787908989a38787a0f989a30787a0e989a28787a0d989a20787a0c989a18787a0b989a10787a0a9899087879097878988938787907988930787906988928787905988920787904988918787903988910787902988808787801955720d85708821a20c88a09d8a90ada880a821830c88a0ad88a08821b28c8b808821b187bb77bb9087bba107bb818821048821540821638951150320000821770821878d4870782189800d46808d478089888207b1668d46707977720d487075207f5058216d8007b1680008217d0007b1790008217c8007b17608217c0007b1788008117980033082050206201058a6f68821990006f998216606f6a821b88006fbb98bc38787c1f98bc30787c1e98bc28787c1d98bc20787c1c98bc18787c1b98bc10787c1a98bc08787c19787b18787a1098ab38787b1798ab30787b1698ab28787b1598ab20787b1498ab18787b1398ab10787b1298aa08787a11787908989a38787a0f989a30787a0e989a28787a0d989a20787a0c989a18787a0b989a10787a0a989908787909787898893878790798893078790698892878790598892078790498891878790398891078790298880878780133082033075020640134898218406f888219486f99821a506faa821b586fbb98bc38787c1f98bc30787c1e98bc28787c1d98bc20787c1c98bc18787c1b98bc10787c1a98bc08787c19787b1898ab38787b1798ab30787b1698ab28787b1598ab20787b1498ab18787b1398ab10787b1298ab08787b11787a10989a38787a0f989a30787a0e989a28787a0d989a20787a0c989a18787a0b989a10787a0a989a08787a097879089889387879079889307879069889287879059889207879049889187879039889107879029889087879017878330820330750206601628883778319c0003308200a0801821898009587207b1750d88709821878c89804d8840ada990a821968c8a90082179000821a8800d47a0a82178000d4760bd4ab0bd8900a821370c83a0a510bb1031407e0ffffff00000000821b9800d8b7067b16408e8cda860c9a96c9c6087b18588e82d8c60c8e96c836069a66c9c6068e63da620364697b1648c9b7028218789a8c821840c98c0b7b1740d827068ebcdab60c821858d49806db630c94c295271fd8270694cbc86b02d8b20bda660b94c87b1858c8b8087b1808978b3b982605d4b60397223b987b05d42b067b163882188800888b01821260c9b2077b17209589ff7b19307b1328d3370bd83703d86907dbb3077b1710d4280b88bb0182179000d8b70382188000c93808c9b70782194894c9821b08821c58d8cb0cc8c90998b305979c3bd4c303989c05d83709d3c802d8c80bda290bd33706d42606821910da690bdabc087b189000dab307821820821928dab908821930821c38dabc09989b3b978c056483d4cb0b979c05821678c8b60682189800c88c0c7b1c60d88c0bc8b606821878d38602821878d8860cda2b0c8218d0007b18880098333b977b05d43b038218c8007b18800098773b82129000972205d4720b821968821270c8b202c89303d8930bc8b202c83c0cd83c0b821870c8b202821b6095b7207b1738d8b70bc8b6077b1730d86706dabb068217c000c8c6067b1628d8c60cc82c0c7b1c20821b78821cd8006f777b179000821780006f72821788006f777b1788006fc77b178000821350017b18607b195864b6821798007b17507b1a707b10687b14787b1398007b12487b12b000821788007b17a800821780007b17a000821790007b17b8004921d8004921d0004921c8004921c0004821e000208318a000831ac000831be0003309ff33070a0701821760821858d48707821840821950d8890894689478510873018217d0008218c8007b18588218c0007b186097772098762081179800330820502068018a856f688219586f99821a606faa98ab38787b1f98ab30787b1e98ab28787b1d98ab20787b1c98ab18787b1b98ab10787b1a98ab08787b19787a1878791046170b46170a4617094617074617064617054617044617034617024617014607989a38787a17989a30787a16989a28787a15989a20787a14989a18787a13989a10787a1298990878791178780898893878790f98893078790e98892878790d98882078780c8219800095990188970182188800c878087b1888007b198000d48907887b01821748c8b702d8720782189000c878087b18900082179800957320d873096476821b78c89b04d8b40ada990a821738d37606821968821c28d39c0cd46c0c821730d3b707821870821620d38606d47606c8a900d46c0cd8900ac88a0a520c41fe280682135001821b187bb37bb4087bb0107bba18955100ff8210f8008215f0008216e80095110001320000951100ff7b10f8007b15f0007b16e800951500018411f082897b19208289087b19108289107b19088288187b187b171833074033082050206a0103847c78017c797c7a027c7b03978808d4980897aa1097bb18d4ba0ad4a8087c79057c7a047c7b067c7c07979908d4a90997bb1097cc18d4cb0bd4b909979920d489027c79097c7a087c7b0a7c7c0b979908d4a90997bb1097cc18d4cb0bd4b9097c7a0d7c7b0c7c7c0e7c760f97aa08d4ba0a97cc10976618d46c0cd4ca0a97aa20d4a9097c7a117c7b107c7c127c761397aa08d4ba0a97cc10976618d46c0cd4ca0a7c7b157c7c147c76167c781797bb08d4cb0b976610978818d46808d4b808978820d48a0a7c78197c7b187c7c1a7c761b978808d4b80897cc10976618d46c0cd4c8087c7b1d7c7c1c7c761e7c771f97bb08d4cb0b976610977718d46707d4b707977720d487076f7b7b1b386fa66f997b19306f287b182882177b17b8008217087b17b0008217107b17a8008217207b17a0007b1898007b1990007b1688009517c0009518a000951980007b1b800033006c01951100ff7b10f8007b15f0007b16e800951500018411e07b171882961082977b1798008297187b17708297087b1778828b18828a1082890882877b1b407b1bb8007b1a487b1ab0007b19507b19a8007b17587b17a0004921d8004921d0004921c8004921c0004821e000208318a000831ac000831be0003309ff33070a0728dbf76464821ac8008217d8007b1710821bc0008213d000d36a0cd86a08821938d89b06dac608c94a0ac96a0a7b1a08c99b0b95bc1fd8bc0bc8ba0a84cce0c84a07c8c9097b1920d8c90cc8c702d3a207d8a209da7c09821630c96307d8630c6463821028821610c90606c9c606d8870cc9c606c98707821808d88a08dabb08c87808d87807c8380ac89a0cd88a08d8ac09c80606c86707c88707c897068e678ec8db6708d46c078e29db780952093801643b821738821820d87807d34208d84209da8709d83c07d30608d8060ada870ad33c07d48707da790a520a0b013307403308207b14107b12087b1c50206e0140816f6882196f99821a086faa821b206fbb787b1898bc38787c1f98bc30787c1e98bc28787c1d98bc20787c1c98bc18787c1b98bc10787c1a98bb08787b19787a1098ab38787b1798ab30787b1698ab28787b1598ab20787b1498ab18787b1398ab10787b1298aa08787a11787908989a38787a0f989a30787a0e989a28787a0d989a20787a0c989a18787a0b989a10787a0a98990878790978789889387879079889307879069889287879059889207879049889187879039889107879029888087878018217188218387b788218287b78188218107b78088218307b7810955100ff8210f8008215f0008216e800951100013200491170491168491160140700000000717b484e9518607b17783307502070016c804911584911504911404133070495184049114850207201538033082433075020740108808378330701330924330076010a0d019511a07b10587b15507b16489515608411f08289828a08828b1082881864767b18187b1b107b1a0895172064187b19502078018bfb821730821838821920821a287b67107b68187b697b6a089551a082105882155082164895116032007c78197c79187c7a1a7c7b1b978808d4980897aa1097bb18d4ba0ad4a8087c791d7c7a1c7c7b1e7c7c1f979908d4a90997bb1097cc18d4cb0bd4b909979920d489027c79117c7a107c7b127c7c13979908d4a90997bb1097cc18d4cb0bd4b9097c7a157c7b147c7c167c761797aa08d4ba0a97cc10976618d46c0cd4ca0a97aa20d4a9097c7a097c7b087c7c0a7c760b97aa08d4ba0a97cc10976618d46c0cd4ca0a7c7b0d7c7c0c7c760e7c780f97bb08d4cb0b976610978818d46808d4b808978820d48a0a7c78017c7b7c7c027c7603978808d4b80897cc10976618d46c0cd4c8087c7b057c7c047c76067c770797bb08d4cb0b976610977718d46707d4b707977720d487076f7b6faa6f996f26d4ba078868e0949894785108c509d4a607d4b908d48707987720d4a808978820d487075207a5099567207b178001d86707c879087b1898017b197801d89808da7708c8a8087b1890017b1a6801d8a8077b1b7001c8b7077b17880183673308207b17080150207c01237eff46171f5446171efb0046171d7b46171c7546171bfa0046171a810046171979461718d2004617173546171641461715e500461714bd00461713f700461712024617111d4617108a0046170f4346170e980046170dbb0046170ce80046170b2646170a6d4617099e00461708af00461707f300461706f1004617050e46170426461703dd004617023c461701b40082188001648a821b9001d4b80882199801821c8801d4c909d49808988820d4b909979920d498084607ef005208a5089567607b1718017b160001d8670782187801c87806d88608da770882176801c878087b181001d8780782187001c887077b17200183a73308207b17f80050207e01237dff46171f4046171e46171d46171c46171b46171a46171946171846171746171646171546171446171346171246171146171046170f46170e46170d46170c46170b46170a46170946170846170746170646170546170446170346170246170146077b168802821718017b178002821748017b17b802821750017b17b002821758017b17a802821760017b17a002821710017b1790029517c0029518a00295198002821a20017b1a9802502080019a858217900182188801d487071408e0ffffff0000000082198001d88908821998019498947851088b078217d8027b1798018217d0027b1790018217c8027b1788018216c0027b1680018217f800837720330820502082011c7cff82140001d8460282197801821c8801d39c0bd89c0a64c3dab20a821b680182189001c9b806d8b80b821c700182189801c9c80cc9bc0cd8a60bc9bc0c7b1c9801c9a600c9930a821b28016fb3821b30016fbc821b38016fb6821b40016fbbc92a0a98b8387b18300178781f82188001c9480498b8307b18280178781e82189801d48a0ad40408d4a808d40a0998ba287b1a1001787a1d988820979920d4980898b9207b19f80078791c98b9187b19e80078791b98b9107b19e00078791a98b9087b1938017879197b1b1801787b187876109869387b19d0007879179869307b19c8007879169869287b19c0007879159869207b19b8007879149869187b19b0007879139869107b19a8007879127b16d800986608787611787c0898c9387b19a00078790f98c9307b19980078790e98c9287b19900078790d98c9207b19880078790c98c9187b19800078790b98c9107b197878790a7b1c000198cc087b1c70787c0978739839387b19687879079839307b19607879069839287b19587879059839207b19507879049839187b19487879039839107b19407879027b1320019839087b19387879015208af057b16308348821708016446502084015f7aff4921f8024921f0024921e8024921e0024921180349211003492108034921000349213803ff49213003ff49212803ff49212003ff9519e002979920989920951a200397aa20d4a909977720987720976a20d47a0a951700039777201408ffffffff00000000d4870c3307ff3308ff330bff0a0901801710038218000382190803d4780ad49a0a510a14056f99989a206f88978b20d4ba0a9799206f77987720d49707988920492158027b1778017b174002492178024921700249216802492160027b1a107b1a480295176002951840027b1970017b1950025020860174b2831740030a05801750037b1708821748037b17821740037b176801330740330820502088015979ff7c78117c79107c7a127c7b13978808d4980897aa1097bb18d4ba0ad4a8087c79157c7a147c7b167c7c17979908d4a90997bb1097cc18d4cb0bd4b909979920d489027c79017c7a7c7b027c7c03979908d4a90997bb1097cc18d4cb0bd4b9097c7a057c7b047c7c067c760797aa08d4ba0a97cc10976618d46c0cd4ca0a97aa20d4a9097c7a197c7b187c7c1a7c761b97aa08d4ba0a97cc10976618d46c0cd4ca0a7c7b1d7c7c1c7c761e7c781f97bb08d4cb0b976610978818d46808d4b808978820d48a0a7c78097c7b087c7c0a7c760b978808d4b80897cc10976618d46c0cd4c8087c7b0d7c7c0c7c760e7c770f97bb08d4cb0b976610977718d46707d4b707977720d487076f7b6fa86f996f277b1798017b198801d497077b188001d4b808d478089888207b1b9001d4b707977720d4870752075f03821680019567407b1728d8670782189801c878097b1918d88908da770882179001c878087b1820d8780782188801c887077b17080183673308207b17400150208a01dc77ff46171f4046171e46171d46171c46171b46171a46171946171846171746171646171546171446171346171246171146171046170f46170e46170d46170c46170b46170a46170946170846170746170646170546170446170346170246170146078217187b17e8018217287b17e001821748017b171802821750017b171002821758017b170802821760017b1700028217207b17f00195172002951800029519e001821a08017b1af80150208c0152808217900182188801d487071408e0ffffff00000000d88608821998019498947851084702821738027b176001821730027b175801821728027b175001821620028217400183772033082050208e01dc76ff8218d8007878108218a00078780f8218980078780e8218900078780d8218880078780c8218800078780b82187878780a82187078780982180001787808821868787807821860787806821858787805821850787804821848787803821840787802821838787801821820017878821818017878188218d0007878178218c8007878168218c0007878158218b8007878148218b0007878138218a8007878128218307878118218300178781f8218280178781e8218100178781d8218f80078781c8218e80078781b8218e00078781a821280016463d8260882169801821b5001d36b09d86b0a64b4da980a821b9001821c5801c9bc09d8bc00821c8801821b6001c9cb0cc90c0cd8a90bc9bc0cc9a909c9640ac98a0ac92306d4ca0ad49608d4a808d4a909988820979920d49808821938017879195208e200821768016f7797772082186f88988920d497077b1790019788208217086f77987720d487077b17880183687b18980182174001502090016a75ff3a082000023a092800023a0a3000023a0b3800027b1878037b1970037b1a68037b1b6003821888016f88821990016f99821a680197aa207b1a8803492180037b1990037b189803821870016f888216106f69821a78016faa7b1ab8037b19b0034921a0037b18a803837983176003330803821a98010a068217f000491718821870017b78107b7608821878017b78955120fc8210d8038215d0038216c8039511e00332000050209201fca84921d0014921c8014921c001140700000000717b484e9518c0017b17d801330750209401d874ff4921b8014921b0014921a001413307049518a0014921a80150209601b974ff3308243307502098016d74ff83783307013309240a0d330733009a01288975ff330750209a018375ff33070150209c017975ff9511807b10787b15707b1668951580008411f08282828308828410828818829a829b08829c1082991864767b19187b1c107b1b087b1a7b18387b14307b132895174095182064197b122050209e0149e8821750821858821940821a487b67107b68187b697b6a0895518082107882157082166895118000320049489220248414d249525252a22a2529499224499224499224499224499224499224499224494a4a43222449928490244992244992244992244929a9494a124948922449922449922425499224499224499224499224499224499224499224499254254992ac506a15aa86845aa14a93244908499224499224499224490a49a29a40201048444424495202811092249224298988884444440949252125499224499224499224499224499224499224499224499224499224499224495295a4949224498490340920492a929412929024499224499224494a9224499224499224499224499224499224499224499224a94a922459a15449a14a9394244922a91252922449922449922449922449922449922449922449922449922449922449922455494a69444492229224494489a4884a88442489249124499224499224492449922449922449124992244992244992a4244992244992242921922449922449922449922429922449922429499224499244522489249244222a2a51a2440920113122224954444444244a8848242a2291481289442291482412892449922449922489442211252449922449922449241289442291482492244992a448224924912449922449124924924824121111111151144554128988684444920821d2880092a422222222221111912429111111112122528944229124244992244992244992922449922449922449922449922449922449922449922449aa922449244992244929498824499224499224499224494a92442291482292848888242549922449922449b242a955a8d22425a98888484a92244989442211111122223522224992244992440a29a59424499224499224499224499224499224294992244992148a1411519524499224499224494a1211114544001185249284144ad224a99224a91449922449922449922449922449922449922449922449922449922449922449922449922449922449922449922449922449922449922449922449922449922449922449499224499224499224a92a4949528a8848922449924844441291844824a28888888888881011a98892244992a4482a914892244992244992244992244992244992244992244992244992244992244992244992244992244992244992242549922449922449922449522529111151a194262949924492249594509524499224499224499294244992244992244992a449922442881411912449222222292949444444448888545292244948922449922449922425499224499224499224499224499224499224499224499254254992ac506a29544a29499224499224499224499224499224495292244992242994d224492549922449a942298d8888444444232292440811111121128944929024499224499224494a9224499224499224499224499224499224499224499224a94a92249124499224a5242192244992244992244992242949128944228948122222929424499224499224c90aa556a14a5385525a9224499294a48888489224254948922449922449922449922449922449922449922449922449529224499224499254254992244992244992244952494a244992489242955292244992244992244992244992244992a42449922449929224898888920490142491244841493449524a9224499224494a529224490049419294200525d188884892a44489249124924892244924929248248a44221111114144449224491229412249244992244944129124892492245192244992245192244992244a922449922451922449922429a98848922449922422012480244964442292449288d288244945444492a8488a4412114924518248224992249144922449929224499224499424499224519224499224899224499224494944144949924444440b4a8d8800220a224222821494b422111191a49224499224254992244925892449924452a4464452449224499224499224499224499224492249922489a222229224499224128944444444444444902480249588442249141191244992a4888868450a4ad188884844443422224984888888101111444444442449922489888848229128128944114924254992044992244992244992a4244992244992244992244992244992244992244992244992aa24499215945a0a2aa594244992244992244992244992244992242949922449921494a2494a524992a42449924892244992a49220294992244992244992244992244992a428059124499224499224499224499200922a922049922422222222222222928888884849922449529224699224499024499224499224494a9224499224499224499224499224499224499224499224a994d22449922425950429354993a5a0144d52922489a49220499288882422894444244924491291529a24494a92248924499224492a09929224499224499224499224499224498a52104992244992244992244992240920a9220992248988888888888888242222222252922449929424491a1111499292a444229188880811911a11491149128924924824128948244925128944241211910822918844229148444444448888549224529224492a49241289044110044110040144041011218400222222222222222222222222222222222222222222222222912449922449922449922449922449922449922449922449922449499224499224499244229148242291442291482422914422129188888888888888888888888888888888888888888888244992244992244992244992244992244992244992244992242549922449922449a554952449922449924824121111114945444411114044414448449082926844442429499224921889449220499224499224499294244992244992244992244992244992244992244992244952952449922849102192248024952449922449922449922491929224254992a0949224499224499224499292244992244992244929294949924444444452901484888848024824912409204924498d4655264992244992244992a44882944a4992244992244992244992244992244992922449922429492a492209922449922449922449922449922449922425499224499224499224499224495229492a121111894444228822914812244992244992244992922449922449922449922449922449922449922449922449aa922449a4a42449492a0821848888941211911289882215111125419224499224499224294992244992244992244992244992244992244992244992a42a494992444a82244992244992244992240911922449922422222288884812244992244992244992922449922449922449922449922449922449922449922449aa92942449a4244892244992244992244992102149922449222222828888494a922449922449926405a54644001105112111410a4a5a0a4ad124a988884892a444499224499224499244444404111149922449940429a59424499224499224499224499224499224294992244992a424492222a2910490284822499082926892929424499294244992500555526a4444a424492222221124499124491211114992244992244912920a2a2549921411114d124052904492200525d188884892922449924492242525484a92244992244992244992244992244992244992244992244992244992244992a44a4992244992284992244992244992244992244952928888682401240a924812a4a0249aa42449124992545282aa244992244992244992a4244992244992244992248d88884844925445440410914412012429224922120124458a22264922492492442249922222222222222222828888888888888888880811918a8888888888888888888888888888888888888848241289442291482412894422914824128944229148241289482491482412894422914824128944a248241289442291044992244992244992a4244992244992244992244992244992244992244992244992aa88244992542282880410894a92244992244992244992089124124922251249924a12894422492412892449442291481289442249129148249244229148924424412492244992244992242992244992244992244992244551544a52928888884814440a424444249124924434695223229148124992449288a42409a2a828499224499224499224499224499224495292244992248a2495244922489224499224499224254992244992244992244992244992244992244992244992544a25492222892491449244241111898888888808aa228a489288242291489224499224455144449224490288942262922449249244224992928888888888888888202222222222222222224244a42222222222222222222222222222222222222222128944229148241289442291482412894422914824128944221249241289442291482412894422912812894422914824419224499224499224294992244992244992244992244992244992244992244992a42a224992442522884844a29224499224499224499224422422912452229124a92491482492442291489244241289249148249224118944224924128924494412442249922449922449922249922449922449922449521445a52425898888884441a42044444412499224a2d1a4462412492492248924114991045154942449922449922449922449922449922429499224491245924a9248044992244992244992a42449922449922449922449922449922449922449922449924aa94812114992244922222222222222828888888888888888880811911a1111111111111111111111111111111111111191482412894422914824128944229148241289442291482412119148229148241289449148241289442291482492202549922449922449922449922449922449922449922449922449922449922449521549249144922492244992244992244992244992442422124922259124924a12894422492412892449241289249148249224914824922449455182a22849922449922449922429499224499224499244128948228944111149922222228288882949444434a8a0d4880820a2202224221211014414448444442222808882889088484404105110111211a4a0249a24494a9224491229492941955292244992244992244992244992244992a4244992244992244992a42449d2249124492222221211098a52942449922449922449922449922449922429499224499214a49452922449922449922449922449922449922449922449925250a491244992884492240288a49494524a494a9292a4a424254992249124499224492492942449922449924892244949124992248948129148922449922449924892248a288a229322492211111111111122223549928a88449248504a4992244992244992244949922449922449922492484492241291942449922449922451a6241111d188884849929424484992244992244992244992244992244992244992244992244992244992244992944a291289444444444444442429922449894422111111222295221291244992244992244952922449922449925452a22449922449244941955292244992244992244992244992244992a4244992244992922489888892049014249124484149344992929424152449529224254992244992244992244992244992244992244992244992242949922449922449aa928a2449128924224944225122102122840811218488102184881042880811a248449224118948248944225122104992244992244992244992141111111111111111114424804854444444444412884424252289489248a2288a9248249148924492249248228944924822892492482291249144124924912491a42449922449922492448a0211111111218410492449120920491a1149949294242222221211114114892292409224499224499224294992244992244992244992244992244992244992244992a42a229124924424892489249128118824499224499224499224494a242222222212111111442480444544444444128844229148244922499224499244914824128944924824128944a2442425228948922449922491885249242551442084102222a228121111a52822a2481489248a8888061111404481889088400a9454448104922452929294a424490992242949120100"
				},
				"methodIdentifiers": {
					"allMultiSigs(uint256)": "449092c8",
					"createMultiSig(address[],uint256)": "d46a09f1",
					"getAllMultiSigs()": "8274bf68",
					"getMyMultiSigs(address)": "382af14e",
					"registerExistingMultisig(address)": "0daee90f"
				}
			},
			"hash": "25de0b4381590bc324f0fba850849e15cb37ece3c318770b981035029fd80595",
			"factoryDependencies": {
				"efb43cdd260ef1f3af9e6d26e8bb98438a1d02f7bde54135d27981fa757bfb54": "ReviveMultisig.sol:MultiSigWallet"
			}
		}
	}
}